{
  "_format": "hh-sol-artifact-1",
  "contractName": "ACL",
  "sourceName": "@aragon/os/contracts/acl/ACL.sol",
  "abi": [
    {
      "constant": true,
      "inputs": [],
      "name": "hasInitialized",
      "outputs": [
        {
          "name": "",
          "type": "bool"
        }
      ],
      "payable": false,
      "stateMutability": "view",
      "type": "function"
    },
    {
      "constant": false,
      "inputs": [
        {
          "name": "_app",
          "type": "address"
        },
        {
          "name": "_role",
          "type": "bytes32"
        }
      ],
      "name": "createBurnedPermission",
      "outputs": [],
      "payable": false,
      "stateMutability": "nonpayable",
      "type": "function"
    },
    {
      "constant": false,
      "inputs": [
        {
          "name": "_app",
          "type": "address"
        },
        {
          "name": "_role",
          "type": "bytes32"
        }
      ],
      "name": "burnPermissionManager",
      "outputs": [],
      "payable": false,
      "stateMutability": "nonpayable",
      "type": "function"
    },
    {
      "constant": false,
      "inputs": [
        {
          "name": "_entity",
          "type": "address"
        },
        {
          "name": "_app",
          "type": "address"
        },
        {
          "name": "_role",
          "type": "bytes32"
        }
      ],
      "name": "grantPermission",
      "outputs": [],
      "payable": false,
      "stateMutability": "nonpayable",
      "type": "function"
    },
    {
      "constant": true,
      "inputs": [
        {
          "name": "_entity",
          "type": "address"
        },
        {
          "name": "_app",
          "type": "address"
        },
        {
          "name": "_role",
          "type": "bytes32"
        }
      ],
      "name": "getPermissionParamsLength",
      "outputs": [
        {
          "name": "",
          "type": "uint256"
        }
      ],
      "payable": false,
      "stateMutability": "view",
      "type": "function"
    },
    {
      "constant": true,
      "inputs": [
        {
          "name": "_paramsHash",
          "type": "bytes32"
        },
        {
          "name": "_who",
          "type": "address"
        },
        {
          "name": "_where",
          "type": "address"
        },
        {
          "name": "_what",
          "type": "bytes32"
        },
        {
          "name": "_how",
          "type": "uint256[]"
        }
      ],
      "name": "evalParams",
      "outputs": [
        {
          "name": "",
          "type": "bool"
        }
      ],
      "payable": false,
      "stateMutability": "view",
      "type": "function"
    },
    {
      "constant": true,
      "inputs": [],
      "name": "NO_PERMISSION",
      "outputs": [
        {
          "name": "",
          "type": "bytes32"
        }
      ],
      "payable": false,
      "stateMutability": "view",
      "type": "function"
    },
    {
      "constant": true,
      "inputs": [
        {
          "name": "_script",
          "type": "bytes"
        }
      ],
      "name": "getEVMScriptExecutor",
      "outputs": [
        {
          "name": "",
          "type": "address"
        }
      ],
      "payable": false,
      "stateMutability": "view",
      "type": "function"
    },
    {
      "constant": true,
      "inputs": [],
      "name": "getRecoveryVault",
      "outputs": [
        {
          "name": "",
          "type": "address"
        }
      ],
      "payable": false,
      "stateMutability": "view",
      "type": "function"
    },
    {
      "constant": true,
      "inputs": [],
      "name": "CREATE_PERMISSIONS_ROLE",
      "outputs": [
        {
          "name": "",
          "type": "bytes32"
        }
      ],
      "payable": false,
      "stateMutability": "view",
      "type": "function"
    },
    {
      "constant": false,
      "inputs": [
        {
          "name": "_entity",
          "type": "address"
        },
        {
          "name": "_app",
          "type": "address"
        },
        {
          "name": "_role",
          "type": "bytes32"
        },
        {
          "name": "_params",
          "type": "uint256[]"
        }
      ],
      "name": "grantPermissionP",
      "outputs": [],
      "payable": false,
      "stateMutability": "nonpayable",
      "type": "function"
    },
    {
      "constant": true,
      "inputs": [
        {
          "name": "_who",
          "type": "address"
        },
        {
          "name": "_where",
          "type": "address"
        },
        {
          "name": "_what",
          "type": "bytes32"
        }
      ],
      "name": "hasPermission",
      "outputs": [
        {
          "name": "",
          "type": "bool"
        }
      ],
      "payable": false,
      "stateMutability": "view",
      "type": "function"
    },
    {
      "constant": true,
      "inputs": [
        {
          "name": "token",
          "type": "address"
        }
      ],
      "name": "allowRecoverability",
      "outputs": [
        {
          "name": "",
          "type": "bool"
        }
      ],
      "payable": false,
      "stateMutability": "view",
      "type": "function"
    },
    {
      "constant": true,
      "inputs": [],
      "name": "appId",
      "outputs": [
        {
          "name": "",
          "type": "bytes32"
        }
      ],
      "payable": false,
      "stateMutability": "view",
      "type": "function"
    },
    {
      "constant": true,
      "inputs": [],
      "name": "getInitializationBlock",
      "outputs": [
        {
          "name": "",
          "type": "uint256"
        }
      ],
      "payable": false,
      "stateMutability": "view",
      "type": "function"
    },
    {
      "constant": false,
      "inputs": [
        {
          "name": "_entity",
          "type": "address"
        },
        {
          "name": "_app",
          "type": "address"
        },
        {
          "name": "_role",
          "type": "bytes32"
        }
      ],
      "name": "revokePermission",
      "outputs": [],
      "payable": false,
      "stateMutability": "nonpayable",
      "type": "function"
    },
    {
      "constant": false,
      "inputs": [
        {
          "name": "_token",
          "type": "address"
        }
      ],
      "name": "transferToVault",
      "outputs": [],
      "payable": false,
      "stateMutability": "nonpayable",
      "type": "function"
    },
    {
      "constant": true,
      "inputs": [
        {
          "name": "_entity",
          "type": "address"
        },
        {
          "name": "_app",
          "type": "address"
        },
        {
          "name": "_role",
          "type": "bytes32"
        },
        {
          "name": "_index",
          "type": "uint256"
        }
      ],
      "name": "getPermissionParam",
      "outputs": [
        {
          "name": "",
          "type": "uint8"
        },
        {
          "name": "",
          "type": "uint8"
        },
        {
          "name": "",
          "type": "uint240"
        }
      ],
      "payable": false,
      "stateMutability": "view",
      "type": "function"
    },
    {
      "constant": true,
      "inputs": [
        {
          "name": "_sender",
          "type": "address"
        },
        {
          "name": "_role",
          "type": "bytes32"
        },
        {
          "name": "_params",
          "type": "uint256[]"
        }
      ],
      "name": "canPerform",
      "outputs": [
        {
          "name": "",
          "type": "bool"
        }
      ],
      "payable": false,
      "stateMutability": "view",
      "type": "function"
    },
    {
      "constant": true,
      "inputs": [],
      "name": "getEVMScriptRegistry",
      "outputs": [
        {
          "name": "",
          "type": "address"
        }
      ],
      "payable": false,
      "stateMutability": "view",
      "type": "function"
    },
    {
      "constant": true,
      "inputs": [],
      "name": "ANY_ENTITY",
      "outputs": [
        {
          "name": "",
          "type": "address"
        }
      ],
      "payable": false,
      "stateMutability": "view",
      "type": "function"
    },
    {
      "constant": false,
      "inputs": [
        {
          "name": "_app",
          "type": "address"
        },
        {
          "name": "_role",
          "type": "bytes32"
        }
      ],
      "name": "removePermissionManager",
      "outputs": [],
      "payable": false,
      "stateMutability": "nonpayable",
      "type": "function"
    },
    {
      "constant": false,
      "inputs": [
        {
          "name": "_newManager",
          "type": "address"
        },
        {
          "name": "_app",
          "type": "address"
        },
        {
          "name": "_role",
          "type": "bytes32"
        }
      ],
      "name": "setPermissionManager",
      "outputs": [],
      "payable": false,
      "stateMutability": "nonpayable",
      "type": "function"
    },
    {
      "constant": true,
      "inputs": [
        {
          "name": "_app",
          "type": "address"
        },
        {
          "name": "_role",
          "type": "bytes32"
        }
      ],
      "name": "getPermissionManager",
      "outputs": [
        {
          "name": "",
          "type": "address"
        }
      ],
      "payable": false,
      "stateMutability": "view",
      "type": "function"
    },
    {
      "constant": false,
      "inputs": [
        {
          "name": "_entity",
          "type": "address"
        },
        {
          "name": "_app",
          "type": "address"
        },
        {
          "name": "_role",
          "type": "bytes32"
        },
        {
          "name": "_manager",
          "type": "address"
        }
      ],
      "name": "createPermission",
      "outputs": [],
      "payable": false,
      "stateMutability": "nonpayable",
      "type": "function"
    },
    {
      "constant": false,
      "inputs": [
        {
          "name": "_permissionsCreator",
          "type": "address"
        }
      ],
      "name": "initialize",
      "outputs": [],
      "payable": false,
      "stateMutability": "nonpayable",
      "type": "function"
    },
    {
      "constant": true,
      "inputs": [],
      "name": "EMPTY_PARAM_HASH",
      "outputs": [
        {
          "name": "",
          "type": "bytes32"
        }
      ],
      "payable": false,
      "stateMutability": "view",
      "type": "function"
    },
    {
      "constant": true,
      "inputs": [],
      "name": "kernel",
      "outputs": [
        {
          "name": "",
          "type": "address"
        }
      ],
      "payable": false,
      "stateMutability": "view",
      "type": "function"
    },
    {
      "constant": true,
      "inputs": [],
      "name": "isPetrified",
      "outputs": [
        {
          "name": "",
          "type": "bool"
        }
      ],
      "payable": false,
      "stateMutability": "view",
      "type": "function"
    },
    {
      "constant": true,
      "inputs": [],
      "name": "BURN_ENTITY",
      "outputs": [
        {
          "name": "",
          "type": "address"
        }
      ],
      "payable": false,
      "stateMutability": "view",
      "type": "function"
    },
    {
      "constant": true,
      "inputs": [
        {
          "name": "_who",
          "type": "address"
        },
        {
          "name": "_where",
          "type": "address"
        },
        {
          "name": "_what",
          "type": "bytes32"
        },
        {
          "name": "_how",
          "type": "uint256[]"
        }
      ],
      "name": "hasPermission",
      "outputs": [
        {
          "name": "",
          "type": "bool"
        }
      ],
      "payable": false,
      "stateMutability": "view",
      "type": "function"
    },
    {
      "constant": true,
      "inputs": [
        {
          "name": "_who",
          "type": "address"
        },
        {
          "name": "_where",
          "type": "address"
        },
        {
          "name": "_what",
          "type": "bytes32"
        },
        {
          "name": "_how",
          "type": "bytes"
        }
      ],
      "name": "hasPermission",
      "outputs": [
        {
          "name": "",
          "type": "bool"
        }
      ],
      "payable": false,
      "stateMutability": "view",
      "type": "function"
    },
    {
      "anonymous": false,
      "inputs": [
        {
          "indexed": true,
          "name": "entity",
          "type": "address"
        },
        {
          "indexed": true,
          "name": "app",
          "type": "address"
        },
        {
          "indexed": true,
          "name": "role",
          "type": "bytes32"
        },
        {
          "indexed": false,
          "name": "allowed",
          "type": "bool"
        }
      ],
      "name": "SetPermission",
      "type": "event"
    },
    {
      "anonymous": false,
      "inputs": [
        {
          "indexed": true,
          "name": "entity",
          "type": "address"
        },
        {
          "indexed": true,
          "name": "app",
          "type": "address"
        },
        {
          "indexed": true,
          "name": "role",
          "type": "bytes32"
        },
        {
          "indexed": false,
          "name": "paramsHash",
          "type": "bytes32"
        }
      ],
      "name": "SetPermissionParams",
      "type": "event"
    },
    {
      "anonymous": false,
      "inputs": [
        {
          "indexed": true,
          "name": "app",
          "type": "address"
        },
        {
          "indexed": true,
          "name": "role",
          "type": "bytes32"
        },
        {
          "indexed": true,
          "name": "manager",
          "type": "address"
        }
      ],
      "name": "ChangePermissionManager",
      "type": "event"
    },
    {
      "anonymous": false,
      "inputs": [
        {
          "indexed": true,
          "name": "executor",
          "type": "address"
        },
        {
          "indexed": false,
          "name": "script",
          "type": "bytes"
        },
        {
          "indexed": false,
          "name": "input",
          "type": "bytes"
        },
        {
          "indexed": false,
          "name": "returnData",
          "type": "bytes"
        }
      ],
      "name": "ScriptResult",
      "type": "event"
    },
    {
      "anonymous": false,
      "inputs": [
        {
          "indexed": true,
          "name": "vault",
          "type": "address"
        },
        {
          "indexed": true,
          "name": "token",
          "type": "address"
        },
        {
          "indexed": false,
          "name": "amount",
          "type": "uint256"
        }
      ],
      "name": "RecoverToVault",
      "type": "event"
    }
  ],
  "bytecode": "0x6080604052620000146200001a60201b60201c565b62000231565b6200002a6200011c60201b60201c565b60408051808201909152601881527f494e49545f414c52454144595f494e495449414c495a454400000000000000006020820152901562000106576040517f08c379a00000000000000000000000000000000000000000000000000000000081526004018080602001828103825283818151815260200191508051906020019080838360005b83811015620000ca578181015183820152602001620000b0565b50505050905090810190601f168015620000f85780820380516001836020036101000a031916815260200191505b509250505060405180910390fd5b506200011a6000196200014f60201b60201c565b565b60006200014a6000805160206200292383398151915260001b600019166200022960201b62001e001760201c565b905090565b6200015f6200011c60201b60201c565b60408051808201909152601881527f494e49545f414c52454144595f494e495449414c495a4544000000000000000060208201529015620001fe576040517f08c379a000000000000000000000000000000000000000000000000000000000815260040180806020018281038252838181518152602001915080519060200190808383600083811015620000ca578181015183820152602001620000b0565b506200022660008051602062002923833981519152826200022d602090811b6200262317901c565b50565b5490565b9055565b6126e280620002416000396000f3006080604052600436106101795760003560e01c63ffffffff1680630803fac01461017e5780630808343e146101a757806309699ff5146101cd5780630a8ed3db146101f157806315949ed71461021b5780631b5e75be146102575780631d63ff2b146102cc5780632914b9bd146102e157806332f0a3b5146103565780633d6ab68f1461036b5780636815c992146103805780636d6712d8146103f45780637e7db6e11461041e57806380afdea81461043f5780638b3dd749146104545780639d0effdb146104695780639d4941d814610493578063a03c5832146104b4578063a1658fad1461050e578063a479e50814610575578063a5ed8bf81461058a578063a885508a1461059f578063afd925df146105c3578063b1905727146105ed578063be03847814610611578063c4d66de814610642578063c513f66e14610663578063d4aae0c414610678578063de4796ed1461068d578063f516bc0e146106a2578063f520b58d146106b7578063fdef91061461072b575b600080fd5b34801561018a57600080fd5b5061019361079a565b604080519115158252519081900360200190f35b3480156101b357600080fd5b506101cb600160a060020a03600435166024356107c3565b005b3480156101d957600080fd5b506101cb600160a060020a036004351660243561096a565b3480156101fd57600080fd5b506101cb600160a060020a0360043581169060243516604435610a06565b34801561022757600080fd5b50610245600160a060020a0360043581169060243516604435610a42565b60408051918252519081900360200190f35b34801561026357600080fd5b5060408051602060046084358181013583810280860185019096528085526101939583359560248035600160a060020a039081169760443590911696606435963696919560a495949091019282919085019084908082843750949750610a849650505050505050565b3480156102d857600080fd5b50610245610abf565b3480156102ed57600080fd5b506040805160206004803580820135601f810184900484028501840190955284845261033a943694929360249392840191908190840183828082843750949750610ac49650505050505050565b60408051600160a060020a039092168252519081900360200190f35b34801561036257600080fd5b5061033a610ba7565b34801561037757600080fd5b50610245610c1c565b34801561038c57600080fd5b5060408051606435600481810135602081810285810182019096528185526101cb95600160a060020a0384358116966024803590921696604435963696909560849593949290920192909182919085019084908082843750949750610c2e9650505050505050565b34801561040057600080fd5b50610193600160a060020a0360043581169060243516604435610cf7565b34801561042a57600080fd5b50610193600160a060020a0360043516610d1e565b34801561044b57600080fd5b50610245610d24565b34801561046057600080fd5b50610245610d54565b34801561047557600080fd5b506101cb600160a060020a0360043581169060243516604435610d7f565b34801561049f57600080fd5b506101cb600160a060020a0360043516610e16565b3480156104c057600080fd5b506104e1600160a060020a03600435811690602435166044356064356110a5565b6040805160ff9485168152929093166020830152600160f060020a03168183015290519081900360600190f35b34801561051a57600080fd5b506040805160206004604435818101358381028086018501909652808552610193958335600160a060020a03169560248035963696956064959394920192918291850190849080828437509497506111239650505050505050565b34801561058157600080fd5b5061033a61126e565b34801561059657600080fd5b5061033a611323565b3480156105ab57600080fd5b506101cb600160a060020a0360043516602435611329565b3480156105cf57600080fd5b506101cb600160a060020a03600435811690602435166044356113bf565b3480156105f957600080fd5b5061033a600160a060020a0360043516602435611454565b34801561061d57600080fd5b506101cb600160a060020a036004358116906024358116906044359060643516611485565b34801561064e57600080fd5b506101cb600160a060020a03600435166115e7565b34801561066f57600080fd5b50610245611732565b34801561068457600080fd5b5061033a611744565b34801561069957600080fd5b5061019361176f565b3480156106ae57600080fd5b5061033a611782565b3480156106c357600080fd5b50604080516064356004818101356020818102858101820190965281855261019395600160a060020a03843581169660248035909216966044359636969095608495939492909201929091829190850190849080828437509497506117879650505050505050565b34801561073757600080fd5b50604080516020601f60643560048181013592830184900484028501840190955281845261019394600160a060020a03813581169560248035909216956044359536956084940191819084018382808284375094975061182b9650505050505050565b6000806107a5610d54565b905080158015906107bd5750806107ba611841565b10155b91505090565b60408051600080825260208201909252600080516020612677833981519152916107f39133918491905b50611123565b60408051808201909152600f81527f4150505f415554485f4641494c4544000000000000000000000000000000000060208201529015156108b55760405160e560020a62461bcd0281526004018080602001828103825283818151815260200191508051906020019080838360005b8381101561087a578181015183820152602001610862565b50505050905090810190601f1680156108a75780820380516001836020036101000a031916815260200191505b509250505060405180910390fd5b50828260006108c48383611454565b600160a060020a0316146040805190810160405280601481526020017f41434c5f4558495354454e545f4d414e414745520000000000000000000000008152509015156109565760405160e560020a62461bcd0281526004018080602001828103825283818151815260200191508051906020019080838360008381101561087a578181015183820152602001610862565b5061096360018686611845565b5050505050565b81816109768282611454565b6040805180820190915260138152600080516020612697833981519152602082015290600160a060020a031633146109f35760405160e560020a62461bcd0281526004018080602001828103825283818151815260200191508051906020019080838360008381101561087a578181015183820152602001610862565b50610a0060018585611845565b50505050565b610a3d8383836000604051908082528060200260200182016040528015610a37578160200160208202803883390190505b50610c2e565b505050565b600060016000806000610a568888886118c4565b81526020808201929092526040908101600090812054845291830193909352910190205490505b9392505050565b6000600080516020612657833981519152861415610aa457506001610ab6565b610ab38660008787878761198f565b90505b95945050505050565b600081565b6000610ace61126e565b600160a060020a03166304bf2a7f836040518263ffffffff1660e01b81526004018080602001828103825283818151815260200191508051906020019080838360005b83811015610b29578181015183820152602001610b11565b50505050905090810190601f168015610b565780820380516001836020036101000a031916815260200191505b5092505050602060405180830381600087803b158015610b7557600080fd5b505af1158015610b89573d6000803e3d6000fd5b505050506040513d6020811015610b9f57600080fd5b505192915050565b6000610bb1611744565b600160a060020a03166332f0a3b56040518163ffffffff1660e01b8152600401602060405180830381600087803b158015610beb57600080fd5b505af1158015610bff573d6000803e3d6000fd5b505050506040513d6020811015610c1557600080fd5b5051905090565b60008051602061267783398151915281565b60008383610c3c8282611454565b6040805180820190915260138152600080516020612697833981519152602082015290600160a060020a03163314610cb95760405160e560020a62461bcd0281526004018080602001828103825283818151815260200191508051906020019080838360008381101561087a578181015183820152602001610862565b506000845111610cd757600080516020612657833981519152610ce0565b610ce084611b7c565b9250610cee87878786611d1e565b50505050505050565b60408051600080825260208201909252610d1385858584611787565b91505b509392505050565b50600190565b6000610d4f7fd625496217aa6a3453eecb9c3489dc5a53e6c67b444329ea2b2cbc9ff547639b611e00565b905090565b6000610d4f7febb05b386a8d34882b8711d156f463690983dc47815980fb82aeeff1aa43579e611e00565b8181610d8b8282611454565b6040805180820190915260138152600080516020612697833981519152602082015290600160a060020a03163314610e085760405160e560020a62461bcd0281526004018080602001828103825283818151815260200191508051906020019080838360008381101561087a578181015183820152602001610862565b506109638585856000611d1e565b6000806000610e2484610d1e565b60408051808201909152601281527f5245434f5645525f444953414c4c4f57454400000000000000000000000000006020820152901515610eaa5760405160e560020a62461bcd0281526004018080602001828103825283818151815260200191508051906020019080838360008381101561087a578181015183820152602001610862565b50610eb3610ba7565b9250610ebe83611e08565b60408051808201909152601a81527f5245434f5645525f5641554c545f4e4f545f434f4e54524143540000000000006020820152901515610f445760405160e560020a62461bcd0281526004018080602001828103825283818151815260200191508051906020019080838360008381101561087a578181015183820152602001610862565b50600160a060020a0384161515610f955760405130319250600160a060020a0384169083156108fc029084906000818181858888f19350505050158015610f8f573d6000803e3d6000fd5b50611054565b5082610fb0600160a060020a0382163063ffffffff611e3516565b9150610fcc600160a060020a038216848463ffffffff611f3516565b60408051808201909152601d81527f5245434f5645525f544f4b454e5f5452414e534645525f4641494c454400000060208201529015156110525760405160e560020a62461bcd0281526004018080602001828103825283818151815260200191508051906020019080838360008381101561087a578181015183820152602001610862565b505b83600160a060020a031683600160a060020a03167f596caf56044b55fb8c4ca640089bbc2b63cae3e978b851f5745cbb7c5b288e02846040518082815260200191505060405180910390a350505050565b600080600080600160008060006110bd8c8c8c6118c4565b81526020808201929092526040908101600090812054845291830193909352910190208054869081106110ec57fe5b60009182526020909120015460ff8082169a6101008304909116995062010000909104600160f060020a0316975095505050505050565b60008061112e61079a565b151561113d5760009150610d16565b611145611744565b9050600160a060020a03811615156111605760009150610d16565b80600160a060020a031663fdef910686308761117b88611fa2565b60405163ffffffff861660e01b8152600160a060020a03808616600483019081529085166024830152604482018490526080606483019081528351608484015283519192909160a490910190602085019080838360005b838110156111ea5781810151838201526020016111d2565b50505050905090810190601f1680156112175780820380516001836020036101000a031916815260200191505b5095505050505050602060405180830381600087803b15801561123957600080fd5b505af115801561124d573d6000803e3d6000fd5b505050506040513d602081101561126357600080fd5b505195945050505050565b600080611279611744565b604080517fbe00bbd80000000000000000000000000000000000000000000000000000000081527fd6f028ca0e8edb4a8c9757ca4fdccab25fa1e0317da1188108f7d2dee14902fb60048201527fddbcfd564f642ab5627cf68b9b7d374fb4f8a36e941a75d89c87998cef03bd6160248201529051600160a060020a03929092169163be00bbd8916044808201926020929091908290030181600087803b158015610b7557600080fd5b60001981565b81816113358282611454565b6040805180820190915260138152600080516020612697833981519152602082015290600160a060020a031633146113b25760405160e560020a62461bcd0281526004018080602001828103825283818151815260200191508051906020019080838360008381101561087a578181015183820152602001610862565b50610a0060008585611845565b81816113cb8282611454565b6040805180820190915260138152600080516020612697833981519152602082015290600160a060020a031633146114485760405160e560020a62461bcd0281526004018080602001828103825283818151815260200191508051906020019080838360008381101561087a578181015183820152602001610862565b50610963858585611845565b6000600260006114648585611fac565b8152602081019190915260400160002054600160a060020a03169392505050565b60408051600080825260208201909252600080516020612677833981519152916114b39133918491906107ed565b60408051808201909152600f81527f4150505f415554485f4641494c4544000000000000000000000000000000000060208201529015156115395760405160e560020a62461bcd0281526004018080602001828103825283818151815260200191508051906020019080838360008381101561087a578181015183820152602001610862565b50838360006115488383611454565b600160a060020a0316146040805190810160405280601481526020017f41434c5f4558495354454e545f4d414e414745520000000000000000000000008152509015156115da5760405160e560020a62461bcd0281526004018080602001828103825283818151815260200191508051906020019080838360008381101561087a578181015183820152602001610862565b50610cee87878787612069565b6115ef610d54565b60408051808201909152601881527f494e49545f414c52454144595f494e495449414c495a45440000000000000000602082015290156116745760405160e560020a62461bcd0281526004018080602001828103825283818151815260200191508051906020019080838360008381101561087a578181015183820152602001610862565b5061167d61208e565b611685611744565b60408051808201909152601481527f41434c5f415554485f494e49545f4b45524e454c000000000000000000000000602082015290600160a060020a031633146117145760405160e560020a62461bcd0281526004018080602001828103825283818151815260200191508051906020019080838360008381101561087a578181015183820152602001610862565b5061172f813060008051602061267783398151915282612069565b50565b60008051602061265783398151915281565b6000610d4f7f4172f0f7d2289153072b0a6ca36959e0cbe2efc3afe50fc81636caa96338137b611e00565b600060001961177c610d54565b14905090565b600181565b600080600080600061179a8989896118c4565b8152602081019190915260400160002054915081158015906117c457506117c48288888888610a84565b156117d25760019250611821565b6000806117e260001989896118c4565b81526020810191909152604001600020549050801580159061180e575061180e81600019888888610a84565b1561181c5760019250611821565b600092505b5050949350505050565b6000610ab685858561183c86612156565b611787565b4390565b82600260006118548585611fac565b8152602081019190915260409081016000908120805473ffffffffffffffffffffffffffffffffffffffff1916600160a060020a039485161790559051858316928492908616917ff3addc8b8e25ee11528a61b0e65092cae0666ef0ec0c64cb303993c88d689b4d9190a4505050565b604080517f5045524d495353494f4e00000000000000000000000000000000000000000000602080830191909152600160a060020a03808716606090811b602a850152908616901b603e8301526052808301859052835180840390910181526072909201928390528151600093918291908401908083835b6020831061195b5780518252601f19909201916020918201910161193c565b5181516020939093036101000a60001901801990911692169190911790526040519201829003909120979650505050505050565b6000611999612636565b600088815260016020526040812054819063ffffffff8a16106119bf5760009350611b6f565b60008a8152600160205260409020805463ffffffff8b169081106119df57fe5b600091825260209182902060408051606081018252929091015460ff808216808552610100830490911694840194909452620100009004600160f060020a031690820152935060cc1415611a4257611a3b838b8a8a8a8a612200565b9350611b6f565b5060408201518251600160f060020a039091169060ff1660cb1415611a8e57611a728360400151898989896123a5565b611a7d576000611a80565b60015b60ff16915060019050611b1e565b825160ff1660c81415611aaa57611aa3611841565b9150611b1e565b825160ff1660c91415611abf57611aa36124d7565b825160ff1660cd1415611ae1578260400151600160f060020a03169150611b1e565b8451835160ff1610611af65760009350611b6f565b82518551869160ff16908110611b0857fe5b90602001906020020151600160f060020a031691505b6007836020015160ff16600c811115611b3357fe5b600c811115611b3e57fe5b1415611b4f57600082119350611b6f565b611b6c82846020015160ff16600c811115611b6657fe5b836124db565b93505b5050509695505050505050565b6000806000806000611b8c612636565b8660405160200180828051906020019060200280838360005b83811015611bbd578181015183820152602001611ba5565b505050509050019150506040516020818303038152906040526040518082805190602001908083835b60208310611c055780518252601f199092019160209182019101611be6565b51815160209384036101000a6000190180199092169116179052604080519290940182900390912060008181526001909252929020805492995097505015159150611d13905057600092505b8651831015611d13578683815181101515611c6857fe5b906020019060200201519150606060405190810160405280611c8984612598565b60ff168152602001611c9a8461259e565b60ff9081168252600160f060020a03858116602093840152875460018082018a5560008a815285902086519201805495870151604088015160ff199097169386169390931761ff00191661010093909516929092029390931761ffff166201000094909216939093021790915593909301929050611c51565b509295945050505050565b60008082600080611d308989896118c4565b81526020810191909152604001600020558215801592508290611d6157506000805160206126578339815191528314155b60408051841515815290519192508591600160a060020a0380891692908a16917f759b9a74d5354b5801710a0c1b283cc9f0d32b607ac8ced10c83ac8e75c77d529181900360200190a48015611df8576040805184815290518591600160a060020a0380891692908a16917f8dfee25d92d73b8c9b868f9fa3e215cc1981033f426e53803e3da4f09a2cfc30919081900360200190a45b505050505050565b5490565b5490565b600080600160a060020a0383161515611e245760009150611e2f565b823b90506000811191505b50919050565b60408051600160a060020a038316602480830191909152825180830390910181526044909101909152602081018051600160e060020a03167f70a08231000000000000000000000000000000000000000000000000000000001790526000908180611ea086846125a4565b60408051808201909152601c81527f534146455f4552435f32305f42414c414e43455f52455645525445440000000060208201529193509150821515611f2b5760405160e560020a62461bcd0281526004018080602001828103825283818151815260200191508051906020019080838360008381101561087a578181015183820152602001610862565b5095945050505050565b60408051600160a060020a03841660248201526044808201849052825180830390910181526064909101909152602081018051600160e060020a03167fa9059cbb00000000000000000000000000000000000000000000000000000000179052600090610d1385826125d5565b8051602002815290565b604080517f524f4c4500000000000000000000000000000000000000000000000000000000602080830191909152600160a060020a03851660601b60248301526038808301859052835180840390910181526058909201928390528151600093918291908401908083835b602083106120365780518252601f199092019160209182019101612017565b5181516020939093036101000a600019018019909116921691909117905260405192018290039091209695505050505050565b612083848484600080516020612657833981519152611d1e565b610a00818484611845565b612096610d54565b60408051808201909152601881527f494e49545f414c52454144595f494e495449414c495a454400000000000000006020820152901561211b5760405160e560020a62461bcd0281526004018080602001828103825283818151815260200191508051906020019080838360008381101561087a578181015183820152602001610862565b50612154612127611841565b7febb05b386a8d34882b8711d156f463690983dc47815980fb82aeeff1aa43579e9063ffffffff61262316565b565b606060006020835181151561216757fe5b049050806020028351146040805190810160405280601a81526020017f434f4e56455253494f4e5f494d50524f5045525f4c454e4754480000000000008152509015156121f95760405160e560020a62461bcd0281526004018080602001828103825283818151815260200191508051906020019080838360008381101561087a578181015183820152602001610862565b5082525090565b60008080808080808080600c8f6020015160ff16600c81111561221f57fe5b600c81111561222a57fe5b141561227e576122468f60400151600160f060020a0316612627565b9199509750955061225b8e898f8f8f8f61198f565b94506122778e8661226c578761226e565b885b8f8f8f8f61198f565b9850612393565b6122948f60400151600160f060020a0316612627565b5090945092506122a88e858f8f8f8f61198f565b915060088f6020015160ff16600c8111156122bf57fe5b600c8111156122ca57fe5b14156122d95781159850612393565b8180156123035750600a8f6020015160ff16600c8111156122f657fe5b600c81111561230157fe5b145b156123115760019850612393565b8115801561233c575060098f6020015160ff16600c81111561232f57fe5b600c81111561233a57fe5b145b1561234a5760009850612393565b6123588e848f8f8f8f61198f565b9050600b8f6020015160ff16600c81111561236f57fe5b600c81111561237a57fe5b141561238f5780151582151514159850612393565b8098505b50505050505050509695505050505050565b604051600160a060020a0385811660248301908152908516604483015260648201849052608060848301908152835160a484015283516000937f2a151090000000000000000000000000000000000000000000000000000000009360609386938493849388938e938e938e938e939092909160c40190602080860191028083838d5b8381101561243f578181015183820152602001612427565b505050509050019550505050505060405160208183030381529060405290600160e060020a031916602082018051600160e060020a03838183161783525050505093506000808551602087018e5afa92508215156124a057600095506124c9565b3d9150602082146124b457600095506124c9565b604051826000823e8051915060008152508095505b505050505095945050505050565b4290565b6000600183600c8111156124eb57fe5b14156124fa5750828114610a7d565b600283600c81111561250857fe5b1415612518575082811415610a7d565b600383600c81111561252657fe5b14156125355750808311610a7d565b600483600c81111561254357fe5b14156125525750808310610a7d565b600583600c81111561256057fe5b1415612570575080831015610a7d565b600683600c81111561257e57fe5b141561258e575080831115610a7d565b5060009392505050565b60f81c90565b60f01c90565b6000806000806040516020818751602089018a5afa925060008311156125c957805191505b50909590945092505050565b6000806040516020818551602087016000895af16000811115612619573d8015612606576020811461260f57612617565b60019350612617565b600183511493505b505b5090949350505050565b9055565b90602082901c90604083901c90565b6040805160608101825260008082526020820181905291810191909152905600290decd9548b62a8d60345a988386fc84ba6bc95484008f6362f93160ef3e5630b719b33c83b8e5d300c521cb8b54ae9bd933996a14bef8c2f4e0285d2d2400a41434c5f415554485f4e4f5f4d414e4147455200000000000000000000000000a165627a7a72305820a4da4c95d7d8c2b1c741084cecd9cefb85a88288abb05b15d0c83f20377359050029ebb05b386a8d34882b8711d156f463690983dc47815980fb82aeeff1aa43579e",
  "linkReferences": {},
  "deployedLinkReferences": {}
}