{
  "_format": "hh-sol-artifact-1",
  "contractName": "LegacyOracle",
  "sourceName": "contracts/0.4.24/oracle/LegacyOracle.sol",
  "abi": [
    {
      "constant": true,
      "inputs": [],
      "name": "hasInitialized",
      "outputs": [
        {
          "name": "",
          "type": "bool"
        }
      ],
      "payable": false,
      "stateMutability": "view",
      "type": "function"
    },
    {
      "constant": true,
      "inputs": [],
      "name": "getVersion",
      "outputs": [
        {
          "name": "",
          "type": "uint256"
        }
      ],
      "payable": false,
      "stateMutability": "view",
      "type": "function"
    },
    {
      "constant": true,
      "inputs": [
        {
          "name": "_script",
          "type": "bytes"
        }
      ],
      "name": "getEVMScriptExecutor",
      "outputs": [
        {
          "name": "",
          "type": "address"
        }
      ],
      "payable": false,
      "stateMutability": "view",
      "type": "function"
    },
    {
      "constant": true,
      "inputs": [],
      "name": "getRecoveryVault",
      "outputs": [
        {
          "name": "",
          "type": "address"
        }
      ],
      "payable": false,
      "stateMutability": "view",
      "type": "function"
    },
    {
      "constant": false,
      "inputs": [
        {
          "name": "_catalistLocator",
          "type": "address"
        },
        {
          "name": "_accountingOracleConsensusContract",
          "type": "address"
        }
      ],
      "name": "initialize",
      "outputs": [],
      "payable": false,
      "stateMutability": "nonpayable",
      "type": "function"
    },
    {
      "constant": false,
      "inputs": [
        {
          "name": "_accountingOracle",
          "type": "address"
        }
      ],
      "name": "finalizeUpgrade_v4",
      "outputs": [],
      "payable": false,
      "stateMutability": "nonpayable",
      "type": "function"
    },
    {
      "constant": true,
      "inputs": [],
      "name": "getLastCompletedReportDelta",
      "outputs": [
        {
          "name": "postTotalPooledAce",
          "type": "uint256"
        },
        {
          "name": "preTotalPooledAce",
          "type": "uint256"
        },
        {
          "name": "timeElapsed",
          "type": "uint256"
        }
      ],
      "payable": false,
      "stateMutability": "view",
      "type": "function"
    },
    {
      "constant": true,
      "inputs": [],
      "name": "getCurrentFrame",
      "outputs": [
        {
          "name": "frameEpochId",
          "type": "uint256"
        },
        {
          "name": "frameStartTime",
          "type": "uint256"
        },
        {
          "name": "frameEndTime",
          "type": "uint256"
        }
      ],
      "payable": false,
      "stateMutability": "view",
      "type": "function"
    },
    {
      "constant": true,
      "inputs": [
        {
          "name": "token",
          "type": "address"
        }
      ],
      "name": "allowRecoverability",
      "outputs": [
        {
          "name": "",
          "type": "bool"
        }
      ],
      "payable": false,
      "stateMutability": "view",
      "type": "function"
    },
    {
      "constant": true,
      "inputs": [],
      "name": "appId",
      "outputs": [
        {
          "name": "",
          "type": "bytes32"
        }
      ],
      "payable": false,
      "stateMutability": "view",
      "type": "function"
    },
    {
      "constant": true,
      "inputs": [],
      "name": "getCatalist",
      "outputs": [
        {
          "name": "",
          "type": "address"
        }
      ],
      "payable": false,
      "stateMutability": "view",
      "type": "function"
    },
    {
      "constant": false,
      "inputs": [
        {
          "name": "",
          "type": "uint256"
        },
        {
          "name": "timeElapsed",
          "type": "uint256"
        },
        {
          "name": "",
          "type": "uint256"
        },
        {
          "name": "preTotalAce",
          "type": "uint256"
        },
        {
          "name": "postTotalShares",
          "type": "uint256"
        },
        {
          "name": "postTotalAce",
          "type": "uint256"
        },
        {
          "name": "",
          "type": "uint256"
        }
      ],
      "name": "handlePostTokenRebase",
      "outputs": [],
      "payable": false,
      "stateMutability": "nonpayable",
      "type": "function"
    },
    {
      "constant": true,
      "inputs": [],
      "name": "getLastCompletedEpochId",
      "outputs": [
        {
          "name": "",
          "type": "uint256"
        }
      ],
      "payable": false,
      "stateMutability": "view",
      "type": "function"
    },
    {
      "constant": true,
      "inputs": [],
      "name": "getContractVersion",
      "outputs": [
        {
          "name": "",
          "type": "uint256"
        }
      ],
      "payable": false,
      "stateMutability": "view",
      "type": "function"
    },
    {
      "constant": true,
      "inputs": [],
      "name": "getInitializationBlock",
      "outputs": [
        {
          "name": "",
          "type": "uint256"
        }
      ],
      "payable": false,
      "stateMutability": "view",
      "type": "function"
    },
    {
      "constant": false,
      "inputs": [
        {
          "name": "_refSlot",
          "type": "uint256"
        },
        {
          "name": "_clBalance",
          "type": "uint256"
        },
        {
          "name": "_clValidators",
          "type": "uint256"
        }
      ],
      "name": "handleConsensusLayerReport",
      "outputs": [],
      "payable": false,
      "stateMutability": "nonpayable",
      "type": "function"
    },
    {
      "constant": false,
      "inputs": [
        {
          "name": "_token",
          "type": "address"
        }
      ],
      "name": "transferToVault",
      "outputs": [],
      "payable": false,
      "stateMutability": "nonpayable",
      "type": "function"
    },
    {
      "constant": true,
      "inputs": [],
      "name": "getAccountingOracle",
      "outputs": [
        {
          "name": "",
          "type": "address"
        }
      ],
      "payable": false,
      "stateMutability": "view",
      "type": "function"
    },
    {
      "constant": true,
      "inputs": [
        {
          "name": "_sender",
          "type": "address"
        },
        {
          "name": "_role",
          "type": "bytes32"
        },
        {
          "name": "_params",
          "type": "uint256[]"
        }
      ],
      "name": "canPerform",
      "outputs": [
        {
          "name": "",
          "type": "bool"
        }
      ],
      "payable": false,
      "stateMutability": "view",
      "type": "function"
    },
    {
      "constant": true,
      "inputs": [],
      "name": "getCurrentEpochId",
      "outputs": [
        {
          "name": "",
          "type": "uint256"
        }
      ],
      "payable": false,
      "stateMutability": "view",
      "type": "function"
    },
    {
      "constant": true,
      "inputs": [],
      "name": "getEVMScriptRegistry",
      "outputs": [
        {
          "name": "",
          "type": "address"
        }
      ],
      "payable": false,
      "stateMutability": "view",
      "type": "function"
    },
    {
      "constant": true,
      "inputs": [],
      "name": "kernel",
      "outputs": [
        {
          "name": "",
          "type": "address"
        }
      ],
      "payable": false,
      "stateMutability": "view",
      "type": "function"
    },
    {
      "constant": true,
      "inputs": [],
      "name": "isPetrified",
      "outputs": [
        {
          "name": "",
          "type": "bool"
        }
      ],
      "payable": false,
      "stateMutability": "view",
      "type": "function"
    },
    {
      "constant": true,
      "inputs": [],
      "name": "getBeaconSpec",
      "outputs": [
        {
          "name": "epochsPerFrame",
          "type": "uint64"
        },
        {
          "name": "slotsPerEpoch",
          "type": "uint64"
        },
        {
          "name": "secondsPerSlot",
          "type": "uint64"
        },
        {
          "name": "genesisTime",
          "type": "uint64"
        }
      ],
      "payable": false,
      "stateMutability": "view",
      "type": "function"
    },
    {
      "anonymous": false,
      "inputs": [
        {
          "indexed": false,
          "name": "epochId",
          "type": "uint256"
        },
        {
          "indexed": false,
          "name": "beaconBalance",
          "type": "uint128"
        },
        {
          "indexed": false,
          "name": "beaconValidators",
          "type": "uint128"
        }
      ],
      "name": "Completed",
      "type": "event"
    },
    {
      "anonymous": false,
      "inputs": [
        {
          "indexed": false,
          "name": "postTotalPooledAce",
          "type": "uint256"
        },
        {
          "indexed": false,
          "name": "preTotalPooledAce",
          "type": "uint256"
        },
        {
          "indexed": false,
          "name": "timeElapsed",
          "type": "uint256"
        },
        {
          "indexed": false,
          "name": "totalShares",
          "type": "uint256"
        }
      ],
      "name": "PostTotalShares",
      "type": "event"
    },
    {
      "anonymous": false,
      "inputs": [
        {
          "indexed": true,
          "name": "executor",
          "type": "address"
        },
        {
          "indexed": false,
          "name": "script",
          "type": "bytes"
        },
        {
          "indexed": false,
          "name": "input",
          "type": "bytes"
        },
        {
          "indexed": false,
          "name": "returnData",
          "type": "bytes"
        }
      ],
      "name": "ScriptResult",
      "type": "event"
    },
    {
      "anonymous": false,
      "inputs": [
        {
          "indexed": true,
          "name": "vault",
          "type": "address"
        },
        {
          "indexed": true,
          "name": "token",
          "type": "address"
        },
        {
          "indexed": false,
          "name": "amount",
          "type": "uint256"
        }
      ],
      "name": "RecoverToVault",
      "type": "event"
    },
    {
      "anonymous": false,
      "inputs": [
        {
          "indexed": false,
          "name": "version",
          "type": "uint256"
        }
      ],
      "name": "ContractVersionSet",
      "type": "event"
    }
  ],
  "bytecode": "0x608060408190527f636174616c6973742e56657273696f6e65642e636f6e7472616374566572736990527f6f6e00000000000000000000000000000000000000000000000000000000000060a052620000877ff812f8d799ea071b4ecf0f6612f1129571268aad3c9d7f3535c25db1f88757726000196200009d602090811b6200180117901c565b62000097620000a160201b60201c565b620002b4565b9055565b620000b1620001a360201b60201c565b60408051808201909152601881527f494e49545f414c52454144595f494e495449414c495a45440000000000000000602082015290156200018d576040517f08c379a00000000000000000000000000000000000000000000000000000000081526004018080602001828103825283818151815260200191508051906020019080838360005b838110156200015157818101518382015260200162000137565b50505050905090810190601f1680156200017f5780820380516001836020036101000a031916815260200191505b509250505060405180910390fd5b50620001a1600019620001d660201b60201c565b565b6000620001d16000805160206200257d83398151915260001b60001916620002b060201b620017fd1760201c565b905090565b620001e6620001a360201b60201c565b60408051808201909152601881527f494e49545f414c52454144595f494e495449414c495a454400000000000000006020820152901562000285576040517f08c379a0000000000000000000000000000000000000000000000000000000008152600401808060200182810382528381815181526020019150805190602001908083836000838110156200015157818101518382015260200162000137565b50620002ad6000805160206200257d833981519152826200009d602090811b6200180117901c565b50565b5490565b6122b980620002c46000396000f3006080604052600436106101215760003560e01c63ffffffff1680630803fac0146101265780630d8e6e2c1461014f5780632914b9bd1461017657806332f0a3b5146101eb578063485cc955146102005780634a5d23bb14610229578063534649c41461024a57806372f79b131461027d5780637e7db6e11461029257806380afdea8146102b357806387b536c1146102c857806389136ec0146102dd57806389896aef146103075780638aa104351461031c5780638b3dd7491461033157806391d2247c146103465780639d4941d814610364578063a096704c14610385578063a1658fad1461039a578063a29a839f14610401578063a479e50814610416578063d4aae0c41461042b578063de4796ed14610440578063e547c77c14610455575b600080fd5b34801561013257600080fd5b5061013b61049f565b604080519115158252519081900360200190f35b34801561015b57600080fd5b506101646104c8565b60408051918252519081900360200190f35b34801561018257600080fd5b506040805160206004803580820135601f81018490048402850184019095528484526101cf9436949293602493928401919081908401838280828437509497506104d79650505050505050565b60408051600160a060020a039092168252519081900360200190f35b3480156101f757600080fd5b506101cf6105ba565b34801561020c57600080fd5b50610227600160a060020a036004358116906024351661062f565b005b34801561023557600080fd5b50610227600160a060020a0360043516610953565b34801561025657600080fd5b5061025f610b77565b60408051938452602084019290925282820152519081900360600190f35b34801561028957600080fd5b5061025f610cae565b34801561029e57600080fd5b5061013b600160a060020a0360043516610cc6565b3480156102bf57600080fd5b50610164610ccc565b3480156102d457600080fd5b506101cf610cf7565b3480156102e957600080fd5b5061022760043560243560443560643560843560a43560c435610d35565b34801561031357600080fd5b50610164610f24565b34801561032857600080fd5b50610164610f88565b34801561033d57600080fd5b50610164610fec565b34801561035257600080fd5b50610227600435602435604435611017565b34801561037057600080fd5b50610227600160a060020a0360043516611168565b34801561039157600080fd5b506101cf6113f7565b3480156103a657600080fd5b50604080516020600460443581810135838102808601850190965280855261013b958335600160a060020a031695602480359636969560649593949201929182918501908490808284375094975061145b9650505050505050565b34801561040d57600080fd5b506101646115a8565b34801561042257600080fd5b506101cf6115f9565b34801561043757600080fd5b506101cf6116ae565b34801561044c57600080fd5b5061013b6116d9565b34801561046157600080fd5b5061046a6116ec565b6040805167ffffffffffffffff9586168152938516602085015291841683830152909216606082015290519081900360800190f35b6000806104aa610fec565b905080158015906104c25750806104bf611798565b10155b91505090565b60006104d2610f88565b905090565b60006104e16115f9565b600160a060020a03166304bf2a7f836040518263ffffffff1660e01b81526004018080602001828103825283818151815260200191508051906020019080838360005b8381101561053c578181015183820152602001610524565b50505050905090810190601f1680156105695780820380516001836020036101000a031916815260200191505b5092505050602060405180830381600087803b15801561058857600080fd5b505af115801561059c573d6000803e3d6000fd5b505050506040513d60208110156105b257600080fd5b505192915050565b60006105c46116ae565b600160a060020a03166332f0a3b56040518163ffffffff1660e01b8152600401602060405180830381600087803b1580156105fe57600080fd5b505af1158015610612573d6000803e3d6000fd5b505050506040513d602081101561062857600080fd5b5051905090565b6000610639610fec565b60408051808201909152601881527f494e49545f414c52454144595f494e495449414c495a45440000000000000000602082015290156106fa5760405160e560020a62461bcd0281526004018080602001828103825283818151815260200191508051906020019080838360005b838110156106bf5781810151838201526020016106a7565b50505050905090810190601f1680156106ec5780820380516001836020036101000a031916815260200191505b509250505060405180910390fd5b50610705600061179c565b604080517f636174616c6973742e436174616c6973744f7261636c652e636f6e747261637481527f56657273696f6e0000000000000000000000000000000000000000000000000060208201529051908190036027019020610766906117fd565b156107bb576040805160e560020a62461bcd02815260206004820152601260248201527f57524f4e475f424153455f56455253494f4e0000000000000000000000000000604482015290519081900360640190fd5b600160a060020a038316151561081b576040805160e560020a62461bcd02815260206004820152601460248201527f5a45524f5f4c4f4341544f525f41444452455353000000000000000000000000604482015290519081900360640190fd5b8290506108c681600160a060020a031663dfcf5ac06040518163ffffffff1660e01b8152600401602060405180830381600087803b15801561085c57600080fd5b505af1158015610870573d6000803e3d6000fd5b505050506040513d602081101561088657600080fd5b5051604080517f636174616c6973742e436174616c6973744f7261636c652e636174616c697374815290519081900360200190209063ffffffff61180116565b61093581600160a060020a0316635a2031f96040518163ffffffff1660e01b8152600401602060405180830381600087803b15801561090457600080fd5b505af1158015610918573d6000803e3d6000fd5b505050506040513d602081101561092e57600080fd5b5051611805565b61094661094183611940565b611a7d565b61094e611cde565b505050565b600061095d612266565b610965612266565b604080517f636174616c6973742e436174616c6973744f7261636c652e636f6e747261637481527f56657273696f6e00000000000000000000000000000000000000000000000000602082015290519081900360270190206109c6906117fd565b600314610a1d576040805160e560020a62461bcd02815260206004820152601260248201527f57524f4e475f424153455f56455253494f4e0000000000000000000000000000604482015290519081900360640190fd5b610a27600061179c565b83600160a060020a0316638f55b5716040518163ffffffff1660e01b8152600401602060405180830381600087803b158015610a6257600080fd5b505af1158015610a76573d6000803e3d6000fd5b505050506040513d6020811015610a8c57600080fd5b50519250610a9984611805565b610aa1611da6565b9150610aac83611940565b9050806020015167ffffffffffffffff16826020015167ffffffffffffffff16148015610af45750806040015167ffffffffffffffff16826040015167ffffffffffffffff16145b8015610b1b5750806060015167ffffffffffffffff16826060015167ffffffffffffffff16145b1515610b71576040805160e560020a62461bcd02815260206004820152601560248201527f554e45585045435445445f434841494e5f535045430000000000000000000000604482015290519081900360640190fd5b50505050565b604080517f636174616c6973742e436174616c6973744f7261636c652e706f7374436f6d7081527f6c65746564546f74616c506f6f6c6564416365000000000000000000000000006020820152905190819003603301902060009081908190610bdf906117fd565b604080517f636174616c6973742e436174616c6973744f7261636c652e707265436f6d706c81527f65746564546f74616c506f6f6c6564416365000000000000000000000000000060208201529051908190036032019020909350610c43906117fd565b604080517f636174616c6973742e436174616c6973744f7261636c652e74696d65456c617081527f736564000000000000000000000000000000000000000000000000000000000060208201529051908190036023019020909250610ca7906117fd565b9050909192565b6000806000610cbb611e45565b925092509250909192565b50600190565b60006104d27fd625496217aa6a3453eecb9c3489dc5a53e6c67b444329ea2b2cbc9ff547639b6117fd565b604080517f636174616c6973742e436174616c6973744f7261636c652e636174616c697374815290519081900360200190206000906104d2906117fd565b610d3d610cf7565b600160a060020a03163314610d9c576040805160e560020a62461bcd02815260206004820152601260248201527f53454e4445525f4e4f545f414c4c4f5745440000000000000000000000000000604482015290519081900360640190fd5b604080517f636174616c6973742e436174616c6973744f7261636c652e707265436f6d706c81527f65746564546f74616c506f6f6c6564416365000000000000000000000000000060208201529051908190036032019020610e04908563ffffffff61180116565b604080517f636174616c6973742e436174616c6973744f7261636c652e706f7374436f6d7081527f6c65746564546f74616c506f6f6c65644163650000000000000000000000000060208201529051908190036033019020610e6c908363ffffffff61180116565b604080517f636174616c6973742e436174616c6973744f7261636c652e74696d65456c617081527f736564000000000000000000000000000000000000000000000000000000000060208201529051908190036023019020610ed4908763ffffffff61180116565b60408051838152602081018690528082018890526060810185905290517fdafd48d1eba2a416b2aca45e9ead3ad18b84e868fa6d2e1a3048bfd37ed10a329181900360800190a150505050505050565b604080517f636174616c6973742e436174616c6973744f7261636c652e6c617374436f6d7081527f6c6574656445706f6368496400000000000000000000000000000000000000006020820152905190819003602c0190206000906104d2906117fd565b604080517f636174616c6973742e56657273696f6e65642e636f6e7472616374566572736981527f6f6e000000000000000000000000000000000000000000000000000000000000602082015290519081900360220190206000906104d2906117fd565b60006104d27febb05b386a8d34882b8711d156f463690983dc47815980fb82aeeff1aa43579e6117fd565b60006110216113f7565b600160a060020a03163314611080576040805160e560020a62461bcd02815260206004820152601260248201527f53454e4445525f4e4f545f414c4c4f5745440000000000000000000000000000604482015290519081900360640190fd5b611088611da6565b6020015167ffffffffffffffff16846001018115156110a357fe5b604080517f636174616c6973742e436174616c6973744f7261636c652e6c617374436f6d7081527f6c6574656445706f6368496400000000000000000000000000000000000000006020820152905190819003602c0190209190049150611110908263ffffffff61180116565b604080518281526fffffffffffffffffffffffffffffffff808616602083015284168183015290517f95423529aa0b2867e02676b0bb4766cde576fb31ea77056f683bc236c7c15f9d9181900360600190a150505050565b600080600061117684610cc6565b60408051808201909152601281527f5245434f5645525f444953414c4c4f574544000000000000000000000000000060208201529015156111fc5760405160e560020a62461bcd028152600401808060200182810382528381815181526020019150805190602001908083836000838110156106bf5781810151838201526020016106a7565b506112056105ba565b925061121083611f2a565b60408051808201909152601a81527f5245434f5645525f5641554c545f4e4f545f434f4e545241435400000000000060208201529015156112965760405160e560020a62461bcd028152600401808060200182810382528381815181526020019150805190602001908083836000838110156106bf5781810151838201526020016106a7565b50600160a060020a03841615156112e75760405130319250600160a060020a0384169083156108fc029084906000818181858888f193505050501580156112e1573d6000803e3d6000fd5b506113a6565b5082611302600160a060020a0382163063ffffffff611f5716565b915061131e600160a060020a038216848463ffffffff61206c16565b60408051808201909152601d81527f5245434f5645525f544f4b454e5f5452414e534645525f4641494c454400000060208201529015156113a45760405160e560020a62461bcd028152600401808060200182810382528381815181526020019150805190602001908083836000838110156106bf5781810151838201526020016106a7565b505b83600160a060020a031683600160a060020a03167f596caf56044b55fb8c4ca640089bbc2b63cae3e978b851f5745cbb7c5b288e02846040518082815260200191505060405180910390a350505050565b604080517f636174616c6973742e436174616c6973744f7261636c652e6163636f756e746981527f6e674f7261636c65000000000000000000000000000000000000000000000000602082015290519081900360280190206000906104d2906117fd565b60008061146661049f565b151561147557600091506115a0565b61147d6116ae565b9050600160a060020a038116151561149857600091506115a0565b80600160a060020a031663fdef91068630876114b3886120f7565b60405163ffffffff861660e01b8152600160a060020a03808616600483019081529085166024830152604482018490526080606483019081528351608484015283519192909160a490910190602085019080838360005b8381101561152257818101518382015260200161150a565b50505050905090810190601f16801561154f5780820380516001836020036101000a031916815260200191505b5095505050505050602060405180830381600087803b15801561157157600080fd5b505af1158015611585573d6000803e3d6000fd5b505050506040513d602081101561159b57600080fd5b505191505b509392505050565b60006115b2612266565b6115ba611da6565b9050806040015181602001510267ffffffffffffffff16816060015167ffffffffffffffff166115e8612101565b038115156115f257fe5b0491505090565b6000806116046116ae565b604080517fbe00bbd80000000000000000000000000000000000000000000000000000000081527fd6f028ca0e8edb4a8c9757ca4fdccab25fa1e0317da1188108f7d2dee14902fb60048201527fddbcfd564f642ab5627cf68b9b7d374fb4f8a36e941a75d89c87998cef03bd6160248201529051600160a060020a03929092169163be00bbd8916044808201926020929091908290030181600087803b15801561058857600080fd5b60006104d27f4172f0f7d2289153072b0a6ca36959e0cbe2efc3afe50fc81636caa96338137b6117fd565b60006000196116e6610fec565b14905090565b60008060008060006116fc612266565b611704612105565b600160a060020a0316636fb1bf666040518163ffffffff1660e01b81526004016040805180830381600087803b15801561173d57600080fd5b505af1158015611751573d6000803e3d6000fd5b505050506040513d604081101561176757600080fd5b50602001519550859150611779611da6565b9050806020015194508060400151935080606001519250505090919293565b4390565b6117a4610f88565b81146117fa576040805160e560020a62461bcd02815260206004820152601b60248201527f554e45585045435445445f434f4e54524143545f56455253494f4e0000000000604482015290519081900360640190fd5b50565b5490565b9055565b600160a060020a0381161515611865576040805160e560020a62461bcd02815260206004820152601e60248201527f5a45524f5f4143434f554e54494e475f4f5241434c455f414444524553530000604482015290519081900360640190fd5b604080517f636174616c6973742e436174616c6973744f7261636c652e6163636f756e746981527f6e674f7261636c65000000000000000000000000000000000000000000000000602082015290519081900360280190206118cd908263ffffffff61180116565b6118d76004612149565b604080517f636174616c6973742e436174616c6973744f7261636c652e636f6e747261637481527f56657273696f6e00000000000000000000000000000000000000000000000000602082015290519081900360270190206117fa90600063ffffffff61180116565b611948612266565b600080600080600086945084600160a060020a031663606c0c946040518163ffffffff1660e01b8152600401606060405180830381600087803b15801561198e57600080fd5b505af11580156119a2573d6000803e3d6000fd5b505050506040513d60608110156119b857600080fd5b508051602082015160409283015183517f6fb1bf6600000000000000000000000000000000000000000000000000000000815284519398509196509450600160a060020a03881692636fb1bf66926004808401938290030181600087803b158015611a2257600080fd5b505af1158015611a36573d6000803e3d6000fd5b505050506040513d6040811015611a4c57600080fd5b5060209081015167ffffffffffffffff90811688529485169087015250908216604085015216606083015250919050565b600080826020015167ffffffffffffffff16111515611ae6576040805160e560020a62461bcd02815260206004820152601360248201527f4241445f534c4f54535f5045525f45504f434800000000000000000000000000604482015290519081900360640190fd5b6000826040015167ffffffffffffffff16111515611b4e576040805160e560020a62461bcd02815260206004820152601460248201527f4241445f5345434f4e44535f5045525f534c4f54000000000000000000000000604482015290519081900360640190fd5b6000826060015167ffffffffffffffff16111515611bb6576040805160e560020a62461bcd02815260206004820152601060248201527f4241445f47454e455349535f54494d4500000000000000000000000000000000604482015290519081900360640190fd5b8151600067ffffffffffffffff90911611611c1b576040805160e560020a62461bcd02815260206004820152601460248201527f4241445f45504f4348535f5045525f4652414d45000000000000000000000000604482015290519081900360640190fd5b816060015167ffffffffffffffff166040836040015167ffffffffffffffff16901b6080846020015167ffffffffffffffff16901b60c0856000015167ffffffffffffffff16901b1717179050611cda8160405180807f636174616c6973742e436174616c6973744f7261636c652e626561636f6e537081526020017f6563000000000000000000000000000000000000000000000000000000000000815250602201905060405180910390206000191661180190919063ffffffff16565b5050565b611ce6610fec565b60408051808201909152601881527f494e49545f414c52454144595f494e495449414c495a4544000000000000000060208201529015611d6b5760405160e560020a62461bcd028152600401808060200182810382528381815181526020019150805190602001908083836000838110156106bf5781810151838201526020016106a7565b50611da4611d77611798565b7febb05b386a8d34882b8711d156f463690983dc47815980fb82aeeff1aa43579e9063ffffffff61180116565b565b611dae612266565b604080517f636174616c6973742e436174616c6973744f7261636c652e626561636f6e537081527f656300000000000000000000000000000000000000000000000000000000000060208201529051908190036022019020600090611e12906117fd565b67ffffffffffffffff60c082901c81168452608082901c81166020850152604082811c8216908501521660608301525090565b6000806000611e52612266565b600080611e5d611da6565b9250611e67612105565b915081600160a060020a03166372f79b136040518163ffffffff1660e01b81526004016040805180830381600087803b158015611ea357600080fd5b505af1158015611eb7573d6000803e3d6000fd5b505050506040513d6040811015611ecd57600080fd5b5051604084015160608501518551602087015167ffffffffffffffff80851660018701908102948216949094019a5093810290910283168901600019019750929350911690811515611f1b57fe5b049550505050909192565b9055565b600080600160a060020a0383161515611f465760009150611f51565b823b90506000811191505b50919050565b60408051600160a060020a0383166024808301919091528251808303909101815260449091019091526020810180517bffffffffffffffffffffffffffffffffffffffffffffffffffffffff167f70a08231000000000000000000000000000000000000000000000000000000001790526000908180611fd786846121e7565b60408051808201909152601c81527f534146455f4552435f32305f42414c414e43455f524556455254454400000000602082015291935091508215156120625760405160e560020a62461bcd028152600401808060200182810382528381815181526020019150805190602001908083836000838110156106bf5781810151838201526020016106a7565b5095945050505050565b60408051600160a060020a038416602482015260448082018490528251808303909101815260649091019091526020810180517bffffffffffffffffffffffffffffffffffffffffffffffffffffffff167fa9059cbb000000000000000000000000000000000000000000000000000000001790526000906120ee8582612218565b95945050505050565b8051602002815290565b4290565b600061210f6113f7565b600160a060020a0316638f55b5716040518163ffffffff1660e01b8152600401602060405180830381600087803b1580156105fe57600080fd5b604080517f636174616c6973742e56657273696f6e65642e636f6e7472616374566572736981527f6f6e000000000000000000000000000000000000000000000000000000000000602082015290519081900360220190206121b1908263ffffffff61180116565b6040805182815290517ffddcded6b4f4730c226821172046b48372d3cd963c159701ae1b7c3bcac541bb9181900360200190a150565b6000806000806040516020818751602089018a5afa9250600083111561220c57805191505b50909590945092505050565b6000806040516020818551602087016000895af1600081111561225c573d801561224957602081146122525761225a565b6001935061225a565b600183511493505b505b5090949350505050565b604080516080810182526000808252602082018190529181018290526060810191909152905600a165627a7a723058201be84186cfe03e28013ca2bd8e967b7e416b12534f15f8512ed48bdd84adf3170029ebb05b386a8d34882b8711d156f463690983dc47815980fb82aeeff1aa43579e",
  "linkReferences": {},
  "deployedLinkReferences": {}
}