{
  "_format": "hh-sol-artifact-1",
  "contractName": "NodeOperatorsRegistry",
  "sourceName": "contracts/0.4.24/nos/NodeOperatorsRegistry.sol",
  "abi": [
    {
      "constant": true,
      "inputs": [],
      "name": "hasInitialized",
      "outputs": [
        {
          "name": "",
          "type": "bool"
        }
      ],
      "payable": false,
      "stateMutability": "view",
      "type": "function"
    },
    {
      "constant": false,
      "inputs": [
        {
          "name": "_nodeOperatorId",
          "type": "uint256"
        },
        {
          "name": "_keysCount",
          "type": "uint256"
        },
        {
          "name": "_publicKeys",
          "type": "bytes"
        },
        {
          "name": "_signatures",
          "type": "bytes"
        }
      ],
      "name": "addSigningKeys",
      "outputs": [],
      "payable": false,
      "stateMutability": "nonpayable",
      "type": "function"
    },
    {
      "constant": true,
      "inputs": [],
      "name": "getType",
      "outputs": [
        {
          "name": "",
          "type": "bytes32"
        }
      ],
      "payable": false,
      "stateMutability": "view",
      "type": "function"
    },
    {
      "constant": true,
      "inputs": [
        {
          "name": "_script",
          "type": "bytes"
        }
      ],
      "name": "getEVMScriptExecutor",
      "outputs": [
        {
          "name": "",
          "type": "address"
        }
      ],
      "payable": false,
      "stateMutability": "view",
      "type": "function"
    },
    {
      "constant": false,
      "inputs": [
        {
          "name": "_nodeOperatorId",
          "type": "uint256"
        }
      ],
      "name": "clearNodeOperatorPenalty",
      "outputs": [
        {
          "name": "",
          "type": "bool"
        }
      ],
      "payable": false,
      "stateMutability": "nonpayable",
      "type": "function"
    },
    {
      "constant": true,
      "inputs": [],
      "name": "getRecoveryVault",
      "outputs": [
        {
          "name": "",
          "type": "address"
        }
      ],
      "payable": false,
      "stateMutability": "view",
      "type": "function"
    },
    {
      "constant": true,
      "inputs": [
        {
          "name": "_offset",
          "type": "uint256"
        },
        {
          "name": "_limit",
          "type": "uint256"
        }
      ],
      "name": "getNodeOperatorIds",
      "outputs": [
        {
          "name": "nodeOperatorIds",
          "type": "uint256[]"
        }
      ],
      "payable": false,
      "stateMutability": "view",
      "type": "function"
    },
    {
      "constant": false,
      "inputs": [
        {
          "name": "adr",
          "type": "address"
        },
        {
          "name": "status",
          "type": "bool"
        }
      ],
      "name": "setOwner",
      "outputs": [],
      "payable": false,
      "stateMutability": "nonpayable",
      "type": "function"
    },
    {
      "constant": true,
      "inputs": [
        {
          "name": "_nodeOperatorId",
          "type": "uint256"
        },
        {
          "name": "_offset",
          "type": "uint256"
        },
        {
          "name": "_limit",
          "type": "uint256"
        }
      ],
      "name": "getSigningKeys",
      "outputs": [
        {
          "name": "pubkeys",
          "type": "bytes"
        },
        {
          "name": "signatures",
          "type": "bytes"
        },
        {
          "name": "used",
          "type": "bool[]"
        }
      ],
      "payable": false,
      "stateMutability": "view",
      "type": "function"
    },
    {
      "constant": false,
      "inputs": [
        {
          "name": "_nodeOperatorId",
          "type": "uint256"
        },
        {
          "name": "_fromIndex",
          "type": "uint256"
        },
        {
          "name": "_keysCount",
          "type": "uint256"
        }
      ],
      "name": "removeSigningKeysOperatorBH",
      "outputs": [],
      "payable": false,
      "stateMutability": "nonpayable",
      "type": "function"
    },
    {
      "constant": true,
      "inputs": [
        {
          "name": "_nodeOperatorId",
          "type": "uint256"
        }
      ],
      "name": "getNodeOperatorIsActive",
      "outputs": [
        {
          "name": "",
          "type": "bool"
        }
      ],
      "payable": false,
      "stateMutability": "view",
      "type": "function"
    },
    {
      "constant": false,
      "inputs": [
        {
          "name": "_nodeOperatorId",
          "type": "uint256"
        },
        {
          "name": "_name",
          "type": "string"
        }
      ],
      "name": "setNodeOperatorName",
      "outputs": [],
      "payable": false,
      "stateMutability": "nonpayable",
      "type": "function"
    },
    {
      "constant": true,
      "inputs": [
        {
          "name": "_totalRewardShares",
          "type": "uint256"
        }
      ],
      "name": "getRewardsDistribution",
      "outputs": [
        {
          "name": "recipients",
          "type": "address[]"
        },
        {
          "name": "shares",
          "type": "uint256[]"
        },
        {
          "name": "penalized",
          "type": "bool[]"
        }
      ],
      "payable": false,
      "stateMutability": "view",
      "type": "function"
    },
    {
      "constant": false,
      "inputs": [
        {
          "name": "_indexFrom",
          "type": "uint256"
        },
        {
          "name": "_indexTo",
          "type": "uint256"
        }
      ],
      "name": "invalidateReadyToDepositKeysRange",
      "outputs": [],
      "payable": false,
      "stateMutability": "nonpayable",
      "type": "function"
    },
    {
      "constant": false,
      "inputs": [
        {
          "name": "_locator",
          "type": "address"
        },
        {
          "name": "_type",
          "type": "bytes32"
        },
        {
          "name": "_stuckPenaltyDelay",
          "type": "uint256"
        }
      ],
      "name": "initialize",
      "outputs": [],
      "payable": false,
      "stateMutability": "nonpayable",
      "type": "function"
    },
    {
      "constant": false,
      "inputs": [
        {
          "name": "_delay",
          "type": "uint256"
        }
      ],
      "name": "setStuckPenaltyDelay",
      "outputs": [],
      "payable": false,
      "stateMutability": "nonpayable",
      "type": "function"
    },
    {
      "constant": true,
      "inputs": [],
      "name": "getStuckPenaltyDelay",
      "outputs": [
        {
          "name": "",
          "type": "uint256"
        }
      ],
      "payable": false,
      "stateMutability": "view",
      "type": "function"
    },
    {
      "constant": false,
      "inputs": [
        {
          "name": "_nodeOperatorId",
          "type": "uint256"
        },
        {
          "name": "_index",
          "type": "uint256"
        }
      ],
      "name": "removeSigningKey",
      "outputs": [],
      "payable": false,
      "stateMutability": "nonpayable",
      "type": "function"
    },
    {
      "constant": false,
      "inputs": [
        {
          "name": "_nodeOperatorId",
          "type": "uint256"
        },
        {
          "name": "_fromIndex",
          "type": "uint256"
        },
        {
          "name": "_keysCount",
          "type": "uint256"
        }
      ],
      "name": "removeSigningKeys",
      "outputs": [],
      "payable": false,
      "stateMutability": "nonpayable",
      "type": "function"
    },
    {
      "constant": true,
      "inputs": [
        {
          "name": "_nodeOperatorId",
          "type": "uint256"
        }
      ],
      "name": "isOperatorPenalized",
      "outputs": [
        {
          "name": "",
          "type": "bool"
        }
      ],
      "payable": false,
      "stateMutability": "view",
      "type": "function"
    },
    {
      "constant": false,
      "inputs": [
        {
          "name": "_nodeOperatorId",
          "type": "uint256"
        }
      ],
      "name": "deactivateNodeOperator",
      "outputs": [],
      "payable": false,
      "stateMutability": "nonpayable",
      "type": "function"
    },
    {
      "constant": true,
      "inputs": [
        {
          "name": "token",
          "type": "address"
        }
      ],
      "name": "allowRecoverability",
      "outputs": [
        {
          "name": "",
          "type": "bool"
        }
      ],
      "payable": false,
      "stateMutability": "view",
      "type": "function"
    },
    {
      "constant": true,
      "inputs": [],
      "name": "STAKING_ROUTER_ROLE",
      "outputs": [
        {
          "name": "",
          "type": "bytes32"
        }
      ],
      "payable": false,
      "stateMutability": "view",
      "type": "function"
    },
    {
      "constant": false,
      "inputs": [
        {
          "name": "_nodeOperatorId",
          "type": "uint256"
        },
        {
          "name": "_keysCount",
          "type": "uint256"
        },
        {
          "name": "_publicKeys",
          "type": "bytes"
        },
        {
          "name": "_signatures",
          "type": "bytes"
        }
      ],
      "name": "addSigningKeysOperatorBH",
      "outputs": [],
      "payable": false,
      "stateMutability": "nonpayable",
      "type": "function"
    },
    {
      "constant": true,
      "inputs": [],
      "name": "appId",
      "outputs": [
        {
          "name": "",
          "type": "bytes32"
        }
      ],
      "payable": false,
      "stateMutability": "view",
      "type": "function"
    },
    {
      "constant": true,
      "inputs": [],
      "name": "getActiveNodeOperatorsCount",
      "outputs": [
        {
          "name": "",
          "type": "uint256"
        }
      ],
      "payable": false,
      "stateMutability": "view",
      "type": "function"
    },
    {
      "constant": false,
      "inputs": [
        {
          "name": "_name",
          "type": "string"
        },
        {
          "name": "_rewardAddress",
          "type": "address"
        }
      ],
      "name": "addNodeOperator",
      "outputs": [
        {
          "name": "id",
          "type": "uint256"
        }
      ],
      "payable": false,
      "stateMutability": "nonpayable",
      "type": "function"
    },
    {
      "constant": true,
      "inputs": [],
      "name": "getContractVersion",
      "outputs": [
        {
          "name": "",
          "type": "uint256"
        }
      ],
      "payable": false,
      "stateMutability": "view",
      "type": "function"
    },
    {
      "constant": true,
      "inputs": [],
      "name": "getInitializationBlock",
      "outputs": [
        {
          "name": "",
          "type": "uint256"
        }
      ],
      "payable": false,
      "stateMutability": "view",
      "type": "function"
    },
    {
      "constant": true,
      "inputs": [
        {
          "name": "_nodeOperatorId",
          "type": "uint256"
        }
      ],
      "name": "getUnusedSigningKeyCount",
      "outputs": [
        {
          "name": "",
          "type": "uint256"
        }
      ],
      "payable": false,
      "stateMutability": "view",
      "type": "function"
    },
    {
      "constant": true,
      "inputs": [
        {
          "name": "",
          "type": "uint256"
        }
      ],
      "name": "onRewardsMinted",
      "outputs": [],
      "payable": false,
      "stateMutability": "view",
      "type": "function"
    },
    {
      "constant": true,
      "inputs": [],
      "name": "MANAGE_NODE_OPERATOR_ROLE",
      "outputs": [
        {
          "name": "",
          "type": "bytes32"
        }
      ],
      "payable": false,
      "stateMutability": "view",
      "type": "function"
    },
    {
      "constant": false,
      "inputs": [],
      "name": "onWithdrawalCredentialsChanged",
      "outputs": [],
      "payable": false,
      "stateMutability": "nonpayable",
      "type": "function"
    },
    {
      "constant": false,
      "inputs": [
        {
          "name": "_nodeOperatorId",
          "type": "uint256"
        }
      ],
      "name": "activateNodeOperator",
      "outputs": [],
      "payable": false,
      "stateMutability": "nonpayable",
      "type": "function"
    },
    {
      "constant": false,
      "inputs": [
        {
          "name": "_nodeOperatorId",
          "type": "uint256"
        },
        {
          "name": "_rewardAddress",
          "type": "address"
        }
      ],
      "name": "setNodeOperatorRewardAddress",
      "outputs": [],
      "payable": false,
      "stateMutability": "nonpayable",
      "type": "function"
    },
    {
      "constant": true,
      "inputs": [
        {
          "name": "_nodeOperatorId",
          "type": "uint256"
        },
        {
          "name": "_fullInfo",
          "type": "bool"
        }
      ],
      "name": "getNodeOperator",
      "outputs": [
        {
          "name": "active",
          "type": "bool"
        },
        {
          "name": "name",
          "type": "string"
        },
        {
          "name": "rewardAddress",
          "type": "address"
        },
        {
          "name": "totalVettedValidators",
          "type": "uint64"
        },
        {
          "name": "totalExitedValidators",
          "type": "uint64"
        },
        {
          "name": "totalAddedValidators",
          "type": "uint64"
        },
        {
          "name": "totalDepositedValidators",
          "type": "uint64"
        }
      ],
      "payable": false,
      "stateMutability": "view",
      "type": "function"
    },
    {
      "constant": false,
      "inputs": [
        {
          "name": "_locator",
          "type": "address"
        },
        {
          "name": "_type",
          "type": "bytes32"
        },
        {
          "name": "_stuckPenaltyDelay",
          "type": "uint256"
        }
      ],
      "name": "finalizeUpgrade_v2",
      "outputs": [],
      "payable": false,
      "stateMutability": "nonpayable",
      "type": "function"
    },
    {
      "constant": true,
      "inputs": [],
      "name": "getStakingModuleSummary",
      "outputs": [
        {
          "name": "totalExitedValidators",
          "type": "uint256"
        },
        {
          "name": "totalDepositedValidators",
          "type": "uint256"
        },
        {
          "name": "depositableValidatorsCount",
          "type": "uint256"
        }
      ],
      "payable": false,
      "stateMutability": "view",
      "type": "function"
    },
    {
      "constant": false,
      "inputs": [
        {
          "name": "_nodeOperatorIds",
          "type": "bytes"
        },
        {
          "name": "_exitedValidatorsCounts",
          "type": "bytes"
        }
      ],
      "name": "updateExitedValidatorsCount",
      "outputs": [],
      "payable": false,
      "stateMutability": "nonpayable",
      "type": "function"
    },
    {
      "constant": false,
      "inputs": [
        {
          "name": "_nodeOperatorIds",
          "type": "bytes"
        },
        {
          "name": "_stuckValidatorsCounts",
          "type": "bytes"
        }
      ],
      "name": "updateStuckValidatorsCount",
      "outputs": [],
      "payable": false,
      "stateMutability": "nonpayable",
      "type": "function"
    },
    {
      "constant": false,
      "inputs": [
        {
          "name": "_token",
          "type": "address"
        }
      ],
      "name": "transferToVault",
      "outputs": [],
      "payable": false,
      "stateMutability": "nonpayable",
      "type": "function"
    },
    {
      "constant": true,
      "inputs": [
        {
          "name": "_sender",
          "type": "address"
        },
        {
          "name": "_role",
          "type": "bytes32"
        },
        {
          "name": "_params",
          "type": "uint256[]"
        }
      ],
      "name": "canPerform",
      "outputs": [
        {
          "name": "",
          "type": "bool"
        }
      ],
      "payable": false,
      "stateMutability": "view",
      "type": "function"
    },
    {
      "constant": false,
      "inputs": [
        {
          "name": "_nodeOperatorId",
          "type": "uint256"
        },
        {
          "name": "_refundedValidatorsCount",
          "type": "uint256"
        }
      ],
      "name": "updateRefundedValidatorsCount",
      "outputs": [],
      "payable": false,
      "stateMutability": "nonpayable",
      "type": "function"
    },
    {
      "constant": true,
      "inputs": [],
      "name": "getEVMScriptRegistry",
      "outputs": [
        {
          "name": "",
          "type": "address"
        }
      ],
      "payable": false,
      "stateMutability": "view",
      "type": "function"
    },
    {
      "constant": true,
      "inputs": [],
      "name": "getNodeOperatorsCount",
      "outputs": [
        {
          "name": "",
          "type": "uint256"
        }
      ],
      "payable": false,
      "stateMutability": "view",
      "type": "function"
    },
    {
      "constant": false,
      "inputs": [
        {
          "name": "_nodeOperatorId",
          "type": "uint256"
        },
        {
          "name": "_isTargetLimitActive",
          "type": "bool"
        },
        {
          "name": "_targetLimit",
          "type": "uint256"
        }
      ],
      "name": "updateTargetValidatorsLimits",
      "outputs": [],
      "payable": false,
      "stateMutability": "nonpayable",
      "type": "function"
    },
    {
      "constant": false,
      "inputs": [
        {
          "name": "_nodeOperatorId",
          "type": "uint256"
        },
        {
          "name": "_vettedSigningKeysCount",
          "type": "uint64"
        }
      ],
      "name": "setNodeOperatorStakingLimit",
      "outputs": [],
      "payable": false,
      "stateMutability": "nonpayable",
      "type": "function"
    },
    {
      "constant": true,
      "inputs": [
        {
          "name": "_nodeOperatorId",
          "type": "uint256"
        }
      ],
      "name": "getNodeOperatorSummary",
      "outputs": [
        {
          "name": "isTargetLimitActive",
          "type": "bool"
        },
        {
          "name": "targetValidatorsCount",
          "type": "uint256"
        },
        {
          "name": "stuckValidatorsCount",
          "type": "uint256"
        },
        {
          "name": "refundedValidatorsCount",
          "type": "uint256"
        },
        {
          "name": "stuckPenaltyEndTimestamp",
          "type": "uint256"
        },
        {
          "name": "totalExitedValidators",
          "type": "uint256"
        },
        {
          "name": "totalDepositedValidators",
          "type": "uint256"
        },
        {
          "name": "depositableValidatorsCount",
          "type": "uint256"
        }
      ],
      "payable": false,
      "stateMutability": "view",
      "type": "function"
    },
    {
      "constant": true,
      "inputs": [
        {
          "name": "_nodeOperatorId",
          "type": "uint256"
        },
        {
          "name": "_index",
          "type": "uint256"
        }
      ],
      "name": "getSigningKey",
      "outputs": [
        {
          "name": "key",
          "type": "bytes"
        },
        {
          "name": "depositSignature",
          "type": "bytes"
        },
        {
          "name": "used",
          "type": "bool"
        }
      ],
      "payable": false,
      "stateMutability": "view",
      "type": "function"
    },
    {
      "constant": true,
      "inputs": [],
      "name": "MAX_NODE_OPERATOR_NAME_LENGTH",
      "outputs": [
        {
          "name": "",
          "type": "uint256"
        }
      ],
      "payable": false,
      "stateMutability": "view",
      "type": "function"
    },
    {
      "constant": false,
      "inputs": [
        {
          "name": "_depositsCount",
          "type": "uint256"
        },
        {
          "name": "",
          "type": "bytes"
        }
      ],
      "name": "obtainDepositData",
      "outputs": [
        {
          "name": "publicKeys",
          "type": "bytes"
        },
        {
          "name": "signatures",
          "type": "bytes"
        }
      ],
      "payable": false,
      "stateMutability": "nonpayable",
      "type": "function"
    },
    {
      "constant": true,
      "inputs": [],
      "name": "getKeysOpIndex",
      "outputs": [
        {
          "name": "",
          "type": "uint256"
        }
      ],
      "payable": false,
      "stateMutability": "view",
      "type": "function"
    },
    {
      "constant": true,
      "inputs": [],
      "name": "getNonce",
      "outputs": [
        {
          "name": "",
          "type": "uint256"
        }
      ],
      "payable": false,
      "stateMutability": "view",
      "type": "function"
    },
    {
      "constant": true,
      "inputs": [],
      "name": "kernel",
      "outputs": [
        {
          "name": "",
          "type": "address"
        }
      ],
      "payable": false,
      "stateMutability": "view",
      "type": "function"
    },
    {
      "constant": true,
      "inputs": [],
      "name": "getLocator",
      "outputs": [
        {
          "name": "",
          "type": "address"
        }
      ],
      "payable": false,
      "stateMutability": "view",
      "type": "function"
    },
    {
      "constant": true,
      "inputs": [],
      "name": "SET_NODE_OPERATOR_LIMIT_ROLE",
      "outputs": [
        {
          "name": "",
          "type": "bytes32"
        }
      ],
      "payable": false,
      "stateMutability": "view",
      "type": "function"
    },
    {
      "constant": true,
      "inputs": [
        {
          "name": "_nodeOperatorId",
          "type": "uint256"
        }
      ],
      "name": "getTotalSigningKeyCount",
      "outputs": [
        {
          "name": "",
          "type": "uint256"
        }
      ],
      "payable": false,
      "stateMutability": "view",
      "type": "function"
    },
    {
      "constant": true,
      "inputs": [],
      "name": "isPetrified",
      "outputs": [
        {
          "name": "",
          "type": "bool"
        }
      ],
      "payable": false,
      "stateMutability": "view",
      "type": "function"
    },
    {
      "constant": true,
      "inputs": [],
      "name": "MAX_STUCK_PENALTY_DELAY",
      "outputs": [
        {
          "name": "",
          "type": "uint256"
        }
      ],
      "payable": false,
      "stateMutability": "view",
      "type": "function"
    },
    {
      "constant": false,
      "inputs": [],
      "name": "onExitedAndStuckValidatorsCountsUpdated",
      "outputs": [],
      "payable": false,
      "stateMutability": "nonpayable",
      "type": "function"
    },
    {
      "constant": true,
      "inputs": [],
      "name": "MAX_NODE_OPERATORS_COUNT",
      "outputs": [
        {
          "name": "",
          "type": "uint256"
        }
      ],
      "payable": false,
      "stateMutability": "view",
      "type": "function"
    },
    {
      "constant": false,
      "inputs": [
        {
          "name": "_nodeOperatorId",
          "type": "uint256"
        },
        {
          "name": "_index",
          "type": "uint256"
        }
      ],
      "name": "removeSigningKeyOperatorBH",
      "outputs": [],
      "payable": false,
      "stateMutability": "nonpayable",
      "type": "function"
    },
    {
      "constant": false,
      "inputs": [
        {
          "name": "_nodeOperatorId",
          "type": "uint256"
        },
        {
          "name": "_exitedValidatorsCount",
          "type": "uint256"
        },
        {
          "name": "_stuckValidatorsCount",
          "type": "uint256"
        }
      ],
      "name": "unsafeUpdateValidatorsCount",
      "outputs": [],
      "payable": false,
      "stateMutability": "nonpayable",
      "type": "function"
    },
    {
      "constant": true,
      "inputs": [],
      "name": "MANAGE_SIGNING_KEYS",
      "outputs": [
        {
          "name": "",
          "type": "bytes32"
        }
      ],
      "payable": false,
      "stateMutability": "view",
      "type": "function"
    },
    {
      "constant": true,
      "inputs": [
        {
          "name": "_nodeOperatorId",
          "type": "uint256"
        }
      ],
      "name": "isOperatorPenaltyCleared",
      "outputs": [
        {
          "name": "",
          "type": "bool"
        }
      ],
      "payable": false,
      "stateMutability": "view",
      "type": "function"
    },
    {
      "anonymous": false,
      "inputs": [
        {
          "indexed": false,
          "name": "nodeOperatorId",
          "type": "uint256"
        },
        {
          "indexed": false,
          "name": "name",
          "type": "string"
        },
        {
          "indexed": false,
          "name": "rewardAddress",
          "type": "address"
        },
        {
          "indexed": false,
          "name": "stakingLimit",
          "type": "uint64"
        }
      ],
      "name": "NodeOperatorAdded",
      "type": "event"
    },
    {
      "anonymous": false,
      "inputs": [
        {
          "indexed": true,
          "name": "nodeOperatorId",
          "type": "uint256"
        },
        {
          "indexed": false,
          "name": "active",
          "type": "bool"
        }
      ],
      "name": "NodeOperatorActiveSet",
      "type": "event"
    },
    {
      "anonymous": false,
      "inputs": [
        {
          "indexed": true,
          "name": "nodeOperatorId",
          "type": "uint256"
        },
        {
          "indexed": false,
          "name": "name",
          "type": "string"
        }
      ],
      "name": "NodeOperatorNameSet",
      "type": "event"
    },
    {
      "anonymous": false,
      "inputs": [
        {
          "indexed": true,
          "name": "nodeOperatorId",
          "type": "uint256"
        },
        {
          "indexed": false,
          "name": "rewardAddress",
          "type": "address"
        }
      ],
      "name": "NodeOperatorRewardAddressSet",
      "type": "event"
    },
    {
      "anonymous": false,
      "inputs": [
        {
          "indexed": true,
          "name": "nodeOperatorId",
          "type": "uint256"
        },
        {
          "indexed": false,
          "name": "totalKeysTrimmed",
          "type": "uint64"
        }
      ],
      "name": "NodeOperatorTotalKeysTrimmed",
      "type": "event"
    },
    {
      "anonymous": false,
      "inputs": [
        {
          "indexed": false,
          "name": "keysOpIndex",
          "type": "uint256"
        }
      ],
      "name": "KeysOpIndexSet",
      "type": "event"
    },
    {
      "anonymous": false,
      "inputs": [
        {
          "indexed": false,
          "name": "moduleType",
          "type": "bytes32"
        }
      ],
      "name": "StakingModuleTypeSet",
      "type": "event"
    },
    {
      "anonymous": false,
      "inputs": [
        {
          "indexed": true,
          "name": "rewardAddress",
          "type": "address"
        },
        {
          "indexed": false,
          "name": "sharesAmount",
          "type": "uint256"
        }
      ],
      "name": "RewardsDistributed",
      "type": "event"
    },
    {
      "anonymous": false,
      "inputs": [
        {
          "indexed": false,
          "name": "locatorAddress",
          "type": "address"
        }
      ],
      "name": "LocatorContractSet",
      "type": "event"
    },
    {
      "anonymous": false,
      "inputs": [
        {
          "indexed": true,
          "name": "nodeOperatorId",
          "type": "uint256"
        },
        {
          "indexed": false,
          "name": "approvedValidatorsCount",
          "type": "uint256"
        }
      ],
      "name": "VettedSigningKeysCountChanged",
      "type": "event"
    },
    {
      "anonymous": false,
      "inputs": [
        {
          "indexed": true,
          "name": "nodeOperatorId",
          "type": "uint256"
        },
        {
          "indexed": false,
          "name": "depositedValidatorsCount",
          "type": "uint256"
        }
      ],
      "name": "DepositedSigningKeysCountChanged",
      "type": "event"
    },
    {
      "anonymous": false,
      "inputs": [
        {
          "indexed": true,
          "name": "nodeOperatorId",
          "type": "uint256"
        },
        {
          "indexed": false,
          "name": "exitedValidatorsCount",
          "type": "uint256"
        }
      ],
      "name": "ExitedSigningKeysCountChanged",
      "type": "event"
    },
    {
      "anonymous": false,
      "inputs": [
        {
          "indexed": true,
          "name": "nodeOperatorId",
          "type": "uint256"
        },
        {
          "indexed": false,
          "name": "totalValidatorsCount",
          "type": "uint256"
        }
      ],
      "name": "TotalSigningKeysCountChanged",
      "type": "event"
    },
    {
      "anonymous": false,
      "inputs": [
        {
          "indexed": false,
          "name": "nonce",
          "type": "uint256"
        }
      ],
      "name": "NonceChanged",
      "type": "event"
    },
    {
      "anonymous": false,
      "inputs": [
        {
          "indexed": false,
          "name": "stuckPenaltyDelay",
          "type": "uint256"
        }
      ],
      "name": "StuckPenaltyDelayChanged",
      "type": "event"
    },
    {
      "anonymous": false,
      "inputs": [
        {
          "indexed": true,
          "name": "nodeOperatorId",
          "type": "uint256"
        },
        {
          "indexed": false,
          "name": "stuckValidatorsCount",
          "type": "uint256"
        },
        {
          "indexed": false,
          "name": "refundedValidatorsCount",
          "type": "uint256"
        },
        {
          "indexed": false,
          "name": "stuckPenaltyEndTimestamp",
          "type": "uint256"
        }
      ],
      "name": "StuckPenaltyStateChanged",
      "type": "event"
    },
    {
      "anonymous": false,
      "inputs": [
        {
          "indexed": true,
          "name": "nodeOperatorId",
          "type": "uint256"
        },
        {
          "indexed": false,
          "name": "targetValidatorsCount",
          "type": "uint256"
        }
      ],
      "name": "TargetValidatorsCountChanged",
      "type": "event"
    },
    {
      "anonymous": false,
      "inputs": [
        {
          "indexed": true,
          "name": "recipientAddress",
          "type": "address"
        },
        {
          "indexed": false,
          "name": "sharesPenalizedAmount",
          "type": "uint256"
        }
      ],
      "name": "NodeOperatorPenalized",
      "type": "event"
    },
    {
      "anonymous": false,
      "inputs": [
        {
          "indexed": false,
          "name": "version",
          "type": "uint256"
        }
      ],
      "name": "ContractVersionSet",
      "type": "event"
    },
    {
      "anonymous": false,
      "inputs": [
        {
          "indexed": true,
          "name": "executor",
          "type": "address"
        },
        {
          "indexed": false,
          "name": "script",
          "type": "bytes"
        },
        {
          "indexed": false,
          "name": "input",
          "type": "bytes"
        },
        {
          "indexed": false,
          "name": "returnData",
          "type": "bytes"
        }
      ],
      "name": "ScriptResult",
      "type": "event"
    },
    {
      "anonymous": false,
      "inputs": [
        {
          "indexed": true,
          "name": "vault",
          "type": "address"
        },
        {
          "indexed": true,
          "name": "token",
          "type": "address"
        },
        {
          "indexed": false,
          "name": "amount",
          "type": "uint256"
        }
      ],
      "name": "RecoverToVault",
      "type": "event"
    }
  ],
  "bytecode": "0x6080604052620000146200008e60201b60201c565b604080517f636174616c6973742e56657273696f6e65642e636f6e7472616374566572736981527f6f6e000000000000000000000000000000000000000000000000000000000000602080830191909152915190819003602201902062000088916000199062003fef62000190821b17901c565b620002a5565b6200009e6200019460201b60201c565b60408051808201909152601881527f494e49545f414c52454144595f494e495449414c495a45440000000000000000602082015290156200017a576040517f08c379a00000000000000000000000000000000000000000000000000000000081526004018080602001828103825283818151815260200191508051906020019080838360005b838110156200013e57818101518382015260200162000124565b50505050905090810190601f1680156200016c5780820380516001836020036101000a031916815260200191505b509250505060405180910390fd5b506200018e600019620001c760201b60201c565b565b9055565b6000620001c26000805160206200604883398151915260001b60001916620002a160201b620031fa1760201c565b905090565b620001d76200019460201b60201c565b60408051808201909152601881527f494e49545f414c52454144595f494e495449414c495a454400000000000000006020820152901562000276576040517f08c379a0000000000000000000000000000000000000000000000000000000008152600401808060200182810382528381815181526020019150805190602001908083836000838110156200013e57818101518382015260200162000124565b506200029e600080516020620060488339815191528262000190602090811b62003fef17901c565b50565b5490565b615d9380620002b56000396000f3006080604052600436106102e45760003560e01c63ffffffff1680630803fac0146102e9578063096b7b351461031257806315dae03e146103485780632914b9bd1461036f57806330a90f01146103e457806332f0a3b5146103fc5780634febc81b14610411578063516c731c1461047c57806359e25c12146104a25780635ddde810146105df5780635e2fb908146105fd5780635e57d7421461061557806362dcfda11461063957806365cc369a14610716578063684560a2146107315780636ccc7562146107585780636da7d0a7146107705780636ef355f1146107855780637038b141146105df57806375049ad8146107a057806375a080d5146107b85780637e7db6e1146107d057806380231f15146107f1578063805911ae1461031257806380afdea8146108065780638469cbd31461081b57806385fa63d7146108305780638aa104351461085e5780638b3dd749146108735780638ca7c052146108885780638d7e4017146108a05780638ece9995146108b857806390c09bdb146108cd57806391dcd6b2146108e2578063973e9328146108fa5780639a56983c1461091e5780639a7c2ade146109fa5780639abddf0914610a215780639b00c14614610a545780639b3d190014610a805780639d4941d814610aac578063a1658fad14610acd578063a2e080f114610b34578063a479e50814610b4f578063a70c70e414610b64578063a9e7a84614610b79578063ae962acf14610b99578063b3076c3c14610bbe578063b449402a14610c19578063b497183314610d1d578063bee41b5814610d32578063d07442f114610e34578063d087d28814610e34578063d4aae0c414610e49578063d8343dcb14610e5e578063d8e71cd114610e73578063db9887ea14610e88578063de4796ed14610ea0578063e204d09b14610eb5578063e864299e14610eca578063ec5af3a414610edf578063ed5cfa4114610785578063f2e2ca6314610ef4578063f31bd9c114610f12578063fbc77ef114610f27575b600080fd5b3480156102f557600080fd5b506102fe610f3f565b604080519115158252519081900360200190f35b34801561031e57600080fd5b5061034660048035906024803591604435808301929082013591606435918201910135610f69565b005b34801561035457600080fd5b5061035d611031565b60408051918252519081900360200190f35b34801561037b57600080fd5b506040805160206004803580820135601f81018490048402850184019095528484526103c89436949293602493928401919081908401838280828437509497506110629650505050505050565b60408051600160a060020a039092168252519081900360200190f35b3480156103f057600080fd5b506102fe600435611145565b34801561040857600080fd5b506103c8611209565b34801561041d57600080fd5b5061042c60043560243561127e565b60408051602080825283518183015283519192839290830191858101910280838360005b83811015610468578181015183820152602001610450565b505050509050019250505060405180910390f35b34801561048857600080fd5b50610346600160a060020a03600435166024351515611315565b3480156104ae57600080fd5b506104c0600435602435604435611397565b60405180806020018060200180602001848103845287818151815260200191508051906020019080838360005b838110156105055781810151838201526020016104ed565b50505050905090810190601f1680156105325780820380516001836020036101000a031916815260200191505b50848103835286518152865160209182019188019080838360005b8381101561056557818101518382015260200161054d565b50505050905090810190601f1680156105925780820380516001836020036101000a031916815260200191505b508481038252855181528551602091820191808801910280838360005b838110156105c75781810151838201526020016105af565b50505050905001965050505050505060405180910390f35b3480156105eb57600080fd5b50610346600435602435604435611495565b34801561060957600080fd5b506102fe6004356114fc565b34801561062157600080fd5b50610346600480359060248035908101910135611511565b34801561064557600080fd5b5061065160043561168b565b60405180806020018060200180602001848103845287818151815260200191508051906020019060200280838360005b83811015610699578181015183820152602001610681565b50505050905001848103835286818151815260200191508051906020019060200280838360005b838110156106d85781810151838201526020016106c0565b5050505090500184810382528581815181526020019150805190602001906020028083836000838110156105c75781810151838201526020016105af565b34801561072257600080fd5b506103466004356024356118bc565b34801561073d57600080fd5b50610346600160a060020a03600435166024356044356118e1565b34801561076457600080fd5b506103466004356119d8565b34801561077c57600080fd5b5061035d6119fb565b34801561079157600080fd5b50610346600435602435611a26565b3480156107ac57600080fd5b506102fe600435611a89565b3480156107c457600080fd5b50610346600435611aae565b3480156107dc57600080fd5b506102fe600160a060020a0360043516611c00565b3480156107fd57600080fd5b5061035d611c06565b34801561081257600080fd5b5061035d611c18565b34801561082757600080fd5b5061035d611c43565b34801561083c57600080fd5b5061035d6024600480358281019291013590600160a060020a03903516611c5c565b34801561086a57600080fd5b5061035d611ea3565b34801561087f57600080fd5b5061035d611f07565b34801561089457600080fd5b5061035d600435611f32565b3480156108ac57600080fd5b50610346600435611f81565b3480156108c457600080fd5b5061035d611f98565b3480156108d957600080fd5b50610346611faa565b3480156108ee57600080fd5b50610346600435611fe4565b34801561090657600080fd5b50610346600435600160a060020a0360243516612094565b34801561092a57600080fd5b5061093b6004356024351515612162565b604080518815158152600160a060020a0387169181019190915267ffffffffffffffff8086166060830152848116608083015283811660a0830152821660c082015260e0602080830182815289519284019290925288516101008401918a019080838360005b838110156109b95781810151838201526020016109a1565b50505050905090810190601f1680156109e65780820380516001836020036101000a031916815260200191505b509850505050505050505060405180910390f35b348015610a0657600080fd5b50610346600160a060020a03600435166024356044356122b5565b348015610a2d57600080fd5b50610a366124dc565b60408051938452602084019290925282820152519081900360600190f35b348015610a6057600080fd5b506103466024600480358281019290820135918135918201910135612536565b348015610a8c57600080fd5b5061034660246004803582810192908201359181359182019101356125cf565b348015610ab857600080fd5b50610346600160a060020a0360043516612651565b348015610ad957600080fd5b5060408051602060046044358181013583810280860185019096528085526102fe958335600160a060020a03169560248035963696956064959394920192918291850190849080828437509497506128e09650505050505050565b348015610b4057600080fd5b50610346600435602435612a2d565b348015610b5b57600080fd5b506103c8612a57565b348015610b7057600080fd5b5061035d612b0c565b348015610b8557600080fd5b506103466004356024351515604435612b37565b348015610ba557600080fd5b5061034660043567ffffffffffffffff60243516612c1b565b348015610bca57600080fd5b50610bd6600435612d5a565b6040805198151589526020890197909752878701959095526060870193909352608086019190915260a085015260c084015260e083015251908190036101000190f35b348015610c2557600080fd5b50610c34600435602435612e18565b60405180806020018060200184151515158152602001838103835286818151815260200191508051906020019080838360005b83811015610c7f578181015183820152602001610c67565b50505050905090810190601f168015610cac5780820380516001836020036101000a031916815260200191505b50838103825285518152855160209182019187019080838360005b83811015610cdf578181015183820152602001610cc7565b50505050905090810190601f168015610d0c5780820380516001836020036101000a031916815260200191505b509550505050505060405180910390f35b348015610d2957600080fd5b5061035d612e56565b348015610d3e57600080fd5b50610d56600480359060248035908101910135612e5b565b604051808060200180602001838103835285818151815260200191508051906020019080838360005b83811015610d97578181015183820152602001610d7f565b50505050905090810190601f168015610dc45780820380516001836020036101000a031916815260200191505b50838103825284518152845160209182019186019080838360005b83811015610df7578181015183820152602001610ddf565b50505050905090810190601f168015610e245780820380516001836020036101000a031916815260200191505b5094505050505060405180910390f35b348015610e4057600080fd5b5061035d612f29565b348015610e5557600080fd5b506103c8612f54565b348015610e6a57600080fd5b506103c8612f7f565b348015610e7f57600080fd5b5061035d612faa565b348015610e9457600080fd5b5061035d600435612fce565b348015610eac57600080fd5b506102fe612ffd565b348015610ec157600080fd5b5061035d613010565b348015610ed657600080fd5b50610346613018565b348015610eeb57600080fd5b5061035d613037565b348015610f0057600080fd5b5061034660043560243560443561303c565b348015610f1e57600080fd5b5061035d61307a565b348015610f3357600080fd5b506102fe60043561309e565b600080610f4a611f07565b90508015801590610f62575080610f5f6130dd565b10155b91505b5090565b3360009081526020819052604090205460ff161515610fc0576040805160e560020a62461bcd0281526020600482015260096024820152600080516020615d08833981519152604482015290519081900360640190fd5b611029868686868080601f0160208091040260200160405190810160405280939291908181526020018383808284375050604080516020601f8c018190048102820181019092528a815294508a93508992508291508401838280828437506130e1945050505050565b505050505050565b600061105c7f9a0a83f020c011ede7f7462d94ddaa629f46fb9612004a64426e4082655dd7576131fa565b90505b90565b600061106c612a57565b600160a060020a03166304bf2a7f836040518263ffffffff1660e01b81526004018080602001828103825283818151815260200191508051906020019080838360005b838110156110c75781810151838201526020016110af565b50505050905090810190601f1680156110f45780820380516001836020036101000a031916815260200191505b5092505050602060405180830381600087803b15801561111357600080fd5b505af1158015611127573d6000803e3d6000fd5b505050506040513d602081101561113d57600080fd5b505192915050565b600061114f615c07565b611158836131fe565b90506111638161322c565b15801561117f575061117c81600263ffffffff61327116565b15155b15156111d5576040805160e560020a62461bcd02815260206004820152601260248201527f43414e545f434c4541525f50454e414c54590000000000000000000000000000604482015290519081900360640190fd5b6111e8816002600063ffffffff61328916565b6111f28382613310565b6111fb83613329565b6112036133a0565b50919050565b6000611213612f54565b600160a060020a03166332f0a3b56040518163ffffffff1660e01b8152600401602060405180830381600087803b15801561124d57600080fd5b505af1158015611261573d6000803e3d6000fd5b505050506040513d602081101561127757600080fd5b5051905090565b606060008061128b612b0c565b9150818510158061129a575083155b156112a45761130d565b6112b084868403613469565b6040519080825280602002602001820160405280156112d9578160200160208202803883390190505b509250600090505b825181101561130d5780850183828151811015156112fb57fe5b602090810290910101526001016112e1565b505092915050565b3360009081526020819052604090205460ff16151561136c576040805160e560020a62461bcd0281526020600482015260096024820152600080516020615d08833981519152604482015290519081900360640190fd5b600160a060020a03919091166000908152602081905260409020805460ff1916911515919091179055565b60608060606113a4615c07565b6000806113b08961347f565b6113b989613491565b92506113e66113cf84600263ffffffff61327116565b6113df8a8a63ffffffff6134bf16565b1115613559565b6113f783600363ffffffff61327116565b9150611402876135b0565b604080518a81526020808c028201019091529197509550878015611430578160200160208202803883390190505b509350611457600080516020615d488339815191528a8a8a8a8a600063ffffffff61363b16565b86811015611489578181890110848281518110151561147257fe5b911515602092830290910190910152600101611457565b50505093509350939050565b3360009081526020819052604090205460ff1615156114ec576040805160e560020a62461bcd0281526020600482015260096024820152600080516020615d08833981519152604482015290519081900360640190fd5b6114f78383836136b2565b505050565b60009081526001602052604090205460ff1690565b61154a82828080601f01602080910402602001604051908101604052809392919081815260200183838082843750613826945050505050565b6115538361347f565b61156a600080516020615ca883398151915261388f565b6116178282604051808383808284378201915050925050506040518091039020600019166001600086815260200190815260200160002060010160405180828054600181600116156101000203166002900480156115ff5780601f106115dd5761010080835404028352918201916115ff565b820191906000526020600020905b8154815290600101906020018083116115eb575b505091505060405180910390206000191614156138cd565b600083815260016020819052604090912061163491018383615c19565b50827fcb16868f4831cc58a28d413f658752a2958bd1f50e94ed6391716b936c48093b83836040518080602001828103825284848281815260200192508082843760405192018290039550909350505050a2505050565b606080606060008060008061169e615c07565b6000806000806116ac612b0c565b98506116b6611c43565b9750876040519080825280602002602001820160405280156116e2578160200160208202803883390190505b509b508760405190808252806020026020018201604052801561170f578160200160208202803883390190505b509a508760405190808252806020026020018201604052801561173c578160200160208202803883390190505b50995060009650600095505b8884101561183d57611759846114fc565b151561176457611832565b61176d84613491565b945061178085600163ffffffff61327116565b925061179385600363ffffffff61327116565b91508282101561179f57fe5b506000838152600160205260409020548b5183830396870196916101009004600160a060020a0316908d90899081106117d457fe5b600160a060020a039092166020928302909101909101528a5181908c90899081106117fb57fe5b6020908102909101015261180e84611a89565b8a8881518110151561181c57fe5b9115156020928302909101909101526001909601955b836001019350611748565b851515611849576118ac565b600096505b878710156118ac578561187f8e8d8a81518110151561186957fe5b602090810290910101519063ffffffff61392416565b81151561188857fe5b048b8881518110151561189757fe5b6020908102909101015260019096019561184e565b5050505050505050509193909250565b6118d3600080516020615ca883398151915261388f565b6118dd82826139cf565b5050565b6118e9611f07565b60408051808201909152601881527f494e49545f414c52454144595f494e495449414c495a45440000000000000000602082015290156119aa5760405160e560020a62461bcd0281526004018080602001828103825283818151815260200191508051906020019080838360005b8381101561196f578181015183820152602001611957565b50505050905090810190601f16801561199c5780820380516001836020036101000a031916815260200191505b509250505060405180910390fd5b50336000908152602081905260409020805460ff191660011790556119d0838383613b72565b6114f7613dc2565b6119ef600080516020615ca883398151915261388f565b6119f881613e8a565b50565b600061105c7fc7e4f0db3aacc0f4459a7ba3f502527b72b0c1415ede72230244c98b8c28c1f46131fa565b3360009081526020819052604090205460ff161515611a7d576040805160e560020a62461bcd0281526020600482015260096024820152600080516020615d08833981519152604482015290519081900360640190fd5b6118dd828260016136b2565b6000611a93615c07565b611a9c836131fe565b9050611aa78161322c565b9392505050565b6000611ab8615c07565b600080611ac48561347f565b611adb600080516020615ca883398151915261388f565b611aec611ae7866114fc565b613f04565b611af4611c43565b9350611b25611b0a85600163ffffffff613f5b16565b600080516020615cc88339815191529063ffffffff613fef16565b6000858152600160209081526040808320805460ff1916905580519283525187927fecdf08e8a6c4493efb460f6abc7d14532074fa339c3a6410623a1d3ee0fb2cac92908290030190a2611b7885613491565b9250611b8b83600063ffffffff61327116565b9150611b9e83600363ffffffff61327116565b905080821115611bf157611bba8360008363ffffffff61328916565b611bc48584613ff3565b6040805182815290518691600080516020615d28833981519152919081900360200190a2611bf185613329565b611bf96133a0565b5050505050565b50600190565b600080516020615ce883398151915281565b600061105c7fd625496217aa6a3453eecb9c3489dc5a53e6c67b444329ea2b2cbc9ff547639b6131fa565b600061105c600080516020615cc88339815191526131fa565b336000908152602081905260408120548190819060ff161515611cb7576040805160e560020a62461bcd0281526020600482015260096024820152600080516020615d08833981519152604482015290519081900360640190fd5b611cf086868080601f01602080910402602001604051908101604052809392919081815260200183838082843750613826945050505050565b611cf98461400c565b611d10600080516020615ca883398151915261388f565b611d18612b0c565b925060c88310611d72576040805160e560020a62461bcd02815260206004820152601c60248201527f4d41585f4f50455241544f52535f434f554e545f455843454544454400000000604482015290519081900360640190fd5b611da57fa8ba51f4020606b93de19fb95c0a88ab51e3e1e4865f8f848bfd02c7564ad6836001850163ffffffff613fef16565b60008381526001602052604090209150611dbd611c43565b9050611de0600080516020615cc88339815191526001830163ffffffff613fef16565b815460ff191660019081178355611dfa9083018787615c19565b50815474ffffffffffffffffffffffffffffffffffffffff001916610100600160a060020a03861690810291909117835560408051858152908101919091526000606082018190526080602083018181529083018890527fc52ec0ad7872dae440d886040390c13677df7bf3cca136d8d81e5e5e7dd62ff19286928a928a928a929160a0820186868082843760405192018290039850909650505050505050a150509392505050565b604080517f636174616c6973742e56657273696f6e65642e636f6e7472616374566572736981527f6f6e0000000000000000000000000000000000000000000000000000000000006020820152905190819003602201902060009061105c906131fa565b600061105c7febb05b386a8d34882b8711d156f463690983dc47815980fb82aeeff1aa43579e6131fa565b6000611f3c615c07565b611f458361347f565b611f4e83613491565b9050611aa7611f6482600363ffffffff61327116565b611f7583600263ffffffff61327116565b9063ffffffff613f5b16565b6119f8600080516020615ce883398151915261388f565b600080516020615ca883398151915281565b6000611fc3600080516020615ce883398151915261388f565b611fcb612b0c565b905060008111156119f8576119f86000600183036139cf565b611fed8161347f565b612004600080516020615ca883398151915261388f565b612016612010826114fc565b15613f04565b61203f612021611c43565b600080516020615cc88339815191529060010163ffffffff613fef16565b600081815260016020818152604092839020805460ff1916831790558251918252915183927fecdf08e8a6c4493efb460f6abc7d14532074fa339c3a6410623a1d3ee0fb2cac928290030190a26119f86133a0565b61209d8161400c565b6120a68261347f565b6120bd600080516020615ca883398151915261388f565b6000828152600160205260409020546120e990600160a060020a038381166101009092041614156138cd565b600082815260016020908152604091829020805474ffffffffffffffffffffffffffffffffffffffff001916610100600160a060020a038616908102919091179091558251908152915184927f9a52205165d510fc1e428886d52108725dc01ed544da1702dc7bd3fdb3f243b292908290030190a25050565b60006060600080600080600080612177615c07565b6121808b61347f565b60008b8152600160205260409020805460ff81169a506101009004600160a060020a031697509150896121c15760408051602081019091526000815261224e565b60018281018054604080516020600295841615610100026000190190931694909404601f8101839004830285018301909152808452908301828280156122485780601f1061221d57610100808354040283529160200191612248565b820191906000526020600020905b81548152906001019060200180831161222b57829003601f168201915b50505050505b97506122598b613491565b905061226c81600063ffffffff61327116565b955061227f81600163ffffffff61327116565b945061229281600263ffffffff61327116565b93506122a581600363ffffffff61327116565b9250505092959891949750929550565b60006122bf615c07565b6122c7615c07565b6122cf615c07565b60008060008060006122df610f3f565b1515612335576040805160e560020a62461bcd02815260206004820152601860248201527f434f4e54524143545f4e4f545f494e495449414c495a45440000000000000000604482015290519081900360640190fd5b61233f60006140e6565b61234a8c8c8c613b72565b612352612b0c565b9850602060405190810160405280600081525095505b888210156124bd5761237982613491565b975061238c88600063ffffffff61327116565b945061239f88600263ffffffff61327116565b93506123b288600363ffffffff61327116565b60008381526001602052604090205490935060ff1615156123d45750816123ea565b6123e7846123e28588614144565b613469565b90505b848114612432576124038860008363ffffffff61328916565b61240d8289613ff3565b6040805182815290518391600080516020615d28833981519152919081900360200190a25b61243b82614153565b965061244f8760028363ffffffff61328916565b6124598288614181565b61246b8660008363ffffffff61419a16565b61247d8660038563ffffffff61419a16565b6124a060016124928a8263ffffffff61327116565b88919063ffffffff61419a16565b6124b28660028663ffffffff61419a16565b816001019150612368565b6124c6866141be565b6124ce6133a0565b505050505050505050505050565b60008060006124e9615c07565b6124f16141c4565b905061250481600163ffffffff61327116565b935061251781600363ffffffff61327116565b925061252e83611f7583600063ffffffff61327116565b915050909192565b6000808080808080612555600080516020615ce883398151915261388f565b61255f8a896141e0565b9650612569612b0c565b95506024600435019250602480350191505b868110156125ba576008810283013560c01c94506010810282013560801c93506001016125a9868610613559565b6125b58585600061425a565b61257b565b6125c26133a0565b5050505050505050505050565b60008080808080806125ee600080516020615ce883398151915261388f565b6125f88a896141e0565b9650612602612b0c565b95506024600435019250602480350191505b868110156125ba576008810283013560c01c94506010810282013560801c9350600101612642868610613559565b61264c8585614415565b612614565b600080600061265f84611c00565b60408051808201909152601281527f5245434f5645525f444953414c4c4f574544000000000000000000000000000060208201529015156126e55760405160e560020a62461bcd0281526004018080602001828103825283818151815260200191508051906020019080838360008381101561196f578181015183820152602001611957565b506126ee611209565b92506126f983614565565b60408051808201909152601a81527f5245434f5645525f5641554c545f4e4f545f434f4e5452414354000000000000602082015290151561277f5760405160e560020a62461bcd0281526004018080602001828103825283818151815260200191508051906020019080838360008381101561196f578181015183820152602001611957565b50600160a060020a03841615156127d05760405130319250600160a060020a0384169083156108fc029084906000818181858888f193505050501580156127ca573d6000803e3d6000fd5b5061288f565b50826127eb600160a060020a0382163063ffffffff61458b16565b9150612807600160a060020a038216848463ffffffff6146a016565b60408051808201909152601d81527f5245434f5645525f544f4b454e5f5452414e534645525f4641494c4544000000602082015290151561288d5760405160e560020a62461bcd0281526004018080602001828103825283818151815260200191508051906020019080838360008381101561196f578181015183820152602001611957565b505b83600160a060020a031683600160a060020a03167f596caf56044b55fb8c4ca640089bbc2b63cae3e978b851f5745cbb7c5b288e02846040518082815260200191505060405180910390a350505050565b6000806128eb610f3f565b15156128fa5760009150612a25565b612902612f54565b9050600160a060020a038116151561291d5760009150612a25565b80600160a060020a031663fdef91068630876129388861472b565b60405163ffffffff861660e01b8152600160a060020a03808616600483019081529085166024830152604482018490526080606483019081528351608484015283519192909160a490910190602085019080838360005b838110156129a757818101518382015260200161298f565b50505050905090810190601f1680156129d45780820380516001836020036101000a031916815260200191505b5095505050505050602060405180830381600087803b1580156129f657600080fd5b505af1158015612a0a573d6000803e3d6000fd5b505050506040513d6020811015612a2057600080fd5b505191505b509392505050565b612a368261347f565b612a4d600080516020615ce883398151915261388f565b6118dd8282614735565b600080612a62612f54565b604080517fbe00bbd80000000000000000000000000000000000000000000000000000000081527fd6f028ca0e8edb4a8c9757ca4fdccab25fa1e0317da1188108f7d2dee14902fb60048201527fddbcfd564f642ab5627cf68b9b7d374fb4f8a36e941a75d89c87998cef03bd6160248201529051600160a060020a03929092169163be00bbd8916044808201926020929091908290030181600087803b15801561111357600080fd5b600061105c7fa8ba51f4020606b93de19fb95c0a88ab51e3e1e4865f8f848bfd02c7564ad6836131fa565b612b3f615c07565b612b488461347f565b612b5f600080516020615ce883398151915261388f565b612b7367ffffffffffffffff831115613559565b612b7c84614153565b9050612ba3600084612b8f576000612b92565b60015b83919060ff1663ffffffff61328916565b612bc4600184612bb4576000612bb6565b835b83919063ffffffff61328916565b612bce8482614181565b60408051838152905185917fd50ea115db6f0b433ef9cc4b71110dbd9202364a00488be90718990be5bf16a6919081900360200190a2612c0d84613329565b612c156133a0565b50505050565b612c23615c07565b3360009081526020819052604081205481908190819060ff161515612c80576040805160e560020a62461bcd0281526020600482015260096024820152600080516020615d08833981519152604482015290519081900360640190fd5b612c898761347f565b612c95611ae7886114fc565b612c9e87613491565b9450612cb185600063ffffffff61327116565b9350612cc485600363ffffffff61327116565b9250612cd785600263ffffffff61327116565b9150612cf1826123e28867ffffffffffffffff1686614144565b905083811415612d0057612d51565b612d128560008363ffffffff61328916565b612d1c8786613ff3565b6040805182815290518891600080516020615d28833981519152919081900360200190a2612d4987613329565b612d516133a0565b50505050505050565b600080600080600080600080612d6e615c07565b612d76615c07565b612d7f8b61347f565b612d888b614153565b9150612d938b6131fe565b9050612da682600063ffffffff61327116565b15159950612dbb82600163ffffffff61327116565b9850612dce81600063ffffffff61327116565b9750612de181600163ffffffff61327116565b9650612df481600263ffffffff61327116565b9550612dff8b614856565b8095508196508297505050505050919395975091939597565b60608060006060612e2b86866001611397565b8051929650909450915081906000908110612e4257fe5b906020019060200201519150509250925092565b60ff81565b60608060008180612e79600080516020615ce883398151915261388f565b871515612e9f576040805160008082526020820190815281830190925295509350612f1e565b612ea888614876565b91945092509050878314612f06576040805160e560020a62461bcd02815260206004820152601c60248201527f494e56414c49445f414c4c4f43415445445f4b4559535f434f554e5400000000604482015290519081900360640190fd5b612f11838383614a08565b9095509350612f1e6133a0565b505050935093915050565b600061105c7fae4c74e51db40563c2a0b66cf096045ab6967a654ab458b1a1e514ac889e99166131fa565b600061105c7f4172f0f7d2289153072b0a6ca36959e0cbe2efc3afe50fc81636caa96338137b6131fa565b600061105c7f78cf2ae8585a788d3522cfc8563853b1d42f211c82681f58d76ed57a79ce97926131fa565b7f07b39e0faf2521001ae4e58cb9ffd3840a63e205d288dc9c93c3774f0d79475481565b6000612fd8615c07565b612fe18361347f565b612fea83613491565b9050611aa781600263ffffffff61327116565b600060001961300a611f07565b14905090565b6301e1338081565b61302f600080516020615ce883398151915261388f565b6119f8614be4565b60c881565b6130458361347f565b61305c600080516020615ce883398151915261388f565b6130668382614415565b6130728383600161425a565b6114f76133a0565b7f75abc64490e17b40ea1e66691c3eb493647b24430b358bd87ec3e5127f1621ee81565b60006130a8615c07565b6130b1836131fe565b90506130bc8161322c565b158015611aa757506130d581600263ffffffff61327116565b159392505050565b4390565b6130e9615c07565b60006130f3615c07565b6130fc8761347f565b6131063388615074565b6131258615801590613120575067ffffffffffffffff8711155b613559565b61312e87613491565b925061314183600263ffffffff61327116565b915061315f67ffffffffffffffff6113df848963ffffffff6134bf16565b613181600080516020615d48833981519152888489898963ffffffff6150dd16565b60408051828152905191935088917fdd01838a366ae4dc9a86e1922512c0716abebc9a440baae0e22d2dec578223f09181900360200190a26131cb8360028463ffffffff61328916565b6131d58784613ff3565b6131dd6141c4565b90506131f18160028863ffffffff61419a16565b612d49816141be565b5490565b613206615c07565b506000908152600160209081526040918290208251918201909252600390910154815290565b600061323e828263ffffffff61327116565b61324f83600163ffffffff61327116565b108061326b575061326782600263ffffffff61327116565b4211155b92915050565b905167ffffffffffffffff604090920260ff161c1690565b67ffffffffffffffff8111156132e9576040805160e560020a62461bcd02815260206004820152600f60248201527f5041434b45445f4f564552464c4f570000000000000000000000000000000000604482015290519081900360640190fd5b825167ffffffffffffffff91821660409390930260ff1692831b9190921b19909116179052565b6000918252600160205260409091209051600390910155565b600080613334615c07565b600061333f85615390565b935093508383141561335057611bf9565b6133586141c4565b91506133648385615484565b905083831115613385576133808260008363ffffffff61419a16565b613397565b6133978260008363ffffffff61549b16565b611bf9826141be565b60006133cb7fae4c74e51db40563c2a0b66cf096045ab6967a654ab458b1a1e514ac889e99166131fa565b60010190506134007fae4c74e51db40563c2a0b66cf096045ab6967a654ab458b1a1e514ac889e99168263ffffffff613fef16565b6040805182815290517ffb992daec9d46d64898e3a9336d02811349df6cbea8b95d4deb2fa6c7b454f0d9181900360200190a16040805182815290517f7220970e1f1f12864ecccd8942690a837c7a8dd45d158cb891eb45a8a69134aa9181900360200190a150565b60008183106134785781611aa7565b5090919050565b6119f861348a612b0c565b8210613559565b613499615c07565b506000908152600160209081526040918290208251918201909252600290910154815290565b60408051808201909152601181527f4d4154485f4144445f4f564552464c4f570000000000000000000000000000006020820152600090838301908482101561354d5760405160e560020a62461bcd0281526004018080602001828103825283818151815260200191508051906020019080838360008381101561196f578181015183820152602001611957565b508091505b5092915050565b8015156119f8576040805160e560020a62461bcd02815260206004820152600c60248201527f4f55545f4f465f52414e47450000000000000000000000000000000000000000604482015290519081900360640190fd5b6060806135c483603063ffffffff61392416565b6040519080825280601f01601f1916602001820160405280156135f1578160200160208202803883390190505b5061360384606063ffffffff61392416565b6040519080825280601f01601f191660200182016040528015613630578160200160208202803883390190505b509092509050915091565b6000805b858110156136a75761365a898989840163ffffffff6154ae16565b60018082015460801c85840160308181028a01908101929092528354602092830152600284015460609182028901928301526003840154604083015260048401549101529092500161363f565b505050505050505050565b6136ba615c07565b6000806136c5615c07565b6136ce8761347f565b6136d83388615074565b8415156136e457612d51565b6136ed87613491565b935061370084600263ffffffff61327116565b925061373161371685600363ffffffff61327116565b87101580156131205750836113df888863ffffffff6134bf16565b613752600080516020615d488339815191528888888763ffffffff61554116565b92506137668460028563ffffffff61328916565b60408051848152905188917fdd01838a366ae4dc9a86e1922512c0716abebc9a440baae0e22d2dec578223f0919081900360200190a26137ad84600063ffffffff61327116565b9150818610156137ee576137c98460008863ffffffff61328916565b6040805187815290518891600080516020615d28833981519152919081900360200190a25b6137f88785613ff3565b6138006141c4565b90506138148160028763ffffffff61549b16565b61381d816141be565b612d4987613329565b60008151118015613839575060ff815111155b15156119f8576040805160e560020a62461bcd02815260206004820152601160248201527f57524f4e475f4e414d455f4c454e475448000000000000000000000000000000604482015290519081900360640190fd5b6119f86138c8338360006040519080825280602002602001820160405280156138c2578160200160208202803883390190505b506128e0565b61574a565b8015156119f8576040805160e560020a62461bcd02815260206004820152601160248201527f56414c55455f49535f5448455f53414d45000000000000000000000000000000604482015290519081900360640190fd5b6000808315156139375760009150613552565b5082820282848281151561394757fe5b60408051808201909152601181527f4d4154485f4d554c5f4f564552464c4f570000000000000000000000000000006020820152929190041461354d5760405160e560020a62461bcd0281526004018080602001828103825283818151815260200191508051906020019080838360008381101561196f578181015183820152602001611957565b6000806000806139dd615c07565b60006139e7615c07565b613a04888a1115801561312057506139fd612b0c565b8910613559565b8891505b878211613b3c57613a1882613491565b9250613a2b83600263ffffffff61327116565b9450613a3e83600363ffffffff61327116565b935083851415613a4d57613b31565b838511613a5657fe5b838503965094860194613a718360028663ffffffff61328916565b613a838360008663ffffffff61328916565b613a8d8284613ff3565b613a9682613329565b60408051858152905183917fdd01838a366ae4dc9a86e1922512c0716abebc9a440baae0e22d2dec578223f0919081900360200190a26040805185815290518391600080516020615d28833981519152919081900360200190a26040805167ffffffffffffffff89168152905183917f9824694569ba758f8872bb150515caaf8f1e2cc27e6805679c4ac8c3b9b83d87919081900360200190a25b816001019150613a08565b60008611156136a757613b4d6141c4565b9050613b618160028863ffffffff61549b16565b613b6a816141be565b6136a76133a0565b613b7b836157a1565b613bab7f78cf2ae8585a788d3522cfc8563853b1d42f211c82681f58d76ed57a79ce97928463ffffffff613fef16565b613bdb7f9a0a83f020c011ede7f7462d94ddaa629f46fb9612004a64426e4082655dd7578363ffffffff613fef16565b613be56002615801565b613bee81613e8a565b613bf6612f7f565b600160a060020a031663dfcf5ac06040518163ffffffff1660e01b8152600401602060405180830381600087803b158015613c3057600080fd5b505af1158015613c44573d6000803e3d6000fd5b505050506040513d6020811015613c5a57600080fd5b5051600160a060020a031663095ea7b3613c72612f7f565b600160a060020a03166327810b6e6040518163ffffffff1660e01b8152600401602060405180830381600087803b158015613cac57600080fd5b505af1158015613cc0573d6000803e3d6000fd5b505050506040513d6020811015613cd657600080fd5b50516040805163ffffffff841660e01b8152600160a060020a03909216600483015260001960248301525160448083019260209291908290030181600087803b158015613d2257600080fd5b505af1158015613d36573d6000803e3d6000fd5b505050506040513d6020811015613d4c57600080fd5b505060408051600160a060020a038516815290517fa44aa4b7320163340e971b1f22f153bbb8a0151d783bd58377018ea5bc96d0c99181900360200190a16040805183815290517fdb042010b15d1321c99552200b350bba0a95dfa3d0b43869983ce74b44d644ee9181900360200190a1505050565b613dca611f07565b60408051808201909152601881527f494e49545f414c52454144595f494e495449414c495a4544000000000000000060208201529015613e4f5760405160e560020a62461bcd0281526004018080602001828103825283818151815260200191508051906020019080838360008381101561196f578181015183820152602001611957565b50613e88613e5b6130dd565b7febb05b386a8d34882b8711d156f463690983dc47815980fb82aeeff1aa43579e9063ffffffff613fef16565b565b613e9a6301e13380821115613559565b613eca7fc7e4f0db3aacc0f4459a7ba3f502527b72b0c1415ede72230244c98b8c28c1f48263ffffffff613fef16565b6040805182815290517f4cccd9748bff0341d9852cc61d82652a3003dcebea088f05388c0be1f26b4c8a9181900360200190a150565b5490565b8015156119f8576040805160e560020a62461bcd02815260206004820152601b60248201527f57524f4e475f4f50455241544f525f4143544956455f53544154450000000000604482015290519081900360640190fd5b60408051808201909152601281527f4d4154485f5355425f554e444552464c4f5700000000000000000000000000006020820152600090819084841115613fe75760405160e560020a62461bcd0281526004018080602001828103825283818151815260200191508051906020019080838360008381101561196f578181015183820152602001611957565b505050900390565b9055565b6000918252600160205260409091209051600290910155565b614015816157a1565b61401d612f7f565b600160a060020a031663dfcf5ac06040518163ffffffff1660e01b8152600401602060405180830381600087803b15801561405757600080fd5b505af115801561406b573d6000803e3d6000fd5b505050506040513d602081101561408157600080fd5b5051600160a060020a03828116911614156119f8576040805160e560020a62461bcd02815260206004820152601760248201527f434154414c4953545f5245574152445f41444452455353000000000000000000604482015290519081900360640190fd5b6140ee611ea3565b81146119f8576040805160e560020a62461bcd02815260206004820152601b60248201527f554e45585045435445445f434f4e54524143545f56455253494f4e0000000000604482015290519081900360640190fd5b60008183116134785781611aa7565b61415b615c07565b506000908152600160209081526040918290208251918201909252600490910154815290565b6000918252600160205260409091209051600490910155565b6114f783836141b9846141ad8888613271565b9063ffffffff6134bf16565b613289565b51600255565b6141cc615c07565b506040805160208101909152600254815290565b6008820460108204811480156141f7575060088306155b8015614204575060108206155b151561326b576040805160e560020a62461bcd02815260206004820152601360248201527f494e56414c49445f5245504f52545f4441544100000000000000000000000000604482015290519081900360640190fd5b614262615c07565b600080600061426f615c07565b600061427a89613491565b955061428d86600163ffffffff61327116565b94508488141561429c576136a7565b86806142a757508488115b1515614323576040805160e560020a62461bcd02815260206004820152602160248201527f4558495445445f56414c494441544f52535f434f554e545f444543524541534560448201527f4400000000000000000000000000000000000000000000000000000000000000606482015290519081900360840190fd5b61433486600363ffffffff61327116565b935061435060006143448b6131fe565b9063ffffffff61327116565b92508284101561435c57fe5b61436a838503891115613559565b61437c8660018a63ffffffff61328916565b6143868987613ff3565b6040805189815290518a917f0f67960648751434ae86bf350db61194f387fda387e7f568b0ccd0ae0c220166919081900360200190a26143c46141c4565b91506143d08886615484565b9050848811156143f1576143ec8260018363ffffffff61419a16565b614403565b6144038260018363ffffffff61549b16565b61440c826141be565b6136a789613329565b61441d615c07565b6000614427615c07565b6000806000614435886131fe565b955061444886600063ffffffff61327116565b9450848714156144575761455b565b61446088613491565b935061447384600163ffffffff61327116565b925061448684600363ffffffff61327116565b91508282101561449257fe5b6144a0838303881115613559565b6144b186600163ffffffff61327116565b90508087111580156144c257508085115b156144e4576144e460026144d46119fb565b889190420163ffffffff61328916565b6144f68660008963ffffffff61328916565b6145008887613310565b877f0ee42dd52dd2b8feb0fc9cc054a08162a23e022c177319db981cf339e5b8ffdb88836145358a600263ffffffff61327116565b60408051938452602084019290925282820152519081900360600190a261455b88613329565b5050505050505050565b600080600160a060020a03831615156145815760009150611203565b50506000903b1190565b60408051600160a060020a0383166024808301919091528251808303909101815260449091019091526020810180517bffffffffffffffffffffffffffffffffffffffffffffffffffffffff167f70a0823100000000000000000000000000000000000000000000000000000000179052600090818061460b868461589f565b60408051808201909152601c81527f534146455f4552435f32305f42414c414e43455f524556455254454400000000602082015291935091508215156146965760405160e560020a62461bcd0281526004018080602001828103825283818151815260200191508051906020019080838360008381101561196f578181015183820152602001611957565b5095945050505050565b60408051600160a060020a038416602482015260448082018490528251808303909101815260649091019091526020810180517bffffffffffffffffffffffffffffffffffffffffffffffffffffffff167fa9059cbb0000000000000000000000000000000000000000000000000000000017905260009061472285826158d0565b95945050505050565b8051602002815290565b61473d615c07565b6000614747615c07565b6000614752866131fe565b935061476584600163ffffffff61327116565b92508285141561477457611029565b61477d86613491565b915061479b61479383600363ffffffff61327116565b861115613559565b6147ac84600063ffffffff61327116565b90508085101580156147bd57508083105b156147df576147df60026147cf6119fb565b869190420163ffffffff61328916565b6147f18460018763ffffffff61328916565b6147fb8685613310565b857f0ee42dd52dd2b8feb0fc9cc054a08162a23e022c177319db981cf339e5b8ffdb828761483088600263ffffffff61327116565b60408051938452602084019290925282820152519081900360600190a261102986613329565b6000806000806148658561591e565b919790965090869003945092505050565b600060608060006060600080600080600080614890611c43565b9750876040519080825280602002602001820160405280156148bc578160200160208202803883390190505b509950876040519080825280602002602001820160405280156148e9578160200160208202803883390190505b50985087604051908082528060200260200182016040528015614916578160200160208202803883390190505b509650614921612b0c565b94505b848110156149a8576149358161591e565b95509350915082841415614948576149a0565b808a8781518110151561495757fe5b602090810290910101528851828403908a908890811061497357fe5b6020908102909101015286518285039088908890811061498f57fe5b602090810290910101526001909501945b600101614924565b8515156149d057604080516000808252602082018181528284019093529c509a5098506149f9565b878610156149e257858a528589528587525b6149ed89888e6159a3565b9a508a8c10156149f957fe5b50505050505050509193909250565b606080600080600080614a19615c07565b6000614a23615c07565b614a2c8c6135b0565b9099509750600096505b8a51821015614ba757614a5f8b83815181101515614a5057fe5b90602001906020020151613491565b9250614a7283600363ffffffff61327116565b95508982815181101515614a8257fe5b60209081029091010151614a9d84600163ffffffff61327116565b01945085851415614aad57614b9c565b858511614ab657fe5b8585039350614af68b83815181101515614acc57fe5b60209081029091010151600080516020615d488339815191529088878d8d8d63ffffffff61363b16565b8a51968401968b9083908110614b0857fe5b906020019060200201517f24eb1c9e765ba41accf9437300ea91ece5ed3f897ec3cdee0e9debd7fe309b78866040518082815260200191505060405180910390a2614b5b8360038763ffffffff61328916565b614b7c8b83815181101515614b6c57fe5b9060200190602002015184613ff3565b614b9c8b83815181101515614b8d57fe5b90602001906020020151613329565b816001019150614a36565b868c14614bb057fe5b614bb86141c4565b9050614bcc8160038963ffffffff61419a16565b614bd5816141be565b50505050505050935093915050565b60008060006060806060600080614bf9612f7f565b600160a060020a031663dfcf5ac06040518163ffffffff1660e01b8152600401602060405180830381600087803b158015614c3357600080fd5b505af1158015614c47573d6000803e3d6000fd5b505050506040513d6020811015614c5d57600080fd5b5051604080517ff5eb42dc0000000000000000000000000000000000000000000000000000000081523060048201529051919850600160a060020a0389169163f5eb42dc916024808201926020929091908290030181600087803b158015614cc457600080fd5b505af1158015614cd8573d6000803e3d6000fd5b505050506040513d6020811015614cee57600080fd5b50519550851515614cfe5761506a565b614d078661168b565b9450945094505b8451811015614f715760028482815181101515614d2757fe5b906020019060200201511015614d3c57614f69565b8281815181101515614d4a57fe5b9060200190602002015115614e145760018482815181101515614d6957fe5b602090810290910101805190911c90528351614da290859083908110614d8b57fe5b60209081029091010151839063ffffffff6134bf16565b91508481815181101515614db257fe5b90602001906020020151600160a060020a03167fe915a473fc2ef8e0231da98380f853b2aeea117a4392c67e753c54186bfbbd128583815181101515614df457fe5b906020019060200201516040518082815260200191505060405180910390a25b86600160a060020a0316638fcb4e5b8683815181101515614e3157fe5b906020019060200201518684815181101515614e4957fe5b906020019060200201516040518363ffffffff1660e01b81526004018083600160a060020a0316600160a060020a0316815260200182815260200192505050602060405180830381600087803b158015614ea257600080fd5b505af1158015614eb6573d6000803e3d6000fd5b505050506040513d6020811015614ecc57600080fd5b50508351614ef790859083908110614ee057fe5b60209081029091010151899063ffffffff6134bf16565b97508481815181101515614f0757fe5b90602001906020020151600160a060020a03167fdf29796aad820e4bb192f3a8d631b76519bcd2cbe77cc85af20e9df53cece0868583815181101515614f4957fe5b906020019060200201516040518082815260200191505060405180910390a25b600101614d0e565b600082111561506a57614f82612f7f565b600160a060020a03166327810b6e6040518163ffffffff1660e01b8152600401602060405180830381600087803b158015614fbc57600080fd5b505af1158015614fd0573d6000803e3d6000fd5b505050506040513d6020811015614fe657600080fd5b5051604080517f46114928000000000000000000000000000000000000000000000000000000008152306004820152602481018590529051600160a060020a039092169163461149289160448082019260009290919082900301818387803b15801561505157600080fd5b505af1158015615065573d6000803e3d6000fd5b505050505b5050505050505090565b60008181526001602052604090205460ff168015156114f7576040805160e560020a62461bcd02815260206004820152600a60248201527f4e4f545f41435449564500000000000000000000000000000000000000000000604482015290519081900360640190fd5b600080600060606000808811801561510c575067ffffffffffffffff6151098a8a63ffffffff6134bf16565b11155b1515615162576040805160e560020a62461bcd02815260206004820152601260248201527f494e56414c49445f4b4559535f434f554e540000000000000000000000000000604482015290519081900360640190fd5b61517388603063ffffffff61392416565b8751148015615192575061518e88606063ffffffff61392416565b8651145b15156151e8576040805160e560020a62461bcd02815260206004820152600f60248201527f4c454e4754485f4d49534d415443480000000000000000000000000000000000604482015290519081900360640190fd5b604080516030808252606082019092529060208201610600803883390190505091505b87811015615381576152248b8b8b63ffffffff6154ae16565b6030828102890160208181015191830151928601839052850181905291955017159250821561529d576040805160e560020a62461bcd02815260206004820152600960248201527f454d5054595f4b45590000000000000000000000000000000000000000000000604482015290519081900360640190fd5b60208201518455603082015160801b600185015560608102602087010180516002860155602081015160038601556040810151600486015560018201915060018a01995050897fc77a17d6b857abe6d6e6c37301621bc72c4dd52fa8830fb54dfa715c04911a89836040518080602001828103825283818151815260200191508051906020019080838360005b8381101561534257818101518382015260200161532a565b50505050905090810190601f16801561536f5780820380516001836020036101000a031916815260200191505b509250505060405180910390a261520b565b50969998505050505050505050565b60008061539b615c07565b6153a3615c07565b60006153ae86613491565b92506153b986614153565b91506153cc83600363ffffffff61327116565b90506153df83600063ffffffff61327116565b93506153ea8661309e565b15156153f857809350615446565b61540982600063ffffffff61327116565b15615446576154438161543e8661542786600163ffffffff61327116565b61543888600163ffffffff61327116565b01613469565b614144565b93505b61545782600263ffffffff61327116565b945083851461547c576154728260028663ffffffff61328916565b61547c8683614181565b505050915091565b600081831161549557828203611aa7565b50900390565b6114f783836141b984611f758888613271565b6040805160208082018690528183018590526060808301859052835180840390910181526080909201928390528151600093918291908401908083835b6020831061550a5780518252601f1990920191602091820191016154eb565b5181516020939093036101000a6000190180199091169216919091179052604051920182900390912060001c979650505050505050565b6000806000806060600080881180156155695750866155668a8a63ffffffff6134bf16565b11155b801561557d575067ffffffffffffffff8711155b15156155d3576040805160e560020a62461bcd02815260206004820152601260248201527f494e56414c49445f4b4559535f434f554e540000000000000000000000000000604482015290519081900360640190fd5b60408051603080825260608201909252906020820161060080388339019050509150508787015b8881111561573b576156178b8b600019840163ffffffff6154ae16565b9450600185015460801c603083015284546020830152868110156156715761564a8b8b6000198a0163ffffffff6154ae16565b9350600092505b600583101561566d578284015483860155600183019250615651565b8394505b600092505b600583101561569057600083860155600183019250615676565b600187039650600181039050897fea4b75aaf57196f73d338cadf79ecd0a437902e2dd0d2c4c2cf3ea71b8ab27b9836040518080602001828103825283818151815260200191508051906020019080838360005b838110156156fc5781810151838201526020016156e4565b50505050905090810190601f1680156157295780820380516001836020036101000a031916815260200191505b509250505060405180910390a26155fa565b50949998505050505050505050565b8015156119f8576040805160e560020a62461bcd02815260206004820152600f60248201527f4150505f415554485f4641494c45440000000000000000000000000000000000604482015290519081900360640190fd5b600160a060020a03811615156119f8576040805160e560020a62461bcd02815260206004820152600c60248201527f5a45524f5f414444524553530000000000000000000000000000000000000000604482015290519081900360640190fd5b604080517f636174616c6973742e56657273696f6e65642e636f6e7472616374566572736981527f6f6e00000000000000000000000000000000000000000000000000000000000060208201529051908190036022019020615869908263ffffffff613fef16565b6040805182815290517ffddcded6b4f4730c226821172046b48372d3cd963c159701ae1b7c3bcac541bb9181900360200190a150565b6000806000806040516020818751602089018a5afa925060008311156158c457805191505b50909590945092505050565b6000806040516020818551602087016000895af16000811115615914573d8015615901576020811461590a57615912565b60019350615912565b600183511493505b505b5090949350505050565b600080600061592b615c07565b615933615c07565b61593c86613491565b915061594786614153565b905061595a82600163ffffffff61327116565b945061596d82600363ffffffff61327116565b935061598081600263ffffffff61327116565b92508383101580156159925750848410155b151561599a57fe5b50509193909250565b6000805b82821015612a25576159bc85858486036159d3565b90508015156159ca57612a25565b908101906159a7565b8251600090600019828080808715156159ef5760009650615bd2565b600092505b8951831015615aad578883815181101515615a0b57fe5b906020019060200201518a84815181101515615a2357fe5b6020908102909101015110615a3757615aa2565b8983815181101515615a4557fe5b90602001906020020151851115615a7c57829550600193508983815181101515615a6b57fe5b906020019060200201519450615aa2565b8983815181101515615a8a57fe5b90602001906020020151851415615aa2576001840193505b8260010192506159f4565b831515615abd5760009650615bd2565b50600019905060005b8951811015615b6d578881815181101515615add57fe5b906020019060200201518a82815181101515615af557fe5b6020908102909101015110615b0957615b65565b848a82815181101515615b1857fe5b90602001906020020151118015615b455750818a82815181101515615b3957fe5b90602001906020020151105b15615b65578981815181101515615b5857fe5b9060200190602002015191505b600101615ac6565b615bb060018511615b7e5788615b88565b615b888986615bdf565b86615baa858d8b815181101515615b9b57fe5b90602001906020020151613469565b03613469565b9650868a87815181101515615bc157fe5b602090810290910101805190910190525b5050505050509392505050565b60008215615bfe578160018403811515615bf557fe5b04600101611aa7565b50600092915050565b60408051602081019091526000815290565b828054600181600116156101000203166002900490600052602060002090601f016020900481019282601f10615c5a5782800160ff19823516178555615c87565b82800160010185558215615c87579182015b82811115615c87578235825591602001919060010190615c6c565b50610f659261105f9250905b80821115610f655760008155600101615c93560078523850fdd761612f46e844cf5a16bda6b3151d6ae961fd7e8e7b92bfbca7f8528c4375bd03dacccfa477ddc3cf18a1b2150ec16e2c80a7fbab2ad74863c496bb75b874360e0bfd87f964eadd8276d8efb7c942134fc329b513032d0803e0c64e4f545f4f574e45520000000000000000000000000000000000000000000000947f955eec7e1f626bee3afd2aa47b5de04ddcdd3fe78dc8838213015ef58dfdbbd8409a02490f68701001c6093a797576de9f41e90c3fde72446a2661f3f79ea165627a7a72305820bcf38468d01f7b03599736ebad7065986242b445f2a7456bed810c779e76f2c20029ebb05b386a8d34882b8711d156f463690983dc47815980fb82aeeff1aa43579e",
  "linkReferences": {},
  "deployedLinkReferences": {}
}