{
  "_format": "hh-sol-artifact-1",
  "contractName": "AccountingOracle",
  "sourceName": "contracts/0.8.9/oracle/AccountingOracle.sol",
  "abi": [
    {
      "inputs": [
        {
          "internalType": "address",
          "name": "catalistLocator",
          "type": "address"
        },
        {
          "internalType": "address",
          "name": "catalist",
          "type": "address"
        },
        {
          "internalType": "address",
          "name": "legacyOracle",
          "type": "address"
        },
        {
          "internalType": "uint256",
          "name": "secondsPerSlot",
          "type": "uint256"
        },
        {
          "internalType": "uint256",
          "name": "genesisTime",
          "type": "uint256"
        }
      ],
      "stateMutability": "nonpayable",
      "type": "constructor"
    },
    {
      "inputs": [],
      "name": "AddressCannotBeSame",
      "type": "error"
    },
    {
      "inputs": [],
      "name": "AddressCannotBeZero",
      "type": "error"
    },
    {
      "inputs": [],
      "name": "AdminCannotBeZero",
      "type": "error"
    },
    {
      "inputs": [],
      "name": "CannotSubmitExtraDataBeforeMainData",
      "type": "error"
    },
    {
      "inputs": [],
      "name": "CatalistCannotBeZero",
      "type": "error"
    },
    {
      "inputs": [],
      "name": "CatalistLocatorCannotBeZero",
      "type": "error"
    },
    {
      "inputs": [],
      "name": "ExtraDataAlreadyProcessed",
      "type": "error"
    },
    {
      "inputs": [],
      "name": "ExtraDataHashCannotBeZeroForNonEmptyData",
      "type": "error"
    },
    {
      "inputs": [],
      "name": "ExtraDataItemsCountCannotBeZeroForNonEmptyData",
      "type": "error"
    },
    {
      "inputs": [],
      "name": "ExtraDataListOnlySupportsSingleTx",
      "type": "error"
    },
    {
      "inputs": [],
      "name": "HashCannotBeZero",
      "type": "error"
    },
    {
      "inputs": [
        {
          "internalType": "uint256",
          "name": "code",
          "type": "uint256"
        }
      ],
      "name": "IncorrectOracleMigration",
      "type": "error"
    },
    {
      "inputs": [
        {
          "internalType": "uint256",
          "name": "initialRefSlot",
          "type": "uint256"
        },
        {
          "internalType": "uint256",
          "name": "processingRefSlot",
          "type": "uint256"
        }
      ],
      "name": "InitialRefSlotCannotBeLessThanProcessingOne",
      "type": "error"
    },
    {
      "inputs": [],
      "name": "InvalidContractVersionIncrement",
      "type": "error"
    },
    {
      "inputs": [],
      "name": "InvalidExitedValidatorsData",
      "type": "error"
    },
    {
      "inputs": [
        {
          "internalType": "uint256",
          "name": "itemIndex",
          "type": "uint256"
        }
      ],
      "name": "InvalidExtraDataItem",
      "type": "error"
    },
    {
      "inputs": [
        {
          "internalType": "uint256",
          "name": "itemIndex",
          "type": "uint256"
        }
      ],
      "name": "InvalidExtraDataSortOrder",
      "type": "error"
    },
    {
      "inputs": [],
      "name": "LegacyOracleCannotBeZero",
      "type": "error"
    },
    {
      "inputs": [],
      "name": "NoConsensusReportToProcess",
      "type": "error"
    },
    {
      "inputs": [],
      "name": "NonZeroContractVersionOnInit",
      "type": "error"
    },
    {
      "inputs": [
        {
          "internalType": "uint256",
          "name": "deadline",
          "type": "uint256"
        }
      ],
      "name": "ProcessingDeadlineMissed",
      "type": "error"
    },
    {
      "inputs": [],
      "name": "RefSlotAlreadyProcessing",
      "type": "error"
    },
    {
      "inputs": [
        {
          "internalType": "uint256",
          "name": "refSlot",
          "type": "uint256"
        },
        {
          "internalType": "uint256",
          "name": "prevRefSlot",
          "type": "uint256"
        }
      ],
      "name": "RefSlotCannotDecrease",
      "type": "error"
    },
    {
      "inputs": [
        {
          "internalType": "uint256",
          "name": "refSlot",
          "type": "uint256"
        },
        {
          "internalType": "uint256",
          "name": "processingRefSlot",
          "type": "uint256"
        }
      ],
      "name": "RefSlotMustBeGreaterThanProcessingOne",
      "type": "error"
    },
    {
      "inputs": [],
      "name": "SecondsPerSlotCannotBeZero",
      "type": "error"
    },
    {
      "inputs": [],
      "name": "SenderIsNotTheConsensusContract",
      "type": "error"
    },
    {
      "inputs": [],
      "name": "SenderNotAllowed",
      "type": "error"
    },
    {
      "inputs": [],
      "name": "UnexpectedChainConfig",
      "type": "error"
    },
    {
      "inputs": [
        {
          "internalType": "uint256",
          "name": "expectedVersion",
          "type": "uint256"
        },
        {
          "internalType": "uint256",
          "name": "receivedVersion",
          "type": "uint256"
        }
      ],
      "name": "UnexpectedConsensusVersion",
      "type": "error"
    },
    {
      "inputs": [
        {
          "internalType": "uint256",
          "name": "expected",
          "type": "uint256"
        },
        {
          "internalType": "uint256",
          "name": "received",
          "type": "uint256"
        }
      ],
      "name": "UnexpectedContractVersion",
      "type": "error"
    },
    {
      "inputs": [
        {
          "internalType": "bytes32",
          "name": "consensusHash",
          "type": "bytes32"
        },
        {
          "internalType": "bytes32",
          "name": "receivedHash",
          "type": "bytes32"
        }
      ],
      "name": "UnexpectedDataHash",
      "type": "error"
    },
    {
      "inputs": [
        {
          "internalType": "uint256",
          "name": "expectedFormat",
          "type": "uint256"
        },
        {
          "internalType": "uint256",
          "name": "receivedFormat",
          "type": "uint256"
        }
      ],
      "name": "UnexpectedExtraDataFormat",
      "type": "error"
    },
    {
      "inputs": [
        {
          "internalType": "bytes32",
          "name": "consensusHash",
          "type": "bytes32"
        },
        {
          "internalType": "bytes32",
          "name": "receivedHash",
          "type": "bytes32"
        }
      ],
      "name": "UnexpectedExtraDataHash",
      "type": "error"
    },
    {
      "inputs": [
        {
          "internalType": "uint256",
          "name": "expectedIndex",
          "type": "uint256"
        },
        {
          "internalType": "uint256",
          "name": "receivedIndex",
          "type": "uint256"
        }
      ],
      "name": "UnexpectedExtraDataIndex",
      "type": "error"
    },
    {
      "inputs": [
        {
          "internalType": "uint256",
          "name": "expectedCount",
          "type": "uint256"
        },
        {
          "internalType": "uint256",
          "name": "receivedCount",
          "type": "uint256"
        }
      ],
      "name": "UnexpectedExtraDataItemsCount",
      "type": "error"
    },
    {
      "inputs": [
        {
          "internalType": "uint256",
          "name": "consensusRefSlot",
          "type": "uint256"
        },
        {
          "internalType": "uint256",
          "name": "dataRefSlot",
          "type": "uint256"
        }
      ],
      "name": "UnexpectedRefSlot",
      "type": "error"
    },
    {
      "inputs": [
        {
          "internalType": "uint256",
          "name": "format",
          "type": "uint256"
        }
      ],
      "name": "UnsupportedExtraDataFormat",
      "type": "error"
    },
    {
      "inputs": [
        {
          "internalType": "uint256",
          "name": "itemIndex",
          "type": "uint256"
        },
        {
          "internalType": "uint256",
          "name": "dataType",
          "type": "uint256"
        }
      ],
      "name": "UnsupportedExtraDataType",
      "type": "error"
    },
    {
      "inputs": [],
      "name": "VersionCannotBeSame",
      "type": "error"
    },
    {
      "anonymous": false,
      "inputs": [
        {
          "indexed": true,
          "internalType": "address",
          "name": "addr",
          "type": "address"
        },
        {
          "indexed": true,
          "internalType": "address",
          "name": "prevAddr",
          "type": "address"
        }
      ],
      "name": "ConsensusHashContractSet",
      "type": "event"
    },
    {
      "anonymous": false,
      "inputs": [
        {
          "indexed": true,
          "internalType": "uint256",
          "name": "version",
          "type": "uint256"
        },
        {
          "indexed": true,
          "internalType": "uint256",
          "name": "prevVersion",
          "type": "uint256"
        }
      ],
      "name": "ConsensusVersionSet",
      "type": "event"
    },
    {
      "anonymous": false,
      "inputs": [
        {
          "indexed": false,
          "internalType": "uint256",
          "name": "version",
          "type": "uint256"
        }
      ],
      "name": "ContractVersionSet",
      "type": "event"
    },
    {
      "anonymous": false,
      "inputs": [
        {
          "indexed": true,
          "internalType": "uint256",
          "name": "refSlot",
          "type": "uint256"
        },
        {
          "indexed": false,
          "internalType": "uint256",
          "name": "itemsProcessed",
          "type": "uint256"
        },
        {
          "indexed": false,
          "internalType": "uint256",
          "name": "itemsCount",
          "type": "uint256"
        }
      ],
      "name": "ExtraDataSubmitted",
      "type": "event"
    },
    {
      "anonymous": false,
      "inputs": [
        {
          "indexed": true,
          "internalType": "uint256",
          "name": "refSlot",
          "type": "uint256"
        },
        {
          "indexed": false,
          "internalType": "bytes32",
          "name": "hash",
          "type": "bytes32"
        }
      ],
      "name": "ProcessingStarted",
      "type": "event"
    },
    {
      "anonymous": false,
      "inputs": [
        {
          "indexed": true,
          "internalType": "uint256",
          "name": "refSlot",
          "type": "uint256"
        },
        {
          "indexed": false,
          "internalType": "bytes32",
          "name": "hash",
          "type": "bytes32"
        }
      ],
      "name": "ReportDiscarded",
      "type": "event"
    },
    {
      "anonymous": false,
      "inputs": [
        {
          "indexed": true,
          "internalType": "uint256",
          "name": "refSlot",
          "type": "uint256"
        },
        {
          "indexed": false,
          "internalType": "bytes32",
          "name": "hash",
          "type": "bytes32"
        },
        {
          "indexed": false,
          "internalType": "uint256",
          "name": "processingDeadlineTime",
          "type": "uint256"
        }
      ],
      "name": "ReportSubmitted",
      "type": "event"
    },
    {
      "anonymous": false,
      "inputs": [
        {
          "indexed": true,
          "internalType": "bytes32",
          "name": "role",
          "type": "bytes32"
        },
        {
          "indexed": true,
          "internalType": "bytes32",
          "name": "previousAdminRole",
          "type": "bytes32"
        },
        {
          "indexed": true,
          "internalType": "bytes32",
          "name": "newAdminRole",
          "type": "bytes32"
        }
      ],
      "name": "RoleAdminChanged",
      "type": "event"
    },
    {
      "anonymous": false,
      "inputs": [
        {
          "indexed": true,
          "internalType": "bytes32",
          "name": "role",
          "type": "bytes32"
        },
        {
          "indexed": true,
          "internalType": "address",
          "name": "account",
          "type": "address"
        },
        {
          "indexed": true,
          "internalType": "address",
          "name": "sender",
          "type": "address"
        }
      ],
      "name": "RoleGranted",
      "type": "event"
    },
    {
      "anonymous": false,
      "inputs": [
        {
          "indexed": true,
          "internalType": "bytes32",
          "name": "role",
          "type": "bytes32"
        },
        {
          "indexed": true,
          "internalType": "address",
          "name": "account",
          "type": "address"
        },
        {
          "indexed": true,
          "internalType": "address",
          "name": "sender",
          "type": "address"
        }
      ],
      "name": "RoleRevoked",
      "type": "event"
    },
    {
      "anonymous": false,
      "inputs": [
        {
          "indexed": true,
          "internalType": "uint256",
          "name": "refSlot",
          "type": "uint256"
        },
        {
          "indexed": false,
          "internalType": "uint256",
          "name": "processedItemsCount",
          "type": "uint256"
        },
        {
          "indexed": false,
          "internalType": "uint256",
          "name": "itemsCount",
          "type": "uint256"
        }
      ],
      "name": "WarnExtraDataIncompleteProcessing",
      "type": "event"
    },
    {
      "anonymous": false,
      "inputs": [
        {
          "indexed": true,
          "internalType": "uint256",
          "name": "refSlot",
          "type": "uint256"
        }
      ],
      "name": "WarnProcessingMissed",
      "type": "event"
    },
    {
      "inputs": [],
      "name": "CATALIST",
      "outputs": [
        {
          "internalType": "address",
          "name": "",
          "type": "address"
        }
      ],
      "stateMutability": "view",
      "type": "function"
    },
    {
      "inputs": [],
      "name": "DEFAULT_ADMIN_ROLE",
      "outputs": [
        {
          "internalType": "bytes32",
          "name": "",
          "type": "bytes32"
        }
      ],
      "stateMutability": "view",
      "type": "function"
    },
    {
      "inputs": [],
      "name": "EXTRA_DATA_FORMAT_EMPTY",
      "outputs": [
        {
          "internalType": "uint256",
          "name": "",
          "type": "uint256"
        }
      ],
      "stateMutability": "view",
      "type": "function"
    },
    {
      "inputs": [],
      "name": "EXTRA_DATA_FORMAT_LIST",
      "outputs": [
        {
          "internalType": "uint256",
          "name": "",
          "type": "uint256"
        }
      ],
      "stateMutability": "view",
      "type": "function"
    },
    {
      "inputs": [],
      "name": "EXTRA_DATA_TYPE_EXITED_VALIDATORS",
      "outputs": [
        {
          "internalType": "uint256",
          "name": "",
          "type": "uint256"
        }
      ],
      "stateMutability": "view",
      "type": "function"
    },
    {
      "inputs": [],
      "name": "EXTRA_DATA_TYPE_STUCK_VALIDATORS",
      "outputs": [
        {
          "internalType": "uint256",
          "name": "",
          "type": "uint256"
        }
      ],
      "stateMutability": "view",
      "type": "function"
    },
    {
      "inputs": [],
      "name": "GENESIS_TIME",
      "outputs": [
        {
          "internalType": "uint256",
          "name": "",
          "type": "uint256"
        }
      ],
      "stateMutability": "view",
      "type": "function"
    },
    {
      "inputs": [],
      "name": "LEGACY_ORACLE",
      "outputs": [
        {
          "internalType": "address",
          "name": "",
          "type": "address"
        }
      ],
      "stateMutability": "view",
      "type": "function"
    },
    {
      "inputs": [],
      "name": "LOCATOR",
      "outputs": [
        {
          "internalType": "contract ICatalistLocator",
          "name": "",
          "type": "address"
        }
      ],
      "stateMutability": "view",
      "type": "function"
    },
    {
      "inputs": [],
      "name": "MANAGE_CONSENSUS_CONTRACT_ROLE",
      "outputs": [
        {
          "internalType": "bytes32",
          "name": "",
          "type": "bytes32"
        }
      ],
      "stateMutability": "view",
      "type": "function"
    },
    {
      "inputs": [],
      "name": "MANAGE_CONSENSUS_VERSION_ROLE",
      "outputs": [
        {
          "internalType": "bytes32",
          "name": "",
          "type": "bytes32"
        }
      ],
      "stateMutability": "view",
      "type": "function"
    },
    {
      "inputs": [],
      "name": "SECONDS_PER_SLOT",
      "outputs": [
        {
          "internalType": "uint256",
          "name": "",
          "type": "uint256"
        }
      ],
      "stateMutability": "view",
      "type": "function"
    },
    {
      "inputs": [],
      "name": "SUBMIT_DATA_ROLE",
      "outputs": [
        {
          "internalType": "bytes32",
          "name": "",
          "type": "bytes32"
        }
      ],
      "stateMutability": "view",
      "type": "function"
    },
    {
      "inputs": [
        {
          "internalType": "uint256",
          "name": "refSlot",
          "type": "uint256"
        }
      ],
      "name": "discardConsensusReport",
      "outputs": [],
      "stateMutability": "nonpayable",
      "type": "function"
    },
    {
      "inputs": [],
      "name": "getConsensusContract",
      "outputs": [
        {
          "internalType": "address",
          "name": "",
          "type": "address"
        }
      ],
      "stateMutability": "view",
      "type": "function"
    },
    {
      "inputs": [],
      "name": "getConsensusReport",
      "outputs": [
        {
          "internalType": "bytes32",
          "name": "hash",
          "type": "bytes32"
        },
        {
          "internalType": "uint256",
          "name": "refSlot",
          "type": "uint256"
        },
        {
          "internalType": "uint256",
          "name": "processingDeadlineTime",
          "type": "uint256"
        },
        {
          "internalType": "bool",
          "name": "processingStarted",
          "type": "bool"
        }
      ],
      "stateMutability": "view",
      "type": "function"
    },
    {
      "inputs": [],
      "name": "getConsensusVersion",
      "outputs": [
        {
          "internalType": "uint256",
          "name": "",
          "type": "uint256"
        }
      ],
      "stateMutability": "view",
      "type": "function"
    },
    {
      "inputs": [],
      "name": "getContractVersion",
      "outputs": [
        {
          "internalType": "uint256",
          "name": "",
          "type": "uint256"
        }
      ],
      "stateMutability": "view",
      "type": "function"
    },
    {
      "inputs": [],
      "name": "getLastProcessingRefSlot",
      "outputs": [
        {
          "internalType": "uint256",
          "name": "",
          "type": "uint256"
        }
      ],
      "stateMutability": "view",
      "type": "function"
    },
    {
      "inputs": [],
      "name": "getProcessingState",
      "outputs": [
        {
          "components": [
            {
              "internalType": "uint256",
              "name": "currentFrameRefSlot",
              "type": "uint256"
            },
            {
              "internalType": "uint256",
              "name": "processingDeadlineTime",
              "type": "uint256"
            },
            {
              "internalType": "bytes32",
              "name": "mainDataHash",
              "type": "bytes32"
            },
            {
              "internalType": "bool",
              "name": "mainDataSubmitted",
              "type": "bool"
            },
            {
              "internalType": "bytes32",
              "name": "extraDataHash",
              "type": "bytes32"
            },
            {
              "internalType": "uint256",
              "name": "extraDataFormat",
              "type": "uint256"
            },
            {
              "internalType": "bool",
              "name": "extraDataSubmitted",
              "type": "bool"
            },
            {
              "internalType": "uint256",
              "name": "extraDataItemsCount",
              "type": "uint256"
            },
            {
              "internalType": "uint256",
              "name": "extraDataItemsSubmitted",
              "type": "uint256"
            }
          ],
          "internalType": "struct AccountingOracle.ProcessingState",
          "name": "result",
          "type": "tuple"
        }
      ],
      "stateMutability": "view",
      "type": "function"
    },
    {
      "inputs": [
        {
          "internalType": "bytes32",
          "name": "role",
          "type": "bytes32"
        }
      ],
      "name": "getRoleAdmin",
      "outputs": [
        {
          "internalType": "bytes32",
          "name": "",
          "type": "bytes32"
        }
      ],
      "stateMutability": "view",
      "type": "function"
    },
    {
      "inputs": [
        {
          "internalType": "bytes32",
          "name": "role",
          "type": "bytes32"
        },
        {
          "internalType": "uint256",
          "name": "index",
          "type": "uint256"
        }
      ],
      "name": "getRoleMember",
      "outputs": [
        {
          "internalType": "address",
          "name": "",
          "type": "address"
        }
      ],
      "stateMutability": "view",
      "type": "function"
    },
    {
      "inputs": [
        {
          "internalType": "bytes32",
          "name": "role",
          "type": "bytes32"
        }
      ],
      "name": "getRoleMemberCount",
      "outputs": [
        {
          "internalType": "uint256",
          "name": "",
          "type": "uint256"
        }
      ],
      "stateMutability": "view",
      "type": "function"
    },
    {
      "inputs": [
        {
          "internalType": "bytes32",
          "name": "role",
          "type": "bytes32"
        },
        {
          "internalType": "address",
          "name": "account",
          "type": "address"
        }
      ],
      "name": "grantRole",
      "outputs": [],
      "stateMutability": "nonpayable",
      "type": "function"
    },
    {
      "inputs": [
        {
          "internalType": "bytes32",
          "name": "role",
          "type": "bytes32"
        },
        {
          "internalType": "address",
          "name": "account",
          "type": "address"
        }
      ],
      "name": "hasRole",
      "outputs": [
        {
          "internalType": "bool",
          "name": "",
          "type": "bool"
        }
      ],
      "stateMutability": "view",
      "type": "function"
    },
    {
      "inputs": [
        {
          "internalType": "address",
          "name": "admin",
          "type": "address"
        },
        {
          "internalType": "address",
          "name": "consensusContract",
          "type": "address"
        },
        {
          "internalType": "uint256",
          "name": "consensusVersion",
          "type": "uint256"
        }
      ],
      "name": "initialize",
      "outputs": [],
      "stateMutability": "nonpayable",
      "type": "function"
    },
    {
      "inputs": [
        {
          "internalType": "address",
          "name": "admin",
          "type": "address"
        },
        {
          "internalType": "address",
          "name": "consensusContract",
          "type": "address"
        },
        {
          "internalType": "uint256",
          "name": "consensusVersion",
          "type": "uint256"
        },
        {
          "internalType": "uint256",
          "name": "lastProcessingRefSlot",
          "type": "uint256"
        }
      ],
      "name": "initializeWithoutMigration",
      "outputs": [],
      "stateMutability": "nonpayable",
      "type": "function"
    },
    {
      "inputs": [
        {
          "internalType": "bytes32",
          "name": "role",
          "type": "bytes32"
        },
        {
          "internalType": "address",
          "name": "account",
          "type": "address"
        }
      ],
      "name": "renounceRole",
      "outputs": [],
      "stateMutability": "nonpayable",
      "type": "function"
    },
    {
      "inputs": [
        {
          "internalType": "bytes32",
          "name": "role",
          "type": "bytes32"
        },
        {
          "internalType": "address",
          "name": "account",
          "type": "address"
        }
      ],
      "name": "revokeRole",
      "outputs": [],
      "stateMutability": "nonpayable",
      "type": "function"
    },
    {
      "inputs": [
        {
          "internalType": "address",
          "name": "addr",
          "type": "address"
        }
      ],
      "name": "setConsensusContract",
      "outputs": [],
      "stateMutability": "nonpayable",
      "type": "function"
    },
    {
      "inputs": [
        {
          "internalType": "uint256",
          "name": "version",
          "type": "uint256"
        }
      ],
      "name": "setConsensusVersion",
      "outputs": [],
      "stateMutability": "nonpayable",
      "type": "function"
    },
    {
      "inputs": [
        {
          "internalType": "bytes32",
          "name": "reportHash",
          "type": "bytes32"
        },
        {
          "internalType": "uint256",
          "name": "refSlot",
          "type": "uint256"
        },
        {
          "internalType": "uint256",
          "name": "deadline",
          "type": "uint256"
        }
      ],
      "name": "submitConsensusReport",
      "outputs": [],
      "stateMutability": "nonpayable",
      "type": "function"
    },
    {
      "inputs": [
        {
          "components": [
            {
              "internalType": "uint256",
              "name": "consensusVersion",
              "type": "uint256"
            },
            {
              "internalType": "uint256",
              "name": "refSlot",
              "type": "uint256"
            },
            {
              "internalType": "uint256",
              "name": "numValidators",
              "type": "uint256"
            },
            {
              "internalType": "uint256",
              "name": "clBalanceGwei",
              "type": "uint256"
            },
            {
              "internalType": "uint256[]",
              "name": "stakingModuleIdsWithNewlyExitedValidators",
              "type": "uint256[]"
            },
            {
              "internalType": "uint256[]",
              "name": "numExitedValidatorsByStakingModule",
              "type": "uint256[]"
            },
            {
              "internalType": "uint256",
              "name": "withdrawalVaultBalance",
              "type": "uint256"
            },
            {
              "internalType": "uint256",
              "name": "elRewardsVaultBalance",
              "type": "uint256"
            },
            {
              "internalType": "uint256",
              "name": "sharesRequestedToBurn",
              "type": "uint256"
            },
            {
              "internalType": "uint256[]",
              "name": "withdrawalFinalizationBatches",
              "type": "uint256[]"
            },
            {
              "internalType": "uint256",
              "name": "simulatedShareRate",
              "type": "uint256"
            },
            {
              "internalType": "bool",
              "name": "isBunkerMode",
              "type": "bool"
            },
            {
              "internalType": "uint256",
              "name": "extraDataFormat",
              "type": "uint256"
            },
            {
              "internalType": "bytes32",
              "name": "extraDataHash",
              "type": "bytes32"
            },
            {
              "internalType": "uint256",
              "name": "extraDataItemsCount",
              "type": "uint256"
            }
          ],
          "internalType": "struct AccountingOracle.ReportData",
          "name": "data",
          "type": "tuple"
        },
        {
          "internalType": "uint256",
          "name": "contractVersion",
          "type": "uint256"
        }
      ],
      "name": "submitReportData",
      "outputs": [],
      "stateMutability": "nonpayable",
      "type": "function"
    },
    {
      "inputs": [],
      "name": "submitReportExtraDataEmpty",
      "outputs": [],
      "stateMutability": "nonpayable",
      "type": "function"
    },
    {
      "inputs": [
        {
          "internalType": "bytes",
          "name": "items",
          "type": "bytes"
        }
      ],
      "name": "submitReportExtraDataList",
      "outputs": [],
      "stateMutability": "nonpayable",
      "type": "function"
    },
    {
      "inputs": [
        {
          "internalType": "bytes4",
          "name": "interfaceId",
          "type": "bytes4"
        }
      ],
      "name": "supportsInterface",
      "outputs": [
        {
          "internalType": "bool",
          "name": "",
          "type": "bool"
        }
      ],
      "stateMutability": "view",
      "type": "function"
    }
  ],
  "bytecode": "0x6101206040523480156200001257600080fd5b506040516200430538038062004305833981016040819052620000359162000155565b8181620000736000197ff812f8d799ea071b4ecf0f6612f1129571268aad3c9d7f3535c25db1f88757726200013460201b62000f0b1790919060201c565b816200009257604051636ed243a560e01b815260040160405180910390fd5b60809190915260a0526001600160a01b038516620000c3576040516352fd35c160e01b815260040160405180910390fd5b6001600160a01b038316620000eb57604051639417a57760e01b815260040160405180910390fd5b6001600160a01b0384166200011357604051631fe64f9d60e01b815260040160405180910390fd5b50506001600160a01b0392831660e05290821660c0521661010052620001b2565b9055565b80516001600160a01b03811681146200015057600080fd5b919050565b600080600080600060a086880312156200016e57600080fd5b620001798662000138565b9450620001896020870162000138565b9350620001996040870162000138565b6060870151608090970151959894975095949392505050565b60805160a05160c05160e05161010051614082620002836000396000818161051e0152818161081001526122d20152600081816103350152818161129601528181611ce8015281816121e3015281816123920152818161242701528181612aa901526131670152600081816104d1015261260901526000818161056b01528181611ada0152818161252d01528181612585015261266c0152600081816102c401528181611ab001528181612502015281816125560152818161263801528181612695015261312801526140826000f3fe608060405234801561001057600080fd5b506004361061021b5760003560e01c80638d59147411610125578063bfb32609116100ad578063d43812171161007c578063d438121714610540578063d547741f14610553578063f288246114610566578063fa565b051461058d578063fc7377cd1461059557600080fd5b8063bfb32609146104cc578063c469c307146104f3578063ca15c87314610506578063ce976fa91461051957600080fd5b806391d14854116100f457806391d14854146104585780639cc23c791461046b578063a217fddf146103a1578063ad5cac4e14610492578063b74d4631146104b957600080fd5b80638d591474146103b15780638f55b571146103c45780638f7797c2146103cc5780639010d07c1461044557600080fd5b806336568abe116101a85780635be20425116101775780635be204251461036f57806360d64d3814610377578063672690b41461022057806374facb9b146103a15780638aa10435146103a957600080fd5b806336568abe146102ee57806346e1f57614610301578063560f97cb1461032857806357a782891461033057600080fd5b80631794bb3c116101ef5780631794bb3c14610286578063248a9ca3146102995780632f2ff15d146102ac578063304b9071146102bf5780633584d59c146102e657600080fd5b80625418e11461022057806301ffc9a71461023b578063063f36ad1461025e57806306c373da14610273575b600080fd5b610228600181565b6040519081526020015b60405180910390f35b61024e6102493660046136d6565b6105a8565b6040519015158152602001610232565b61027161026c366004613700565b6105d3565b005b61027161028136600461372c565b6107d4565b6102716102943660046137b2565b6107e2565b6102286102a73660046137f3565b610849565b6102716102ba36600461380c565b61086b565b6102287f000000000000000000000000000000000000000000000000000000000000000081565b61022861088d565b6102716102fc36600461380c565b6108aa565b6102287f65fa0c17458517c727737e4153dd477fa3e328cf706640b0f68b1a285c5990da81565b610228600281565b6103577f000000000000000000000000000000000000000000000000000000000000000081565b6040516001600160a01b039091168152602001610232565b610228610924565b61037f61093c565b6040805194855260208501939093529183015215156060820152608001610232565b610228600081565b6102286109e4565b6102716103bf3660046137f3565b610a0e565b610357610a42565b6103d4610a5a565b60405161023291906000610120820190508251825260208301516020830152604083015160408301526060830151151560608301526080830151608083015260a083015160a083015260c0830151151560c083015260e083015160e083015261010080840151818401525092915050565b61035761045336600461383c565b610c3c565b61024e61046636600461380c565b610c68565b6102287fc31b1e4b732c5173dc51d519dfa432bad95550ecc4b0f9a61c2a558a2a8e434181565b6102287f04a0afbbd09d5ad397fc858789da4f8edd59f5ca5098d70faa490babee945c3b81565b6102716104c736600461385e565b610ca0565b6103577f000000000000000000000000000000000000000000000000000000000000000081565b6102716105013660046138a4565b610cd3565b6102286105143660046137f3565b610d1d565b6103577f000000000000000000000000000000000000000000000000000000000000000081565b61027161054e3660046137f3565b610d41565b61027161056136600461380c565b610e84565b6102287f000000000000000000000000000000000000000000000000000000000000000081565b610271610ea1565b6102716105a33660046138c1565b610eab565b60006001600160e01b03198216635a05180f60e01b14806105cd57506105cd82610f0f565b92915050565b6105db610f44565b600080516020613f4d833981519152546001600160401b0316808310156106245760405163431d301760e11b815260048101849052602481018290526044015b60405180910390fd5b600061063c600080516020613fed8339815191525490565b9050808411610668576040516360a41e4960e01b8152600481018590526024810182905260440161061b565b8242111561068c5760405163537bacdf60e11b81526004810184905260240161061b565b81841415801561069c5750818114155b156106cd5760405182907f800b849c8bf80718cf786c99d1091c079fe2c5e420a3ba7ba9b0ef8179ef2c3890600090a25b846106eb57604051635b18a69f60e11b815260040160405180910390fd5b604080518681526020810185905285917faed7d1a7a1831158dcda1e4214f5862f450bd3eb5721a5f322bf8c9fe1790b0a910160405180910390a26000604051806060016040528087815260200161074287610f85565b6001600160401b0316815260200161075986610f85565b6001600160401b03908116909152815160008051602061402d833981519152556020820151600080516020613f4d833981519152805460408501518416600160401b026fffffffffffffffffffffffffffffffff19909116929093169190911791909117905590506107cc818484610ff1565b505050505050565b6107de8282611118565b5050565b6001600160a01b03831661080957604051636b35b1b760e01b815260040160405180910390fd5b60006108357f000000000000000000000000000000000000000000000000000000000000000084611513565b9050610843848484846117c5565b50505050565b6000908152600080516020613fcd833981519152602052604090206001015490565b61087482610849565b61087e81336117db565b610888838361183f565b505050565b60006108a5600080516020613fed8339815191525490565b905090565b6001600160a01b038116331461091a5760405162461bcd60e51b815260206004820152602f60248201527f416363657373436f6e74726f6c3a2063616e206f6e6c792072656e6f756e636560448201526e103937b632b9903337b91039b2b63360891b606482015260840161061b565b6107de828261186e565b60006108a5600080516020613f8d8339815191525490565b60008080808060008051602061402d83398151915260408051606081018252825481526001909201546001600160401b038082166020850152600160401b90910416908201529050600061099c600080516020613fed8339815191525490565b825160208401516040850151929350909182158015906109c857508385602001516001600160401b0316145b92996001600160401b0392831699509116965090945092505050565b60006108a57ff812f8d799ea071b4ecf0f6612f1129571268aad3c9d7f3535c25db1f88757725490565b7fc31b1e4b732c5173dc51d519dfa432bad95550ecc4b0f9a61c2a558a2a8e4341610a3981336117db565b6107de8261189d565b60006108a5600080516020613f0d8339815191525490565b6040805161012081018252600080825260208201819052918101829052606081018290526080810182905260a0810182905260c0810182905260e0810182905261010081018290529060008051602061402d83398151915260408051606081018252825481526001909201546001600160401b038082166020850152600160401b90910416908201529050610aed611920565b825280511580610b0e575080602001516001600160401b0316826000015114155b15610b17575090565b6040808201516001600160401b031660208401528151908301526000610b49600080516020613fed8339815191525490565b60208301516001600160401b0316811460608501819052909150610b6c57505090565b50506040805160e08082018352600080516020613f6d833981519152546001600160401b03808216845261ffff600160401b830481166020860190815260ff600160501b8504161515968601968752600160581b8404831660608701908152600160981b90940483166080808801918252600080516020613f2d8339815191525460a0808a019190915260008051602061400d8339815191525460c0998a01819052918b019190915291519092169088015294511515938601939093525182169084015290511661010082015290565b6000828152600080516020613fad83398151915260205260408120610c6190836119b5565b9392505050565b6000918252600080516020613fcd833981519152602090815260408084206001600160a01b0393909316845291905290205460ff1690565b6001600160a01b038416610cc757604051636b35b1b760e01b815260040160405180910390fd5b610843848484846117c5565b7f04a0afbbd09d5ad397fc858789da4f8edd59f5ca5098d70faa490babee945c3b610cfe81336117db565b6107de82610d18600080516020613fed8339815191525490565b6119c1565b6000818152600080516020613fad833981519152602052604081206105cd90611c1a565b610d49610f44565b6040805160608101825260008051602061402d833981519152548152600080516020613f4d833981519152546001600160401b0380821660208401819052600160401b909204169282019290925290821015610dd057602081015160405163431d301760e11b8152600481018490526001600160401b03909116602482015260440161061b565b80602001516001600160401b0316821115610de9575050565b6000610e01600080516020613fed8339815191525490565b9050808311610e22576040516252e2c960e41b815260040160405180910390fd5b600060008051602061402d8339815191525581602001516001600160401b03167fe21266bc27ee721ac10034efaf7fd724656ef471c75b8402cd8f07850af6b6768360000151604051610e7791815260200190565b60405180910390a2505050565b610e8d82610849565b610e9781336117db565b610888838361186e565b610ea9611c27565b565b610eb3611e44565b610ebc81611ea0565b610ef58260200135836000013584604051602001610eda91906139ae565b60405160208183030381529060405280519060200120611ed6565b6000610eff611fd5565b905061088883826120fb565b9055565b60006001600160e01b03198216637965db0b60e01b14806105cd57506301ffc9a760e01b6001600160e01b03198316146105cd565b600080516020613f0d833981519152546001600160a01b0316336001600160a01b031614610ea95760405163fef4d83160e01b815260040160405180910390fd5b60006001600160401b03821115610fed5760405162461bcd60e51b815260206004820152602660248201527f53616665436173743a2076616c756520646f65736e27742066697420696e203660448201526534206269747360d01b606482015260840161061b565b5090565b6040805160e081018252600080516020613f6d833981519152546001600160401b03808216808452600160401b830461ffff166020850152600160501b830460ff16151594840194909452600160581b820481166060840152600160981b909104166080820152600080516020613f2d8339815191525460a082015260008051602061400d8339815191525460c082015290821480156110b65750806040015115806110b6575080606001516001600160401b031681608001516001600160401b0316105b1561084357817f801a93267f699b033e11b662b16b36c41b6f9a59a5b5ad967d4cb84232e523c28260800151836060015160405161110a9291906001600160401b0392831681529116602082015260400190565b60405180910390a250505050565b6040805160e081018252600080516020613f6d833981519152546001600160401b038082168352600160401b820461ffff166020840152600160501b820460ff16151593830193909352600160581b810483166060830152600160981b90049091166080820152600080516020613f2d8339815191525460a082015260008051602061400d8339815191525460c08201526111b4816001612888565b80606001516001600160401b031681608001516001600160401b031614156111ef576040516313f2ae7160e11b815260040160405180910390fd5b60808101516001600160401b03161561121b57604051631d07c31960e21b815260040160405180910390fd5b6000838360405161122d929190613ad1565b604051809103902090508160c00151811461126b5760c082015160405163d2b3f3cf60e01b815260048101919091526024810182905260440161061b565b60006040518060a00160405280600081526020016000815260200160008152602001600081526020017f00000000000000000000000000000000000000000000000000000000000000006001600160a01b031663ef6c064c6040518163ffffffff1660e01b815260040160206040518083038186803b1580156112ed57600080fd5b505afa158015611301573d6000803e3d6000fd5b505050506040513d601f19601f820116820180604052508101906113259190613ae1565b6001600160a01b03169052905061133d858583612965565b805160009061134d906001613b14565b905083606001516001600160401b03168114611394576060840151604051631c4de3e160e11b81526001600160401b0390911660048201526024810182905260440161061b565b60016040858101919091526001600160401b03828116608080880182905260608681015160a08a018190528951600080516020613f6d833981519152805460208d0151948d015192881669ffffffffffffffffffff1990911617600160401b61ffff909516949094029390931768ffffffffffffffffff60501b1916600160581b919096160294909417600160501b1767ffffffffffffffff60981b1916600160981b90930292909217909155600080516020613f2d8339815191529190915560c086015160008051602061400d83398151915255830151815163db3c7ba760e01b815291516001600160a01b039091169163db3c7ba791600480830192600092919082900301818387803b1580156114ac57600080fd5b505af11580156114c0573d6000803e3d6000fd5b5050855160408051858152602081018690526001600160401b0390921693507f6d8abc91d336688c551c9bae92a74fa116852ac20bb9b2df4c12bd2fcf1cd46a92500160405180910390a2505050505050565b6000806000836001600160a01b0316636fb1bf666040518163ffffffff1660e01b8152600401604080518083038186803b15801561155057600080fd5b505afa158015611564573d6000803e3d6000fd5b505050506040513d601f19601f820116820180604052508101906115889190613b2c565b915091506000806000866001600160a01b031663606c0c946040518163ffffffff1660e01b815260040160606040518083038186803b1580156115ca57600080fd5b505afa1580156115de573d6000803e3d6000fd5b505050506040513d601f19601f820116820180604052508101906116029190613b50565b9250925092506000806000808b6001600160a01b031663e547c77c6040518163ffffffff1660e01b815260040160806040518083038186803b15801561164757600080fd5b505afa15801561165b573d6000803e3d6000fd5b505050506040513d601f19601f8201168201806040525081019061167f9190613b95565b6001600160401b031693506001600160401b031693506001600160401b031693506001600160401b0316935082871415806116ba5750818614155b806116c55750808514155b156116e65760405163687571a560e01b81526000600482015260240161061b565b8388146117095760405163687571a560e01b81526001600482015260240161061b565b505050506000886001600160a01b03166389896aef6040518163ffffffff1660e01b815260040160206040518083038186803b15801561174857600080fd5b505afa15801561175c573d6000803e3d6000fd5b505050506040513d601f19601f820116820180604052508101906117809190613be9565b905061178c8582613b14565b86146117ae5760405163687571a560e01b81526002600482015260240161061b565b6117b88482613c02565b9998505050505050505050565b6117d0600085612ba1565b610843838383612bab565b6117e58282610c68565b6107de576117fd816001600160a01b03166014612c1e565b611808836020612c1e565b604051602001611819929190613c4d565b60408051601f198184030181529082905262461bcd60e51b825261061b91600401613cc2565b6118498282612db9565b6000828152600080516020613fad833981519152602052604090206108889082612e2f565b6118788282612e44565b6000828152600080516020613fad833981519152602052604090206108889082612eb8565b60006118b5600080516020613f8d8339815191525490565b9050808214156118d857604051631d7c761b60e21b815260040160405180910390fd5b6118ef600080516020613f8d833981519152839055565b604051819083907ffa5304972d4ec3e3207f0bbf91155a49d0dfa62488f9529403a2a49e4b29a89590600090a35050565b600080611939600080516020613f0d8339815191525490565b90506000816001600160a01b03166372f79b136040518163ffffffff1660e01b8152600401604080518083038186803b15801561197557600080fd5b505afa158015611989573d6000803e3d6000fd5b505050506040513d601f19601f820116820180604052508101906119ad9190613b2c565b509392505050565b6000610c618383612ecd565b6001600160a01b0382166119e8576040516303988b8160e61b815260040160405180910390fd5b6000611a00600080516020613f0d8339815191525490565b9050806001600160a01b0316836001600160a01b03161415611a35576040516321a55ce160e11b815260040160405180910390fd5b600080846001600160a01b031663606c0c946040518163ffffffff1660e01b815260040160606040518083038186803b158015611a7157600080fd5b505afa158015611a85573d6000803e3d6000fd5b505050506040513d601f19601f82011682018060405250810190611aa99190613b50565b92509250507f000000000000000000000000000000000000000000000000000000000000000082141580611afd57507f00000000000000000000000000000000000000000000000000000000000000008114155b15611b1b57604051635401d0a160e11b815260040160405180910390fd5b6000856001600160a01b0316636095012f6040518163ffffffff1660e01b815260040160206040518083038186803b158015611b5657600080fd5b505afa158015611b6a573d6000803e3d6000fd5b505050506040513d601f19601f82011682018060405250810190611b8e9190613be9565b905084811015611bbb57604051631e779ad160e11b8152600481018290526024810186905260440161061b565b611bd2600080516020613f0d833981519152879055565b836001600160a01b0316866001600160a01b03167f25421480fb7f52d18947876279a213696b58d7e0e5416ce5e2c9f9942661c34c60405160405180910390a3505050505050565b60006105cd825490565b50565b6040805160e081018252600080516020613f6d833981519152546001600160401b038082168352600160401b820461ffff166020840152600160501b820460ff16151593830193909352600160581b810483166060830152600160981b90049091166080820152600080516020613f2d8339815191525460a082015260008051602061400d8339815191525460c0820152611cc3816000612888565b806040015115611ce6576040516313f2ae7160e11b815260040160405180910390fd5b7f00000000000000000000000000000000000000000000000000000000000000006001600160a01b031663ef6c064c6040518163ffffffff1660e01b815260040160206040518083038186803b158015611d3f57600080fd5b505afa158015611d53573d6000803e3d6000fd5b505050506040513d601f19601f82011682018060405250810190611d779190613ae1565b6001600160a01b031663db3c7ba76040518163ffffffff1660e01b8152600401600060405180830381600087803b158015611db157600080fd5b505af1158015611dc5573d6000803e3d6000fd5b505050506001611de0600080516020613f6d83398151915290565b8054911515600160501b0260ff60501b19909216919091179055805160408051600080825260208201526001600160401b03909216917f6d8abc91d336688c551c9bae92a74fa116852ac20bb9b2df4c12bd2fcf1cd46a910160405180910390a250565b33611e6f7f65fa0c17458517c727737e4153dd477fa3e328cf706640b0f68b1a285c5990da82610c68565b158015611e825750611e8081612ef7565b155b15611c24576040516323dada5360e01b815260040160405180910390fd5b6000611eaa6109e4565b90508082146107de576040516303abe78360e21b8152600481018290526024810183905260440161061b565b6040805160608101825260008051602061402d833981519152548152600080516020613f4d833981519152546001600160401b0380821660208401819052600160401b9092041692820192909252908414611f5c57602081015160405163490b8d4560e11b81526001600160401b0390911660048201526024810185905260440161061b565b6000611f74600080516020613f8d8339815191525490565b9050808414611fa057604051632a37dd3d60e11b8152600481018290526024810185905260440161061b565b81518314611fce57815160405163642c75c760e11b815260048101919091526024810184905260440161061b565b5050505050565b6040805160608101825260008051602061402d83398151915254808252600080516020613f4d833981519152546001600160401b038082166020850152600160401b9091041692820192909252600091612042576040516364dfc18f60e01b815260040160405180910390fd5b61205881604001516001600160401b0316612f8d565b6000612070600080516020613fed8339815191525490565b905081602001516001600160401b031681141561209f576040516252e2c960e41b815260040160405180910390fd5b6020828101516001600160401b0316600080516020613fed833981519152819055835160405190815290917ff73febded7d4502284718948a3e1d75406151c6326bde069424a584a4f6af87a910160405180910390a292915050565b61018082013561216e576101a0820135156121375760405163d2b3f3cf60e01b8152600060048201526101a0830135602482015260440161061b565b6101c08201351561216957604051631c4de3e160e11b8152600060048201526101c0830135602482015260440161061b565b6121e1565b60018261018001351461219b5760405163396e5b8360e01b8152610180830135600482015260240161061b565b6101c08201356121be5760405163f1ff5c1760e01b815260040160405180910390fd5b6101a08201356121e157604051630862a50360e31b815260040160405180910390fd5b7f00000000000000000000000000000000000000000000000000000000000000006001600160a01b031663f5e6d50f6040518163ffffffff1660e01b815260040160206040518083038186803b15801561223a57600080fd5b505afa15801561224e573d6000803e3d6000fd5b505050506040513d601f19601f820116820180604052508101906122729190613ae1565b604051631a95535960e11b81526101c084013560048201526001600160a01b03919091169063352aa6b29060240160006040518083038186803b1580156122b857600080fd5b505afa1580156122cc573d6000803e3d6000fd5b505050507f00000000000000000000000000000000000000000000000000000000000000006001600160a01b03166391d2247c83602001358460600135633b9aca006123189190613c02565b604080516001600160e01b031960e086901b168152600481019390935260248301919091528501356044820152606401600060405180830381600087803b15801561236257600080fd5b505af1158015612376573d6000803e3d6000fd5b50505050600081836020013561238c9190613cf5565b905060007f00000000000000000000000000000000000000000000000000000000000000006001600160a01b031663ef6c064c6040518163ffffffff1660e01b815260040160206040518083038186803b1580156123e957600080fd5b505afa1580156123fd573d6000803e3d6000fd5b505050506040513d601f19601f820116820180604052508101906124219190613ae1565b905060007f00000000000000000000000000000000000000000000000000000000000000006001600160a01b03166337d5fe996040518163ffffffff1660e01b815260040160206040518083038186803b15801561247e57600080fd5b505afa158015612492573d6000803e3d6000fd5b505050506040513d601f19601f820116820180604052508101906124b69190613ae1565b90506124dc826124c96080880188613d0c565b6124d660a08a018a613d0c565b88612fb1565b6001600160a01b0381166396992fed6124fd61018088016101608901613d55565b6125277f000000000000000000000000000000000000000000000000000000000000000088613c02565b612551907f0000000000000000000000000000000000000000000000000000000000000000613b14565b61257f7f000000000000000000000000000000000000000000000000000000000000000060208b0135613c02565b6125a9907f0000000000000000000000000000000000000000000000000000000000000000613b14565b6040516001600160e01b031960e086901b168152921515600484015260248301919091526044820152606401600060405180830381600087803b1580156125ef57600080fd5b505af1158015612603573d6000803e3d6000fd5b505050507f00000000000000000000000000000000000000000000000000000000000000006001600160a01b031663bac3f3c57f000000000000000000000000000000000000000000000000000000000000000087602001356126669190613c02565b612690907f0000000000000000000000000000000000000000000000000000000000000000613b14565b6126ba7f000000000000000000000000000000000000000000000000000000000000000087613c02565b60408901356126d160608b0135633b9aca00613c02565b60c08b013560e08c01356101008d01356126ef6101208f018f613d0c565b8f61014001356040518b63ffffffff1660e01b815260040161271a9a99989796959493929190613d72565b600060405180830381600087803b15801561273457600080fd5b505af1158015612748573d6000803e3d6000fd5b505050506040518060e001604052806127648760200135610f85565b6001600160401b0316815260200161278087610180013561325d565b61ffff1681526000602082015260400161279e6101c088013561325d565b61ffff16815260006020820181905260408201526101a0870135606090910152600080516020613f6d8339815191528151815460208401516040850151606086015160808701516001600160401b0395861669ffffffffffffffffffff1990951694909417600160401b61ffff909416939093029290921768ffffffffffffffffff60501b1916600160501b9115159190910267ffffffffffffffff60581b191617600160581b918416919091021767ffffffffffffffff60981b1916600160981b929091169190910217815560a0820151600182015560c0909101516002909101555050505050565b612890611e44565b6040805160608101825260008051602061402d83398151915254808252600080516020613f4d833981519152546001600160401b038082166020850152600160401b9091041692820192909252901580612904575080602001516001600160401b031683600001516001600160401b031614155b156129225760405163a74cb4e560e01b815260040160405180910390fd5b61292a6132c0565b81836020015161ffff1614610888576020830151604051630eb3232760e21b815261ffff90911660048201526024810183905260440161061b565b60408101516000805b84831015612a97576020840151600584019387013560e881901c9160d89190911c61ffff16906129c65781156129c15760405163067db80560e31b8152600060048201526024810183905260440161061b565b612a0a565b85516129d3906001613b14565b8214612a0a5785516129e6906001613b14565b60405163067db80560e31b815260048101919091526024810183905260440161061b565b81865260208601819052604086018590526002811480612a2a5750600181145b15612a53576000612a3c8989896132eb565b905084811115612a4d578094508293505b50612a76565b604051634166218d60e11b8152600481018390526024810182905260440161061b565b84866040015111612a8957612a89613dca565b85604001519450505061296e565b60008211612aa757612aa7613dca565b7f00000000000000000000000000000000000000000000000000000000000000006001600160a01b031663f5e6d50f6040518163ffffffff1660e01b815260040160206040518083038186803b158015612b0057600080fd5b505afa158015612b14573d6000803e3d6000fd5b505050506040513d601f19601f82011682018060405250810190612b389190613ae1565b60405163057e0f6960e41b815260048101839052602481018490526001600160a01b0391909116906357e0f6909060440160006040518083038186803b158015612b8157600080fd5b505afa158015612b95573d6000803e3d6000fd5b50505050505050505050565b6107de828261183f565b612bb56001613506565b612bbf83826119c1565b612bc88261189d565b612bdf600080516020613fed833981519152829055565b612be881610f85565b60008051602061402d833981519152600101805467ffffffffffffffff19166001600160401b0392909216919091179055505050565b60606000612c2d836002613c02565b612c38906002613b14565b6001600160401b03811115612c4f57612c4f613de0565b6040519080825280601f01601f191660200182016040528015612c79576020820181803683370190505b509050600360fc1b81600081518110612c9457612c94613df6565b60200101906001600160f81b031916908160001a905350600f60fb1b81600181518110612cc357612cc3613df6565b60200101906001600160f81b031916908160001a9053506000612ce7846002613c02565b612cf2906001613b14565b90505b6001811115612d6a576f181899199a1a9b1b9c1cb0b131b232b360811b85600f1660108110612d2657612d26613df6565b1a60f81b828281518110612d3c57612d3c613df6565b60200101906001600160f81b031916908160001a90535060049490941c93612d6381613e0c565b9050612cf5565b508315610c615760405162461bcd60e51b815260206004820181905260248201527f537472696e67733a20686578206c656e67746820696e73756666696369656e74604482015260640161061b565b612dc38282610c68565b6107de576000828152600080516020613fcd833981519152602090815260408083206001600160a01b0385168085529252808320805460ff1916600117905551339285917f2f8788117e7eff1d82e926ec794901d17c78024a50270940304540a733656f0d9190a45050565b6000610c61836001600160a01b038416613535565b612e4e8282610c68565b156107de576000828152600080516020613fcd833981519152602090815260408083206001600160a01b0385168085529252808320805460ff1916905551339285917ff6391f5c32d9c69d2a47ea670b442974b53935d1edc7fd64eb21e047a839171b9190a45050565b6000610c61836001600160a01b038416613584565b6000826000018281548110612ee457612ee4613df6565b9060005260206000200154905092915050565b600080612f10600080516020613f0d8339815191525490565b604051631951c03760e01b81526001600160a01b03858116600483015291925090821690631951c0379060240160206040518083038186803b158015612f5557600080fd5b505afa158015612f69573d6000803e3d6000fd5b505050506040513d601f19601f82011682018060405250810190610c619190613e23565b80421115611c245760405163537bacdf60e11b81526004810182905260240161061b565b838214612fd157604051637540f08160e11b815260040160405180910390fd5b83612fdb576107cc565b60015b84811015613048578585612ff3600184613cf5565b81811061300257613002613df6565b9050602002013586868381811061301b5761301b613df6565b905060200201351161304057604051637540f08160e11b815260040160405180910390fd5b600101612fde565b5060005b848110156130965783838281811061306657613066613df6565b905060200201356000141561308e57604051637540f08160e11b815260040160405180910390fd5b60010161304c565b50604051632af5128960e21b81526000906001600160a01b0388169063abd44a24906130cc908990899089908990600401613e40565b602060405180830381600087803b1580156130e657600080fd5b505af11580156130fa573d6000803e3d6000fd5b505050506040513d601f19601f8201168201806040525081019061311e9190613be9565b9050600061314c837f0000000000000000000000000000000000000000000000000000000000000000613c02565b6131598362015180613c02565b6131639190613e72565b90507f00000000000000000000000000000000000000000000000000000000000000006001600160a01b031663f5e6d50f6040518163ffffffff1660e01b815260040160206040518083038186803b1580156131be57600080fd5b505afa1580156131d2573d6000803e3d6000fd5b505050506040513d601f19601f820116820180604052508101906131f69190613ae1565b6001600160a01b031663e72980f4826040518263ffffffff1660e01b815260040161322391815260200190565b60006040518083038186803b15801561323b57600080fd5b505afa15801561324f573d6000803e3d6000fd5b505050505050505050505050565b600061ffff821115610fed5760405162461bcd60e51b815260206004820152602660248201527f53616665436173743a2076616c756520646f65736e27742066697420696e203160448201526536206269747360d01b606482015260840161061b565b610ea960008051602061402d83398151915260010154600160401b90046001600160401b0316612f8d565b6040810151600090818080368181818a613306896023613b14565b111561332b578951604051635d84060560e11b8152600481019190915260240161061b565b878c01358060e81c97506001600160401b038160a81c16965050600b88018c019350600886029250833560c01c945082840191506010860290508b8183010397508660001415613394578951604051635d84060560e11b8152600481019190915260240161061b565b600085604089901b60f08d60200151901b171790508a6060015181116133d3578a51604051630cf5139d60e11b8152600481019190915260240161061b565b60608b01528a8811806133e4575085155b15613408578951604051635d84060560e11b8152600481019190915260240161061b565b60018a6020015114156134845789608001516001600160a01b031663cb589b9a88868686866040518663ffffffff1660e01b815260040161344d959493929190613ebd565b600060405180830381600087803b15801561346757600080fd5b505af115801561347b573d6000803e3d6000fd5b505050506134ef565b89608001516001600160a01b031663c8ac498088868686866040518663ffffffff1660e01b81526004016134bc959493929190613ebd565b600060405180830381600087803b1580156134d657600080fd5b505af11580156134ea573d6000803e3d6000fd5b505050505b505050506040860193909352925050509392505050565b61350e6109e4565b1561352c5760405163184e52a160e21b815260040160405180910390fd5b611c2481613677565b600081815260018301602052604081205461357c575081546001818101845560008481526020808220909301849055845484825282860190935260409020919091556105cd565b5060006105cd565b6000818152600183016020526040812054801561366d5760006135a8600183613cf5565b85549091506000906135bc90600190613cf5565b90508181146136215760008660000182815481106135dc576135dc613df6565b90600052602060002001549050808760000184815481106135ff576135ff613df6565b6000918252602080832090910192909255918252600188019052604090208390555b855486908061363257613632613ef6565b6001900381819060005260206000200160009055905585600101600086815260200190815260200160002060009055600193505050506105cd565b60009150506105cd565b6136a07ff812f8d799ea071b4ecf0f6612f1129571268aad3c9d7f3535c25db1f8875772829055565b6040518181527ffddcded6b4f4730c226821172046b48372d3cd963c159701ae1b7c3bcac541bb9060200160405180910390a150565b6000602082840312156136e857600080fd5b81356001600160e01b031981168114610c6157600080fd5b60008060006060848603121561371557600080fd5b505081359360208301359350604090920135919050565b6000806020838503121561373f57600080fd5b82356001600160401b038082111561375657600080fd5b818501915085601f83011261376a57600080fd5b81358181111561377957600080fd5b86602082850101111561378b57600080fd5b60209290920196919550909350505050565b6001600160a01b0381168114611c2457600080fd5b6000806000606084860312156137c757600080fd5b83356137d28161379d565b925060208401356137e28161379d565b929592945050506040919091013590565b60006020828403121561380557600080fd5b5035919050565b6000806040838503121561381f57600080fd5b8235915060208301356138318161379d565b809150509250929050565b6000806040838503121561384f57600080fd5b50508035926020909101359150565b6000806000806080858703121561387457600080fd5b843561387f8161379d565b9350602085013561388f8161379d565b93969395505050506040820135916060013590565b6000602082840312156138b657600080fd5b8135610c618161379d565b600080604083850312156138d457600080fd5b82356001600160401b038111156138ea57600080fd5b83016101e081860312156138fd57600080fd5b946020939093013593505050565b6000808335601e1984360301811261392257600080fd5b83016020810192503590506001600160401b0381111561394157600080fd5b8060051b360383131561395357600080fd5b9250929050565b81835260006001600160fb1b0383111561397357600080fd5b8260051b8083602087013760009401602001938452509192915050565b8015158114611c2457600080fd5b80356139a981613990565b919050565b602081528135602082015260208201356040820152604082013560608201526060820135608082015260006139e6608084018461390b565b6101e08060a08601526139fe6102008601838561395a565b9250613a0d60a087018761390b565b9250601f19808786030160c0880152613a2785858461395a565b945060c088013560e0880152610100935060e08801358488015261012091508388013582880152613a5a8289018961390b565b94509150610140818887030181890152613a7586868561395a565b955061016094508089013585890152505050613a9282870161399e565b9150610180613aa48187018415159052565b8601356101a0868101919091528601356101c0808701919091529095013594909301939093525090919050565b8183823760009101908152919050565b600060208284031215613af357600080fd5b8151610c618161379d565b634e487b7160e01b600052601160045260246000fd5b60008219821115613b2757613b27613afe565b500190565b60008060408385031215613b3f57600080fd5b505080516020909101519092909150565b600080600060608486031215613b6557600080fd5b8351925060208401519150604084015190509250925092565b80516001600160401b03811681146139a957600080fd5b60008060008060808587031215613bab57600080fd5b613bb485613b7e565b9350613bc260208601613b7e565b9250613bd060408601613b7e565b9150613bde60608601613b7e565b905092959194509250565b600060208284031215613bfb57600080fd5b5051919050565b6000816000190483118215151615613c1c57613c1c613afe565b500290565b60005b83811015613c3c578181015183820152602001613c24565b838111156108435750506000910152565b7f416363657373436f6e74726f6c3a206163636f756e7420000000000000000000815260008351613c85816017850160208801613c21565b7001034b99036b4b9b9b4b733903937b6329607d1b6017918401918201528351613cb6816028840160208801613c21565b01602801949350505050565b6020815260008251806020840152613ce1816040850160208701613c21565b601f01601f19169190910160400192915050565b600082821015613d0757613d07613afe565b500390565b6000808335601e19843603018112613d2357600080fd5b8301803591506001600160401b03821115613d3d57600080fd5b6020019150600581901b360382131561395357600080fd5b600060208284031215613d6757600080fd5b8135610c6181613990565b60006101208c83528b60208401528a60408401528960608401528860808401528760a08401528660c08401528060e0840152613db1818401868861395a565b915050826101008301529b9a5050505050505050505050565b634e487b7160e01b600052600160045260246000fd5b634e487b7160e01b600052604160045260246000fd5b634e487b7160e01b600052603260045260246000fd5b600081613e1b57613e1b613afe565b506000190190565b600060208284031215613e3557600080fd5b8151610c6181613990565b604081526000613e5460408301868861395a565b8281036020840152613e6781858761395a565b979650505050505050565b600082613e8f57634e487b7160e01b600052601260045260246000fd5b500490565b81835281816020850137506000828201602090810191909152601f909101601f19169091010190565b858152606060208201526000613ed7606083018688613e94565b8281036040840152613eea818587613e94565b98975050505050505050565b634e487b7160e01b600052603160045260246000fdfe0fea17e2be982edbe2e60eaba2e563dd296d117a197e19227b64d439cc87a693326d0a0254b2fee55a7d625feea5c7ce7c62ff4c1ea69dfe97d2e2229bd4cb01aee85e4ea0d32e7864dd7146b53c6712fce4a4e112c9a6d40961eb9430714cb7326d0a0254b2fee55a7d625feea5c7ce7c62ff4c1ea69dfe97d2e2229bd4cb00dadcb86bcf1da3f111faf6f29eca6aad63cda068e015dbafaed7e7af4b941e738f8c450dae5029cd48cd91dd9db65da48fb742893edfc7941250f6721d93cbbe9a627a5d4aa7c17f87ff26e3fe9a42c2b6c559e8b41a42282d0ecebb17c0e4d366943846155bfe989223dcfcdd75c78839d78a6b8b1fd79f1f5ab0584711245d326d0a0254b2fee55a7d625feea5c7ce7c62ff4c1ea69dfe97d2e2229bd4cb02aee85e4ea0d32e7864dd7146b53c6712fce4a4e112c9a6d40961eb9430714cb6a2646970667358221220c83745d99294171e7490127dfb89e96418dff37f3e5457389a55f6c179f2348564736f6c63430008090033",
  "linkReferences": {},
  "deployedLinkReferences": {}
}