{
  "_format": "hh-sol-artifact-1",
  "contractName": "Initializable",
  "sourceName": "@aragon/os/contracts/common/Initializable.sol",
  "abi": [
    {
      "constant": true,
      "inputs": [],
      "name": "hasInitialized",
      "outputs": [
        {
          "name": "",
          "type": "bool"
        }
      ],
      "payable": false,
      "stateMutability": "view",
      "type": "function"
    },
    {
      "constant": true,
      "inputs": [],
      "name": "getInitializationBlock",
      "outputs": [
        {
          "name": "",
          "type": "uint256"
        }
      ],
      "payable": false,
      "stateMutability": "view",
      "type": "function"
    }
  ],
  "bytecode": "0x608060405234801561001057600080fd5b50610101806100206000396000f300608060405260043610602c5760003560e01c63ffffffff1680630803fac01460315780638b3dd749146057575b600080fd5b348015603c57600080fd5b506043607b565b604080519115158252519081900360200190f35b348015606257600080fd5b506069609f565b60408051918252519081900360200190f35b6000806084609f565b905080158015906099575080609660cd565b10155b91505090565b600060c87febb05b386a8d34882b8711d156f463690983dc47815980fb82aeeff1aa43579e60d1565b905090565b4390565b54905600a165627a7a723058204eac0cc9ee48183391a6d24ec8794b3038354f92440d7ff00fc981b32bee7c7c0029",
  "linkReferences": {},
  "deployedLinkReferences": {}
}