{
  "_format": "hh-sol-artifact-1",
  "contractName": "CatalistTemplate",
  "sourceName": "contracts/0.4.24/template/CatalistTemplate.sol",
  "abi": [
    {
      "constant": false,
      "inputs": [],
      "name": "newDAO",
      "outputs": [],
      "payable": false,
      "stateMutability": "nonpayable",
      "type": "function"
    },
    {
      "constant": false,
      "inputs": [
        {
          "name": "_newOwner",
          "type": "address"
        }
      ],
      "name": "setOwner",
      "outputs": [],
      "payable": false,
      "stateMutability": "nonpayable",
      "type": "function"
    },
    {
      "constant": false,
      "inputs": [
        {
          "name": "_tld",
          "type": "bytes32"
        },
        {
          "name": "_label",
          "type": "bytes32"
        }
      ],
      "name": "deployCatalistAPM",
      "outputs": [],
      "payable": false,
      "stateMutability": "nonpayable",
      "type": "function"
    },
    {
      "constant": false,
      "inputs": [],
      "name": "issueTokens",
      "outputs": [],
      "payable": false,
      "stateMutability": "nonpayable",
      "type": "function"
    },
    {
      "constant": false,
      "inputs": [
        {
          "name": "_daoName",
          "type": "string"
        },
        {
          "name": "_stakingRouter",
          "type": "address"
        }
      ],
      "name": "finalizeDAO",
      "outputs": [],
      "payable": false,
      "stateMutability": "nonpayable",
      "type": "function"
    },
    {
      "constant": false,
      "inputs": [
        {
          "name": "node",
          "type": "bytes32"
        },
        {
          "name": "_to",
          "type": "address"
        }
      ],
      "name": "cancelAndTransferDomain",
      "outputs": [],
      "payable": false,
      "stateMutability": "nonpayable",
      "type": "function"
    },
    {
      "constant": false,
      "inputs": [
        {
          "name": "_initialSemanticVersion",
          "type": "uint16[3]"
        },
        {
          "name": "_catalistImplAddress",
          "type": "address"
        },
        {
          "name": "_catalistContentURI",
          "type": "bytes"
        },
        {
          "name": "_nodeOperatorsRegistryImplAddress",
          "type": "address"
        },
        {
          "name": "_nodeOperatorsRegistryContentURI",
          "type": "bytes"
        },
        {
          "name": "_oracleImplAddress",
          "type": "address"
        },
        {
          "name": "_oracleContentURI",
          "type": "bytes"
        }
      ],
      "name": "createRepos",
      "outputs": [],
      "payable": false,
      "stateMutability": "nonpayable",
      "type": "function"
    },
    {
      "constant": false,
      "inputs": [
        {
          "name": "_newOwner",
          "type": "address"
        }
      ],
      "name": "changeOwner",
      "outputs": [],
      "payable": false,
      "stateMutability": "nonpayable",
      "type": "function"
    },
    {
      "constant": true,
      "inputs": [],
      "name": "getConfig",
      "outputs": [
        {
          "name": "_owner",
          "type": "address"
        },
        {
          "name": "_daoFactory",
          "type": "address"
        },
        {
          "name": "_ens",
          "type": "address"
        },
        {
          "name": "_aragonID",
          "type": "address"
        },
        {
          "name": "_apmRegistryFactory",
          "type": "address"
        }
      ],
      "payable": false,
      "stateMutability": "view",
      "type": "function"
    },
    {
      "inputs": [
        {
          "name": "_owner",
          "type": "address"
        },
        {
          "name": "_daoFactory",
          "type": "address"
        },
        {
          "name": "_ens",
          "type": "address"
        },
        {
          "name": "_aragonID",
          "type": "address"
        },
        {
          "name": "_apmRegistryFactory",
          "type": "address"
        }
      ],
      "payable": false,
      "stateMutability": "nonpayable",
      "type": "constructor"
    },
    {
      "anonymous": false,
      "inputs": [
        {
          "indexed": false,
          "name": "apm",
          "type": "address"
        }
      ],
      "name": "TmplAPMDeployed",
      "type": "event"
    },
    {
      "anonymous": false,
      "inputs": [],
      "name": "TmplReposCreated",
      "type": "event"
    },
    {
      "anonymous": false,
      "inputs": [
        {
          "indexed": false,
          "name": "appProxy",
          "type": "address"
        },
        {
          "indexed": false,
          "name": "appId",
          "type": "bytes32"
        },
        {
          "indexed": false,
          "name": "initializeData",
          "type": "bytes"
        }
      ],
      "name": "TmplAppInstalled",
      "type": "event"
    },
    {
      "anonymous": false,
      "inputs": [
        {
          "indexed": false,
          "name": "dao",
          "type": "address"
        }
      ],
      "name": "TmplDAOAndTokenDeployed",
      "type": "event"
    },
    {
      "anonymous": false,
      "inputs": [
        {
          "indexed": false,
          "name": "totalAmount",
          "type": "uint256"
        }
      ],
      "name": "TmplTokensIssued",
      "type": "event"
    },
    {
      "anonymous": false,
      "inputs": [],
      "name": "TmplDaoFinalized",
      "type": "event"
    }
  ],
  "bytecode": "0x60806040523480156200001157600080fd5b5060405160a08062003a388339810160408181528251602080850151838601516060870151608090970151858701909552600f86527f544d504c5f5a45524f5f4f574e455200000000000000000000000000000000009286019290925291949193909290600160a060020a038616151562000127576040517f08c379a00000000000000000000000000000000000000000000000000000000081526004018080602001828103825283818151815260200191508051906020019080838360005b83811015620000eb578181015183820152602001620000d1565b50505050905090810190601f168015620001195780820380516001836020036101000a031916815260200191505b509250505060405180910390fd5b5062000139846200047c60201b60201c565b60408051808201909152601981527f544d504c5f44414f5f4641435f4e4f545f434f4e5452414354000000000000006020820152901515620001d9576040517f08c379a000000000000000000000000000000000000000000000000000000000815260040180806020018281038252838181518152602001915080519060200190808383600083811015620000eb578181015183820152602001620000d1565b50620001eb836200047c60201b60201c565b60408051808201909152601581527f544d504c5f454e535f4e4f545f434f4e5452414354000000000000000000000060208201529015156200028b576040517f08c379a000000000000000000000000000000000000000000000000000000000815260040180806020018281038252838181518152602001915080519060200190808383600083811015620000eb578181015183820152602001620000d1565b506200029d826200047c60201b60201c565b60408051808201909152601b81527f544d504c5f415241474f4e5f49445f4e4f545f434f4e5452414354000000000060208201529015156200033d576040517f08c379a000000000000000000000000000000000000000000000000000000000815260040180806020018281038252838181518152602001915080519060200190808383600083811015620000eb578181015183820152602001620000d1565b506200034f816200047c60201b60201c565b606060405190810160405280602281526020017f544d504c5f41504d5f52454749535452595f4641435f4e4f545f434f4e54524181526020017f435400000000000000000000000000000000000000000000000000000000000081525090151562000418576040517f08c379a000000000000000000000000000000000000000000000000000000000815260040180806020018281038252838181518152602001915080519060200190808383600083811015620000eb578181015183820152602001620000d1565b5060008054600160a060020a0319908116600160a060020a03978816179091556002805482169587169590951790945560018054851693861693909317909255600380548416918516919091179055600480549092169216919091179055620004ab565b600080600160a060020a03831615156200049a5760009150620004a5565b823b90506000811191505b50919050565b61357d80620004bb6000396000f30060806040526004361061007c5760003560e01c63ffffffff1680630f7c70081461008157806313af40351461009857806357a23eb5146100b957806360ab5852146100d457806363aec32b146100e9578063923a4a0714610117578063a2e68b241461013b578063a6f9dae114610098578063c3f909d414610190575b600080fd5b34801561008d57600080fd5b506100966101e1565b005b3480156100a457600080fd5b50610096600160a060020a0360043516610637565b3480156100c557600080fd5b506100966004356024356106da565b3480156100e057600080fd5b50610096610d4f565b3480156100f557600080fd5b506100966024600480358281019291013590600160a060020a03903516610e06565b34801561012357600080fd5b50610096600435600160a060020a03602435166111a5565b34801561014757600080fd5b506100966004600160a060020a03606435811690602460843581810192908501359160a43582169160c43580830192908801359160e435169061010435908101908901356113fb565b34801561019c57600080fd5b506101a56119f7565b60408051600160a060020a0396871681529486166020860152928516848401529084166060840152909216608082015290519081900360a00190f35b6101e9613496565b60005460408051808201909152601681526000805160206135328339815191526020820152606091600160a060020a031633146102a75760405160e560020a62461bcd0281526004018080602001828103825283818151815260200191508051906020019080838360005b8381101561026c578181015183820152602001610254565b50505050905090810190601f1680156102995780820380516001836020036101000a031916815260200191505b509250505060405180910390fd5b5060408051610100810182526005548152600654600160a060020a0390811660208084018290526007548316848601526008548316606085015260095483166080850152600a54831660a0850152600b54831660c0850152600c5490921660e08401528351808501909452601a84527f544d504c5f52454749535452595f4e4f545f4445504c4f5945440000000000009184019190915290935015156103925760405160e560020a62461bcd0281526004018080602001828103825283818151815260200191508051906020019080838360008381101561026c578181015183820152602001610254565b506040808301518151808301909252601982527f544d504c5f44414f5f414c52454144595f4445504c4f594544000000000000006020830152600160a060020a0316156104245760405160e560020a62461bcd0281526004018080602001828103825283818151815260200191508051906020019080838360008381101561026c578181015183820152602001610254565b5061042d611a22565b600160a060020a03908116606085810191909152911660408085019182528051600081526020810180835292519381018252600883527f636174616c6973740000000000000000000000000000000000000000000000009181019190915284519093506104a4929161049e91611bde565b83611d24565b600160a060020a031660808301526040808301518151808301909252601782527f6e6f64652d6f70657261746f72732d7265676973747279000000000000000000602083015283516104f99261049e91611bde565b600160a060020a031660c08301526040808301518151808301909252600682527f6f7261636c6500000000000000000000000000000000000000000000000000006020830152835161054e9261049e91611bde565b600160a060020a0390811660a0840152604080840151815192168252517f5f713aa690fa320720066c037ff8fae376de27b87427fc265b77c43ee82d88469181900360200190a1508051600555602081015160068054600160a060020a0319908116600160a060020a039384161790915560408301516007805483169184169190911790556060830151600880548316918416919091179055608083015160098054831691841691909117905560a0830151600a8054831691841691909117905560c0830151600b8054831691841691909117905560e090920151600c80549093169116179055565b6000546040805180820190915260168152600080516020613532833981519152602082015290600160a060020a031633146106b75760405160e560020a62461bcd0281526004018080602001828103825283818151815260200191508051906020019080838360008381101561026c578181015183820152602001610254565b5060008054600160a060020a031916600160a060020a0392909216919091179055565b60008054604080518082019091526016815260008051602061353283398151915260208201528291829190600160a060020a0316331461075f5760405160e560020a62461bcd0281526004018080602001828103825283818151815260200191508051906020019080838360008381101561026c578181015183820152602001610254565b5060065460408051808201909152601e81527f544d504c5f52454749535452595f414c52454144595f4445504c4f5945440000602082015290600160a060020a0316156107f15760405160e560020a62461bcd0281526004018080602001828103825283818151815260200191508051906020019080838360008381101561026c578181015183820152602001610254565b50604080516020808201889052818301879052825180830384018152606090920192839052815191929182918401908083835b602083106108435780518252601f199092019160209182019101610824565b51815160209384036101000a6000190180199092169116179052604080519290940182900382206001547f02571be3000000000000000000000000000000000000000000000000000000008452600484018290529451909950309650600160a060020a0390941694506302571be3936024808401945091929091908290030181600087803b1580156108d457600080fd5b505af11580156108e8573d6000803e3d6000fd5b505050506040513d60208110156108fe57600080fd5b505160408051606081018252602381527f544d504c5f454e535f4e4f44455f4e4f545f4f574e45445f42595f54454d504c60208201527f41544500000000000000000000000000000000000000000000000000000000009181019190915291600160a060020a03909116146109b85760405160e560020a62461bcd0281526004018080602001828103825283818151815260200191508051906020019080838360008381101561026c578181015183820152602001610254565b50600583905560048054600154604080517f5b0fc9c3000000000000000000000000000000000000000000000000000000008152938401879052600160a060020a03928316602485018190529051909550911691635b0fc9c391604480830192600092919082900301818387803b158015610a3257600080fd5b505af1158015610a46573d6000803e3d6000fd5b5050604080517faac57b3a00000000000000000000000000000000000000000000000000000000815260048101899052602481018890523060448201529051600160a060020a038616935063aac57b3a925060648083019260209291908290030181600087803b158015610ab957600080fd5b505af1158015610acd573d6000803e3d6000fd5b505050506040513d6020811015610ae357600080fd5b5051604080517fd4aae0c40000000000000000000000000000000000000000000000000000000081529051919250600160a060020a0383169163d4aae0c4916004808201926020929091908290030181600087803b158015610b4457600080fd5b505af1158015610b58573d6000803e3d6000fd5b505050506040513d6020811015610b6e57600080fd5b5051604080517fde2873590000000000000000000000000000000000000000000000000000000081529051600160a060020a039092169163de287359916004808201926020929091908290030181600087803b158015610bcd57600080fd5b505af1158015610be1573d6000803e3d6000fd5b505050506040513d6020811015610bf757600080fd5b5051604080517f5e1f3fa80000000000000000000000000000000000000000000000000000000081529051600160a060020a0392831692639d0effdb9286928692831691635e1f3fa89160048083019260209291908290030181600087803b158015610c6257600080fd5b505af1158015610c76573d6000803e3d6000fd5b505050506040513d6020811015610c8c57600080fd5b50516040805163ffffffff861660e01b8152600160a060020a03948516600482015292909316602483015260448201529051606480830192600092919082900301818387803b158015610cde57600080fd5b505af1158015610cf2573d6000803e3d6000fd5b505060068054600160a060020a038516600160a060020a0319909116811790915560408051918252517fd47e2e00c155fdff14662cb91e9c39bbb29d8bba51f3e09bc956c6b00e07d32c9350908190036020019150a15050505050565b6000546040805180820190915260168152600080516020613532833981519152602082015290600160a060020a03163314610dcf5760405160e560020a62461bcd0281526004018080602001828103825283818151815260200191508051906020019080838360008381101561026c578181015183820152602001610254565b50604080516000815290517f605c644abd488435cbc3ddd66f0621e885d845503cadeca595f01b25a75b5e4c9181900360200190a1565b610e0e613496565b610e166134da565b6000546040805180820190915260168152600080516020613532833981519152602082015290600160a060020a03163314610e965760405160e560020a62461bcd0281526004018080602001828103825283818151815260200191508051906020019080838360008381101561026c578181015183820152602001610254565b50600160a060020a0383161515610eac57600080fd5b505060408051610100810182526005548152600654600160a060020a039081166020808401919091526007548216838501908152600854831660608086019190915260095484166080860152600a54841660a0860152600b54841660c0860152600c54841660e086015285519081018652600d5484168152600e54841681840152600f5484168187015290518551808701909652601586527f544d504c5f44414f5f4e4f545f4445504c4f594544000000000000000000000092860192909252929391161515610fc15760405160e560020a62461bcd0281526004018080602001828103825283818151815260200191508051906020019080838360008381101561026c578181015183820152602001610254565b5060408051808201909152600f81527f544d504c5f494e56414c49445f494400000000000000000000000000000000006020820152600085116110495760405160e560020a62461bcd0281526004018080602001828103825283818151815260200191508051906020019080838360008381101561026c578181015183820152602001610254565b50600160a060020a03831660e08301526110638282611d3b565b611071826040015133612a4c565b611079612bd4565b600354604051600160a060020a039091169063d22057a99087908790602001808383808284378201915050925050506040516020818303038152906040526040518082805190602001908083835b602083106110e65780518252601f1990920191602091820191016110c7565b5181516020939093036101000a6000190180199091169216919091179052604080519190930181900381208984015163ffffffff881660e01b83526004830191909152600160a060020a03166024820152915160448084019550600094509092839003019050818387803b15801561115d57600080fd5b505af1158015611171573d6000803e3d6000fd5b50506040517fb0a82556d18155ca00015815564cf825c477e4d1a5c8e8a148d2d995d491a78b925060009150a15050505050565b6000546040805180820190915260168152600080516020613532833981519152602082015290600160a060020a031633146112255760405160e560020a62461bcd0281526004018080602001828103825283818151815260200191508051906020019080838360008381101561026c578181015183820152602001610254565b50600154604080517f02571be30000000000000000000000000000000000000000000000000000000081526004810185905290513092600160a060020a0316916302571be39160248083019260209291908290030181600087803b15801561128c57600080fd5b505af11580156112a0573d6000803e3d6000fd5b505050506040513d60208110156112b657600080fd5b505160408051606081018252602381527f544d504c5f454e535f4e4f44455f4e4f545f4f574e45445f42595f54454d504c60208201527f41544500000000000000000000000000000000000000000000000000000000009181019190915291600160a060020a03909116146113705760405160e560020a62461bcd0281526004018080602001828103825283818151815260200191508051906020019080838360008381101561026c578181015183820152602001610254565b50600154604080517f5b0fc9c300000000000000000000000000000000000000000000000000000000815260048101859052600160a060020a03848116602483015291519190921691635b0fc9c391604480830192600092919082900301818387803b1580156113df57600080fd5b505af11580156113f3573d6000803e3d6000fd5b505050505050565b600080546040805180820190915260168152600080516020613532833981519152602082015290600160a060020a0316331461147c5760405160e560020a62461bcd0281526004018080602001828103825283818151815260200191508051906020019080838360008381101561026c578181015183820152602001610254565b5060065460408051808201909152601a81527f544d504c5f52454749535452595f4e4f545f4445504c4f594544000000000000602082015290600160a060020a0316151561150f5760405160e560020a62461bcd0281526004018080602001828103825283818151815260200191508051906020019080838360008381101561026c578181015183820152602001610254565b5050600654604080518082018252600881527f636174616c697374000000000000000000000000000000000000000000000000602082015290517f32ab6af00000000000000000000000000000000000000000000000000000000081523060248201819052600160a060020a039093169283926332ab6af0929091908f908f908f908f906004810190819060440186606080828437820191505085600160a060020a0316600160a060020a0316815260200180602001838103835289818151815260200191508051906020019080838360005b838110156115fa5781810151838201526020016115e2565b50505050905090810190601f1680156116275780820380516001836020036101000a031916815260200191505b508381038252848152602001858580828437820191505098505050505050505050602060405180830381600087803b15801561166257600080fd5b505af1158015611676573d6000803e3d6000fd5b505050506040513d602081101561168c57600080fd5b5051600d8054600160a060020a031916600160a060020a03928316179055604080518082018252601781527f6e6f64652d6f70657261746f72732d7265676973747279000000000000000000602082015290517f32ab6af00000000000000000000000000000000000000000000000000000000081523060248201819052928416926332ab6af092918f908c908c908c906004810190819060440186606080828437820191505085600160a060020a0316600160a060020a0316815260200180602001838103835289818151815260200191508051906020019080838360005b8381101561178457818101518382015260200161176c565b50505050905090810190601f1680156117b15780820380516001836020036101000a031916815260200191505b508381038252848152602001858580828437820191505098505050505050505050602060405180830381600087803b1580156117ec57600080fd5b505af1158015611800573d6000803e3d6000fd5b505050506040513d602081101561181657600080fd5b5051600f8054600160a060020a031916600160a060020a03928316179055604080518082018252600681527f6f7261636c650000000000000000000000000000000000000000000000000000602082015290517f32ab6af00000000000000000000000000000000000000000000000000000000081523060248201819052928416926332ab6af092918f908990899089906004810190819060440186606080828437820191505085600160a060020a0316600160a060020a0316815260200180602001838103835289818151815260200191508051906020019080838360005b8381101561190e5781810151838201526020016118f6565b50505050905090810190601f16801561193b5780820380516001836020036101000a031916815260200191505b508381038252848152602001858580828437820191505098505050505050505050602060405180830381600087803b15801561197657600080fd5b505af115801561198a573d6000803e3d6000fd5b505050506040513d60208110156119a057600080fd5b5051600e8054600160a060020a031916600160a060020a039092169190911790556040517ff3b59e90e5cdf1aaf6448e0f5614fcc90be9ac608bc56bf7ff0e7ca4e9aedcec90600090a15050505050505050505050565b600054600254600154600354600454600160a060020a03948516959385169492831693918316921690565b600254604080517f2168744400000000000000000000000000000000000000000000000000000000815230600482015290516000928392600160a060020a039091169163216874449160248082019260209290919082900301818787803b158015611a8c57600080fd5b505af1158015611aa0573d6000803e3d6000fd5b505050506040513d6020811015611ab657600080fd5b5051604080517fde2873590000000000000000000000000000000000000000000000000000000081529051919350600160a060020a0384169163de287359916004808201926020929091908290030181600087803b158015611b1757600080fd5b505af1158015611b2b573d6000803e3d6000fd5b505050506040513d6020811015611b4157600080fd5b5051604080517f8ea8dc9d0000000000000000000000000000000000000000000000000000000081529051919250611bda9183918591600160a060020a03831691638ea8dc9d9160048083019260209291908290030181600087803b158015611ba957600080fd5b505af1158015611bbd573d6000803e3d6000fd5b505050506040513d6020811015611bd357600080fd5b5051612c37565b9091565b600081836040516020018082805190602001908083835b60208310611c145780518252601f199092019160209182019101611bf5565b6001836020036101000a0380198251168184511680821785525050505050509050019150506040516020818303038152906040526040518082805190602001908083835b60208310611c775780518252601f199092019160209182019101611c58565b51815160209384036101000a6000190180199092169116179052604080519290940182900382208282019790975281840196909652825180820384018152606090910192839052805190959294508493509185019190508083835b60208310611cf15780518252601f199092019160209182019101611cd2565b5181516020939093036101000a600019018019909116921691909117905260405192018290039091209695505050505050565b6000611d338484846000612ccf565b949350505050565b6000806000806000611d4b6134fa565b6000611d556134fa565b896060015197508960200151600160a060020a031663d4aae0c46040518163ffffffff1660e01b8152600401602060405180830381600087803b158015611d9b57600080fd5b505af1158015611daf573d6000803e3d6000fd5b505050506040513d6020811015611dc557600080fd5b5051604080517fde2873590000000000000000000000000000000000000000000000000000000081529051919850600160a060020a0389169163de287359916004808201926020929091908290030181600087803b158015611e2657600080fd5b505af1158015611e3a573d6000803e3d6000fd5b505050506040513d6020811015611e5057600080fd5b50518951604080517faa61924a0000000000000000000000000000000000000000000000000000000081529051929850600160a060020a039091169163aa61924a916004808201926020929091908290030181600087803b158015611eb457600080fd5b505af1158015611ec8573d6000803e3d6000fd5b505050506040513d6020811015611ede57600080fd5b505160208b810151604080517f2b20e3970000000000000000000000000000000000000000000000000000000081529051939850600160a060020a0390911692632b20e397926004808401939192918290030181600087803b158015611f4357600080fd5b505af1158015611f57573d6000803e3d6000fd5b505050506040513d6020811015611f6d57600080fd5b505160208b810151604080517f5e1f3fa8000000000000000000000000000000000000000000000000000000008152905193975061200a938a933392600160a060020a03851692635e1f3fa8926004808401939192918290030181600087803b158015611fd957600080fd5b505af1158015611fed573d6000803e3d6000fd5b505050506040513d602081101561200357600080fd5b5051612eb0565b85600160a060020a031663afd925df33898a600160a060020a0316638ea8dc9d6040518163ffffffff1660e01b8152600401602060405180830381600087803b15801561205657600080fd5b505af115801561206a573d6000803e3d6000fd5b505050506040513d602081101561208057600080fd5b50516040805163ffffffff861660e01b8152600160a060020a03948516600482015292909316602483015260448201529051606480830192600092919082900301818387803b1580156120d257600080fd5b505af11580156120e6573d6000803e3d6000fd5b5050505061212b86873389600160a060020a0316633d6ab68f6040518163ffffffff1660e01b8152600401602060405180830381600087803b158015611fd957600080fd5b85600160a060020a031663afd925df338687600160a060020a031663fef47e386040518163ffffffff1660e01b8152600401602060405180830381600087803b15801561217757600080fd5b505af115801561218b573d6000803e3d6000fd5b505050506040513d60208110156121a157600080fd5b50516040805163ffffffff861660e01b8152600160a060020a03948516600482015292909316602483015260448201529051606480830192600092919082900301818387803b1580156121f357600080fd5b505af1158015612207573d6000803e3d6000fd5b5050505085600160a060020a031663afd925df338687600160a060020a031663307482cf6040518163ffffffff1660e01b8152600401602060405180830381600087803b15801561225757600080fd5b505af115801561226b573d6000803e3d6000fd5b505050506040513d602081101561228157600080fd5b50516040805163ffffffff861660e01b8152600160a060020a03948516600482015292909316602483015260448201529051606480830192600092919082900301818387803b1580156122d357600080fd5b505af11580156122e7573d6000803e3d6000fd5b50508a51600160a060020a0390811686526020808d01518216818801526040808e0151909216828801528151808301909252600c82527f61706d2d72656769737472790000000000000000000000000000000000000000908201528c5161235893506123539250611bde565b612ec3565b600160a060020a0316606084015260408051808201909152600881527f61706d2d7265706f00000000000000000000000000000000000000000000000060208201528a516123a99161235391611bde565b600160a060020a0316608084015260408051808201909152600a81527f61706d2d656e737375620000000000000000000000000000000000000000000060208201528a516123fa9161235391611bde565b600160a060020a031660a0840152600091505b600682101561243d576124328684846006811061242657fe5b60200201513388612eb0565b81600101915061240d565b8960c00151600160a060020a031663f31bd9c16040518163ffffffff1660e01b8152600401602060405180830381600087803b15801561247c57600080fd5b505af1158015612490573d6000803e3d6000fd5b505050506040513d60208110156124a657600080fd5b5051815260c08a0151604080517fd8e71cd10000000000000000000000000000000000000000000000000000000081529051600160a060020a039092169163d8e71cd1916004808201926020929091908290030181600087803b15801561250c57600080fd5b505af1158015612520573d6000803e3d6000fd5b505050506040513d602081101561253657600080fd5b50516020820152600091505b60028210156125785761256d888b60c00151838560068110151561256257fe5b602002015133613051565b816001019150612542565b87600160a060020a031663be0384788b60e001518c60c001518d60c00151600160a060020a03166380231f156040518163ffffffff1660e01b8152600401602060405180830381600087803b1580156125d057600080fd5b505af11580156125e4573d6000803e3d6000fd5b505050506040513d60208110156125fa57600080fd5b50516040805163ffffffff861660e01b8152600160a060020a03948516600482015292909316602483015260448201523360648201529051608480830192600092919082900301818387803b15801561265257600080fd5b505af1158015612666573d6000803e3d6000fd5b5050505087600160a060020a031663be038478338c60c001518d60c00151600160a060020a0316638ece99956040518163ffffffff1660e01b8152600401602060405180830381600087803b1580156126be57600080fd5b505af11580156126d2573d6000803e3d6000fd5b505050506040513d60208110156126e857600080fd5b50516040805163ffffffff861660e01b8152600160a060020a03948516600482015292909316602483015260448201523360648201529051608480830192600092919082900301818387803b15801561274057600080fd5b505af1158015612754573d6000803e3d6000fd5b505050508960800151600160a060020a031663389ed2676040518163ffffffff1660e01b8152600401602060405180830381600087803b15801561279757600080fd5b505af11580156127ab573d6000803e3d6000fd5b505050506040513d60208110156127c157600080fd5b5051815260808a0151604080517f2de03aa10000000000000000000000000000000000000000000000000000000081529051600160a060020a0390921691632de03aa1916004808201926020929091908290030181600087803b15801561282757600080fd5b505af115801561283b573d6000803e3d6000fd5b505050506040513d602081101561285157600080fd5b505160208083019190915260808b0151604080517feb85262f0000000000000000000000000000000000000000000000000000000081529051600160a060020a039092169263eb85262f926004808401938290030181600087803b1580156128b857600080fd5b505af11580156128cc573d6000803e3d6000fd5b505050506040513d60208110156128e257600080fd5b505160408083019190915260808b015181517f136dd43c0000000000000000000000000000000000000000000000000000000081529151600160a060020a039091169163136dd43c9160048083019260209291908290030181600087803b15801561294c57600080fd5b505af1158015612960573d6000803e3d6000fd5b505050506040513d602081101561297657600080fd5b5051606082015260808a0151604080517fad1394e90000000000000000000000000000000000000000000000000000000081529051600160a060020a039092169163ad1394e9916004808201926020929091908290030181600087803b1580156129df57600080fd5b505af11580156129f3573d6000803e3d6000fd5b505050506040513d6020811015612a0957600080fd5b50516080820152600091505b6005821015612a4057612a35888b60800151838560068110151561256257fe5b816001019150612a15565b50505050505050505050565b600082600160a060020a031663de2873596040518163ffffffff1660e01b8152600401602060405180830381600087803b158015612a8957600080fd5b505af1158015612a9d573d6000803e3d6000fd5b505050506040513d6020811015612ab357600080fd5b5051604080517f8ea8dc9d0000000000000000000000000000000000000000000000000000000081529051919250612b5091839186918691600160a060020a03841691638ea8dc9d916004808201926020929091908290030181600087803b158015612b1e57600080fd5b505af1158015612b32573d6000803e3d6000fd5b505050506040513d6020811015612b4857600080fd5b5051866130e9565b612b9181828484600160a060020a0316633d6ab68f6040518163ffffffff1660e01b8152600401602060405180830381600087803b158015612b1e57600080fd5b612bcf6040805190810160405280601781526020017f5472616e73666572696e67207065726d697373696f6e7300000000000000000081525061328f565b505050565b600060055560068054600160a060020a0319908116909155600780548216905560088054821690556009805482169055600b805482169055600a805482169055600c805482169055600d805482169055600e805482169055600f80549091169055565b604080517fbe0384780000000000000000000000000000000000000000000000000000000081523060048201819052600160a060020a03858116602484015260448301859052606483019190915291519185169163be0384789160848082019260009290919082900301818387803b158015612cb257600080fd5b505af1158015612cc6573d6000803e3d6000fd5b50505050505050565b6000806000612cdd86613366565b516040517f397edd4100000000000000000000000000000000000000000000000000000000815260048101888152600160a060020a0380841660248401528715156064840152608060448401908152895160848501528951949650908b169363397edd41938b9388938c938c9360a40190602086019080838360005b83811015612d71578181015183820152602001612d59565b50505050905090810190601f168015612d9e5780820380516001836020036101000a031916815260200191505b5095505050505050602060405180830381600087803b158015612dc057600080fd5b505af1158015612dd4573d6000803e3d6000fd5b505050506040513d6020811015612dea57600080fd5b505160408051600160a060020a038316815260208181018a9052606092820183815289519383019390935288519394507f23223d108297a7171f00c5dbf6504fb740a2d6f24e8303bdc538600750c2c17d9385938b938b939092608084019185019080838360005b83811015612e6a578181015183820152602001612e52565b50505050905090810190601f168015612e975780820380516001836020036101000a031916815260200191505b5094505050505060405180910390a19695505050505050565b612ebd84848484866130e9565b50505050565b600154604080517f0178b8bf0000000000000000000000000000000000000000000000000000000081526004810184905290516000928392600160a060020a0390911691630178b8bf9160248082019260209290919082900301818787803b158015612f2e57600080fd5b505af1158015612f42573d6000803e3d6000fd5b505050506040513d6020811015612f5857600080fd5b50519050600160a060020a0381161515612fbc576040805160e560020a62461bcd02815260206004820152601560248201527f5a45524f5f5245534f4c5645525f414444524553530000000000000000000000604482015290519081900360640190fd5b604080517f3b3b57de000000000000000000000000000000000000000000000000000000008152600481018590529051600160a060020a03831691633b3b57de9160248083019260209291908290030181600087803b15801561301e57600080fd5b505af1158015613032573d6000803e3d6000fd5b505050506040513d602081101561304857600080fd5b50519392505050565b604080517fbe038478000000000000000000000000000000000000000000000000000000008152600160a060020a0383811660048301819052868216602484015260448301869052606483015291519186169163be0384789160848082019260009290919082900301818387803b1580156130cb57600080fd5b505af11580156130df573d6000803e3d6000fd5b5050505050505050565b604080517f0a8ed3db000000000000000000000000000000000000000000000000000000008152600160a060020a038581166004830152868116602483015260448201859052915191871691630a8ed3db9160648082019260009290919082900301818387803b15801561315c57600080fd5b505af1158015613170573d6000803e3d6000fd5b5050604080517f9d0effdb000000000000000000000000000000000000000000000000000000008152306004820152600160a060020a0388811660248301526044820187905291519189169350639d0effdb925060648082019260009290919082900301818387803b1580156131e557600080fd5b505af11580156131f9573d6000803e3d6000fd5b5050604080517fafd925df000000000000000000000000000000000000000000000000000000008152600160a060020a0385811660048301528881166024830152604482018790529151918916935063afd925df925060648082019260009290919082900301818387803b15801561327057600080fd5b505af1158015613284573d6000803e3d6000fd5b505050505050505050565b613363816040516024018080602001828103825283818151815260200191508051906020019080838360005b838110156132d35781810151838201526020016132bb565b50505050905090810190601f1680156133005780820380516001836020036101000a031916815260200191505b5060408051601f198184030181529190526020810180517bffffffffffffffffffffffffffffffffffffffffffffffffffffffff167f41304fac000000000000000000000000000000000000000000000000000000001790529250613475915050565b50565b61336e613519565b600080606061337c85612ec3565b925082600160a060020a031663c36af4606040518163ffffffff1660e01b8152600401600060405180830381600087803b1580156133b957600080fd5b505af11580156133cd573d6000803e3d6000fd5b505050506040513d6000823e601f3d908101601f1916820160405260a08110156133f657600080fd5b6060820151608083018051919284019184919064010000000081111561341b57600080fd5b8201602081018481111561342e57600080fd5b815164010000000081118282018710171561344857600080fd5b505060408051808201909152600160a060020a039590951685526020850152509198975050505050505050565b80516a636f6e736f6c652e6c6f67602083016000808483855afa5050505050565b6040805161010081018252600080825260208201819052918101829052606081018290526080810182905260a0810182905260c0810182905260e081019190915290565b604080516060810182526000808252602082018190529181019190915290565b60c0604051908101604052806006906020820280388339509192915050565b604080518082019091526000815260606020820152905600544d504c5f5045524d495353494f4e5f44454e49454400000000000000000000a165627a7a72305820d11d3213996c1f0b4fe86914b4e3c67f3dac5ed845c25efcf2790ecccf231d5b0029",
  "linkReferences": {},
  "deployedLinkReferences": {}
}