{
  "_format": "hh-sol-artifact-1",
  "contractName": "StakingRouter",
  "sourceName": "contracts/0.8.9/StakingRouter.sol",
  "abi": [
    {
      "inputs": [
        {
          "internalType": "address",
          "name": "_depositContract",
          "type": "address"
        }
      ],
      "stateMutability": "nonpayable",
      "type": "constructor"
    },
    {
      "inputs": [],
      "name": "AppAuthCatalistFailed",
      "type": "error"
    },
    {
      "inputs": [
        {
          "internalType": "uint256",
          "name": "firstArrayLength",
          "type": "uint256"
        },
        {
          "internalType": "uint256",
          "name": "secondArrayLength",
          "type": "uint256"
        }
      ],
      "name": "ArraysLengthMismatch",
      "type": "error"
    },
    {
      "inputs": [],
      "name": "DepositContractZeroAddress",
      "type": "error"
    },
    {
      "inputs": [],
      "name": "DirectACETransfer",
      "type": "error"
    },
    {
      "inputs": [],
      "name": "EmptyWithdrawalsCredentials",
      "type": "error"
    },
    {
      "inputs": [],
      "name": "ExitedValidatorsCountCannotDecrease",
      "type": "error"
    },
    {
      "inputs": [],
      "name": "InvalidContractVersionIncrement",
      "type": "error"
    },
    {
      "inputs": [
        {
          "internalType": "uint256",
          "name": "aceValue",
          "type": "uint256"
        },
        {
          "internalType": "uint256",
          "name": "depositsCount",
          "type": "uint256"
        }
      ],
      "name": "InvalidDepositsValue",
      "type": "error"
    },
    {
      "inputs": [
        {
          "internalType": "uint256",
          "name": "actual",
          "type": "uint256"
        },
        {
          "internalType": "uint256",
          "name": "expected",
          "type": "uint256"
        }
      ],
      "name": "InvalidPublicKeysBatchLength",
      "type": "error"
    },
    {
      "inputs": [
        {
          "internalType": "uint256",
          "name": "code",
          "type": "uint256"
        }
      ],
      "name": "InvalidReportData",
      "type": "error"
    },
    {
      "inputs": [
        {
          "internalType": "uint256",
          "name": "actual",
          "type": "uint256"
        },
        {
          "internalType": "uint256",
          "name": "expected",
          "type": "uint256"
        }
      ],
      "name": "InvalidSignaturesBatchLength",
      "type": "error"
    },
    {
      "inputs": [],
      "name": "NonZeroContractVersionOnInit",
      "type": "error"
    },
    {
      "inputs": [
        {
          "internalType": "uint256",
          "name": "reportedExitedValidatorsCount",
          "type": "uint256"
        },
        {
          "internalType": "uint256",
          "name": "depositedValidatorsCount",
          "type": "uint256"
        }
      ],
      "name": "ReportedExitedValidatorsExceedDeposited",
      "type": "error"
    },
    {
      "inputs": [],
      "name": "StakingModuleAddressExists",
      "type": "error"
    },
    {
      "inputs": [],
      "name": "StakingModuleNotActive",
      "type": "error"
    },
    {
      "inputs": [],
      "name": "StakingModuleNotPaused",
      "type": "error"
    },
    {
      "inputs": [],
      "name": "StakingModuleStatusTheSame",
      "type": "error"
    },
    {
      "inputs": [],
      "name": "StakingModuleUnregistered",
      "type": "error"
    },
    {
      "inputs": [],
      "name": "StakingModuleWrongName",
      "type": "error"
    },
    {
      "inputs": [],
      "name": "StakingModulesLimitExceeded",
      "type": "error"
    },
    {
      "inputs": [
        {
          "internalType": "uint256",
          "name": "expected",
          "type": "uint256"
        },
        {
          "internalType": "uint256",
          "name": "received",
          "type": "uint256"
        }
      ],
      "name": "UnexpectedContractVersion",
      "type": "error"
    },
    {
      "inputs": [
        {
          "internalType": "uint256",
          "name": "currentModuleExitedValidatorsCount",
          "type": "uint256"
        },
        {
          "internalType": "uint256",
          "name": "currentNodeOpExitedValidatorsCount",
          "type": "uint256"
        },
        {
          "internalType": "uint256",
          "name": "currentNodeOpStuckValidatorsCount",
          "type": "uint256"
        }
      ],
      "name": "UnexpectedCurrentValidatorsCount",
      "type": "error"
    },
    {
      "inputs": [],
      "name": "UnrecoverableModuleError",
      "type": "error"
    },
    {
      "inputs": [
        {
          "internalType": "string",
          "name": "field",
          "type": "string"
        }
      ],
      "name": "ValueOver100Percent",
      "type": "error"
    },
    {
      "inputs": [
        {
          "internalType": "string",
          "name": "field",
          "type": "string"
        }
      ],
      "name": "ZeroAddress",
      "type": "error"
    },
    {
      "anonymous": false,
      "inputs": [
        {
          "indexed": false,
          "internalType": "uint256",
          "name": "version",
          "type": "uint256"
        }
      ],
      "name": "ContractVersionSet",
      "type": "event"
    },
    {
      "anonymous": false,
      "inputs": [
        {
          "indexed": true,
          "internalType": "uint256",
          "name": "stakingModuleId",
          "type": "uint256"
        },
        {
          "indexed": false,
          "internalType": "bytes",
          "name": "lowLevelRevertData",
          "type": "bytes"
        }
      ],
      "name": "ExitedAndStuckValidatorsCountsUpdateFailed",
      "type": "event"
    },
    {
      "anonymous": false,
      "inputs": [
        {
          "indexed": true,
          "internalType": "uint256",
          "name": "stakingModuleId",
          "type": "uint256"
        },
        {
          "indexed": false,
          "internalType": "bytes",
          "name": "lowLevelRevertData",
          "type": "bytes"
        }
      ],
      "name": "RewardsMintedReportFailed",
      "type": "event"
    },
    {
      "anonymous": false,
      "inputs": [
        {
          "indexed": true,
          "internalType": "bytes32",
          "name": "role",
          "type": "bytes32"
        },
        {
          "indexed": true,
          "internalType": "bytes32",
          "name": "previousAdminRole",
          "type": "bytes32"
        },
        {
          "indexed": true,
          "internalType": "bytes32",
          "name": "newAdminRole",
          "type": "bytes32"
        }
      ],
      "name": "RoleAdminChanged",
      "type": "event"
    },
    {
      "anonymous": false,
      "inputs": [
        {
          "indexed": true,
          "internalType": "bytes32",
          "name": "role",
          "type": "bytes32"
        },
        {
          "indexed": true,
          "internalType": "address",
          "name": "account",
          "type": "address"
        },
        {
          "indexed": true,
          "internalType": "address",
          "name": "sender",
          "type": "address"
        }
      ],
      "name": "RoleGranted",
      "type": "event"
    },
    {
      "anonymous": false,
      "inputs": [
        {
          "indexed": true,
          "internalType": "bytes32",
          "name": "role",
          "type": "bytes32"
        },
        {
          "indexed": true,
          "internalType": "address",
          "name": "account",
          "type": "address"
        },
        {
          "indexed": true,
          "internalType": "address",
          "name": "sender",
          "type": "address"
        }
      ],
      "name": "RoleRevoked",
      "type": "event"
    },
    {
      "anonymous": false,
      "inputs": [
        {
          "indexed": true,
          "internalType": "uint256",
          "name": "stakingModuleId",
          "type": "uint256"
        },
        {
          "indexed": false,
          "internalType": "address",
          "name": "stakingModule",
          "type": "address"
        },
        {
          "indexed": false,
          "internalType": "string",
          "name": "name",
          "type": "string"
        },
        {
          "indexed": false,
          "internalType": "address",
          "name": "createdBy",
          "type": "address"
        }
      ],
      "name": "StakingModuleAdded",
      "type": "event"
    },
    {
      "anonymous": false,
      "inputs": [
        {
          "indexed": true,
          "internalType": "uint256",
          "name": "stakingModuleId",
          "type": "uint256"
        },
        {
          "indexed": false,
          "internalType": "uint256",
          "name": "unreportedExitedValidatorsCount",
          "type": "uint256"
        }
      ],
      "name": "StakingModuleExitedValidatorsIncompleteReporting",
      "type": "event"
    },
    {
      "anonymous": false,
      "inputs": [
        {
          "indexed": true,
          "internalType": "uint256",
          "name": "stakingModuleId",
          "type": "uint256"
        },
        {
          "indexed": false,
          "internalType": "uint256",
          "name": "stakingModuleFee",
          "type": "uint256"
        },
        {
          "indexed": false,
          "internalType": "uint256",
          "name": "treasuryFee",
          "type": "uint256"
        },
        {
          "indexed": false,
          "internalType": "address",
          "name": "setBy",
          "type": "address"
        }
      ],
      "name": "StakingModuleFeesSet",
      "type": "event"
    },
    {
      "anonymous": false,
      "inputs": [
        {
          "indexed": true,
          "internalType": "uint256",
          "name": "stakingModuleId",
          "type": "uint256"
        },
        {
          "indexed": false,
          "internalType": "enum StakingRouter.StakingModuleStatus",
          "name": "status",
          "type": "uint8"
        },
        {
          "indexed": false,
          "internalType": "address",
          "name": "setBy",
          "type": "address"
        }
      ],
      "name": "StakingModuleStatusSet",
      "type": "event"
    },
    {
      "anonymous": false,
      "inputs": [
        {
          "indexed": true,
          "internalType": "uint256",
          "name": "stakingModuleId",
          "type": "uint256"
        },
        {
          "indexed": false,
          "internalType": "uint256",
          "name": "targetShare",
          "type": "uint256"
        },
        {
          "indexed": false,
          "internalType": "address",
          "name": "setBy",
          "type": "address"
        }
      ],
      "name": "StakingModuleTargetShareSet",
      "type": "event"
    },
    {
      "anonymous": false,
      "inputs": [
        {
          "indexed": true,
          "internalType": "uint256",
          "name": "stakingModuleId",
          "type": "uint256"
        },
        {
          "indexed": false,
          "internalType": "uint256",
          "name": "amount",
          "type": "uint256"
        }
      ],
      "name": "StakingRouterACEDeposited",
      "type": "event"
    },
    {
      "anonymous": false,
      "inputs": [
        {
          "indexed": false,
          "internalType": "bytes32",
          "name": "withdrawalCredentials",
          "type": "bytes32"
        },
        {
          "indexed": false,
          "internalType": "address",
          "name": "setBy",
          "type": "address"
        }
      ],
      "name": "WithdrawalCredentialsSet",
      "type": "event"
    },
    {
      "anonymous": false,
      "inputs": [
        {
          "indexed": true,
          "internalType": "uint256",
          "name": "stakingModuleId",
          "type": "uint256"
        },
        {
          "indexed": false,
          "internalType": "bytes",
          "name": "lowLevelRevertData",
          "type": "bytes"
        }
      ],
      "name": "WithdrawalsCredentialsChangeFailed",
      "type": "event"
    },
    {
      "inputs": [],
      "name": "DEFAULT_ADMIN_ROLE",
      "outputs": [
        {
          "internalType": "bytes32",
          "name": "",
          "type": "bytes32"
        }
      ],
      "stateMutability": "view",
      "type": "function"
    },
    {
      "inputs": [],
      "name": "DEPOSIT_CONTRACT",
      "outputs": [
        {
          "internalType": "contract IDepositContract",
          "name": "",
          "type": "address"
        }
      ],
      "stateMutability": "view",
      "type": "function"
    },
    {
      "inputs": [],
      "name": "FEE_PRECISION_POINTS",
      "outputs": [
        {
          "internalType": "uint256",
          "name": "",
          "type": "uint256"
        }
      ],
      "stateMutability": "view",
      "type": "function"
    },
    {
      "inputs": [],
      "name": "MANAGE_WITHDRAWAL_CREDENTIALS_ROLE",
      "outputs": [
        {
          "internalType": "bytes32",
          "name": "",
          "type": "bytes32"
        }
      ],
      "stateMutability": "view",
      "type": "function"
    },
    {
      "inputs": [],
      "name": "MAX_STAKING_MODULES_COUNT",
      "outputs": [
        {
          "internalType": "uint256",
          "name": "",
          "type": "uint256"
        }
      ],
      "stateMutability": "view",
      "type": "function"
    },
    {
      "inputs": [],
      "name": "MAX_STAKING_MODULE_NAME_LENGTH",
      "outputs": [
        {
          "internalType": "uint256",
          "name": "",
          "type": "uint256"
        }
      ],
      "stateMutability": "view",
      "type": "function"
    },
    {
      "inputs": [],
      "name": "REPORT_EXITED_VALIDATORS_ROLE",
      "outputs": [
        {
          "internalType": "bytes32",
          "name": "",
          "type": "bytes32"
        }
      ],
      "stateMutability": "view",
      "type": "function"
    },
    {
      "inputs": [],
      "name": "REPORT_REWARDS_MINTED_ROLE",
      "outputs": [
        {
          "internalType": "bytes32",
          "name": "",
          "type": "bytes32"
        }
      ],
      "stateMutability": "view",
      "type": "function"
    },
    {
      "inputs": [],
      "name": "STAKING_MODULE_MANAGE_ROLE",
      "outputs": [
        {
          "internalType": "bytes32",
          "name": "",
          "type": "bytes32"
        }
      ],
      "stateMutability": "view",
      "type": "function"
    },
    {
      "inputs": [],
      "name": "STAKING_MODULE_PAUSE_ROLE",
      "outputs": [
        {
          "internalType": "bytes32",
          "name": "",
          "type": "bytes32"
        }
      ],
      "stateMutability": "view",
      "type": "function"
    },
    {
      "inputs": [],
      "name": "STAKING_MODULE_RESUME_ROLE",
      "outputs": [
        {
          "internalType": "bytes32",
          "name": "",
          "type": "bytes32"
        }
      ],
      "stateMutability": "view",
      "type": "function"
    },
    {
      "inputs": [],
      "name": "TOTAL_BASIS_POINTS",
      "outputs": [
        {
          "internalType": "uint256",
          "name": "",
          "type": "uint256"
        }
      ],
      "stateMutability": "view",
      "type": "function"
    },
    {
      "inputs": [],
      "name": "UNSAFE_SET_EXITED_VALIDATORS_ROLE",
      "outputs": [
        {
          "internalType": "bytes32",
          "name": "",
          "type": "bytes32"
        }
      ],
      "stateMutability": "view",
      "type": "function"
    },
    {
      "inputs": [
        {
          "internalType": "string",
          "name": "_name",
          "type": "string"
        },
        {
          "internalType": "address",
          "name": "_stakingModuleAddress",
          "type": "address"
        },
        {
          "internalType": "uint256",
          "name": "_targetShare",
          "type": "uint256"
        },
        {
          "internalType": "uint256",
          "name": "_stakingModuleFee",
          "type": "uint256"
        },
        {
          "internalType": "uint256",
          "name": "_treasuryFee",
          "type": "uint256"
        }
      ],
      "name": "addStakingModule",
      "outputs": [],
      "stateMutability": "nonpayable",
      "type": "function"
    },
    {
      "inputs": [
        {
          "internalType": "uint256",
          "name": "_depositsCount",
          "type": "uint256"
        },
        {
          "internalType": "uint256",
          "name": "_stakingModuleId",
          "type": "uint256"
        },
        {
          "internalType": "bytes",
          "name": "_depositCalldata",
          "type": "bytes"
        }
      ],
      "name": "deposit",
      "outputs": [],
      "stateMutability": "payable",
      "type": "function"
    },
    {
      "inputs": [
        {
          "internalType": "uint256",
          "name": "_stakingModuleId",
          "type": "uint256"
        }
      ],
      "name": "getAllNodeOperatorDigests",
      "outputs": [
        {
          "components": [
            {
              "internalType": "uint256",
              "name": "id",
              "type": "uint256"
            },
            {
              "internalType": "bool",
              "name": "isActive",
              "type": "bool"
            },
            {
              "components": [
                {
                  "internalType": "bool",
                  "name": "isTargetLimitActive",
                  "type": "bool"
                },
                {
                  "internalType": "uint256",
                  "name": "targetValidatorsCount",
                  "type": "uint256"
                },
                {
                  "internalType": "uint256",
                  "name": "stuckValidatorsCount",
                  "type": "uint256"
                },
                {
                  "internalType": "uint256",
                  "name": "refundedValidatorsCount",
                  "type": "uint256"
                },
                {
                  "internalType": "uint256",
                  "name": "stuckPenaltyEndTimestamp",
                  "type": "uint256"
                },
                {
                  "internalType": "uint256",
                  "name": "totalExitedValidators",
                  "type": "uint256"
                },
                {
                  "internalType": "uint256",
                  "name": "totalDepositedValidators",
                  "type": "uint256"
                },
                {
                  "internalType": "uint256",
                  "name": "depositableValidatorsCount",
                  "type": "uint256"
                }
              ],
              "internalType": "struct StakingRouter.NodeOperatorSummary",
              "name": "summary",
              "type": "tuple"
            }
          ],
          "internalType": "struct StakingRouter.NodeOperatorDigest[]",
          "name": "",
          "type": "tuple[]"
        }
      ],
      "stateMutability": "view",
      "type": "function"
    },
    {
      "inputs": [],
      "name": "getAllStakingModuleDigests",
      "outputs": [
        {
          "components": [
            {
              "internalType": "uint256",
              "name": "nodeOperatorsCount",
              "type": "uint256"
            },
            {
              "internalType": "uint256",
              "name": "activeNodeOperatorsCount",
              "type": "uint256"
            },
            {
              "components": [
                {
                  "internalType": "uint24",
                  "name": "id",
                  "type": "uint24"
                },
                {
                  "internalType": "address",
                  "name": "stakingModuleAddress",
                  "type": "address"
                },
                {
                  "internalType": "uint16",
                  "name": "stakingModuleFee",
                  "type": "uint16"
                },
                {
                  "internalType": "uint16",
                  "name": "treasuryFee",
                  "type": "uint16"
                },
                {
                  "internalType": "uint16",
                  "name": "targetShare",
                  "type": "uint16"
                },
                {
                  "internalType": "uint8",
                  "name": "status",
                  "type": "uint8"
                },
                {
                  "internalType": "string",
                  "name": "name",
                  "type": "string"
                },
                {
                  "internalType": "uint64",
                  "name": "lastDepositAt",
                  "type": "uint64"
                },
                {
                  "internalType": "uint256",
                  "name": "lastDepositBlock",
                  "type": "uint256"
                },
                {
                  "internalType": "uint256",
                  "name": "exitedValidatorsCount",
                  "type": "uint256"
                }
              ],
              "internalType": "struct StakingRouter.StakingModule",
              "name": "state",
              "type": "tuple"
            },
            {
              "components": [
                {
                  "internalType": "uint256",
                  "name": "totalExitedValidators",
                  "type": "uint256"
                },
                {
                  "internalType": "uint256",
                  "name": "totalDepositedValidators",
                  "type": "uint256"
                },
                {
                  "internalType": "uint256",
                  "name": "depositableValidatorsCount",
                  "type": "uint256"
                }
              ],
              "internalType": "struct StakingRouter.StakingModuleSummary",
              "name": "summary",
              "type": "tuple"
            }
          ],
          "internalType": "struct StakingRouter.StakingModuleDigest[]",
          "name": "",
          "type": "tuple[]"
        }
      ],
      "stateMutability": "view",
      "type": "function"
    },
    {
      "inputs": [],
      "name": "getCatalist",
      "outputs": [
        {
          "internalType": "address",
          "name": "",
          "type": "address"
        }
      ],
      "stateMutability": "view",
      "type": "function"
    },
    {
      "inputs": [],
      "name": "getContractVersion",
      "outputs": [
        {
          "internalType": "uint256",
          "name": "",
          "type": "uint256"
        }
      ],
      "stateMutability": "view",
      "type": "function"
    },
    {
      "inputs": [
        {
          "internalType": "uint256",
          "name": "_depositsCount",
          "type": "uint256"
        }
      ],
      "name": "getDepositsAllocation",
      "outputs": [
        {
          "internalType": "uint256",
          "name": "allocated",
          "type": "uint256"
        },
        {
          "internalType": "uint256[]",
          "name": "allocations",
          "type": "uint256[]"
        }
      ],
      "stateMutability": "view",
      "type": "function"
    },
    {
      "inputs": [
        {
          "internalType": "uint256",
          "name": "_stakingModuleId",
          "type": "uint256"
        },
        {
          "internalType": "uint256[]",
          "name": "_nodeOperatorIds",
          "type": "uint256[]"
        }
      ],
      "name": "getNodeOperatorDigests",
      "outputs": [
        {
          "components": [
            {
              "internalType": "uint256",
              "name": "id",
              "type": "uint256"
            },
            {
              "internalType": "bool",
              "name": "isActive",
              "type": "bool"
            },
            {
              "components": [
                {
                  "internalType": "bool",
                  "name": "isTargetLimitActive",
                  "type": "bool"
                },
                {
                  "internalType": "uint256",
                  "name": "targetValidatorsCount",
                  "type": "uint256"
                },
                {
                  "internalType": "uint256",
                  "name": "stuckValidatorsCount",
                  "type": "uint256"
                },
                {
                  "internalType": "uint256",
                  "name": "refundedValidatorsCount",
                  "type": "uint256"
                },
                {
                  "internalType": "uint256",
                  "name": "stuckPenaltyEndTimestamp",
                  "type": "uint256"
                },
                {
                  "internalType": "uint256",
                  "name": "totalExitedValidators",
                  "type": "uint256"
                },
                {
                  "internalType": "uint256",
                  "name": "totalDepositedValidators",
                  "type": "uint256"
                },
                {
                  "internalType": "uint256",
                  "name": "depositableValidatorsCount",
                  "type": "uint256"
                }
              ],
              "internalType": "struct StakingRouter.NodeOperatorSummary",
              "name": "summary",
              "type": "tuple"
            }
          ],
          "internalType": "struct StakingRouter.NodeOperatorDigest[]",
          "name": "digests",
          "type": "tuple[]"
        }
      ],
      "stateMutability": "view",
      "type": "function"
    },
    {
      "inputs": [
        {
          "internalType": "uint256",
          "name": "_stakingModuleId",
          "type": "uint256"
        },
        {
          "internalType": "uint256",
          "name": "_offset",
          "type": "uint256"
        },
        {
          "internalType": "uint256",
          "name": "_limit",
          "type": "uint256"
        }
      ],
      "name": "getNodeOperatorDigests",
      "outputs": [
        {
          "components": [
            {
              "internalType": "uint256",
              "name": "id",
              "type": "uint256"
            },
            {
              "internalType": "bool",
              "name": "isActive",
              "type": "bool"
            },
            {
              "components": [
                {
                  "internalType": "bool",
                  "name": "isTargetLimitActive",
                  "type": "bool"
                },
                {
                  "internalType": "uint256",
                  "name": "targetValidatorsCount",
                  "type": "uint256"
                },
                {
                  "internalType": "uint256",
                  "name": "stuckValidatorsCount",
                  "type": "uint256"
                },
                {
                  "internalType": "uint256",
                  "name": "refundedValidatorsCount",
                  "type": "uint256"
                },
                {
                  "internalType": "uint256",
                  "name": "stuckPenaltyEndTimestamp",
                  "type": "uint256"
                },
                {
                  "internalType": "uint256",
                  "name": "totalExitedValidators",
                  "type": "uint256"
                },
                {
                  "internalType": "uint256",
                  "name": "totalDepositedValidators",
                  "type": "uint256"
                },
                {
                  "internalType": "uint256",
                  "name": "depositableValidatorsCount",
                  "type": "uint256"
                }
              ],
              "internalType": "struct StakingRouter.NodeOperatorSummary",
              "name": "summary",
              "type": "tuple"
            }
          ],
          "internalType": "struct StakingRouter.NodeOperatorDigest[]",
          "name": "",
          "type": "tuple[]"
        }
      ],
      "stateMutability": "view",
      "type": "function"
    },
    {
      "inputs": [
        {
          "internalType": "uint256",
          "name": "_stakingModuleId",
          "type": "uint256"
        },
        {
          "internalType": "uint256",
          "name": "_nodeOperatorId",
          "type": "uint256"
        }
      ],
      "name": "getNodeOperatorSummary",
      "outputs": [
        {
          "components": [
            {
              "internalType": "bool",
              "name": "isTargetLimitActive",
              "type": "bool"
            },
            {
              "internalType": "uint256",
              "name": "targetValidatorsCount",
              "type": "uint256"
            },
            {
              "internalType": "uint256",
              "name": "stuckValidatorsCount",
              "type": "uint256"
            },
            {
              "internalType": "uint256",
              "name": "refundedValidatorsCount",
              "type": "uint256"
            },
            {
              "internalType": "uint256",
              "name": "stuckPenaltyEndTimestamp",
              "type": "uint256"
            },
            {
              "internalType": "uint256",
              "name": "totalExitedValidators",
              "type": "uint256"
            },
            {
              "internalType": "uint256",
              "name": "totalDepositedValidators",
              "type": "uint256"
            },
            {
              "internalType": "uint256",
              "name": "depositableValidatorsCount",
              "type": "uint256"
            }
          ],
          "internalType": "struct StakingRouter.NodeOperatorSummary",
          "name": "summary",
          "type": "tuple"
        }
      ],
      "stateMutability": "view",
      "type": "function"
    },
    {
      "inputs": [
        {
          "internalType": "bytes32",
          "name": "role",
          "type": "bytes32"
        }
      ],
      "name": "getRoleAdmin",
      "outputs": [
        {
          "internalType": "bytes32",
          "name": "",
          "type": "bytes32"
        }
      ],
      "stateMutability": "view",
      "type": "function"
    },
    {
      "inputs": [
        {
          "internalType": "bytes32",
          "name": "role",
          "type": "bytes32"
        },
        {
          "internalType": "uint256",
          "name": "index",
          "type": "uint256"
        }
      ],
      "name": "getRoleMember",
      "outputs": [
        {
          "internalType": "address",
          "name": "",
          "type": "address"
        }
      ],
      "stateMutability": "view",
      "type": "function"
    },
    {
      "inputs": [
        {
          "internalType": "bytes32",
          "name": "role",
          "type": "bytes32"
        }
      ],
      "name": "getRoleMemberCount",
      "outputs": [
        {
          "internalType": "uint256",
          "name": "",
          "type": "uint256"
        }
      ],
      "stateMutability": "view",
      "type": "function"
    },
    {
      "inputs": [],
      "name": "getStakingFeeAggregateDistribution",
      "outputs": [
        {
          "internalType": "uint96",
          "name": "modulesFee",
          "type": "uint96"
        },
        {
          "internalType": "uint96",
          "name": "treasuryFee",
          "type": "uint96"
        },
        {
          "internalType": "uint256",
          "name": "basePrecision",
          "type": "uint256"
        }
      ],
      "stateMutability": "view",
      "type": "function"
    },
    {
      "inputs": [],
      "name": "getStakingFeeAggregateDistributionE4Precision",
      "outputs": [
        {
          "internalType": "uint16",
          "name": "modulesFee",
          "type": "uint16"
        },
        {
          "internalType": "uint16",
          "name": "treasuryFee",
          "type": "uint16"
        }
      ],
      "stateMutability": "view",
      "type": "function"
    },
    {
      "inputs": [
        {
          "internalType": "uint256",
          "name": "_stakingModuleId",
          "type": "uint256"
        }
      ],
      "name": "getStakingModule",
      "outputs": [
        {
          "components": [
            {
              "internalType": "uint24",
              "name": "id",
              "type": "uint24"
            },
            {
              "internalType": "address",
              "name": "stakingModuleAddress",
              "type": "address"
            },
            {
              "internalType": "uint16",
              "name": "stakingModuleFee",
              "type": "uint16"
            },
            {
              "internalType": "uint16",
              "name": "treasuryFee",
              "type": "uint16"
            },
            {
              "internalType": "uint16",
              "name": "targetShare",
              "type": "uint16"
            },
            {
              "internalType": "uint8",
              "name": "status",
              "type": "uint8"
            },
            {
              "internalType": "string",
              "name": "name",
              "type": "string"
            },
            {
              "internalType": "uint64",
              "name": "lastDepositAt",
              "type": "uint64"
            },
            {
              "internalType": "uint256",
              "name": "lastDepositBlock",
              "type": "uint256"
            },
            {
              "internalType": "uint256",
              "name": "exitedValidatorsCount",
              "type": "uint256"
            }
          ],
          "internalType": "struct StakingRouter.StakingModule",
          "name": "",
          "type": "tuple"
        }
      ],
      "stateMutability": "view",
      "type": "function"
    },
    {
      "inputs": [
        {
          "internalType": "uint256",
          "name": "_stakingModuleId",
          "type": "uint256"
        }
      ],
      "name": "getStakingModuleActiveValidatorsCount",
      "outputs": [
        {
          "internalType": "uint256",
          "name": "activeValidatorsCount",
          "type": "uint256"
        }
      ],
      "stateMutability": "view",
      "type": "function"
    },
    {
      "inputs": [
        {
          "internalType": "uint256[]",
          "name": "_stakingModuleIds",
          "type": "uint256[]"
        }
      ],
      "name": "getStakingModuleDigests",
      "outputs": [
        {
          "components": [
            {
              "internalType": "uint256",
              "name": "nodeOperatorsCount",
              "type": "uint256"
            },
            {
              "internalType": "uint256",
              "name": "activeNodeOperatorsCount",
              "type": "uint256"
            },
            {
              "components": [
                {
                  "internalType": "uint24",
                  "name": "id",
                  "type": "uint24"
                },
                {
                  "internalType": "address",
                  "name": "stakingModuleAddress",
                  "type": "address"
                },
                {
                  "internalType": "uint16",
                  "name": "stakingModuleFee",
                  "type": "uint16"
                },
                {
                  "internalType": "uint16",
                  "name": "treasuryFee",
                  "type": "uint16"
                },
                {
                  "internalType": "uint16",
                  "name": "targetShare",
                  "type": "uint16"
                },
                {
                  "internalType": "uint8",
                  "name": "status",
                  "type": "uint8"
                },
                {
                  "internalType": "string",
                  "name": "name",
                  "type": "string"
                },
                {
                  "internalType": "uint64",
                  "name": "lastDepositAt",
                  "type": "uint64"
                },
                {
                  "internalType": "uint256",
                  "name": "lastDepositBlock",
                  "type": "uint256"
                },
                {
                  "internalType": "uint256",
                  "name": "exitedValidatorsCount",
                  "type": "uint256"
                }
              ],
              "internalType": "struct StakingRouter.StakingModule",
              "name": "state",
              "type": "tuple"
            },
            {
              "components": [
                {
                  "internalType": "uint256",
                  "name": "totalExitedValidators",
                  "type": "uint256"
                },
                {
                  "internalType": "uint256",
                  "name": "totalDepositedValidators",
                  "type": "uint256"
                },
                {
                  "internalType": "uint256",
                  "name": "depositableValidatorsCount",
                  "type": "uint256"
                }
              ],
              "internalType": "struct StakingRouter.StakingModuleSummary",
              "name": "summary",
              "type": "tuple"
            }
          ],
          "internalType": "struct StakingRouter.StakingModuleDigest[]",
          "name": "digests",
          "type": "tuple[]"
        }
      ],
      "stateMutability": "view",
      "type": "function"
    },
    {
      "inputs": [],
      "name": "getStakingModuleIds",
      "outputs": [
        {
          "internalType": "uint256[]",
          "name": "stakingModuleIds",
          "type": "uint256[]"
        }
      ],
      "stateMutability": "view",
      "type": "function"
    },
    {
      "inputs": [
        {
          "internalType": "uint256",
          "name": "_stakingModuleId",
          "type": "uint256"
        }
      ],
      "name": "getStakingModuleIsActive",
      "outputs": [
        {
          "internalType": "bool",
          "name": "",
          "type": "bool"
        }
      ],
      "stateMutability": "view",
      "type": "function"
    },
    {
      "inputs": [
        {
          "internalType": "uint256",
          "name": "_stakingModuleId",
          "type": "uint256"
        }
      ],
      "name": "getStakingModuleIsDepositsPaused",
      "outputs": [
        {
          "internalType": "bool",
          "name": "",
          "type": "bool"
        }
      ],
      "stateMutability": "view",
      "type": "function"
    },
    {
      "inputs": [
        {
          "internalType": "uint256",
          "name": "_stakingModuleId",
          "type": "uint256"
        }
      ],
      "name": "getStakingModuleIsStopped",
      "outputs": [
        {
          "internalType": "bool",
          "name": "",
          "type": "bool"
        }
      ],
      "stateMutability": "view",
      "type": "function"
    },
    {
      "inputs": [
        {
          "internalType": "uint256",
          "name": "_stakingModuleId",
          "type": "uint256"
        }
      ],
      "name": "getStakingModuleLastDepositBlock",
      "outputs": [
        {
          "internalType": "uint256",
          "name": "",
          "type": "uint256"
        }
      ],
      "stateMutability": "view",
      "type": "function"
    },
    {
      "inputs": [
        {
          "internalType": "uint256",
          "name": "_stakingModuleId",
          "type": "uint256"
        },
        {
          "internalType": "uint256",
          "name": "_maxDepositsValue",
          "type": "uint256"
        }
      ],
      "name": "getStakingModuleMaxDepositsCount",
      "outputs": [
        {
          "internalType": "uint256",
          "name": "",
          "type": "uint256"
        }
      ],
      "stateMutability": "view",
      "type": "function"
    },
    {
      "inputs": [
        {
          "internalType": "uint256",
          "name": "_stakingModuleId",
          "type": "uint256"
        }
      ],
      "name": "getStakingModuleNonce",
      "outputs": [
        {
          "internalType": "uint256",
          "name": "",
          "type": "uint256"
        }
      ],
      "stateMutability": "view",
      "type": "function"
    },
    {
      "inputs": [
        {
          "internalType": "uint256",
          "name": "_stakingModuleId",
          "type": "uint256"
        }
      ],
      "name": "getStakingModuleStatus",
      "outputs": [
        {
          "internalType": "enum StakingRouter.StakingModuleStatus",
          "name": "",
          "type": "uint8"
        }
      ],
      "stateMutability": "view",
      "type": "function"
    },
    {
      "inputs": [
        {
          "internalType": "uint256",
          "name": "_stakingModuleId",
          "type": "uint256"
        }
      ],
      "name": "getStakingModuleSummary",
      "outputs": [
        {
          "components": [
            {
              "internalType": "uint256",
              "name": "totalExitedValidators",
              "type": "uint256"
            },
            {
              "internalType": "uint256",
              "name": "totalDepositedValidators",
              "type": "uint256"
            },
            {
              "internalType": "uint256",
              "name": "depositableValidatorsCount",
              "type": "uint256"
            }
          ],
          "internalType": "struct StakingRouter.StakingModuleSummary",
          "name": "summary",
          "type": "tuple"
        }
      ],
      "stateMutability": "view",
      "type": "function"
    },
    {
      "inputs": [],
      "name": "getStakingModules",
      "outputs": [
        {
          "components": [
            {
              "internalType": "uint24",
              "name": "id",
              "type": "uint24"
            },
            {
              "internalType": "address",
              "name": "stakingModuleAddress",
              "type": "address"
            },
            {
              "internalType": "uint16",
              "name": "stakingModuleFee",
              "type": "uint16"
            },
            {
              "internalType": "uint16",
              "name": "treasuryFee",
              "type": "uint16"
            },
            {
              "internalType": "uint16",
              "name": "targetShare",
              "type": "uint16"
            },
            {
              "internalType": "uint8",
              "name": "status",
              "type": "uint8"
            },
            {
              "internalType": "string",
              "name": "name",
              "type": "string"
            },
            {
              "internalType": "uint64",
              "name": "lastDepositAt",
              "type": "uint64"
            },
            {
              "internalType": "uint256",
              "name": "lastDepositBlock",
              "type": "uint256"
            },
            {
              "internalType": "uint256",
              "name": "exitedValidatorsCount",
              "type": "uint256"
            }
          ],
          "internalType": "struct StakingRouter.StakingModule[]",
          "name": "res",
          "type": "tuple[]"
        }
      ],
      "stateMutability": "view",
      "type": "function"
    },
    {
      "inputs": [],
      "name": "getStakingModulesCount",
      "outputs": [
        {
          "internalType": "uint256",
          "name": "",
          "type": "uint256"
        }
      ],
      "stateMutability": "view",
      "type": "function"
    },
    {
      "inputs": [],
      "name": "getStakingRewardsDistribution",
      "outputs": [
        {
          "internalType": "address[]",
          "name": "recipients",
          "type": "address[]"
        },
        {
          "internalType": "uint256[]",
          "name": "stakingModuleIds",
          "type": "uint256[]"
        },
        {
          "internalType": "uint96[]",
          "name": "stakingModuleFees",
          "type": "uint96[]"
        },
        {
          "internalType": "uint96",
          "name": "totalFee",
          "type": "uint96"
        },
        {
          "internalType": "uint256",
          "name": "precisionPoints",
          "type": "uint256"
        }
      ],
      "stateMutability": "view",
      "type": "function"
    },
    {
      "inputs": [],
      "name": "getTotalFeeE4Precision",
      "outputs": [
        {
          "internalType": "uint16",
          "name": "totalFee",
          "type": "uint16"
        }
      ],
      "stateMutability": "view",
      "type": "function"
    },
    {
      "inputs": [],
      "name": "getWithdrawalCredentials",
      "outputs": [
        {
          "internalType": "bytes32",
          "name": "",
          "type": "bytes32"
        }
      ],
      "stateMutability": "view",
      "type": "function"
    },
    {
      "inputs": [
        {
          "internalType": "bytes32",
          "name": "role",
          "type": "bytes32"
        },
        {
          "internalType": "address",
          "name": "account",
          "type": "address"
        }
      ],
      "name": "grantRole",
      "outputs": [],
      "stateMutability": "nonpayable",
      "type": "function"
    },
    {
      "inputs": [
        {
          "internalType": "bytes32",
          "name": "role",
          "type": "bytes32"
        },
        {
          "internalType": "address",
          "name": "account",
          "type": "address"
        }
      ],
      "name": "hasRole",
      "outputs": [
        {
          "internalType": "bool",
          "name": "",
          "type": "bool"
        }
      ],
      "stateMutability": "view",
      "type": "function"
    },
    {
      "inputs": [
        {
          "internalType": "uint256",
          "name": "_stakingModuleId",
          "type": "uint256"
        }
      ],
      "name": "hasStakingModule",
      "outputs": [
        {
          "internalType": "bool",
          "name": "",
          "type": "bool"
        }
      ],
      "stateMutability": "view",
      "type": "function"
    },
    {
      "inputs": [
        {
          "internalType": "address",
          "name": "_admin",
          "type": "address"
        },
        {
          "internalType": "address",
          "name": "_catalist",
          "type": "address"
        },
        {
          "internalType": "bytes32",
          "name": "_withdrawalCredentials",
          "type": "bytes32"
        }
      ],
      "name": "initialize",
      "outputs": [],
      "stateMutability": "nonpayable",
      "type": "function"
    },
    {
      "inputs": [],
      "name": "onValidatorsCountsByNodeOperatorReportingFinished",
      "outputs": [],
      "stateMutability": "nonpayable",
      "type": "function"
    },
    {
      "inputs": [
        {
          "internalType": "uint256",
          "name": "_stakingModuleId",
          "type": "uint256"
        }
      ],
      "name": "pauseStakingModule",
      "outputs": [],
      "stateMutability": "nonpayable",
      "type": "function"
    },
    {
      "inputs": [
        {
          "internalType": "bytes32",
          "name": "role",
          "type": "bytes32"
        },
        {
          "internalType": "address",
          "name": "account",
          "type": "address"
        }
      ],
      "name": "renounceRole",
      "outputs": [],
      "stateMutability": "nonpayable",
      "type": "function"
    },
    {
      "inputs": [
        {
          "internalType": "uint256[]",
          "name": "_stakingModuleIds",
          "type": "uint256[]"
        },
        {
          "internalType": "uint256[]",
          "name": "_totalShares",
          "type": "uint256[]"
        }
      ],
      "name": "reportRewardsMinted",
      "outputs": [],
      "stateMutability": "nonpayable",
      "type": "function"
    },
    {
      "inputs": [
        {
          "internalType": "uint256",
          "name": "_stakingModuleId",
          "type": "uint256"
        },
        {
          "internalType": "bytes",
          "name": "_nodeOperatorIds",
          "type": "bytes"
        },
        {
          "internalType": "bytes",
          "name": "_exitedValidatorsCounts",
          "type": "bytes"
        }
      ],
      "name": "reportStakingModuleExitedValidatorsCountByNodeOperator",
      "outputs": [],
      "stateMutability": "nonpayable",
      "type": "function"
    },
    {
      "inputs": [
        {
          "internalType": "uint256",
          "name": "_stakingModuleId",
          "type": "uint256"
        },
        {
          "internalType": "bytes",
          "name": "_nodeOperatorIds",
          "type": "bytes"
        },
        {
          "internalType": "bytes",
          "name": "_stuckValidatorsCounts",
          "type": "bytes"
        }
      ],
      "name": "reportStakingModuleStuckValidatorsCountByNodeOperator",
      "outputs": [],
      "stateMutability": "nonpayable",
      "type": "function"
    },
    {
      "inputs": [
        {
          "internalType": "uint256",
          "name": "_stakingModuleId",
          "type": "uint256"
        }
      ],
      "name": "resumeStakingModule",
      "outputs": [],
      "stateMutability": "nonpayable",
      "type": "function"
    },
    {
      "inputs": [
        {
          "internalType": "bytes32",
          "name": "role",
          "type": "bytes32"
        },
        {
          "internalType": "address",
          "name": "account",
          "type": "address"
        }
      ],
      "name": "revokeRole",
      "outputs": [],
      "stateMutability": "nonpayable",
      "type": "function"
    },
    {
      "inputs": [
        {
          "internalType": "uint256",
          "name": "_stakingModuleId",
          "type": "uint256"
        },
        {
          "internalType": "enum StakingRouter.StakingModuleStatus",
          "name": "_status",
          "type": "uint8"
        }
      ],
      "name": "setStakingModuleStatus",
      "outputs": [],
      "stateMutability": "nonpayable",
      "type": "function"
    },
    {
      "inputs": [
        {
          "internalType": "bytes32",
          "name": "_withdrawalCredentials",
          "type": "bytes32"
        }
      ],
      "name": "setWithdrawalCredentials",
      "outputs": [],
      "stateMutability": "nonpayable",
      "type": "function"
    },
    {
      "inputs": [
        {
          "internalType": "bytes4",
          "name": "interfaceId",
          "type": "bytes4"
        }
      ],
      "name": "supportsInterface",
      "outputs": [
        {
          "internalType": "bool",
          "name": "",
          "type": "bool"
        }
      ],
      "stateMutability": "view",
      "type": "function"
    },
    {
      "inputs": [
        {
          "internalType": "uint256",
          "name": "_stakingModuleId",
          "type": "uint256"
        },
        {
          "internalType": "uint256",
          "name": "_nodeOperatorId",
          "type": "uint256"
        },
        {
          "internalType": "bool",
          "name": "_triggerUpdateFinish",
          "type": "bool"
        },
        {
          "components": [
            {
              "internalType": "uint256",
              "name": "currentModuleExitedValidatorsCount",
              "type": "uint256"
            },
            {
              "internalType": "uint256",
              "name": "currentNodeOperatorExitedValidatorsCount",
              "type": "uint256"
            },
            {
              "internalType": "uint256",
              "name": "currentNodeOperatorStuckValidatorsCount",
              "type": "uint256"
            },
            {
              "internalType": "uint256",
              "name": "newModuleExitedValidatorsCount",
              "type": "uint256"
            },
            {
              "internalType": "uint256",
              "name": "newNodeOperatorExitedValidatorsCount",
              "type": "uint256"
            },
            {
              "internalType": "uint256",
              "name": "newNodeOperatorStuckValidatorsCount",
              "type": "uint256"
            }
          ],
          "internalType": "struct StakingRouter.ValidatorsCountsCorrection",
          "name": "_correction",
          "type": "tuple"
        }
      ],
      "name": "unsafeSetExitedValidatorsCount",
      "outputs": [],
      "stateMutability": "nonpayable",
      "type": "function"
    },
    {
      "inputs": [
        {
          "internalType": "uint256[]",
          "name": "_stakingModuleIds",
          "type": "uint256[]"
        },
        {
          "internalType": "uint256[]",
          "name": "_exitedValidatorsCounts",
          "type": "uint256[]"
        }
      ],
      "name": "updateExitedValidatorsCountByStakingModule",
      "outputs": [
        {
          "internalType": "uint256",
          "name": "",
          "type": "uint256"
        }
      ],
      "stateMutability": "nonpayable",
      "type": "function"
    },
    {
      "inputs": [
        {
          "internalType": "uint256",
          "name": "_stakingModuleId",
          "type": "uint256"
        },
        {
          "internalType": "uint256",
          "name": "_nodeOperatorId",
          "type": "uint256"
        },
        {
          "internalType": "uint256",
          "name": "_refundedValidatorsCount",
          "type": "uint256"
        }
      ],
      "name": "updateRefundedValidatorsCount",
      "outputs": [],
      "stateMutability": "nonpayable",
      "type": "function"
    },
    {
      "inputs": [
        {
          "internalType": "uint256",
          "name": "_stakingModuleId",
          "type": "uint256"
        },
        {
          "internalType": "uint256",
          "name": "_targetShare",
          "type": "uint256"
        },
        {
          "internalType": "uint256",
          "name": "_stakingModuleFee",
          "type": "uint256"
        },
        {
          "internalType": "uint256",
          "name": "_treasuryFee",
          "type": "uint256"
        }
      ],
      "name": "updateStakingModule",
      "outputs": [],
      "stateMutability": "nonpayable",
      "type": "function"
    },
    {
      "inputs": [
        {
          "internalType": "uint256",
          "name": "_stakingModuleId",
          "type": "uint256"
        },
        {
          "internalType": "uint256",
          "name": "_nodeOperatorId",
          "type": "uint256"
        },
        {
          "internalType": "bool",
          "name": "_isTargetLimitActive",
          "type": "bool"
        },
        {
          "internalType": "uint256",
          "name": "_targetLimit",
          "type": "uint256"
        }
      ],
      "name": "updateTargetValidatorsLimits",
      "outputs": [],
      "stateMutability": "nonpayable",
      "type": "function"
    },
    {
      "stateMutability": "payable",
      "type": "receive"
    }
  ],
  "bytecode": "0x60a06040523480156200001157600080fd5b506040516200609c3803806200609c8339810160408190526200003491620000ae565b806001600160a01b0381166200005d57604051637c5f8bcf60e11b815260040160405180910390fd5b6001600160a01b0316608052620000a37ff812f8d799ea071b4ecf0f6612f1129571268aad3c9d7f3535c25db1f8875772600019620000aa602090811b6200374e17901c565b50620000e0565b9055565b600060208284031215620000c157600080fd5b81516001600160a01b0381168114620000d957600080fd5b9392505050565b608051615f9962000103600039600081816107270152613d260152615f996000f3fe6080604052600436106103d25760003560e01c80639010d07c116101fd578063c82b1bb111610118578063e016e6f7116100ab578063efcdcc0e1161007a578063efcdcc0e14610c4a578063f07ff28a14610c7a578063f2aebb6514610c9a578063f8bb6d4214610cbc578063fa5093eb14610cdc57600080fd5b8063e016e6f714610bc8578063e1b92a5c14610bea578063e24ce9f114610c0a578063e97ee8cc14610c2a57600080fd5b8063d0a2b1b8116100e7578063d0a2b1b814610b53578063d547741f14610b73578063d861c58414610b93578063db3c7ba714610bb357600080fd5b8063c82b1bb114610ac5578063c8ac498014610af3578063ca15c87314610b13578063cb589b9a14610b3357600080fd5b8063a7357c8c11610190578063af1240971161015f578063af12409714610a30578063ba21ccae14610a50578063bc1bb19014610a76578063c445ea7514610aa357600080fd5b8063a7357c8c1461099d578063aa0b7db7146109d0578063aa5a1b9d146109e3578063abd44a2414610a1057600080fd5b80639fbb7bae116101cc5780639fbb7bae146108e55780639fc5a6ed1461090d578063a217fddf1461093a578063a734329c1461094f57600080fd5b80639010d07c1461087057806391d148541461089057806396b5d81c146108b05780639b75b4ef146108d057600080fd5b806356396715116102ed5780637443f5231161028057806387b536c11161024f57806387b536c1146107f25780638801da79146108075780638aa104351461083b5780638dc70c571461085057600080fd5b80637443f523146107615780637a74884d146107815780637c8da51c146107b55780638525e3a1146107d257600080fd5b80636183214d116102bc5780636183214d146106b35780636608b11b146106d55780636ada55b9146106f55780636b96736b1461071557600080fd5b8063563967151461063c57806357993b85146106515780635bf55e40146106735780636133f9851461069357600080fd5b8063271662ec116103655780633e54ee5b116103345780633e54ee5b146105d2578063473e0433146105f25780634a7583b6146106125780634b3a1cb71461062757600080fd5b8063271662ec1461054f5780632f2ff15d146105655780633240a3221461058557806336568abe146105b257600080fd5b80631565d2f2116103a15780631565d2f2146104a757806319c64b79146104db5780631d1b9d3c146104fb578063248a9ca31461052f57600080fd5b806301ffc9a7146103f55780630519fbbf1461042a578063072859c71461045857806307e203ac1461047a57600080fd5b366103f057604051631bd2cff160e01b815260040160405180910390fd5b600080fd5b34801561040157600080fd5b50610415610410366004614e53565b610d17565b60405190151581526020015b60405180910390f35b34801561043657600080fd5b5061044a610445366004614e7d565b610d42565b604051908152602001610421565b34801561046457600080fd5b50610478610473366004614f12565b610dbd565b005b34801561048657600080fd5b5061049a610495366004614e7d565b610fcc565b6040516104219190614fa7565b3480156104b357600080fd5b5061044a7f55180e25fcacf9af017d35d497765476319b23896daa1f9bc2b38fa80b36a16381565b3480156104e757600080fd5b5061044a6104f6366004614fc8565b61108b565b34801561050757600080fd5b5061044a7f779e5c23cb7a5bcb9bfe1e9a5165a00057f12bcdfd13e374540fdf1a1cd9113781565b34801561053b57600080fd5b5061044a61054a366004614e7d565b611108565b34801561055b57600080fd5b5061044a61271081565b34801561057157600080fd5b50610478610580366004615006565b61112a565b34801561059157600080fd5b506105a56105a0366004614e7d565b61114c565b6040516104219190615082565b3480156105be57600080fd5b506104786105cd366004615006565b6111e4565b3480156105de57600080fd5b506104786105ed366004615130565b611262565b3480156105fe57600080fd5b5061044a61060d366004614e7d565b611685565b34801561061e57600080fd5b5061044a61169c565b34801561063357600080fd5b5061044a602081565b34801561064857600080fd5b5061044a6116cb565b34801561065d57600080fd5b506106666116f5565b60405161042191906152ca565b34801561067f57600080fd5b5061047861068e366004614e7d565b611702565b34801561069f57600080fd5b506104786106ae36600461536f565b611792565b3480156106bf57600080fd5b506106c86118ba565b60405161042191906153ab565b3480156106e157600080fd5b506104156106f0366004614e7d565b611a89565b34801561070157600080fd5b50610415610710366004614e7d565b611aae565b34801561072157600080fd5b506107497f000000000000000000000000000000000000000000000000000000000000000081565b6040516001600160a01b039091168152602001610421565b34801561076d57600080fd5b5061047861077c36600461540d565b611ab7565b34801561078d57600080fd5b5061044a7fe7c742a54cd11fc9749a47ab34bdcd7327820908e8d0d48b4a5c7f17b029409881565b3480156107c157600080fd5b5061044a68056bc75e2d6310000081565b3480156107de57600080fd5b506106666107ed3660046154cf565b611b57565b3480156107fe57600080fd5b50610749611d41565b34801561081357600080fd5b5061044a7f9a2f67efb89489040f2c48c3b2c38f719fba1276678d2ced3bd9049fb5edc6b281565b34801561084757600080fd5b5061044a611d6b565b34801561085c57600080fd5b5061047861086b366004615503565b611d95565b34801561087c57600080fd5b5061074961088b366004614fc8565b611f26565b34801561089c57600080fd5b506104156108ab366004615006565b611f52565b3480156108bc57600080fd5b5061044a6108cb366004614e7d565b611f8a565b3480156108dc57600080fd5b5061044a601f81565b3480156108f157600080fd5b506108fa612049565b60405161ffff9091168152602001610421565b34801561091957600080fd5b5061092d610928366004614e7d565b612077565b604051610421919061556d565b34801561094657600080fd5b5061044a600081565b34801561095b57600080fd5b5061041561096a366004614e7d565b60009081527f32e1e216c75ca66c0eeed6bb139a19e61c65210aff9014b152f6c1e0edec46576020526040902054151590565b3480156109a957600080fd5b5061044a7eb1e70095ba5bacc3202c3db9faf1f7873186f0ed7b6c84e80c0018dcc6e38e81565b6104786109de36600461557b565b61209e565b3480156109ef57600080fd5b50610a036109fe366004614fc8565b612304565b60405161042191906155cd565b348015610a1c57600080fd5b5061044a610a2b366004615620565b612423565b348015610a3c57600080fd5b50610478610a4b366004615620565b61267d565b348015610a5c57600080fd5b50610a65612853565b6040516104219594939291906156ba565b348015610a8257600080fd5b50610a96610a91366004614e7d565b612bce565b6040516104219190615779565b348015610aaf57600080fd5b5061044a600080516020615f2483398151915281565b348015610ad157600080fd5b50610ae5610ae0366004614e7d565b612d12565b60405161042192919061578c565b348015610aff57600080fd5b50610478610b0e3660046157a5565b612d2a565b348015610b1f57600080fd5b5061044a610b2e366004614e7d565b612dcd565b348015610b3f57600080fd5b50610478610b4e3660046157a5565b612df1565b348015610b5f57600080fd5b50610478610b6e36600461581e565b612e65565b348015610b7f57600080fd5b50610478610b8e366004615006565b612efa565b348015610b9f57600080fd5b50610478610bae366004614e7d565b612f17565b348015610bbf57600080fd5b50610478612fa8565b348015610bd457600080fd5b5061044a600080516020615f4483398151915281565b348015610bf657600080fd5b50610478610c05366004615852565b613175565b348015610c1657600080fd5b50610415610c25366004614e7d565b613201565b348015610c3657600080fd5b50610478610c45366004614e7d565b61320a565b348015610c5657600080fd5b50610c5f6133c9565b6040805161ffff938416815292909116602083015201610421565b348015610c8657600080fd5b506105a5610c9536600461587e565b613410565b348015610ca657600080fd5b50610caf6135a4565b60405161042191906158c4565b348015610cc857600080fd5b506105a5610cd7366004615852565b61363a565b348015610ce857600080fd5b50610cf16136dc565b604080516001600160601b03948516815293909216602084015290820152606001610421565b60006001600160e01b03198216635a05180f60e01b1480610d3c5750610d3c82613752565b92915050565b6000610d4d82613787565b6001600160a01b031663d087d2886040518163ffffffff1660e01b815260040160206040518083038186803b158015610d8557600080fd5b505afa158015610d99573d6000803e3d6000fd5b505050506040513d601f19601f82011682018060405250810190610d3c91906158d7565b7f55180e25fcacf9af017d35d497765476319b23896daa1f9bc2b38fa80b36a163610de881336137a9565b6000610df38661380d565b8054604051632cc1db0f60e21b815260048101889052919250630100000090046001600160a01b0316906000908190839063b3076c3c906024016101006040518083038186803b158015610e4657600080fd5b505afa158015610e5a573d6000803e3d6000fd5b505050506040513d601f19601f82011682018060405250810190610e7e91906158f0565b5050955050509350505083600401548660000151141580610ea3575080866020015114155b80610eb2575081866040015114155b15610ee95760048481015460405163e882688560e01b81529182015260248101829052604481018390526064015b60405180910390fd5b6060860151600480860191909155608087015160a088015160405163f2e2ca6360e01b81529283018b9052602483019190915260448201526001600160a01b0384169063f2e2ca6390606401600060405180830381600087803b158015610f4f57600080fd5b505af1158015610f63573d6000803e3d6000fd5b505050508615610fc157826001600160a01b031663e864299e6040518163ffffffff1660e01b8152600401600060405180830381600087803b158015610fa857600080fd5b505af1158015610fbc573d6000803e3d6000fd5b505050505b505050505050505050565b610ff060405180606001604052806000815260200160008152602001600081525090565b6000610ffb83612bce565b9050600081602001519050806001600160a01b0316639abddf096040518163ffffffff1660e01b815260040160606040518083038186803b15801561103f57600080fd5b505afa158015611053573d6000803e3d6000fd5b505050506040513d601f19601f82011682018060405250810190611077919061595a565b604086015260208501528352509092915050565b600080806110aa6110a56801bc16d674ec800000866159b4565b613820565b925092505060006110ba866139e5565b90508181815181106110ce576110ce6159c8565b602002602001015160c001518382815181106110ec576110ec6159c8565b60200260200101516110fe91906159de565b9695505050505050565b6000908152600080516020615f04833981519152602052604090206001015490565b61113382611108565b61113d81336137a9565b6111478383613a3e565b505050565b6060600061115983613787565b90506000816001600160a01b031663a70c70e46040518163ffffffff1660e01b815260040160206040518083038186803b15801561119657600080fd5b505afa1580156111aa573d6000803e3d6000fd5b505050506040513d601f19601f820116820180604052508101906111ce91906158d7565b90506111dc8460008361363a565b949350505050565b6001600160a01b03811633146112545760405162461bcd60e51b815260206004820152602f60248201527f416363657373436f6e74726f6c3a2063616e206f6e6c792072656e6f756e636560448201526e103937b632b9903337b91039b2b63360891b6064820152608401610ee0565b61125e8282613a6d565b5050565b600080516020615f4483398151915261127b81336137a9565b6127108411156112bd57604051630cb4392560e31b815260206004820152600c60248201526b5f746172676574536861726560a01b6044820152606401610ee0565b6127106112ca83856159f5565b111561131957604051630cb4392560e31b815260206004820181905260248201527f5f7374616b696e674d6f64756c65466565202b205f74726561737572794665656044820152606401610ee0565b6001600160a01b0385166113685760405163eac0d38960e01b81526020600482015260156024820152745f7374616b696e674d6f64756c654164647265737360581b6044820152606401610ee0565b8515806113755750601f86115b156113935760405163ac18716960e01b815260040160405180910390fd5b600061139d61169c565b9050602081106113c05760405163309eed9960e01b815260040160405180910390fd5b60005b81811015611410576113d481613a9c565b546001600160a01b0388811663010000009092041614156114085760405163050f969d60e41b815260040160405180910390fd5b6001016113c3565b50600061141c82613a9c565b905060006114487fdb4333544a1dcfcaf70018eb2d5cfd2fdacb424c30fb62b923a8a4642fbdbfe75490565b611453906001615a0d565b825462ffffff191662ffffff82161783559050611474600183018b8b614c6d565b508154630100000065ffff0000000160b81b03191663010000006001600160a01b038a160261ffff60d81b191617600160d81b61ffff898116919091029190911763ffffffff60b81b1916600160b81b8883160261ffff60c81b191617600160c81b918716919091021760ff60e81b1916825560028201805467ffffffffffffffff1916426001600160401b03161790554360038301556040805160008152905162ffffff8316917f2d5b15d9f5eccb7699ec11d60dd84c89bd99f0a07e5e4e7bb0533c012ecb8171919081900360200190a26115568162ffffff1684613acc565b62ffffff81167fdb4333544a1dcfcaf70018eb2d5cfd2fdacb424c30fb62b923a8a4642fbdbfe7556115b061158c8460016159f5565b7ff6cb5cc345b3148db413897b2785e6292a2a047b5e91e413d44bbf6881e92ea755565b8062ffffff167f43b5213f0e1666cd0b8692a73686164c94deb955a59c65e10dee8bb958e7ce3e898c8c336040516115eb9493929190615a5d565b60405180910390a26040805188815233602082015262ffffff8316917f065e5bd8e4145dd99cf69bad5871ad52d094aee07a67fcf2f418c89e49d5f20c910160405180910390a260408051878152602081018790523381830152905162ffffff8316917f303c8ac43d1b1f9b898ddd2915a294efa01e9b07c322d7deeb7db332b66f0410919081900360600190a250505050505050505050565b6000806116918361380d565b600301549392505050565b60006116c67ff6cb5cc345b3148db413897b2785e6292a2a047b5e91e413d44bbf6881e92ea75490565b905090565b60006116c67fa7fabd6725674bda3e0b982143666ed221f737e1bdfc6e64e604f6a8ebc5f9235490565b60606116c66107ed6135a4565b7eb1e70095ba5bacc3202c3db9faf1f7873186f0ed7b6c84e80c0018dcc6e38e61172c81336137a9565b60006117378361380d565b905060008154600160e81b900460ff16600281111561175857611758615535565b600281111561176957611769615535565b146117875760405163322e64fb60e11b815260040160405180910390fd5b611147816001613b0f565b6001600160a01b0383166117d25760405163eac0d38960e01b81526020600482015260066024820152652fb0b236b4b760d11b6044820152606401610ee0565b6001600160a01b0382166118155760405163eac0d38960e01b815260206004820152600960248201526817d8d85d185b1a5cdd60ba1b6044820152606401610ee0565b61181f6001613bd2565b61182a600084613c04565b6118537fe6b4093ddf179e6fb98b59a99d88448b5e8f543c0699c54c7310101ef4cba032839055565b61187c7fa7fabd6725674bda3e0b982143666ed221f737e1bdfc6e64e604f6a8ebc5f923829055565b604080518281523360208201527f82e72df77173eab89b00556d791a407a78f4605c5c2f0694967c8c429dd43c7c91015b60405180910390a1505050565b606060006118c661169c565b9050806001600160401b038111156118e0576118e0614ea4565b60405190808252806020026020018201604052801561191957816020015b611906614cf1565b8152602001906001900390816118fe5790505b50915060005b81811015611a845761193081613a9c565b6040805161014081018252825462ffffff81168252630100000081046001600160a01b03166020830152600160b81b810461ffff90811693830193909352600160c81b810483166060830152600160d81b81049092166080820152600160e81b90910460ff1660a082015260018201805491929160c0840191906119b390615a94565b80601f01602080910402602001604051908101604052809291908181526020018280546119df90615a94565b8015611a2c5780601f10611a0157610100808354040283529160200191611a2c565b820191906000526020600020905b815481529060010190602001808311611a0f57829003601f168201915b505050918352505060028201546001600160401b03166020820152600382015460408201526004909101546060909101528351849083908110611a7157611a716159c8565b602090810291909101015260010161191f565b505090565b6000805b611a9683612077565b6002811115611aa757611aa7615535565b1492915050565b60006002611a8d565b600080516020615f44833981519152611ad081336137a9565b6000611adb8661380d565b546040516354f3d42360e11b81526004810187905285151560248201526044810185905263010000009091046001600160a01b03169150819063a9e7a84690606401600060405180830381600087803b158015611b3757600080fd5b505af1158015611b4b573d6000803e3d6000fd5b50505050505050505050565b606081516001600160401b03811115611b7257611b72614ea4565b604051908082528060200260200182016040528015611bab57816020015b611b98614d44565b815260200190600190039081611b905790505b50905060005b8251811015611d3b576000611bde848381518110611bd157611bd16159c8565b6020026020010151612bce565b90506000816020015190506040518060800160405280826001600160a01b031663a70c70e46040518163ffffffff1660e01b815260040160206040518083038186803b158015611c2d57600080fd5b505afa158015611c41573d6000803e3d6000fd5b505050506040513d601f19601f82011682018060405250810190611c6591906158d7565b8152602001826001600160a01b0316638469cbd36040518163ffffffff1660e01b815260040160206040518083038186803b158015611ca357600080fd5b505afa158015611cb7573d6000803e3d6000fd5b505050506040513d601f19601f82011682018060405250810190611cdb91906158d7565b8152602001838152602001611d08878681518110611cfb57611cfb6159c8565b6020026020010151610fcc565b815250848481518110611d1d57611d1d6159c8565b6020026020010181905250505080611d3490615ac9565b9050611bb1565b50919050565b60006116c67fe6b4093ddf179e6fb98b59a99d88448b5e8f543c0699c54c7310101ef4cba0325490565b60006116c67ff812f8d799ea071b4ecf0f6612f1129571268aad3c9d7f3535c25db1f88757725490565b600080516020615f44833981519152611dae81336137a9565b612710841115611df057604051630cb4392560e31b815260206004820152600c60248201526b5f746172676574536861726560a01b6044820152606401610ee0565b612710611dfd83856159f5565b1115611e4c57604051630cb4392560e31b815260206004820181905260248201527f5f7374616b696e674d6f64756c65466565202b205f74726561737572794665656044820152606401610ee0565b6000611e578661380d565b805463ffffffff60c81b1916600160d81b61ffff8881169190910261ffff60c81b191691909117600160c81b868316021761ffff60b81b1916600160b81b918716919091021781556040805187815233602082015291925087917f065e5bd8e4145dd99cf69bad5871ad52d094aee07a67fcf2f418c89e49d5f20c910160405180910390a260408051858152602081018590523381830152905187917f303c8ac43d1b1f9b898ddd2915a294efa01e9b07c322d7deeb7db332b66f0410919081900360600190a2505050505050565b6000828152600080516020615ee483398151915260205260408120611f4b9083613c0e565b9392505050565b6000918252600080516020615f04833981519152602090815260408084206001600160a01b0393909316845291905290205460ff1690565b600080611f968361380d565b90506000808260000160039054906101000a90046001600160a01b03166001600160a01b0316639abddf096040518163ffffffff1660e01b815260040160606040518083038186803b158015611feb57600080fd5b505afa158015611fff573d6000803e3d6000fd5b505050506040513d601f19601f82011682018060405250810190612023919061595a565b5091509150612036836004015483613c1a565b61204090826159de565b95945050505050565b6000806000612056612853565b94509450505050612070826001600160601b031682613c30565b9250505090565b60006120828261380d565b54600160e81b900460ff166002811115610d3c57610d3c615535565b7fe6b4093ddf179e6fb98b59a99d88448b5e8f543c0699c54c7310101ef4cba032546001600160a01b0316336001600160a01b0316146120f1576040516319aa6cc160e11b815260040160405180910390fd5b60006120fb6116cb565b90508061211b5760405163180a97cd60e21b815260040160405180910390fd5b60006121268561380d565b905060008154600160e81b900460ff16600281111561214757612147615535565b600281111561215857612158615535565b146121765760405163322e64fb60e11b815260040160405180910390fd5b60028101805467ffffffffffffffff1916426001600160401b0316179055436003820155604051348082529086907f2d5b15d9f5eccb7699ec11d60dd84c89bd99f0a07e5e4e7bb0533c012ecb81719060200160405180910390a26121e46801bc16d674ec80000088615ae4565b811461220d5760405163023db95b60e21b81526004810182905260248101889052604401610ee0565b86156122fb5781546040516317dc836b60e31b8152600091829163010000009091046001600160a01b03169063bee41b5890612251908c908b908b90600401615b03565b600060405180830381600087803b15801561226b57600080fd5b505af115801561227f573d6000803e3d6000fd5b505050506040513d6000823e601f3d908101601f191682016040526122a79190810190615b80565b9150915060004790506122dd8a876040516020016122c791815260200190565b6040516020818303038152906040528585613c49565b47846122e982846159de565b146122f6576122f6615bd9565b505050505b50505050505050565b61230c614d93565b600061231784612bce565b9050600081602001519050600080600080600080600080886001600160a01b031663b3076c3c8d6040518263ffffffff1660e01b815260040161235c91815260200190565b6101006040518083038186803b15801561237557600080fd5b505afa158015612389573d6000803e3d6000fd5b505050506040513d601f19601f820116820180604052508101906123ad91906158f0565b97509750975097509750975097509750878b6000019015159081151581525050868b6020018181525050858b6040018181525050848b6060018181525050838b6080018181525050828b60a0018181525050818b60c0018181525050808b60e00181815250505050505050505050505092915050565b6000600080516020615f2483398151915261243e81336137a9565b8483146124685760405163098b37e560e31b81526004810186905260248101849052604401610ee0565b6000805b86811015612672576000888883818110612488576124886159c8565b905060200201359050600061249c8261380d565b6004810154909150808989868181106124b7576124b76159c8565b9050602002013510156124dd57604051632f789f4960e21b815260040160405180910390fd5b6000808360000160039054906101000a90046001600160a01b03166001600160a01b0316639abddf096040518163ffffffff1660e01b815260040160606040518083038186803b15801561253057600080fd5b505afa158015612544573d6000803e3d6000fd5b505050506040513d601f19601f82011682018060405250810190612568919061595a565b5091509150808b8b88818110612580576125806159c8565b9050602002013511156125cb578a8a8781811061259f5761259f6159c8565b9050602002013581604051630b72c59d60e21b8152600401610ee0929190918252602082015260400190565b828b8b888181106125de576125de6159c8565b905060200201356125ef91906159de565b6125f990886159f5565b96508282101561264157847fdd2523ca96a639ba7e17420698937f71eddd8af012ccb36ff5c8fe96141acae961262f84866159de565b60405190815260200160405180910390a25b8a8a87818110612653576126536159c8565b905060200201358460040181905550856001019550505050505061246c565b509695505050505050565b7f779e5c23cb7a5bcb9bfe1e9a5165a00057f12bcdfd13e374540fdf1a1cd911376126a881336137a9565b8382146126d25760405163098b37e560e31b81526004810185905260248101839052604401610ee0565b60005b8481101561284b5760008484838181106126f1576126f16159c8565b905060200201351115612843576000612721878784818110612715576127156159c8565b9050602002013561380d565b54630100000090046001600160a01b0316905080638d7e401786868581811061274c5761274c6159c8565b905060200201356040518263ffffffff1660e01b815260040161277191815260200190565b600060405180830381600087803b15801561278b57600080fd5b505af192505050801561279c575060015b612841573d8080156127ca576040519150601f19603f3d011682016040523d82523d6000602084013e6127cf565b606091505b5080516127ef57604051638fd297d960e01b815260040160405180910390fd5b878784818110612801576128016159c8565b905060200201357ff74208fedac7280fd11f8de0be14e00423dc5076da8e8ec8ca90e09257fff1b3826040516128379190615bef565b60405180910390a2505b505b6001016126d5565b505050505050565b6060806060600080600080612866613dc7565b80519193509150801580612878575082155b156128ba5750506040805160008082526020820181815282840182815260608401909452919850909650909450925068056bc75e2d631000009150612bc79050565b68056bc75e2d631000009350806001600160401b038111156128de576128de614ea4565b604051908082528060200260200182016040528015612907578160200160208202803683370190505b509650806001600160401b0381111561292257612922614ea4565b60405190808252806020026020018201604052801561294b578160200160208202803683370190505b509750806001600160401b0381111561296657612966614ea4565b60405190808252806020026020018201604052801561298f578160200160208202803683370190505b5095506000808060005b84811015612b945760008682815181106129b5576129b56159c8565b602002602001015160c001511115612b8c578581815181106129d9576129d96159c8565b60200260200101516020015162ffffff168b85815181106129fc576129fc6159c8565b6020026020010181815250508688878381518110612a1c57612a1c6159c8565b602002602001015160c00151612a329190615ae4565b612a3c91906159b4565b9250858181518110612a5057612a506159c8565b6020026020010151600001518c8581518110612a6e57612a6e6159c8565b60200260200101906001600160a01b031690816001600160a01b031681525050612710868281518110612aa357612aa36159c8565b60200260200101516040015161ffff1684612abe9190615ae4565b612ac891906159b4565b91506002868281518110612ade57612ade6159c8565b602002602001015160a001516002811115612afb57612afb615535565b14612b3457818a8581518110612b1357612b136159c8565b60200260200101906001600160601b031690816001600160601b0316815250505b81612710878381518110612b4a57612b4a6159c8565b60200260200101516060015161ffff1685612b659190615ae4565b612b6f91906159b4565b612b799190615c02565b612b83908a615c02565b98506001909301925b600101612999565b5086886001600160601b03161115612bae57612bae615bd9565b83831015612bc057828a52828b528289525b5050505050505b9091929394565b612bd6614cf1565b612bdf8261380d565b6040805161014081018252825462ffffff81168252630100000081046001600160a01b03166020830152600160b81b810461ffff90811693830193909352600160c81b810483166060830152600160d81b81049092166080820152600160e81b90910460ff1660a082015260018201805491929160c084019190612c6290615a94565b80601f0160208091040260200160405190810160405280929190818152602001828054612c8e90615a94565b8015612cdb5780601f10612cb057610100808354040283529160200191612cdb565b820191906000526020600020905b815481529060010190602001808311612cbe57829003601f168201915b505050918352505060028201546001600160401b031660208201526003820154604082015260049091015460609091015292915050565b60006060612d1f83613820565b509094909350915050565b600080516020615f24833981519152612d4381336137a9565b6000612d4e8761380d565b54630100000090046001600160a01b03169050612d6d86868686613e95565b604051634d8060a360e11b81526001600160a01b03821690639b00c14690612d9f908990899089908990600401615c24565b600060405180830381600087803b158015612db957600080fd5b505af11580156122f6573d6000803e3d6000fd5b6000818152600080516020615ee483398151915260205260408120610d3c90613f3b565b600080516020615f24833981519152612e0a81336137a9565b6000612e158761380d565b54630100000090046001600160a01b03169050612e3486868686613e95565b604051629b3d1960e81b81526001600160a01b03821690639b3d190090612d9f908990899089908990600401615c24565b600080516020615f44833981519152612e7e81336137a9565b6000612e898461380d565b9050826002811115612e9d57612e9d615535565b8154600160e81b900460ff166002811115612eba57612eba615535565b6002811115612ecb57612ecb615535565b1415612eea57604051635ca16fa760e11b815260040160405180910390fd5b612ef48184613b0f565b50505050565b612f0382611108565b612f0d81336137a9565b6111478383613a6d565b7f9a2f67efb89489040f2c48c3b2c38f719fba1276678d2ced3bd9049fb5edc6b2612f4281336137a9565b6000612f4d8361380d565b905060018154600160e81b900460ff166002811115612f6e57612f6e615535565b6002811115612f7f57612f7f615535565b14612f9d576040516316c1da1560e21b815260040160405180910390fd5b611147816000613b0f565b600080516020615f24833981519152612fc181336137a9565b6000612fcb61169c565b905060005b81811015611147576000612fe382613a9c565b905060008160000160039054906101000a90046001600160a01b031690506000816001600160a01b0316639abddf096040518163ffffffff1660e01b815260040160606040518083038186803b15801561303c57600080fd5b505afa158015613050573d6000803e3d6000fd5b505050506040513d601f19601f82011682018060405250810190613074919061595a565b50509050826004015481141561316757816001600160a01b031663e864299e6040518163ffffffff1660e01b8152600401600060405180830381600087803b1580156130bf57600080fd5b505af19250505080156130d0575060015b613167573d8080156130fe576040519150601f19603f3d011682016040523d82523d6000602084013e613103565b606091505b50805161312357604051638fd297d960e01b815260040160405180910390fd5b835460405162ffffff909116907fe74bf895f0c3a2d6c74c40cbb362fdd9640035fc4226c72e3843809ad2a9d2b59061315d908490615bef565b60405180910390a2505b836001019350505050612fd0565b600080516020615f4483398151915261318e81336137a9565b60006131998561380d565b5460405163a2e080f160e01b8152600481018690526024810185905263010000009091046001600160a01b03169150819063a2e080f190604401600060405180830381600087803b1580156131ed57600080fd5b505af1158015610fc1573d6000803e3d6000fd5b60006001611a8d565b7fe7c742a54cd11fc9749a47ab34bdcd7327820908e8d0d48b4a5c7f17b029409861323581336137a9565b61325e7fa7fabd6725674bda3e0b982143666ed221f737e1bdfc6e64e604f6a8ebc5f923839055565b600061326861169c565b905060005b8181101561339357600061328082613a9c565b90508160010191508060000160039054906101000a90046001600160a01b03166001600160a01b03166390c09bdb6040518163ffffffff1660e01b8152600401600060405180830381600087803b1580156132da57600080fd5b505af19250505080156132eb575060015b61338d573d808015613319576040519150601f19603f3d011682016040523d82523d6000602084013e61331e565b606091505b50805161333e57604051638fd297d960e01b815260040160405180910390fd5b613349826001613b0f565b815460405162ffffff909116907f0d64b11929aa111ca874dd00b5b0cc2d82b741be924ec9e3691e67c71552f62390613383908490615bef565b60405180910390a2505b5061326d565b50604080518481523360208201527f82e72df77173eab89b00556d791a407a78f4605c5c2f0694967c8c429dd43c7c91016118ad565b60008060008060006133d96136dc565b92506001600160601b031692506001600160601b031692506133fb8382613c30565b94506134078282613c30565b93505050509091565b6060600061341d84613787565b905082516001600160401b0381111561343857613438614ea4565b60405190808252806020026020018201604052801561347157816020015b61345e614dda565b8152602001906001900390816134565790505b50915060005b835181101561359c57604051806060016040528085838151811061349d5761349d6159c8565b60200260200101518152602001836001600160a01b0316635e2fb9088785815181106134cb576134cb6159c8565b60200260200101516040518263ffffffff1660e01b81526004016134f191815260200190565b60206040518083038186803b15801561350957600080fd5b505afa15801561351d573d6000803e3d6000fd5b505050506040513d601f19601f820116820180604052508101906135419190615c56565b1515815260200161356b8787858151811061355e5761355e6159c8565b6020026020010151612304565b815250838281518110613580576135806159c8565b60200260200101819052508061359590615ac9565b9050613477565b505092915050565b606060006135b061169c565b9050806001600160401b038111156135ca576135ca614ea4565b6040519080825280602002602001820160405280156135f3578160200160208202803683370190505b50915060005b81811015611a845761360a81613a9c565b54835162ffffff90911690849083908110613627576136276159c8565b60209081029190910101526001016135f9565b6060600061364785613787565b604051634febc81b60e01b815260048101869052602481018590529091506000906001600160a01b03831690634febc81b9060440160006040518083038186803b15801561369457600080fd5b505afa1580156136a8573d6000803e3d6000fd5b505050506040513d6000823e601f3d908101601f191682016040526136d09190810190615c73565b90506110fe8682613410565b6000806000606060006136ed612853565b9650909450925060009150505b825181101561373a57828181518110613715576137156159c8565b6020026020010151866137289190615c02565b955061373381615ac9565b90506136fa565b506137458582615cf8565b93505050909192565b9055565b60006001600160e01b03198216637965db0b60e01b1480610d3c57506301ffc9a760e01b6001600160e01b0319831614610d3c565b60006137928261380d565b54630100000090046001600160a01b031692915050565b6137b38282611f52565b61125e576137cb816001600160a01b03166014613f45565b6137d6836020613f45565b6040516020016137e7929190615d20565b60408051601f198184030181529082905262461bcd60e51b8252610ee091600401615bef565b6000610d3c61381b836139e5565b613a9c565b6000606080600061382f613dc7565b8051909350909150806001600160401b0381111561384f5761384f614ea4565b604051908082528060200260200182016040528015613878578160200160208202803683370190505b50935080156139dc5761388b86836159f5565b91506000816001600160401b038111156138a7576138a7614ea4565b6040519080825280602002602001820160405280156138d0578160200160208202803683370190505b5090506000805b838110156139cb578581815181106138f1576138f16159c8565b602002602001015160c0015187828151811061390f5761390f6159c8565b60200260200101818152505061271085878381518110613931576139316159c8565b60200260200101516080015161ffff1661394b9190615ae4565b61395591906159b4565b91506139a68287838151811061396d5761396d6159c8565b602002602001015160e0015188848151811061398b5761398b6159c8565b602002602001015160c001516139a191906159f5565b6140e0565b8382815181106139b8576139b86159c8565b60209081029190910101526001016138d7565b506139d786838a6140ef565b965050505b50509193909250565b60008181527f32e1e216c75ca66c0eeed6bb139a19e61c65210aff9014b152f6c1e0edec46576020819052604082205480613a3357604051636a0eb14160e11b815260040160405180910390fd5b6111dc6001826159de565b613a488282614134565b6000828152600080516020615ee48339815191526020526040902061114790826141aa565b613a7782826141bf565b6000828152600080516020615ee4833981519152602052604090206111479082614233565b60009081527fc6fb878251b80cefb9cf7f193fa60af5a152016ea8c6bc147932183f3517a0f56020526040902090565b7f32e1e216c75ca66c0eeed6bb139a19e61c65210aff9014b152f6c1e0edec4657613af88260016159f5565b600093845260209190915260409092209190915550565b8154600090600160e81b900460ff166002811115613b2f57613b2f615535565b9050816002811115613b4357613b43615535565b816002811115613b5557613b55615535565b1461114757816002811115613b6c57613b6c615535565b835460ff91909116600160e81b0260ff60e81b1982168117855560405162ffffff9182169190921617907ffd6f15fb2b48a21a60fe3d44d3c3a0433ca01e121b5124a63ec45c30ad925a1790613bc59085903390615d95565b60405180910390a2505050565b613bda611d6b565b15613bf85760405163184e52a160e21b815260040160405180910390fd5b613c0181614248565b50565b61125e8282613a3e565b6000611f4b83836142a7565b6000818311613c295781611f4b565b5090919050565b600081613c3f61271085615ae4565b611f4b91906159b4565b613c54846030615ae4565b825114613c8a578151613c68856030615ae4565b6040516346b38e7960e11b815260048101929092526024820152604401610ee0565b613c95846060615ae4565b815114613ccb578051613ca9856060615ae4565b604051633c11c1f760e21b815260048101929092526024820152604401610ee0565b6000613cd760306142d1565b90506000613ce560606142d1565b905060005b868110156122fb57613d0b8584613d02603085615ae4565b600060306142ea565b613d248483613d1b606085615ae4565b600060606142ea565b7f00000000000000000000000000000000000000000000000000000000000000006001600160a01b031663228951186801bc16d674ec800000858986613d6b8c8a8a614371565b6040518663ffffffff1660e01b8152600401613d8a9493929190615dbb565b6000604051808303818588803b158015613da357600080fd5b505af1158015613db7573d6000803e3d6000fd5b5050505050806001019050613cea565b600060606000613dd561169c565b9050806001600160401b03811115613def57613def614ea4565b604051908082528060200260200182016040528015613e2857816020015b613e15614df9565b815260200190600190039081613e0d5790505b50915060005b81811015613e8f57613e3f816146ec565b838281518110613e5157613e516159c8565b6020026020010181905250828181518110613e6e57613e6e6159c8565b602002602001015160c0015184613e8591906159f5565b9350600101613e2e565b50509091565b613ea0600884615e06565b151580613eb65750613eb3601082615e06565b15155b15613ed7576040516363209a7d60e11b815260036004820152602401610ee0565b6000613ee46008856159b4565b905080613ef26010846159b4565b14613f13576040516363209a7d60e11b815260026004820152602401610ee0565b80613f34576040516363209a7d60e11b815260016004820152602401610ee0565b5050505050565b6000610d3c825490565b60606000613f54836002615ae4565b613f5f9060026159f5565b6001600160401b03811115613f7657613f76614ea4565b6040519080825280601f01601f191660200182016040528015613fa0576020820181803683370190505b509050600360fc1b81600081518110613fbb57613fbb6159c8565b60200101906001600160f81b031916908160001a905350600f60fb1b81600181518110613fea57613fea6159c8565b60200101906001600160f81b031916908160001a905350600061400e846002615ae4565b6140199060016159f5565b90505b6001811115614091576f181899199a1a9b1b9c1cb0b131b232b360811b85600f166010811061404d5761404d6159c8565b1a60f81b828281518110614063576140636159c8565b60200101906001600160f81b031916908160001a90535060049490941c9361408a81615e1a565b905061401c565b508315611f4b5760405162461bcd60e51b815260206004820181905260248201527f537472696e67733a20686578206c656e67746820696e73756666696369656e746044820152606401610ee0565b6000818310613c295781611f4b565b6000805b8282101561412c5761410f858561410a85876159de565b61486b565b90508061411b5761412c565b61412581836159f5565b91506140f3565b509392505050565b61413e8282611f52565b61125e576000828152600080516020615f04833981519152602090815260408083206001600160a01b0385168085529252808320805460ff1916600117905551339285917f2f8788117e7eff1d82e926ec794901d17c78024a50270940304540a733656f0d9190a45050565b6000611f4b836001600160a01b038416614aa9565b6141c98282611f52565b1561125e576000828152600080516020615f04833981519152602090815260408083206001600160a01b0385168085529252808320805460ff1916905551339285917ff6391f5c32d9c69d2a47ea670b442974b53935d1edc7fd64eb21e047a839171b9190a45050565b6000611f4b836001600160a01b038416614af8565b6142717ff812f8d799ea071b4ecf0f6612f1129571268aad3c9d7f3535c25db1f8875772829055565b6040518181527ffddcded6b4f4730c226821172046b48372d3cd963c159701ae1b7c3bcac541bb9060200160405180910390a150565b60008260000182815481106142be576142be6159c8565b9060005260206000200154905092915050565b60408051828152603f92810192909201601f1916905290565b84516142f682856159f5565b1115801561430e5750835161430b82846159f5565b11155b61435a5760405162461bcd60e51b815260206004820152601960248201527f42595445535f41525241595f4f55545f4f465f424f554e4453000000000000006044820152606401610ee0565b6020838601810190838601016122fb828285614beb565b60008061437e60406142d1565b90506000614396614391604060606159de565b6142d1565b90506143a7848360008060406142ea565b6143c08482604060006143bb8260606159de565b6142ea565b6000600286600060801b6040516020016143db929190615e31565b60408051601f19818403018152908290526143f591615e69565b602060405180830381855afa158015614412573d6000803e3d6000fd5b5050506040513d601f19601f8201168201806040525081019061443591906158d7565b905060006002808560405160200161444d9190615e69565b60408051601f198184030181529082905261446791615e69565b602060405180830381855afa158015614484573d6000803e3d6000fd5b5050506040513d601f19601f820116820180604052508101906144a791906158d7565b6040516002906144be908790600090602001615e85565b60408051601f19818403018152908290526144d891615e69565b602060405180830381855afa1580156144f5573d6000803e3d6000fd5b5050506040513d601f19601f8201168201806040525081019061451891906158d7565b60408051602081019390935282015260600160408051601f198184030181529082905261454491615e69565b602060405180830381855afa158015614561573d6000803e3d6000fd5b5050506040513d601f19601f8201168201806040525081019061458491906158d7565b9050600280838a60405160200161459c929190615ea7565b60408051601f19818403018152908290526145b691615e69565b602060405180830381855afa1580156145d3573d6000803e3d6000fd5b5050506040513d601f19601f820116820180604052508101906145f691906158d7565b60408051634059730760d81b60208201526000602882015290810184905260029060600160408051601f198184030181529082905261463491615e69565b602060405180830381855afa158015614651573d6000803e3d6000fd5b5050506040513d601f19601f8201168201806040525081019061467491906158d7565b60408051602081019390935282015260600160408051601f19818403018152908290526146a091615e69565b602060405180830381855afa1580156146bd573d6000803e3d6000fd5b5050506040513d601f19601f820116820180604052508101906146e091906158d7565b98975050505050505050565b6146f4614df9565b60006146ff83613a9c565b80546001600160a01b036301000000820416845262ffffff8116602085015261ffff600160b81b820481166040860152600160c81b820481166060860152600160d81b820416608085015290915060ff600160e81b90910416600281111561476957614769615535565b8260a00190600281111561477f5761477f615535565b9081600281111561479257614792615535565b81525050600080600084600001516001600160a01b0316639abddf096040518163ffffffff1660e01b815260040160606040518083038186803b1580156147d857600080fd5b505afa1580156147ec573d6000803e3d6000fd5b505050506040513d601f19601f82011682018060405250810190614810919061595a565b9194509250905060008560a00151600281111561482f5761482f615535565b1461483b57600061483d565b805b60e08601526004840154614852908490613c1a565b61485c90836159de565b60c08601525092949350505050565b825160009060001982846148855760009350505050611f4b565b60005b8751811015614957578681815181106148a3576148a36159c8565b60200260200101518882815181106148bd576148bd6159c8565b6020026020010151106148cf57614947565b8781815181106148e1576148e16159c8565b60200260200101518311156149185780935060019150878181518110614909576149096159c8565b60200260200101519250614947565b87818151811061492a5761492a6159c8565b6020026020010151831415614947576149446001836159f5565b91505b61495081615ac9565b9050614888565b50806149695760009350505050611f4b565b60001960005b8851811015614a285787818151811061498a5761498a6159c8565b60200260200101518982815181106149a4576149a46159c8565b6020026020010151106149b657614a18565b838982815181106149c9576149c96159c8565b60200260200101511180156149f65750818982815181106149ec576149ec6159c8565b6020026020010151105b15614a1857888181518110614a0d57614a0d6159c8565b602002602001015191505b614a2181615ac9565b905061496f565b50614a7260018311614a3a5786614a44565b614a448784614c36565b84614a68848b8981518110614a5b57614a5b6159c8565b60200260200101516140e0565b6139a191906159de565b945084888581518110614a8757614a876159c8565b60200260200101818151614a9b91906159f5565b905250505050509392505050565b6000818152600183016020526040812054614af057508154600181810184556000848152602080822090930184905584548482528286019093526040902091909155610d3c565b506000610d3c565b60008181526001830160205260408120548015614be1576000614b1c6001836159de565b8554909150600090614b30906001906159de565b9050818114614b95576000866000018281548110614b5057614b506159c8565b9060005260206000200154905080876000018481548110614b7357614b736159c8565b6000918252602080832090910192909255918252600188019052604090208390555b8554869080614ba657614ba6615ecd565b600190038181906000526020600020016000905590558560010160008681526020019081526020016000206000905560019350505050610d3c565b6000915050610d3c565b5b601f811115614c0c578251825260209283019290910190601f1901614bec565b80156111475782518251600019600160086020869003021b01908116901991909116178252505050565b60008215614c645781614c4a6001856159de565b614c5491906159b4565b614c5f9060016159f5565b611f4b565b50600092915050565b828054614c7990615a94565b90600052602060002090601f016020900481019282614c9b5760008555614ce1565b82601f10614cb45782800160ff19823516178555614ce1565b82800160010185558215614ce1579182015b82811115614ce1578235825591602001919060010190614cc6565b50614ced929150614e3e565b5090565b604080516101408101825260008082526020820181905291810182905260608082018390526080820183905260a0820183905260c082015260e08101829052610100810182905261012081019190915290565b60405180608001604052806000815260200160008152602001614d65614cf1565b8152602001614d8e60405180606001604052806000815260200160008152602001600081525090565b905290565b604051806101000160405280600015158152602001600081526020016000815260200160008152602001600081526020016000815260200160008152602001600081525090565b6040805160608101825260008082526020820152908101614d8e614d93565b604080516101008101825260008082526020820181905291810182905260608101829052608081018290529060a0820190815260200160008152602001600081525090565b5b80821115614ced5760008155600101614e3f565b600060208284031215614e6557600080fd5b81356001600160e01b031981168114611f4b57600080fd5b600060208284031215614e8f57600080fd5b5035919050565b8015158114613c0157600080fd5b634e487b7160e01b600052604160045260246000fd5b60405160c081016001600160401b0381118282101715614edc57614edc614ea4565b60405290565b604051601f8201601f191681016001600160401b0381118282101715614f0a57614f0a614ea4565b604052919050565b600080600080848603610120811215614f2a57600080fd5b85359450602086013593506040860135614f4381614e96565b925060c0605f1982011215614f5757600080fd5b50614f60614eba565b606086013581526080860135602082015260a0860135604082015260c0860135606082015260e0860135608082015261010086013560a08201528091505092959194509250565b81518152602080830151908201526040808301519082015260608101610d3c565b60008060408385031215614fdb57600080fd5b50508035926020909101359150565b80356001600160a01b038116811461500157600080fd5b919050565b6000806040838503121561501957600080fd5b8235915061502960208401614fea565b90509250929050565b8051151582526020810151602083015260408101516040830152606081015160608301526080810151608083015260a081015160a083015260c081015160c083015260e081015160e08301525050565b602080825282518282018190526000919060409081850190868401855b828110156150db57815180518552868101511515878601528501516150c686860182615032565b5061014093909301929085019060010161509f565b5091979650505050505050565b60008083601f8401126150fa57600080fd5b5081356001600160401b0381111561511157600080fd5b60208301915083602082850101111561512957600080fd5b9250929050565b60008060008060008060a0878903121561514957600080fd5b86356001600160401b0381111561515f57600080fd5b61516b89828a016150e8565b909750955061517e905060208801614fea565b93506040870135925060608701359150608087013590509295509295509295565b60005b838110156151ba5781810151838201526020016151a2565b83811115612ef45750506000910152565b600081518084526151e381602086016020860161519f565b601f01601f19169290920160200192915050565b805162ffffff1682526000610140602083015161521f60208601826001600160a01b03169052565b506040830151615235604086018261ffff169052565b50606083015161524b606086018261ffff169052565b506080830151615261608086018261ffff169052565b5060a083015161527660a086018260ff169052565b5060c08301518160c086015261528e828601826151cb565b91505060e08301516152ab60e08601826001600160401b03169052565b5061010083810151908501526101209283015192909301919091525090565b60006020808301818452808551808352604092508286019150828160051b87010184880160005b8381101561536157603f19898403018552815160c0815185528882015189860152878201518189870152615327828701826151f7565b60609384015180518886015260208101516080890152604081015160a08901529390925090505095880195935050908601906001016152f1565b509098975050505050505050565b60008060006060848603121561538457600080fd5b61538d84614fea565b925061539b60208501614fea565b9150604084013590509250925092565b6000602080830181845280855180835260408601915060408160051b870101925083870160005b8281101561540057603f198886030184526153ee8583516151f7565b945092850192908501906001016153d2565b5092979650505050505050565b6000806000806080858703121561542357600080fd5b8435935060208501359250604085013561543c81614e96565b9396929550929360600135925050565b60006001600160401b0382111561546557615465614ea4565b5060051b60200190565b600082601f83011261548057600080fd5b813560206154956154908361544c565b614ee2565b82815260059290921b840181019181810190868411156154b457600080fd5b8286015b8481101561267257803583529183019183016154b8565b6000602082840312156154e157600080fd5b81356001600160401b038111156154f757600080fd5b6111dc8482850161546f565b6000806000806080858703121561551957600080fd5b5050823594602084013594506040840135936060013592509050565b634e487b7160e01b600052602160045260246000fd5b6003811061556957634e487b7160e01b600052602160045260246000fd5b9052565b60208101610d3c828461554b565b6000806000806060858703121561559157600080fd5b843593506020850135925060408501356001600160401b038111156155b557600080fd5b6155c1878288016150e8565b95989497509550505050565b6101008101610d3c8284615032565b60008083601f8401126155ee57600080fd5b5081356001600160401b0381111561560557600080fd5b6020830191508360208260051b850101111561512957600080fd5b6000806000806040858703121561563657600080fd5b84356001600160401b038082111561564d57600080fd5b615659888389016155dc565b9096509450602087013591508082111561567257600080fd5b506155c1878288016155dc565b600081518084526020808501945080840160005b838110156156af57815187529582019590820190600101615693565b509495945050505050565b60a0808252865190820181905260009060209060c0840190828a01845b828110156156fc5781516001600160a01b0316845292840192908401906001016156d7565b50505083810382850152615710818961567f565b8481036040860152875180825283890192509083019060005b8181101561574e5783516001600160601b031683529284019291840191600101615729565b50506001600160601b03871660608601529250615769915050565b8260808301529695505050505050565b602081526000611f4b60208301846151f7565b8281526040602082015260006111dc604083018461567f565b6000806000806000606086880312156157bd57600080fd5b8535945060208601356001600160401b03808211156157db57600080fd5b6157e789838a016150e8565b9096509450604088013591508082111561580057600080fd5b5061580d888289016150e8565b969995985093965092949392505050565b6000806040838503121561583157600080fd5b8235915060208301356003811061584757600080fd5b809150509250929050565b60008060006060848603121561586757600080fd5b505081359360208301359350604090920135919050565b6000806040838503121561589157600080fd5b8235915060208301356001600160401b038111156158ae57600080fd5b6158ba8582860161546f565b9150509250929050565b602081526000611f4b602083018461567f565b6000602082840312156158e957600080fd5b5051919050565b600080600080600080600080610100898b03121561590d57600080fd5b885161591881614e96565b809850506020890151965060408901519550606089015194506080890151935060a0890151925060c0890151915060e089015190509295985092959890939650565b60008060006060848603121561596f57600080fd5b8351925060208401519150604084015190509250925092565b634e487b7160e01b600052601260045260246000fd5b634e487b7160e01b600052601160045260246000fd5b6000826159c3576159c3615988565b500490565b634e487b7160e01b600052603260045260246000fd5b6000828210156159f0576159f061599e565b500390565b60008219821115615a0857615a0861599e565b500190565b600062ffffff808316818516808303821115615a2b57615a2b61599e565b01949350505050565b81835281816020850137506000828201602090810191909152601f909101601f19169091010190565b600060018060a01b03808716835260606020840152615a80606084018688615a34565b915080841660408401525095945050505050565b600181811c90821680615aa857607f821691505b60208210811415611d3b57634e487b7160e01b600052602260045260246000fd5b6000600019821415615add57615add61599e565b5060010190565b6000816000190483118215151615615afe57615afe61599e565b500290565b838152604060208201526000612040604083018486615a34565b600082601f830112615b2e57600080fd5b81516001600160401b03811115615b4757615b47614ea4565b615b5a601f8201601f1916602001614ee2565b818152846020838601011115615b6f57600080fd5b6111dc82602083016020870161519f565b60008060408385031215615b9357600080fd5b82516001600160401b0380821115615baa57600080fd5b615bb686838701615b1d565b93506020850151915080821115615bcc57600080fd5b506158ba85828601615b1d565b634e487b7160e01b600052600160045260246000fd5b602081526000611f4b60208301846151cb565b60006001600160601b03808316818516808303821115615a2b57615a2b61599e565b604081526000615c38604083018688615a34565b8281036020840152615c4b818587615a34565b979650505050505050565b600060208284031215615c6857600080fd5b8151611f4b81614e96565b60006020808385031215615c8657600080fd5b82516001600160401b03811115615c9c57600080fd5b8301601f81018513615cad57600080fd5b8051615cbb6154908261544c565b81815260059190911b82018301908381019087831115615cda57600080fd5b928401925b82841015615c4b57835182529284019290840190615cdf565b60006001600160601b0383811690831681811015615d1857615d1861599e565b039392505050565b7f416363657373436f6e74726f6c3a206163636f756e7420000000000000000000815260008351615d5881601785016020880161519f565b7001034b99036b4b9b9b4b733903937b6329607d1b6017918401918201528351615d8981602884016020880161519f565b01602801949350505050565b60408101615da3828561554b565b6001600160a01b039290921660209190910152919050565b608081526000615dce60808301876151cb565b8281036020840152615de081876151cb565b90508281036040840152615df481866151cb565b91505082606083015295945050505050565b600082615e1557615e15615988565b500690565b600081615e2957615e2961599e565b506000190190565b60008351615e4381846020880161519f565b6fffffffffffffffffffffffffffffffff19939093169190920190815260100192915050565b60008251615e7b81846020870161519f565b9190910192915050565b60008351615e9781846020880161519f565b9190910191825250602001919050565b82815260008251615ebf81602085016020870161519f565b919091016020019392505050565b634e487b7160e01b600052603160045260246000fdfe8f8c450dae5029cd48cd91dd9db65da48fb742893edfc7941250f6721d93cbbe9a627a5d4aa7c17f87ff26e3fe9a42c2b6c559e8b41a42282d0ecebb17c0e4d3c23292b191d95d2a7dd94fc6436eb44338fda9e1307d9394fd27c28157c1b33c3105bcbf19d4417b73ae0e58d508a65ecf75665e46c2622d8521732de6080c48a264697066735822122081f81ee40567ef15821c1480701d28fdb36acb47a770dd35b971f3cbcbc9557164736f6c63430008090033",
  "linkReferences": {},
  "deployedLinkReferences": {}
}