{
  "_format": "hh-sol-artifact-1",
  "contractName": "CatalistExecutionLayerRewardsVault",
  "sourceName": "contracts/0.8.9/CatalistExecutionLayerRewardsVault.sol",
  "abi": [
    {
      "inputs": [
        {
          "internalType": "address",
          "name": "_catalist",
          "type": "address"
        },
        {
          "internalType": "address",
          "name": "_treasury",
          "type": "address"
        }
      ],
      "stateMutability": "nonpayable",
      "type": "constructor"
    },
    {
      "anonymous": false,
      "inputs": [
        {
          "indexed": false,
          "internalType": "uint256",
          "name": "amount",
          "type": "uint256"
        }
      ],
      "name": "ACEReceived",
      "type": "event"
    },
    {
      "anonymous": false,
      "inputs": [
        {
          "indexed": true,
          "internalType": "address",
          "name": "requestedBy",
          "type": "address"
        },
        {
          "indexed": true,
          "internalType": "address",
          "name": "token",
          "type": "address"
        },
        {
          "indexed": false,
          "internalType": "uint256",
          "name": "amount",
          "type": "uint256"
        }
      ],
      "name": "ERC20Recovered",
      "type": "event"
    },
    {
      "anonymous": false,
      "inputs": [
        {
          "indexed": true,
          "internalType": "address",
          "name": "requestedBy",
          "type": "address"
        },
        {
          "indexed": true,
          "internalType": "address",
          "name": "token",
          "type": "address"
        },
        {
          "indexed": false,
          "internalType": "uint256",
          "name": "tokenId",
          "type": "uint256"
        }
      ],
      "name": "ERC721Recovered",
      "type": "event"
    },
    {
      "inputs": [],
      "name": "CATALIST",
      "outputs": [
        {
          "internalType": "address",
          "name": "",
          "type": "address"
        }
      ],
      "stateMutability": "view",
      "type": "function"
    },
    {
      "inputs": [],
      "name": "TREASURY",
      "outputs": [
        {
          "internalType": "address",
          "name": "",
          "type": "address"
        }
      ],
      "stateMutability": "view",
      "type": "function"
    },
    {
      "inputs": [
        {
          "internalType": "address",
          "name": "_token",
          "type": "address"
        },
        {
          "internalType": "uint256",
          "name": "_amount",
          "type": "uint256"
        }
      ],
      "name": "recoverERC20",
      "outputs": [],
      "stateMutability": "nonpayable",
      "type": "function"
    },
    {
      "inputs": [
        {
          "internalType": "address",
          "name": "_token",
          "type": "address"
        },
        {
          "internalType": "uint256",
          "name": "_tokenId",
          "type": "uint256"
        }
      ],
      "name": "recoverERC721",
      "outputs": [],
      "stateMutability": "nonpayable",
      "type": "function"
    },
    {
      "inputs": [
        {
          "internalType": "uint256",
          "name": "_maxAmount",
          "type": "uint256"
        }
      ],
      "name": "withdrawRewards",
      "outputs": [
        {
          "internalType": "uint256",
          "name": "amount",
          "type": "uint256"
        }
      ],
      "stateMutability": "nonpayable",
      "type": "function"
    },
    {
      "stateMutability": "payable",
      "type": "receive"
    }
  ],
  "bytecode": "0x60c060405234801561001057600080fd5b5060405161097038038061097083398101604081905261002f91610113565b6001600160a01b03821661008a5760405162461bcd60e51b815260206004820152601560248201527f434154414c4953545f5a45524f5f41444452455353000000000000000000000060448201526064015b60405180910390fd5b6001600160a01b0381166100e05760405162461bcd60e51b815260206004820152601560248201527f54524541535552595f5a45524f5f4144445245535300000000000000000000006044820152606401610081565b6001600160a01b039182166080521660a052610146565b80516001600160a01b038116811461010e57600080fd5b919050565b6000806040838503121561012657600080fd5b61012f836100f7565b915061013d602084016100f7565b90509250929050565b60805160a0516107ea61018660003960008181609f015281816101df01526102e90152600081816101600152818161031f01526103a601526107ea6000f3fe60806040526004361061004e5760003560e01c80632d2c55651461008d578063819d4cc6146100de5780638980f11f146101005780639342c8f414610120578063bfb326091461014e57600080fd5b36610088576040513481527f2a509095dcc53dfdf5129109c37d5a8dd3fe8413421c5eb7347302d80d8caa759060200160405180910390a1005b600080fd5b34801561009957600080fd5b506100c17f000000000000000000000000000000000000000000000000000000000000000081565b6040516001600160a01b0390911681526020015b60405180910390f35b3480156100ea57600080fd5b506100fe6100f93660046106c2565b610182565b005b34801561010c57600080fd5b506100fe61011b3660046106c2565b61024e565b34801561012c57600080fd5b5061014061013b3660046106fa565b610312565b6040519081526020016100d5565b34801561015a57600080fd5b506100c17f000000000000000000000000000000000000000000000000000000000000000081565b6040518181526001600160a01b0383169033907f6a30e6784464f0d1f4158aa4cb65ae9239b0fa87c7f2c083ee6dde44ba97b5e69060200160405180910390a36040516323b872dd60e01b81523060048201526001600160a01b037f000000000000000000000000000000000000000000000000000000000000000081166024830152604482018390528316906323b872dd90606401600060405180830381600087803b15801561023257600080fd5b505af1158015610246573d6000803e3d6000fd5b505050505050565b6000811161029a5760405162461bcd60e51b815260206004820152601460248201527316915493d7d49150d3d591549657d05353d5539560621b60448201526064015b60405180910390fd5b6040518181526001600160a01b0383169033907faca8fb252cde442184e5f10e0f2e6e4029e8cd7717cae63559079610702436aa9060200160405180910390a361030e6001600160a01b0383167f00000000000000000000000000000000000000000000000000000000000000008361041f565b5050565b6000336001600160a01b037f0000000000000000000000000000000000000000000000000000000000000000161461038c5760405162461bcd60e51b815260206004820152601a60248201527f4f4e4c595f434154414c4953545f43414e5f57495448445241570000000000006044820152606401610291565b4782811161039a578061039c565b825b91508115610419577f00000000000000000000000000000000000000000000000000000000000000006001600160a01b0316634ad509b2836040518263ffffffff1660e01b81526004016000604051808303818588803b1580156103ff57600080fd5b505af1158015610413573d6000803e3d6000fd5b50505050505b50919050565b604080516001600160a01b038416602482015260448082018490528251808303909101815260649091019091526020810180516001600160e01b031663a9059cbb60e01b179052610471908490610476565b505050565b60006104cb826040518060400160405280602081526020017f5361666545524332303a206c6f772d6c6576656c2063616c6c206661696c6564815250856001600160a01b03166105489092919063ffffffff16565b80519091501561047157808060200190518101906104e99190610713565b6104715760405162461bcd60e51b815260206004820152602a60248201527f5361666545524332303a204552433230206f7065726174696f6e20646964206e6044820152691bdd081cdd58d8d9595960b21b6064820152608401610291565b60606105578484600085610561565b90505b9392505050565b6060824710156105c25760405162461bcd60e51b815260206004820152602660248201527f416464726573733a20696e73756666696369656e742062616c616e636520666f6044820152651c8818d85b1b60d21b6064820152608401610291565b843b6106105760405162461bcd60e51b815260206004820152601d60248201527f416464726573733a2063616c6c20746f206e6f6e2d636f6e74726163740000006044820152606401610291565b600080866001600160a01b0316858760405161062c9190610765565b60006040518083038185875af1925050503d8060008114610669576040519150601f19603f3d011682016040523d82523d6000602084013e61066e565b606091505b509150915061067e828286610689565b979650505050505050565b6060831561069857508161055a565b8251156106a85782518084602001fd5b8160405162461bcd60e51b81526004016102919190610781565b600080604083850312156106d557600080fd5b82356001600160a01b03811681146106ec57600080fd5b946020939093013593505050565b60006020828403121561070c57600080fd5b5035919050565b60006020828403121561072557600080fd5b8151801515811461055a57600080fd5b60005b83811015610750578181015183820152602001610738565b8381111561075f576000848401525b50505050565b60008251610777818460208701610735565b9190910192915050565b60208152600082518060208401526107a0816040850160208701610735565b601f01601f1916919091016040019291505056fea264697066735822122066484eb7bb92238084170d5c5ae2c73b4f718147cc7c7ced98dd3f7ef818f6ed64736f6c63430008090033",
  "linkReferences": {},
  "deployedLinkReferences": {}
}