{
  "_format": "hh-sol-artifact-1",
  "contractName": "EVMScriptRegistryFactory",
  "sourceName": "@aragon/os/contracts/factory/EVMScriptRegistryFactory.sol",
  "abi": [
    {
      "constant": true,
      "inputs": [],
      "name": "baseReg",
      "outputs": [
        {
          "name": "",
          "type": "address"
        }
      ],
      "payable": false,
      "stateMutability": "view",
      "type": "function"
    },
    {
      "constant": false,
      "inputs": [
        {
          "name": "_dao",
          "type": "address"
        }
      ],
      "name": "newEVMScriptRegistry",
      "outputs": [
        {
          "name": "reg",
          "type": "address"
        }
      ],
      "payable": false,
      "stateMutability": "nonpayable",
      "type": "function"
    },
    {
      "constant": true,
      "inputs": [],
      "name": "baseCallScript",
      "outputs": [
        {
          "name": "",
          "type": "address"
        }
      ],
      "payable": false,
      "stateMutability": "view",
      "type": "function"
    },
    {
      "inputs": [],
      "payable": false,
      "stateMutability": "nonpayable",
      "type": "constructor"
    }
  ],
  "bytecode": "0x608060405234801561001057600080fd5b506100196100a0565b604051809103906000f080158015610035573d6000803e3d6000fd5b5060008054600160a060020a031916600160a060020a039290921691909117905561005e6100b0565b604051809103906000f08015801561007a573d6000803e3d6000fd5b5060018054600160a060020a031916600160a060020a03929092169190911790556100c0565b6040516118ca8061074b83390190565b6040516109d08061201583390190565b61067c806100cf6000396000f30060806040526004361061003a5760003560e01c63ffffffff168063127d679c1461003f57806333404143146100705780634de50a3a14610091575b600080fd5b34801561004b57600080fd5b506100546100a6565b60408051600160a060020a039092168252519081900360200190f35b34801561007c57600080fd5b50610054600160a060020a03600435166100b5565b34801561009d57600080fd5b50610054610641565b600054600160a060020a031681565b604080516004808252602480830184526020830180517bffffffffffffffffffffffffffffffffffffffffffffffffffffffff167f8129fc1c000000000000000000000000000000000000000000000000000000001781526000805495517fc050a7a60000000000000000000000000000000000000000000000000000000081527fddbcfd564f642ab5627cf68b9b7d374fb4f8a36e941a75d89c87998cef03bd61948101858152600160a060020a0397881694820185905260016064830181905260806044840190815288516084850152885194998a98908c169763c050a7a697919690958b95939260a4909101918083838e5b838110156101c25781810151838201526020016101aa565b50505050905090810190601f1680156101ef5780820380516001836020036101000a031916815260200191505b5095505050505050602060405180830381600087803b15801561021157600080fd5b505af1158015610225573d6000803e3d6000fd5b505050506040513d602081101561023b57600080fd5b5051604080517fde2873590000000000000000000000000000000000000000000000000000000081529051919450600160a060020a0386169163de287359916004808201926020929091908290030181600087803b15801561029c57600080fd5b505af11580156102b0573d6000803e3d6000fd5b505050506040513d60208110156102c657600080fd5b5051604080517f19f3d10f0000000000000000000000000000000000000000000000000000000081529051919250600160a060020a038084169263be0384789230928892908316916319f3d10f9160048083019260209291908290030181600087803b15801561033557600080fd5b505af1158015610349573d6000803e3d6000fd5b505050506040513d602081101561035f57600080fd5b50516040805163ffffffff861660e01b8152600160a060020a03948516600482015292909316602483015260448201523060648201529051608480830192600092919082900301818387803b1580156103b757600080fd5b505af11580156103cb573d6000803e3d6000fd5b5050600154604080517f87a16f12000000000000000000000000000000000000000000000000000000008152600160a060020a039283166004820152905191871693506387a16f1292506024808201926020929091908290030181600087803b15801561043757600080fd5b505af115801561044b573d6000803e3d6000fd5b505050506040513d602081101561046157600080fd5b5050604080517f19f3d10f0000000000000000000000000000000000000000000000000000000081529051600160a060020a0380841692639d0effdb9230928892908316916319f3d10f916004808201926020929091908290030181600087803b1580156104ce57600080fd5b505af11580156104e2573d6000803e3d6000fd5b505050506040513d60208110156104f857600080fd5b50516040805163ffffffff861660e01b8152600160a060020a03948516600482015292909316602483015260448201529051606480830192600092919082900301818387803b15801561054a57600080fd5b505af115801561055e573d6000803e3d6000fd5b5050505080600160a060020a031663a885508a8485600160a060020a03166319f3d10f6040518163ffffffff1660e01b8152600401602060405180830381600087803b1580156105ad57600080fd5b505af11580156105c1573d6000803e3d6000fd5b505050506040513d60208110156105d757600080fd5b50516040805163ffffffff851660e01b8152600160a060020a039093166004840152602483019190915251604480830192600092919082900301818387803b15801561062257600080fd5b505af1158015610636573d6000803e3d6000fd5b505050505050919050565b600154600160a060020a0316815600a165627a7a723058204d1e0a2b5befc365b8d35c908cd42d7bdb51d64b3b798aee295ed84b1314072100296080604052620000146200001a60201b60201c565b62000231565b6200002a6200011c60201b60201c565b60408051808201909152601881527f494e49545f414c52454144595f494e495449414c495a454400000000000000006020820152901562000106576040517f08c379a00000000000000000000000000000000000000000000000000000000081526004018080602001828103825283818151815260200191508051906020019080838360005b83811015620000ca578181015183820152602001620000b0565b50505050905090810190601f168015620000f85780820380516001836020036101000a031916815260200191505b509250505060405180910390fd5b506200011a6000196200014f60201b60201c565b565b60006200014a600080516020620018aa83398151915260001b600019166200022960201b620012b31760201c565b905090565b6200015f6200011c60201b60201c565b60408051808201909152601881527f494e49545f414c52454144595f494e495449414c495a4544000000000000000060208201529015620001fe576040517f08c379a000000000000000000000000000000000000000000000000000000000815260040180806020018281038252838181518152602001915080519060200190808383600083811015620000ca578181015183820152602001620000b0565b5062000226600080516020620018aa833981519152826200022d602090811b620015b217901c565b50565b5490565b9055565b61166980620002416000396000f3006080604052600436106100ea5760003560e01c63ffffffff16806304bf2a7f146100ef5780630803fac01461016457806319f3d10f1461018d5780632914b9bd146101b457806332f0a3b51461020d5780635ca4d4bb146102225780637e7db6e11461023c57806380afdea81461025d5780638129fc1c1461027257806387a16f12146102875780638b3dd749146102a85780639d4941d8146102bd578063a1658fad146102de578063a479e50814610345578063bd8fde1c1461035a578063cff606a01461036f578063d4aae0c414610387578063de4796ed1461039c578063f97a05df146103b1575b600080fd5b3480156100fb57600080fd5b506040805160206004803580820135601f81018490048402850184019095528484526101489436949293602493928401919081908401838280828437509497506103ec9650505050505050565b60408051600160a060020a039092168252519081900360200190f35b34801561017057600080fd5b50610179610509565b604080519115158252519081900360200190f35b34801561019957600080fd5b506101a2610532565b60408051918252519081900360200190f35b3480156101c057600080fd5b506040805160206004803580820135601f81018490048402850184019095528484526101489436949293602493928401919081908401838280828437509497506105569650505050505050565b34801561021957600080fd5b50610148610639565b34801561022e57600080fd5b5061023a6004356106ae565b005b34801561024857600080fd5b50610179600160a060020a036004351661086c565b34801561026957600080fd5b506101a2610872565b34801561027e57600080fd5b5061023a6108a2565b34801561029357600080fd5b506101a2600160a060020a036004351661093f565b3480156102b457600080fd5b506101a2610ab9565b3480156102c957600080fd5b5061023a600160a060020a0360043516610ae4565b3480156102ea57600080fd5b506040805160206004604435818101358381028086018501909652808552610179958335600160a060020a0316956024803596369695606495939492019291829185019084908082843750949750610d739650505050505050565b34801561035157600080fd5b50610148610ec0565b34801561036657600080fd5b506101a2610f75565b34801561037b57600080fd5b5061023a600435610f99565b34801561039357600080fd5b506101486111f6565b3480156103a857600080fd5b50610179611221565b3480156103bd57600080fd5b506103c9600435611234565b60408051600160a060020a03909316835290151560208301528051918290030190f35b60008060006004845110156040805190810160405280601e81526020017f45564d5245475f5343524950545f4c454e4754485f544f4f5f53484f525400008152509015156104bb5760405160e560020a62461bcd0281526004018080602001828103825283818151815260200191508051906020019080838360005b83811015610480578181015183820152602001610468565b50505050905090810190601f1680156104ad5780820380516001836020036101000a031916815260200191505b509250505060405180910390fd5b506104c58461125b565b63ffffffff1660008181526001602052604090208054919350915060a060020a900460ff166104f5576000610501565b8054600160a060020a03165b949350505050565b600080610514610ab9565b9050801580159061052c57508061052961126e565b10155b91505090565b7fc4e90f38eea8c4212a009ca7b8947943ba4d4a58d19b683417f65291d1cd9ed281565b6000610560610ec0565b600160a060020a03166304bf2a7f836040518263ffffffff1660e01b81526004018080602001828103825283818151815260200191508051906020019080838360005b838110156105bb5781810151838201526020016105a3565b50505050905090810190601f1680156105e85780820380516001836020036101000a031916815260200191505b5092505050602060405180830381600087803b15801561060757600080fd5b505af115801561061b573d6000803e3d6000fd5b505050506040513d602081101561063157600080fd5b505192915050565b60006106436111f6565b600160a060020a03166332f0a3b56040518163ffffffff1660e01b8152600401602060405180830381600087803b15801561067d57600080fd5b505af1158015610691573d6000803e3d6000fd5b505050506040513d60208110156106a757600080fd5b5051905090565b60007ff7a450ef335e1892cb42c8ca72e7242359d7711924b75db5717410da3f614aa36106da83611272565b6106e5338383610d73565b60408051808201909152600f81527f4150505f415554485f4641494c45440000000000000000000000000000000000602082015290151561076b5760405160e560020a62461bcd02815260040180806020018281038252838181518152602001915080519060200190808383600083811015610480578181015183820152602001610468565b5060008481526001602090815260409182902080548351808501909452601884527f45564d5245475f4558454355544f525f44495341424c4544000000000000000092840192909252945060a060020a900460ff1615156108115760405160e560020a62461bcd02815260040180806020018281038252838181518152602001915080519060200190808383600083811015610480578181015183820152602001610468565b50825474ff00000000000000000000000000000000000000001981168455604051600160a060020a039091169085907fc13cd9238f8ab1e5ab1f95cde77e89288fe5c328d04739adffd57b144b408fd190600090a350505050565b50600190565b600061089d7fd625496217aa6a3453eecb9c3489dc5a53e6c67b444329ea2b2cbc9ff547639b6112b3565b905090565b6108aa610ab9565b60408051808201909152601881527f494e49545f414c52454144595f494e495449414c495a454400000000000000006020820152901561092f5760405160e560020a62461bcd02815260040180806020018281038252838181518152602001915080519060200190808383600083811015610480578181015183820152602001610468565b506109386112b7565b6001600055565b6040805160008082526020820190925281907fc4e90f38eea8c4212a009ca7b8947943ba4d4a58d19b683417f65291d1cd9ed2906109809033908390610d73565b60408051808201909152600f81527f4150505f415554485f4641494c454400000000000000000000000000000000006020820152901515610a065760405160e560020a62461bcd02815260040180806020018281038252838181518152602001915080519060200190808383600083811015610480578181015183820152602001610468565b506000805460018082018355604080518082018252600160a060020a03808a168083526020808401868152878952959052838720925183549551151560a060020a0274ff0000000000000000000000000000000000000000199190931673ffffffffffffffffffffffffffffffffffffffff199096169590951794909416179055519194509184917f7697fa3288629310075a63816e294207c84f3cfc18ccf8e18eb917ec0bb566999190a35092915050565b600061089d7febb05b386a8d34882b8711d156f463690983dc47815980fb82aeeff1aa43579e6112b3565b6000806000610af28461086c565b60408051808201909152601281527f5245434f5645525f444953414c4c4f57454400000000000000000000000000006020820152901515610b785760405160e560020a62461bcd02815260040180806020018281038252838181518152602001915080519060200190808383600083811015610480578181015183820152602001610468565b50610b81610639565b9250610b8c83611383565b60408051808201909152601a81527f5245434f5645525f5641554c545f4e4f545f434f4e54524143540000000000006020820152901515610c125760405160e560020a62461bcd02815260040180806020018281038252838181518152602001915080519060200190808383600083811015610480578181015183820152602001610468565b50600160a060020a0384161515610c635760405130319250600160a060020a0384169083156108fc029084906000818181858888f19350505050158015610c5d573d6000803e3d6000fd5b50610d22565b5082610c7e600160a060020a0382163063ffffffff6113b016565b9150610c9a600160a060020a038216848463ffffffff6114c516565b60408051808201909152601d81527f5245434f5645525f544f4b454e5f5452414e534645525f4641494c45440000006020820152901515610d205760405160e560020a62461bcd02815260040180806020018281038252838181518152602001915080519060200190808383600083811015610480578181015183820152602001610468565b505b83600160a060020a031683600160a060020a03167f596caf56044b55fb8c4ca640089bbc2b63cae3e978b851f5745cbb7c5b288e02846040518082815260200191505060405180910390a350505050565b600080610d7e610509565b1515610d8d5760009150610eb8565b610d956111f6565b9050600160a060020a0381161515610db05760009150610eb8565b80600160a060020a031663fdef9106863087610dcb88611550565b60405163ffffffff861660e01b8152600160a060020a03808616600483019081529085166024830152604482018490526080606483019081528351608484015283519192909160a490910190602085019080838360005b83811015610e3a578181015183820152602001610e22565b50505050905090810190601f168015610e675780820380516001836020036101000a031916815260200191505b5095505050505050602060405180830381600087803b158015610e8957600080fd5b505af1158015610e9d573d6000803e3d6000fd5b505050506040513d6020811015610eb357600080fd5b505191505b509392505050565b600080610ecb6111f6565b604080517fbe00bbd80000000000000000000000000000000000000000000000000000000081527fd6f028ca0e8edb4a8c9757ca4fdccab25fa1e0317da1188108f7d2dee14902fb60048201527fddbcfd564f642ab5627cf68b9b7d374fb4f8a36e941a75d89c87998cef03bd6160248201529051600160a060020a03929092169163be00bbd8916044808201926020929091908290030181600087803b15801561060757600080fd5b7ff7a450ef335e1892cb42c8ca72e7242359d7711924b75db5717410da3f614aa381565b60007ff7a450ef335e1892cb42c8ca72e7242359d7711924b75db5717410da3f614aa3610fc583611272565b610fd0338383610d73565b60408051808201909152600f81527f4150505f415554485f4641494c4544000000000000000000000000000000000060208201529015156110565760405160e560020a62461bcd02815260040180806020018281038252838181518152602001915080519060200190808383600083811015610480578181015183820152602001610468565b5083600081118015611069575060005481105b60408051808201909152601a81527f45564d5245475f494e4558495354454e545f4558454355544f5200000000000060208201529015156110ef5760405160e560020a62461bcd02815260040180806020018281038252838181518152602001915080519060200190808383600083811015610480578181015183820152602001610468565b5060008581526001602090815260409182902080548351808501909452601784527f45564d5245475f4558454355544f525f454e41424c454400000000000000000092840192909252955060a060020a900460ff16156111945760405160e560020a62461bcd02815260040180806020018281038252838181518152602001915080519060200190808383600083811015610480578181015183820152602001610468565b50835474ff0000000000000000000000000000000000000000191660a060020a17808555604051600160a060020a039091169086907f7697fa3288629310075a63816e294207c84f3cfc18ccf8e18eb917ec0bb5669990600090a35050505050565b600061089d7f4172f0f7d2289153072b0a6ca36959e0cbe2efc3afe50fc81636caa96338137b6112b3565b600060001961122e610ab9565b14905090565b600160205260009081526040902054600160a060020a0381169060a060020a900460ff1682565b600061126882600061155a565b92915050565b4390565b60408051600180825281830190925260609160208083019080388339019050509050818160008151811015156112a457fe5b60209081029091010152919050565b5490565b6112bf610ab9565b60408051808201909152601881527f494e49545f414c52454144595f494e495449414c495a45440000000000000000602082015290156113445760405160e560020a62461bcd02815260040180806020018281038252838181518152602001915080519060200190808383600083811015610480578181015183820152602001610468565b5061137d61135061126e565b7febb05b386a8d34882b8711d156f463690983dc47815980fb82aeeff1aa43579e9063ffffffff6115b216565b565b5490565b600080600160a060020a038316151561139f57600091506113aa565b823b90506000811191505b50919050565b60408051600160a060020a0383166024808301919091528251808303909101815260449091019091526020810180517bffffffffffffffffffffffffffffffffffffffffffffffffffffffff167f70a0823100000000000000000000000000000000000000000000000000000000179052600090818061143086846115b6565b60408051808201909152601c81527f534146455f4552435f32305f42414c414e43455f524556455254454400000000602082015291935091508215156114bb5760405160e560020a62461bcd02815260040180806020018281038252838181518152602001915080519060200190808383600083811015610480578181015183820152602001610468565b5095945050505050565b60408051600160a060020a038416602482015260448082018490528251808303909101815260649091019091526020810180517bffffffffffffffffffffffffffffffffffffffffffffffffffffffff167fa9059cbb0000000000000000000000000000000000000000000000000000000017905260009061154785826115e7565b95945050505050565b8051602002815290565b6000806115678484611635565b7c01000000000000000000000000000000000000000000000000000000007fffffffff0000000000000000000000000000000000000000000000000000000090911604949350505050565b9055565b6000806000806040516020818751602089018a5afa925060008311156115db57805191505b50909590945092505050565b6000806040516020818551602087016000895af1600081111561162b573d8015611618576020811461162157611629565b60019350611629565b600183511493505b505b5090949350505050565b0160200151905600a165627a7a72305820bff5f4843d6fe11c78c2546957f8c9c17b80a04e45d77361837d16d90b4810fd0029ebb05b386a8d34882b8711d156f463690983dc47815980fb82aeeff1aa43579e608060405261001261001760201b60201c565b610219565b61002561011160201b60201c565b60408051808201909152601881527f494e49545f414c52454144595f494e495449414c495a45440000000000000000602082015290156100fd576040517f08c379a00000000000000000000000000000000000000000000000000000000081526004018080602001828103825283818151815260200191508051906020019080838360005b838110156100c25781810151838201526020016100aa565b50505050905090810190601f1680156100ef5780820380516001836020036101000a031916815260200191505b509250505060405180910390fd5b5061010f60001961014060201b60201c565b565b600061013b6000805160206109b083398151915260001b6000191661021160201b61074c1760201c565b905090565b61014e61011160201b60201c565b60408051808201909152601881527f494e49545f414c52454144595f494e495449414c495a45440000000000000000602082015290156101ea576040517f08c379a0000000000000000000000000000000000000000000000000000000008152600401808060200182810382528381815181526020019150805190602001908083836000838110156100c25781810151838201526020016100aa565b5061020e6000805160206109b083398151915282610215602090811b61075817901c565b50565b5490565b9055565b610788806102286000396000f3006080604052600436106100505760003560e01c63ffffffff1680630803fac014610055578063279cea351461007e5780638333d9b21461012b5780638b3dd74914610152578063de4796ed14610167575b600080fd5b34801561006157600080fd5b5061006a61017c565b604080519115158252519081900360200190f35b34801561008a57600080fd5b506100b660246004803582810192908201359181358083019290820135916044359182019101356101a5565b6040805160208082528351818301528351919283929083019185019080838360005b838110156100f05781810151838201526020016100d8565b50505050905090810190601f16801561011d5780820380516001836020036101000a031916815260200191505b509250505060405180910390f35b34801561013757600080fd5b5061014061064d565b60408051918252519081900360200190f35b34801561015e57600080fd5b50610140610671565b34801561017357600080fd5b5061006a6106a1565b600080610187610671565b9050801580159061019f57508061019c6106b4565b10155b91505090565b606060008060008060008060006101ba61017c565b60408051808201909152601481527f494e49545f4e4f545f494e495449414c495a4544000000000000000000000000602082015290151561027c5760405160e560020a62461bcd0281526004018080602001828103825283818151815260200191508051906020019080838360005b83811015610241578181015183820152602001610229565b50505050905090810190601f16801561026e5780820380516001836020036101000a031916815260200191505b509250505060405180910390fd5b50600496505b8c87101561063c5760408051808201909152601781527f45564d43414c4c535f494e56414c49445f4c454e47544800000000000000000060208201526018888f0310156103145760405160e560020a62461bcd02815260040180806020018281038252838181518152602001915080519060200190808383600083811015610241578181015183820152602001610229565b50610358878f8f8080601f01602080910402602001604051908101604052809392919081815260200183838082843750949594505063ffffffff6106b81692505050565b9550600094505b888510156104535789898681811061037357fe5b9050602002013573ffffffffffffffffffffffffffffffffffffffff1673ffffffffffffffffffffffffffffffffffffffff168673ffffffffffffffffffffffffffffffffffffffff1614156040805190810160405280601981526020017f45564d43414c4c535f424c41434b4c49535445445f43414c4c000000000000008152509015156104475760405160e560020a62461bcd02815260040180806020018281038252838181518152602001915080519060200190808383600083811015610241578181015183820152602001610229565b5060019094019361035f565b60405173ffffffffffffffffffffffffffffffffffffffff871690309033907f9dcff9d94fbfdb4622d11edb383005f95e78efb446c72d92f8e615c6025c470390600090a46104de876014018f8f8080601f01602080910402602001604051908101604052809392919081815260200183838082843750949594505063ffffffff6106ed1692505050565b63ffffffff169350866014016004019250610532838f8f8080601f01602080910402602001604051908101604052809392919081815260200183838082843750949594505063ffffffff6107451692505050565b60408051808201909152601781527f45564d43414c4c535f494e56414c49445f4c454e475448000000000000000000602082015284860198509092508d8811156105c15760405160e560020a62461bcd02815260040180806020018281038252838181518152602001915080519060200190808383600083811015610241578181015183820152602001610229565b50600080858460008a6113885a03f190508080156105de57610636565b6040513d80156105f1573d6000833e3d82fd5b60e560020a62461bcd02825260206004830152601660248301527f45564d43414c4c535f43414c4c5f5245564552544544000000000000000000006044830152606482fd5b50610282565b505050505050509695505050505050565b7f2dc858a00f3e417be1394b87c07158e989ec681ce8cc68a9093680ac1a87030290565b600061069c7febb05b386a8d34882b8711d156f463690983dc47815980fb82aeeff1aa43579e61074c565b905090565b60006000196106ae610671565b14905090565b4390565b6000806106c58484610750565b6c010000000000000000000000006bffffffffffffffffffffffff1990911604949350505050565b6000806106fa8484610750565b7c01000000000000000000000000000000000000000000000000000000007fffffffff0000000000000000000000000000000000000000000000000000000090911604949350505050565b0160200190565b5490565b016020015190565b90555600a165627a7a723058208f73319ac016da9c3cfe2edf91407f310f54a1d3f644607b550d604524a39bc70029ebb05b386a8d34882b8711d156f463690983dc47815980fb82aeeff1aa43579e",
  "linkReferences": {},
  "deployedLinkReferences": {}
}