{
  "_format": "hh-sol-artifact-1",
  "contractName": "Pausable",
  "sourceName": "contracts/0.4.24/utils/Pausable.sol",
  "abi": [
    {
      "constant": true,
      "inputs": [],
      "name": "isStopped",
      "outputs": [
        {
          "name": "",
          "type": "bool"
        }
      ],
      "payable": false,
      "stateMutability": "view",
      "type": "function"
    },
    {
      "anonymous": false,
      "inputs": [],
      "name": "Stopped",
      "type": "event"
    },
    {
      "anonymous": false,
      "inputs": [],
      "name": "Resumed",
      "type": "event"
    }
  ],
  "bytecode": "0x608060405234801561001057600080fd5b5060ac8061001f6000396000f30060806040526004361060225760003560e01c63ffffffff1680633f683b6a146027575b600080fd5b348015603257600080fd5b506039604d565b604080519115158252519081900360200190f35b600060767fd07ca6a331cef5bfbe6bd74c0b79a0f979659b9b19ce2618675c001cf76a5352607c565b15905090565b54905600a165627a7a723058208c13f8ba61091db9bee61dffdbc7f8131c005d6240d1832ff4186d6e516a6baa0029",
  "linkReferences": {},
  "deployedLinkReferences": {}
}