{
  "_format": "hh-sol-artifact-1",
  "contractName": "Vault",
  "sourceName": "@aragon/apps-vault/contracts/Vault.sol",
  "abi": [
    {
      "constant": true,
      "inputs": [],
      "name": "hasInitialized",
      "outputs": [
        {
          "name": "",
          "type": "bool"
        }
      ],
      "payable": false,
      "stateMutability": "view",
      "type": "function"
    },
    {
      "constant": true,
      "inputs": [],
      "name": "TRANSFER_ROLE",
      "outputs": [
        {
          "name": "",
          "type": "bytes32"
        }
      ],
      "payable": false,
      "stateMutability": "view",
      "type": "function"
    },
    {
      "constant": true,
      "inputs": [
        {
          "name": "_script",
          "type": "bytes"
        }
      ],
      "name": "getEVMScriptExecutor",
      "outputs": [
        {
          "name": "",
          "type": "address"
        }
      ],
      "payable": false,
      "stateMutability": "view",
      "type": "function"
    },
    {
      "constant": true,
      "inputs": [],
      "name": "getRecoveryVault",
      "outputs": [
        {
          "name": "",
          "type": "address"
        }
      ],
      "payable": false,
      "stateMutability": "view",
      "type": "function"
    },
    {
      "constant": false,
      "inputs": [
        {
          "name": "_token",
          "type": "address"
        },
        {
          "name": "_value",
          "type": "uint256"
        }
      ],
      "name": "deposit",
      "outputs": [],
      "payable": true,
      "stateMutability": "payable",
      "type": "function"
    },
    {
      "constant": true,
      "inputs": [],
      "name": "isDepositable",
      "outputs": [
        {
          "name": "",
          "type": "bool"
        }
      ],
      "payable": false,
      "stateMutability": "view",
      "type": "function"
    },
    {
      "constant": true,
      "inputs": [
        {
          "name": "",
          "type": "address"
        }
      ],
      "name": "allowRecoverability",
      "outputs": [
        {
          "name": "",
          "type": "bool"
        }
      ],
      "payable": false,
      "stateMutability": "view",
      "type": "function"
    },
    {
      "constant": true,
      "inputs": [],
      "name": "appId",
      "outputs": [
        {
          "name": "",
          "type": "bytes32"
        }
      ],
      "payable": false,
      "stateMutability": "view",
      "type": "function"
    },
    {
      "constant": false,
      "inputs": [],
      "name": "initialize",
      "outputs": [],
      "payable": false,
      "stateMutability": "nonpayable",
      "type": "function"
    },
    {
      "constant": true,
      "inputs": [],
      "name": "getInitializationBlock",
      "outputs": [
        {
          "name": "",
          "type": "uint256"
        }
      ],
      "payable": false,
      "stateMutability": "view",
      "type": "function"
    },
    {
      "constant": false,
      "inputs": [
        {
          "name": "_token",
          "type": "address"
        }
      ],
      "name": "transferToVault",
      "outputs": [],
      "payable": false,
      "stateMutability": "nonpayable",
      "type": "function"
    },
    {
      "constant": true,
      "inputs": [
        {
          "name": "_sender",
          "type": "address"
        },
        {
          "name": "_role",
          "type": "bytes32"
        },
        {
          "name": "_params",
          "type": "uint256[]"
        }
      ],
      "name": "canPerform",
      "outputs": [
        {
          "name": "",
          "type": "bool"
        }
      ],
      "payable": false,
      "stateMutability": "view",
      "type": "function"
    },
    {
      "constant": true,
      "inputs": [],
      "name": "getEVMScriptRegistry",
      "outputs": [
        {
          "name": "",
          "type": "address"
        }
      ],
      "payable": false,
      "stateMutability": "view",
      "type": "function"
    },
    {
      "constant": false,
      "inputs": [
        {
          "name": "_token",
          "type": "address"
        },
        {
          "name": "_to",
          "type": "address"
        },
        {
          "name": "_value",
          "type": "uint256"
        }
      ],
      "name": "transfer",
      "outputs": [],
      "payable": false,
      "stateMutability": "nonpayable",
      "type": "function"
    },
    {
      "constant": true,
      "inputs": [],
      "name": "kernel",
      "outputs": [
        {
          "name": "",
          "type": "address"
        }
      ],
      "payable": false,
      "stateMutability": "view",
      "type": "function"
    },
    {
      "constant": true,
      "inputs": [],
      "name": "isPetrified",
      "outputs": [
        {
          "name": "",
          "type": "bool"
        }
      ],
      "payable": false,
      "stateMutability": "view",
      "type": "function"
    },
    {
      "constant": true,
      "inputs": [
        {
          "name": "_token",
          "type": "address"
        }
      ],
      "name": "balance",
      "outputs": [
        {
          "name": "",
          "type": "uint256"
        }
      ],
      "payable": false,
      "stateMutability": "view",
      "type": "function"
    },
    {
      "payable": true,
      "stateMutability": "payable",
      "type": "fallback"
    },
    {
      "anonymous": false,
      "inputs": [
        {
          "indexed": true,
          "name": "token",
          "type": "address"
        },
        {
          "indexed": true,
          "name": "to",
          "type": "address"
        },
        {
          "indexed": false,
          "name": "amount",
          "type": "uint256"
        }
      ],
      "name": "VaultTransfer",
      "type": "event"
    },
    {
      "anonymous": false,
      "inputs": [
        {
          "indexed": true,
          "name": "token",
          "type": "address"
        },
        {
          "indexed": true,
          "name": "sender",
          "type": "address"
        },
        {
          "indexed": false,
          "name": "amount",
          "type": "uint256"
        }
      ],
      "name": "VaultDeposit",
      "type": "event"
    },
    {
      "anonymous": false,
      "inputs": [
        {
          "indexed": true,
          "name": "executor",
          "type": "address"
        },
        {
          "indexed": false,
          "name": "script",
          "type": "bytes"
        },
        {
          "indexed": false,
          "name": "input",
          "type": "bytes"
        },
        {
          "indexed": false,
          "name": "returnData",
          "type": "bytes"
        }
      ],
      "name": "ScriptResult",
      "type": "event"
    },
    {
      "anonymous": false,
      "inputs": [
        {
          "indexed": true,
          "name": "vault",
          "type": "address"
        },
        {
          "indexed": true,
          "name": "token",
          "type": "address"
        },
        {
          "indexed": false,
          "name": "amount",
          "type": "uint256"
        }
      ],
      "name": "RecoverToVault",
      "type": "event"
    }
  ],
  "bytecode": "0x6080604052620000146200001a60201b60201c565b62000231565b6200002a6200011c60201b60201c565b60408051808201909152601881527f494e49545f414c52454144595f494e495449414c495a454400000000000000006020820152901562000106576040517f08c379a00000000000000000000000000000000000000000000000000000000081526004018080602001828103825283818151815260200191508051906020019080838360005b83811015620000ca578181015183820152602001620000b0565b50505050905090810190601f168015620000f85780820380516001836020036101000a031916815260200191505b509250505060405180910390fd5b506200011a6000196200014f60201b60201c565b565b60006200014a60008051602062001a1283398151915260001b600019166200022960201b620013aa1760201c565b905090565b6200015f6200011c60201b60201c565b60408051808201909152601881527f494e49545f414c52454144595f494e495449414c495a4544000000000000000060208201529015620001fe576040517f08c379a000000000000000000000000000000000000000000000000000000000815260040180806020018281038252838181518152602001915080519060200190808383600083811015620000ca578181015183820152602001620000b0565b506200022660008051602062001a12833981519152826200022d602090811b620016f717901c565b50565b5490565b9055565b6117d180620002416000396000f3006080604052600436106100d45760003560e01c63ffffffff1680630803fac014610232578063206b60f91461025b5780632914b9bd1461028257806332f0a3b5146102f757806347e7ef241461030c57806348a0c8dd146103235780637e7db6e11461033857806380afdea8146103595780638129fc1c1461036e5780638b3dd749146103835780639d4941d814610398578063a1658fad146103b9578063a479e50814610420578063beabacc814610435578063d4aae0c41461045f578063de4796ed14610474578063e3d670d714610489575b6100dc6104aa565b60408051808201909152601481527f494e49545f4e4f545f494e495449414c495a4544000000000000000000000000602082015290151561019e5760405160e560020a62461bcd0281526004018080602001828103825283818151815260200191508051906020019080838360005b8381101561016357818101518382015260200161014b565b50505050905090810190601f1680156101905780820380516001836020036101000a031916815260200191505b509250505060405180910390fd5b5060408051808201909152601381527f5641554c545f444154415f4e4f4e5f5a45524f00000000000000000000000000602082015236156102245760405160e560020a62461bcd0281526004018080602001828103825283818151815260200191508051906020019080838360008381101561016357818101518382015260200161014b565b506102306000346104d3565b005b34801561023e57600080fd5b506102476104aa565b604080519115158252519081900360200190f35b34801561026757600080fd5b5061027061076f565b60408051918252519081900360200190f35b34801561028e57600080fd5b506040805160206004803580820135601f81018490048402850184019095528484526102db9436949293602493928401919081908401838280828437509497506107a49650505050505050565b60408051600160a060020a039092168252519081900360200190f35b34801561030357600080fd5b506102db610889565b610230600160a060020a03600435166024356108fe565b34801561032f57600080fd5b5061024761099b565b34801561034457600080fd5b50610247600160a060020a03600435166109cb565b34801561036557600080fd5b506102706109d1565b34801561037a57600080fd5b506102306109fc565b34801561038f57600080fd5b50610270610a9e565b3480156103a457600080fd5b50610230600160a060020a0360043516610ac9565b3480156103c557600080fd5b506040805160206004604435818101358381028086018501909652808552610247958335600160a060020a0316956024803596369695606495939492019291829185019084908082843750949750610d589650505050505050565b34801561042c57600080fd5b506102db610ea5565b34801561044157600080fd5b50610230600160a060020a0360043581169060243516604435610f8c565b34801561046b57600080fd5b506102db61129a565b34801561048057600080fd5b506102476112c5565b34801561049557600080fd5b50610270600160a060020a03600435166112d8565b6000806104b5610a9e565b905080158015906104cd5750806104ca611312565b10155b91505090565b6104db61099b565b60408051808201909152601581527f5641554c545f4e4f545f4445504f53495441424c45000000000000000000000060208201529015156105615760405160e560020a62461bcd0281526004018080602001828103825283818151815260200191508051906020019080838360008381101561016357818101518382015260200161014b565b5060408051808201909152601881527f5641554c545f4445504f5349545f56414c55455f5a45524f00000000000000006020820152600082116105e95760405160e560020a62461bcd0281526004018080602001828103825283818151815260200191508051906020019080838360008381101561016357818101518382015260200161014b565b50600160a060020a03821615156106865760408051808201909152601481527f5641554c545f56414c55455f4d49534d4154434800000000000000000000000060208201523482146106805760405160e560020a62461bcd0281526004018080602001828103825283818151815260200191508051906020019080838360008381101561016357818101518382015260200161014b565b5061072b565b6106a1600160a060020a03831633308463ffffffff61131616565b6040805190810160405280602081526020017f5641554c545f544f4b454e5f5452414e534645525f46524f4d5f5245564552548152509015156107295760405160e560020a62461bcd0281526004018080602001828103825283818151815260200191508051906020019080838360008381101561016357818101518382015260200161014b565b505b6040805182815290513391600160a060020a038516917f2790b90165fd3973ad7edde4eca71b4f8808dd4857a2a3a3e8ae5642a5cb196e9181900360200190a35050565b604080517f5452414e534645525f524f4c45000000000000000000000000000000000000008152905190819003600d01902081565b60006107ae610ea5565b600160a060020a03166304bf2a7f836040518263ffffffff1660e01b81526004018080602001828103825283818151815260200191508051906020019080838360005b838110156108095781810151838201526020016107f1565b50505050905090810190601f1680156108365780820380516001836020036101000a031916815260200191505b5092505050602060405180830381600087803b15801561085557600080fd5b505af1158015610869573d6000803e3d6000fd5b505050506040513d602081101561087f57600080fd5b505190505b919050565b600061089361129a565b600160a060020a03166332f0a3b56040518163ffffffff1660e01b8152600401602060405180830381600087803b1580156108cd57600080fd5b505af11580156108e1573d6000803e3d6000fd5b505050506040513d60208110156108f757600080fd5b5051905090565b6109066104aa565b60408051808201909152601481527f494e49545f4e4f545f494e495449414c495a4544000000000000000000000000602082015290151561098c5760405160e560020a62461bcd0281526004018080602001828103825283818151815260200191508051906020019080838360008381101561016357818101518382015260200161014b565b5061099782826104d3565b5050565b60006109c67f665fd576fbbe6f247aff98f5c94a561e3f71ec2d3c988d56f12d342396c50cea6113aa565b905090565b50600090565b60006109c67fd625496217aa6a3453eecb9c3489dc5a53e6c67b444329ea2b2cbc9ff547639b6113aa565b610a04610a9e565b60408051808201909152601881527f494e49545f414c52454144595f494e495449414c495a4544000000000000000060208201529015610a895760405160e560020a62461bcd0281526004018080602001828103825283818151815260200191508051906020019080838360008381101561016357818101518382015260200161014b565b50610a926113ae565b610a9c6001611474565b565b60006109c67febb05b386a8d34882b8711d156f463690983dc47815980fb82aeeff1aa43579e6113aa565b6000806000610ad7846109cb565b60408051808201909152601281527f5245434f5645525f444953414c4c4f57454400000000000000000000000000006020820152901515610b5d5760405160e560020a62461bcd0281526004018080602001828103825283818151815260200191508051906020019080838360008381101561016357818101518382015260200161014b565b50610b66610889565b9250610b71836114ab565b60408051808201909152601a81527f5245434f5645525f5641554c545f4e4f545f434f4e54524143540000000000006020820152901515610bf75760405160e560020a62461bcd0281526004018080602001828103825283818151815260200191508051906020019080838360008381101561016357818101518382015260200161014b565b50600160a060020a0384161515610c485760405130319250600160a060020a0384169083156108fc029084906000818181858888f19350505050158015610c42573d6000803e3d6000fd5b50610d07565b5082610c63600160a060020a0382163063ffffffff6114d816565b9150610c7f600160a060020a038216848463ffffffff6115ed16565b60408051808201909152601d81527f5245434f5645525f544f4b454e5f5452414e534645525f4641494c45440000006020820152901515610d055760405160e560020a62461bcd0281526004018080602001828103825283818151815260200191508051906020019080838360008381101561016357818101518382015260200161014b565b505b83600160a060020a031683600160a060020a03167f596caf56044b55fb8c4ca640089bbc2b63cae3e978b851f5745cbb7c5b288e02846040518082815260200191505060405180910390a350505050565b600080610d636104aa565b1515610d725760009150610e9d565b610d7a61129a565b9050600160a060020a0381161515610d955760009150610e9d565b80600160a060020a031663fdef9106863087610db088611678565b60405163ffffffff861660e01b8152600160a060020a03808616600483019081529085166024830152604482018490526080606483019081528351608484015283519192909160a490910190602085019080838360005b83811015610e1f578181015183820152602001610e07565b50505050905090810190601f168015610e4c5780820380516001836020036101000a031916815260200191505b5095505050505050602060405180830381600087803b158015610e6e57600080fd5b505af1158015610e82573d6000803e3d6000fd5b505050506040513d6020811015610e9857600080fd5b505191505b509392505050565b600080610eb061129a565b604080517fbe00bbd80000000000000000000000000000000000000000000000000000000081527fd6f028ca0e8edb4a8c9757ca4fdccab25fa1e0317da1188108f7d2dee14902fb60048201527fddbcfd564f642ab5627cf68b9b7d374fb4f8a36e941a75d89c87998cef03bd6160248201529051600160a060020a03929092169163be00bbd8916044808201926020929091908290030181600087803b158015610f5a57600080fd5b505af1158015610f6e573d6000803e3d6000fd5b505050506040513d6020811015610f8457600080fd5b505192915050565b604080517f5452414e534645525f524f4c45000000000000000000000000000000000000008152905190819003600d019020610fc9848484611682565b610fd4338383610d58565b60408051808201909152600f81527f4150505f415554485f4641494c45440000000000000000000000000000000000602082015290151561105a5760405160e560020a62461bcd0281526004018080602001828103825283818151815260200191508051906020019080838360008381101561016357818101518382015260200161014b565b5060408051808201909152601981527f5641554c545f5452414e534645525f56414c55455f5a45524f000000000000006020820152600084116110e25760405160e560020a62461bcd0281526004018080602001828103825283818151815260200191508051906020019080838360008381101561016357818101518382015260200161014b565b50600160a060020a03851615156111a657604051600160a060020a0385169084156108fc029085906000818181858888f193505050506040805190810160405280601381526020017f5641554c545f53454e445f5245564552544544000000000000000000000000008152509015156111a05760405160e560020a62461bcd0281526004018080602001828103825283818151815260200191508051906020019080838360008381101561016357818101518382015260200161014b565b50611248565b6111c0600160a060020a038616858563ffffffff6115ed16565b60408051808201909152601d81527f5641554c545f544f4b454e5f5452414e534645525f524556455254454400000060208201529015156112465760405160e560020a62461bcd0281526004018080602001828103825283818151815260200191508051906020019080838360008381101561016357818101518382015260200161014b565b505b83600160a060020a031685600160a060020a03167f239e7f6cdac8fb35a788a46b431b54da87de90b82448a2c294be5e92a6e579af856040518082815260200191505060405180910390a35050505050565b60006109c67f4172f0f7d2289153072b0a6ca36959e0cbe2efc3afe50fc81636caa96338137b6113aa565b60006000196112d2610a9e565b14905090565b6000600160a060020a03821615156112f257503031610884565b61130b600160a060020a0383163063ffffffff6114d816565b9050610884565b4390565b60408051600160a060020a0385811660248301528416604482015260648082018490528251808303909101815260849091019091526020810180517bffffffffffffffffffffffffffffffffffffffffffffffffffffffff167f23b872dd000000000000000000000000000000000000000000000000000000001790526000906113a086826116a9565b9695505050505050565b5490565b6113b6610a9e565b60408051808201909152601881527f494e49545f414c52454144595f494e495449414c495a454400000000000000006020820152901561143b5760405160e560020a62461bcd0281526004018080602001828103825283818151815260200191508051906020019080838360008381101561016357818101518382015260200161014b565b50610a9c611447611312565b7febb05b386a8d34882b8711d156f463690983dc47815980fb82aeeff1aa43579e9063ffffffff6116f716565b6114a47f665fd576fbbe6f247aff98f5c94a561e3f71ec2d3c988d56f12d342396c50cea8263ffffffff6116f716565b50565b5490565b600080600160a060020a03831615156114c757600091506114d2565b823b90506000811191505b50919050565b60408051600160a060020a0383166024808301919091528251808303909101815260449091019091526020810180517bffffffffffffffffffffffffffffffffffffffffffffffffffffffff167f70a0823100000000000000000000000000000000000000000000000000000000179052600090818061155886846116fb565b60408051808201909152601c81527f534146455f4552435f32305f42414c414e43455f524556455254454400000000602082015291935091508215156115e35760405160e560020a62461bcd0281526004018080602001828103825283818151815260200191508051906020019080838360008381101561016357818101518382015260200161014b565b5095945050505050565b60408051600160a060020a038416602482015260448082018490528251808303909101815260649091019091526020810180517bffffffffffffffffffffffffffffffffffffffffffffffffffffffff167fa9059cbb0000000000000000000000000000000000000000000000000000000017905260009061166f85826116a9565b95945050505050565b8051602002815290565b60606116a184600160a060020a031684600160a060020a03168461172c565b949350505050565b6000806040516020818551602087016000895af160008111156116ed573d80156116da57602081146116e3576116eb565b600193506116eb565b600183511493505b505b5090949350505050565b9055565b6000806000806040516020818751602089018a5afa9250600083111561172057805191505b50909590945092505050565b604080516003808252608082019092526060916020820183803883390190505090508381600081518110151561175e57fe5b60209081029091010152805183908290600190811061177957fe5b60209081029091010152805182908290600290811061179457fe5b6020908102909101015293925050505600a165627a7a723058200a9eb76e6965f1d95284560a570d2be5eb04012f9be8e23c190343bc89daffb60029ebb05b386a8d34882b8711d156f463690983dc47815980fb82aeeff1aa43579e",
  "linkReferences": {},
  "deployedLinkReferences": {}
}