{
  "_format": "hh-sol-artifact-1",
  "contractName": "WithdrawalVault",
  "sourceName": "contracts/0.8.9/WithdrawalVault.sol",
  "abi": [
    {
      "inputs": [
        {
          "internalType": "contract ICatalist",
          "name": "_catalist",
          "type": "address"
        },
        {
          "internalType": "address",
          "name": "_treasury",
          "type": "address"
        }
      ],
      "stateMutability": "nonpayable",
      "type": "constructor"
    },
    {
      "inputs": [],
      "name": "CatalistZeroAddress",
      "type": "error"
    },
    {
      "inputs": [],
      "name": "InvalidContractVersionIncrement",
      "type": "error"
    },
    {
      "inputs": [],
      "name": "NonZeroContractVersionOnInit",
      "type": "error"
    },
    {
      "inputs": [],
      "name": "NotCatalist",
      "type": "error"
    },
    {
      "inputs": [
        {
          "internalType": "uint256",
          "name": "requested",
          "type": "uint256"
        },
        {
          "internalType": "uint256",
          "name": "balance",
          "type": "uint256"
        }
      ],
      "name": "NotEnoughAce",
      "type": "error"
    },
    {
      "inputs": [],
      "name": "TreasuryZeroAddress",
      "type": "error"
    },
    {
      "inputs": [
        {
          "internalType": "uint256",
          "name": "expected",
          "type": "uint256"
        },
        {
          "internalType": "uint256",
          "name": "received",
          "type": "uint256"
        }
      ],
      "name": "UnexpectedContractVersion",
      "type": "error"
    },
    {
      "inputs": [],
      "name": "ZeroAmount",
      "type": "error"
    },
    {
      "anonymous": false,
      "inputs": [
        {
          "indexed": false,
          "internalType": "uint256",
          "name": "version",
          "type": "uint256"
        }
      ],
      "name": "ContractVersionSet",
      "type": "event"
    },
    {
      "anonymous": false,
      "inputs": [
        {
          "indexed": true,
          "internalType": "address",
          "name": "requestedBy",
          "type": "address"
        },
        {
          "indexed": true,
          "internalType": "address",
          "name": "token",
          "type": "address"
        },
        {
          "indexed": false,
          "internalType": "uint256",
          "name": "amount",
          "type": "uint256"
        }
      ],
      "name": "ERC20Recovered",
      "type": "event"
    },
    {
      "anonymous": false,
      "inputs": [
        {
          "indexed": true,
          "internalType": "address",
          "name": "requestedBy",
          "type": "address"
        },
        {
          "indexed": true,
          "internalType": "address",
          "name": "token",
          "type": "address"
        },
        {
          "indexed": false,
          "internalType": "uint256",
          "name": "tokenId",
          "type": "uint256"
        }
      ],
      "name": "ERC721Recovered",
      "type": "event"
    },
    {
      "inputs": [],
      "name": "CATALIST",
      "outputs": [
        {
          "internalType": "contract ICatalist",
          "name": "",
          "type": "address"
        }
      ],
      "stateMutability": "view",
      "type": "function"
    },
    {
      "inputs": [],
      "name": "TREASURY",
      "outputs": [
        {
          "internalType": "address",
          "name": "",
          "type": "address"
        }
      ],
      "stateMutability": "view",
      "type": "function"
    },
    {
      "inputs": [],
      "name": "getContractVersion",
      "outputs": [
        {
          "internalType": "uint256",
          "name": "",
          "type": "uint256"
        }
      ],
      "stateMutability": "view",
      "type": "function"
    },
    {
      "inputs": [],
      "name": "initialize",
      "outputs": [],
      "stateMutability": "nonpayable",
      "type": "function"
    },
    {
      "inputs": [
        {
          "internalType": "contract IERC20",
          "name": "_token",
          "type": "address"
        },
        {
          "internalType": "uint256",
          "name": "_amount",
          "type": "uint256"
        }
      ],
      "name": "recoverERC20",
      "outputs": [],
      "stateMutability": "nonpayable",
      "type": "function"
    },
    {
      "inputs": [
        {
          "internalType": "contract IERC721",
          "name": "_token",
          "type": "address"
        },
        {
          "internalType": "uint256",
          "name": "_tokenId",
          "type": "uint256"
        }
      ],
      "name": "recoverERC721",
      "outputs": [],
      "stateMutability": "nonpayable",
      "type": "function"
    },
    {
      "inputs": [
        {
          "internalType": "uint256",
          "name": "_amount",
          "type": "uint256"
        }
      ],
      "name": "withdrawWithdrawals",
      "outputs": [],
      "stateMutability": "nonpayable",
      "type": "function"
    }
  ],
  "bytecode": "0x60c060405234801561001057600080fd5b506040516109bf3803806109bf83398101604081905261002f916100e9565b6100686000197ff812f8d799ea071b4ecf0f6612f1129571268aad3c9d7f3535c25db1f88757726100cd60201b6103f31790919060201c565b6001600160a01b03821661008f57604051636656c04160e11b815260040160405180910390fd5b6001600160a01b0381166100b65760405163b1ad813960e01b815260040160405180910390fd5b6001600160a01b039182166080521660a052610123565b9055565b6001600160a01b03811681146100e657600080fd5b50565b600080604083850312156100fc57600080fd5b8251610107816100d1565b6020840151909250610118816100d1565b809150509250929050565b60805160a05161085c610163600039600081816087015281816102bf015261039b0152600081816101240152818161015101526101e0015261085c6000f3fe608060405234801561001057600080fd5b506004361061007d5760003560e01c8063819d4cc61161005b578063819d4cc6146100e35780638980f11f146100f65780638aa1043514610109578063bfb326091461011f57600080fd5b80632d2c5565146100825780633194528a146100c65780638129fc1c146100db575b600080fd5b6100a97f000000000000000000000000000000000000000000000000000000000000000081565b6040516001600160a01b0390911681526020015b60405180910390f35b6100d96100d436600461072b565b610146565b005b6100d9610256565b6100d96100f1366004610759565b610262565b6100d9610104366004610759565b61032e565b6101116103c4565b6040519081526020016100bd565b6100a97f000000000000000000000000000000000000000000000000000000000000000081565b336001600160a01b037f0000000000000000000000000000000000000000000000000000000000000000161461018f576040516318952fc760e31b815260040160405180910390fd5b806101ad57604051631f2a200560e01b815260040160405180910390fd5b47808211156101de576040516326fb332b60e11b815260048101839052602481018290526044015b60405180910390fd5b7f00000000000000000000000000000000000000000000000000000000000000006001600160a01b03166378ffcfe2836040518263ffffffff1660e01b81526004016000604051808303818588803b15801561023957600080fd5b505af115801561024d573d6000803e3d6000fd5b50505050505050565b61026060016103f7565b565b6040518181526001600160a01b0383169033907f6a30e6784464f0d1f4158aa4cb65ae9239b0fa87c7f2c083ee6dde44ba97b5e69060200160405180910390a36040516323b872dd60e01b81523060048201526001600160a01b037f000000000000000000000000000000000000000000000000000000000000000081166024830152604482018390528316906323b872dd90606401600060405180830381600087803b15801561031257600080fd5b505af1158015610326573d6000803e3d6000fd5b505050505050565b8061034c57604051631f2a200560e01b815260040160405180910390fd5b6040518181526001600160a01b0383169033907faca8fb252cde442184e5f10e0f2e6e4029e8cd7717cae63559079610702436aa9060200160405180910390a36103c06001600160a01b0383167f000000000000000000000000000000000000000000000000000000000000000083610429565b5050565b60006103ee7ff812f8d799ea071b4ecf0f6612f1129571268aad3c9d7f3535c25db1f88757725490565b905090565b9055565b6103ff6103c4565b1561041d5760405163184e52a160e21b815260040160405180910390fd5b61042681610480565b50565b604080516001600160a01b038416602482015260448082018490528251808303909101815260649091019091526020810180516001600160e01b031663a9059cbb60e01b17905261047b9084906104df565b505050565b6104a97ff812f8d799ea071b4ecf0f6612f1129571268aad3c9d7f3535c25db1f8875772829055565b6040518181527ffddcded6b4f4730c226821172046b48372d3cd963c159701ae1b7c3bcac541bb9060200160405180910390a150565b6000610534826040518060400160405280602081526020017f5361666545524332303a206c6f772d6c6576656c2063616c6c206661696c6564815250856001600160a01b03166105b19092919063ffffffff16565b80519091501561047b57808060200190518101906105529190610785565b61047b5760405162461bcd60e51b815260206004820152602a60248201527f5361666545524332303a204552433230206f7065726174696f6e20646964206e6044820152691bdd081cdd58d8d9595960b21b60648201526084016101d5565b60606105c084846000856105ca565b90505b9392505050565b60608247101561062b5760405162461bcd60e51b815260206004820152602660248201527f416464726573733a20696e73756666696369656e742062616c616e636520666f6044820152651c8818d85b1b60d21b60648201526084016101d5565b843b6106795760405162461bcd60e51b815260206004820152601d60248201527f416464726573733a2063616c6c20746f206e6f6e2d636f6e747261637400000060448201526064016101d5565b600080866001600160a01b0316858760405161069591906107d7565b60006040518083038185875af1925050503d80600081146106d2576040519150601f19603f3d011682016040523d82523d6000602084013e6106d7565b606091505b50915091506106e78282866106f2565b979650505050505050565b606083156107015750816105c3565b8251156107115782518084602001fd5b8160405162461bcd60e51b81526004016101d591906107f3565b60006020828403121561073d57600080fd5b5035919050565b6001600160a01b038116811461042657600080fd5b6000806040838503121561076c57600080fd5b823561077781610744565b946020939093013593505050565b60006020828403121561079757600080fd5b815180151581146105c357600080fd5b60005b838110156107c25781810151838201526020016107aa565b838111156107d1576000848401525b50505050565b600082516107e98184602087016107a7565b9190910192915050565b60208152600082518060208401526108128160408501602087016107a7565b601f01601f1916919091016040019291505056fea2646970667358221220324a6db9d5abe21e62c30eb6a9bc099353630a3463daf6b399d4069b74ce87cb64736f6c63430008090033",
  "linkReferences": {},
  "deployedLinkReferences": {}
}