{
  "_format": "hh-sol-artifact-1",
  "contractName": "Burner",
  "sourceName": "contracts/0.8.9/Burner.sol",
  "abi": [
    {
      "inputs": [
        {
          "internalType": "address",
          "name": "_admin",
          "type": "address"
        },
        {
          "internalType": "address",
          "name": "_treasury",
          "type": "address"
        },
        {
          "internalType": "address",
          "name": "_bACE",
          "type": "address"
        },
        {
          "internalType": "uint256",
          "name": "_totalCoverSharesBurnt",
          "type": "uint256"
        },
        {
          "internalType": "uint256",
          "name": "_totalNonCoverSharesBurnt",
          "type": "uint256"
        }
      ],
      "stateMutability": "nonpayable",
      "type": "constructor"
    },
    {
      "inputs": [],
      "name": "AppAuthCatalistFailed",
      "type": "error"
    },
    {
      "inputs": [],
      "name": "BACERecoveryWrongFunc",
      "type": "error"
    },
    {
      "inputs": [
        {
          "internalType": "uint256",
          "name": "requestedAmount",
          "type": "uint256"
        },
        {
          "internalType": "uint256",
          "name": "actualAmount",
          "type": "uint256"
        }
      ],
      "name": "BurnAmountExceedsActual",
      "type": "error"
    },
    {
      "inputs": [],
      "name": "DirectACETransfer",
      "type": "error"
    },
    {
      "inputs": [
        {
          "internalType": "string",
          "name": "field",
          "type": "string"
        }
      ],
      "name": "ZeroAddress",
      "type": "error"
    },
    {
      "inputs": [],
      "name": "ZeroBurnAmount",
      "type": "error"
    },
    {
      "inputs": [],
      "name": "ZeroRecoveryAmount",
      "type": "error"
    },
    {
      "anonymous": false,
      "inputs": [
        {
          "indexed": true,
          "internalType": "bool",
          "name": "isCover",
          "type": "bool"
        },
        {
          "indexed": true,
          "internalType": "address",
          "name": "requestedBy",
          "type": "address"
        },
        {
          "indexed": false,
          "internalType": "uint256",
          "name": "amountOfBACE",
          "type": "uint256"
        },
        {
          "indexed": false,
          "internalType": "uint256",
          "name": "amountOfShares",
          "type": "uint256"
        }
      ],
      "name": "BACEBurnRequested",
      "type": "event"
    },
    {
      "anonymous": false,
      "inputs": [
        {
          "indexed": true,
          "internalType": "bool",
          "name": "isCover",
          "type": "bool"
        },
        {
          "indexed": false,
          "internalType": "uint256",
          "name": "amountOfBACE",
          "type": "uint256"
        },
        {
          "indexed": false,
          "internalType": "uint256",
          "name": "amountOfShares",
          "type": "uint256"
        }
      ],
      "name": "BACEBurnt",
      "type": "event"
    },
    {
      "anonymous": false,
      "inputs": [
        {
          "indexed": true,
          "internalType": "address",
          "name": "requestedBy",
          "type": "address"
        },
        {
          "indexed": true,
          "internalType": "address",
          "name": "token",
          "type": "address"
        },
        {
          "indexed": false,
          "internalType": "uint256",
          "name": "amount",
          "type": "uint256"
        }
      ],
      "name": "ERC20Recovered",
      "type": "event"
    },
    {
      "anonymous": false,
      "inputs": [
        {
          "indexed": true,
          "internalType": "address",
          "name": "requestedBy",
          "type": "address"
        },
        {
          "indexed": true,
          "internalType": "address",
          "name": "token",
          "type": "address"
        },
        {
          "indexed": false,
          "internalType": "uint256",
          "name": "tokenId",
          "type": "uint256"
        }
      ],
      "name": "ERC721Recovered",
      "type": "event"
    },
    {
      "anonymous": false,
      "inputs": [
        {
          "indexed": true,
          "internalType": "address",
          "name": "requestedBy",
          "type": "address"
        },
        {
          "indexed": false,
          "internalType": "uint256",
          "name": "amountOfBACE",
          "type": "uint256"
        },
        {
          "indexed": false,
          "internalType": "uint256",
          "name": "amountOfShares",
          "type": "uint256"
        }
      ],
      "name": "ExcessBACERecovered",
      "type": "event"
    },
    {
      "anonymous": false,
      "inputs": [
        {
          "indexed": true,
          "internalType": "bytes32",
          "name": "role",
          "type": "bytes32"
        },
        {
          "indexed": true,
          "internalType": "bytes32",
          "name": "previousAdminRole",
          "type": "bytes32"
        },
        {
          "indexed": true,
          "internalType": "bytes32",
          "name": "newAdminRole",
          "type": "bytes32"
        }
      ],
      "name": "RoleAdminChanged",
      "type": "event"
    },
    {
      "anonymous": false,
      "inputs": [
        {
          "indexed": true,
          "internalType": "bytes32",
          "name": "role",
          "type": "bytes32"
        },
        {
          "indexed": true,
          "internalType": "address",
          "name": "account",
          "type": "address"
        },
        {
          "indexed": true,
          "internalType": "address",
          "name": "sender",
          "type": "address"
        }
      ],
      "name": "RoleGranted",
      "type": "event"
    },
    {
      "anonymous": false,
      "inputs": [
        {
          "indexed": true,
          "internalType": "bytes32",
          "name": "role",
          "type": "bytes32"
        },
        {
          "indexed": true,
          "internalType": "address",
          "name": "account",
          "type": "address"
        },
        {
          "indexed": true,
          "internalType": "address",
          "name": "sender",
          "type": "address"
        }
      ],
      "name": "RoleRevoked",
      "type": "event"
    },
    {
      "inputs": [],
      "name": "BACE",
      "outputs": [
        {
          "internalType": "address",
          "name": "",
          "type": "address"
        }
      ],
      "stateMutability": "view",
      "type": "function"
    },
    {
      "inputs": [],
      "name": "DEFAULT_ADMIN_ROLE",
      "outputs": [
        {
          "internalType": "bytes32",
          "name": "",
          "type": "bytes32"
        }
      ],
      "stateMutability": "view",
      "type": "function"
    },
    {
      "inputs": [],
      "name": "REQUEST_BURN_MY_BACE_ROLE",
      "outputs": [
        {
          "internalType": "bytes32",
          "name": "",
          "type": "bytes32"
        }
      ],
      "stateMutability": "view",
      "type": "function"
    },
    {
      "inputs": [],
      "name": "REQUEST_BURN_SHARES_ROLE",
      "outputs": [
        {
          "internalType": "bytes32",
          "name": "",
          "type": "bytes32"
        }
      ],
      "stateMutability": "view",
      "type": "function"
    },
    {
      "inputs": [],
      "name": "TREASURY",
      "outputs": [
        {
          "internalType": "address",
          "name": "",
          "type": "address"
        }
      ],
      "stateMutability": "view",
      "type": "function"
    },
    {
      "inputs": [
        {
          "internalType": "uint256",
          "name": "_sharesToBurn",
          "type": "uint256"
        }
      ],
      "name": "commitSharesToBurn",
      "outputs": [],
      "stateMutability": "nonpayable",
      "type": "function"
    },
    {
      "inputs": [],
      "name": "getCoverSharesBurnt",
      "outputs": [
        {
          "internalType": "uint256",
          "name": "",
          "type": "uint256"
        }
      ],
      "stateMutability": "view",
      "type": "function"
    },
    {
      "inputs": [],
      "name": "getExcessBACE",
      "outputs": [
        {
          "internalType": "uint256",
          "name": "",
          "type": "uint256"
        }
      ],
      "stateMutability": "view",
      "type": "function"
    },
    {
      "inputs": [],
      "name": "getNonCoverSharesBurnt",
      "outputs": [
        {
          "internalType": "uint256",
          "name": "",
          "type": "uint256"
        }
      ],
      "stateMutability": "view",
      "type": "function"
    },
    {
      "inputs": [
        {
          "internalType": "bytes32",
          "name": "role",
          "type": "bytes32"
        }
      ],
      "name": "getRoleAdmin",
      "outputs": [
        {
          "internalType": "bytes32",
          "name": "",
          "type": "bytes32"
        }
      ],
      "stateMutability": "view",
      "type": "function"
    },
    {
      "inputs": [
        {
          "internalType": "bytes32",
          "name": "role",
          "type": "bytes32"
        },
        {
          "internalType": "uint256",
          "name": "index",
          "type": "uint256"
        }
      ],
      "name": "getRoleMember",
      "outputs": [
        {
          "internalType": "address",
          "name": "",
          "type": "address"
        }
      ],
      "stateMutability": "view",
      "type": "function"
    },
    {
      "inputs": [
        {
          "internalType": "bytes32",
          "name": "role",
          "type": "bytes32"
        }
      ],
      "name": "getRoleMemberCount",
      "outputs": [
        {
          "internalType": "uint256",
          "name": "",
          "type": "uint256"
        }
      ],
      "stateMutability": "view",
      "type": "function"
    },
    {
      "inputs": [],
      "name": "getSharesRequestedToBurn",
      "outputs": [
        {
          "internalType": "uint256",
          "name": "coverShares",
          "type": "uint256"
        },
        {
          "internalType": "uint256",
          "name": "nonCoverShares",
          "type": "uint256"
        }
      ],
      "stateMutability": "view",
      "type": "function"
    },
    {
      "inputs": [
        {
          "internalType": "bytes32",
          "name": "role",
          "type": "bytes32"
        },
        {
          "internalType": "address",
          "name": "account",
          "type": "address"
        }
      ],
      "name": "grantRole",
      "outputs": [],
      "stateMutability": "nonpayable",
      "type": "function"
    },
    {
      "inputs": [
        {
          "internalType": "bytes32",
          "name": "role",
          "type": "bytes32"
        },
        {
          "internalType": "address",
          "name": "account",
          "type": "address"
        }
      ],
      "name": "hasRole",
      "outputs": [
        {
          "internalType": "bool",
          "name": "",
          "type": "bool"
        }
      ],
      "stateMutability": "view",
      "type": "function"
    },
    {
      "inputs": [
        {
          "internalType": "address",
          "name": "_token",
          "type": "address"
        },
        {
          "internalType": "uint256",
          "name": "_amount",
          "type": "uint256"
        }
      ],
      "name": "recoverERC20",
      "outputs": [],
      "stateMutability": "nonpayable",
      "type": "function"
    },
    {
      "inputs": [
        {
          "internalType": "address",
          "name": "_token",
          "type": "address"
        },
        {
          "internalType": "uint256",
          "name": "_tokenId",
          "type": "uint256"
        }
      ],
      "name": "recoverERC721",
      "outputs": [],
      "stateMutability": "nonpayable",
      "type": "function"
    },
    {
      "inputs": [],
      "name": "recoverExcessBACE",
      "outputs": [],
      "stateMutability": "nonpayable",
      "type": "function"
    },
    {
      "inputs": [
        {
          "internalType": "bytes32",
          "name": "role",
          "type": "bytes32"
        },
        {
          "internalType": "address",
          "name": "account",
          "type": "address"
        }
      ],
      "name": "renounceRole",
      "outputs": [],
      "stateMutability": "nonpayable",
      "type": "function"
    },
    {
      "inputs": [
        {
          "internalType": "uint256",
          "name": "_bACEAmountToBurn",
          "type": "uint256"
        }
      ],
      "name": "requestBurnMyBACE",
      "outputs": [],
      "stateMutability": "nonpayable",
      "type": "function"
    },
    {
      "inputs": [
        {
          "internalType": "uint256",
          "name": "_bACEAmountToBurn",
          "type": "uint256"
        }
      ],
      "name": "requestBurnMyBACEForCover",
      "outputs": [],
      "stateMutability": "nonpayable",
      "type": "function"
    },
    {
      "inputs": [
        {
          "internalType": "address",
          "name": "_from",
          "type": "address"
        },
        {
          "internalType": "uint256",
          "name": "_sharesAmountToBurn",
          "type": "uint256"
        }
      ],
      "name": "requestBurnShares",
      "outputs": [],
      "stateMutability": "nonpayable",
      "type": "function"
    },
    {
      "inputs": [
        {
          "internalType": "address",
          "name": "_from",
          "type": "address"
        },
        {
          "internalType": "uint256",
          "name": "_sharesAmountToBurn",
          "type": "uint256"
        }
      ],
      "name": "requestBurnSharesForCover",
      "outputs": [],
      "stateMutability": "nonpayable",
      "type": "function"
    },
    {
      "inputs": [
        {
          "internalType": "bytes32",
          "name": "role",
          "type": "bytes32"
        },
        {
          "internalType": "address",
          "name": "account",
          "type": "address"
        }
      ],
      "name": "revokeRole",
      "outputs": [],
      "stateMutability": "nonpayable",
      "type": "function"
    },
    {
      "inputs": [
        {
          "internalType": "bytes4",
          "name": "interfaceId",
          "type": "bytes4"
        }
      ],
      "name": "supportsInterface",
      "outputs": [
        {
          "internalType": "bool",
          "name": "",
          "type": "bool"
        }
      ],
      "stateMutability": "view",
      "type": "function"
    },
    {
      "stateMutability": "payable",
      "type": "receive"
    }
  ],
  "bytecode": "0x60c06040523480156200001157600080fd5b506040516200239c3803806200239c833981016040819052620000349162000300565b6001600160a01b0385166200007a5760405163eac0d38960e01b81526020600482015260066024820152652fb0b236b4b760d11b60448201526064015b60405180910390fd5b6001600160a01b038416620000bf5760405163eac0d38960e01b81526020600482015260096024820152685f747265617375727960b81b604482015260640162000071565b6001600160a01b038316620001005760405163eac0d38960e01b81526020600482015260056024820152645f6241434560d81b604482015260640162000071565b6200010d6000866200015e565b620001397f4be29e0e4eb91f98f709d98803cba271592782e293b84a625e025cbb40197ba8846200015e565b6001600160a01b0393841660a05291909216608052600291909155600355506200035d565b6200016a82826200016e565b5050565b620001858282620001cf60201b620012c31760201c565b620001ca817f8f8c450dae5029cd48cd91dd9db65da48fb742893edfc7941250f6721d93cbbe600085815260209182526040902091906200133962000271821b17901c565b505050565b60008281526000805160206200237c833981519152602090815260408083206001600160a01b038516845290915290205460ff166200016a5760008281526000805160206200237c833981519152602090815260408083206001600160a01b0385168085529252808320805460ff1916600117905551339285917f2f8788117e7eff1d82e926ec794901d17c78024a50270940304540a733656f0d9190a45050565b600062000288836001600160a01b03841662000291565b90505b92915050565b6000818152600183016020526040812054620002da575081546001818101845560008481526020808220909301849055845484825282860190935260409020919091556200028b565b5060006200028b565b80516001600160a01b0381168114620002fb57600080fd5b919050565b600080600080600060a086880312156200031957600080fd5b6200032486620002e3565b94506200033460208701620002e3565b93506200034460408701620002e3565b6060870151608090970151959894975095949392505050565b60805160a051611f7b620004016000396000818161024c01528181610a06015281816110d901526111f9015260008181610460015281816105780152818161061d015281816106d8015281816108650152818161092f01528181610a3501528181610af901528181610bd401528181610c7901528181610d1401528181610de001528181610f22015281816110220152818161115901526114b80152611f7b6000f3fe60806040526004361061016a5760003560e01c80635d2b0d4e116100d157806391d148541161008a578063ca15c87311610064578063ca15c87314610482578063cdf1c38c146104a2578063d03601f0146104d6578063d547741f146104eb57600080fd5b806391d1485414610419578063a217fddf14610439578063a9c1376c1461044e57600080fd5b80635d2b0d4e14610364578063636e6b66146103845780637763bca6146103a4578063819d4cc6146103b95780638980f11f146103d95780639010d07c146103f957600080fd5b80632f2ff15d116101235780632f2ff15d1461029b57806336568abe146102bb57806346114928146102db5780634b916793146102fb578063507b64ae14610310578063512374511461034457600080fd5b806301ffc9a71461018d57806310b8c137146101c2578063248a9ca3146101e45780632a369d1a146102125780632d2c55651461023a5780632e515a521461028657600080fd5b3661018857604051631bd2cff160e01b815260040160405180910390fd5b600080fd5b34801561019957600080fd5b506101ad6101a8366004611c0c565b61050b565b60405190151581526020015b60405180910390f35b3480156101ce57600080fd5b506101e26101dd366004611c36565b610536565b005b3480156101f057600080fd5b506102046101ff366004611c36565b6106b2565b6040519081526020016101b9565b34801561021e57600080fd5b50600054600154604080519283526020830191909152016101b9565b34801561024657600080fd5b5061026e7f000000000000000000000000000000000000000000000000000000000000000081565b6040516001600160a01b0390911681526020016101b9565b34801561029257600080fd5b506102046106d4565b3480156102a757600080fd5b506101e26102b6366004611c6b565b610780565b3480156102c757600080fd5b506101e26102d6366004611c6b565b61079d565b3480156102e757600080fd5b506101e26102f6366004611c97565b610820565b34801561030757600080fd5b506101e2610904565b34801561031c57600080fd5b506102047fdc4bdb80567b84ea2c336e21379e01ec184fcca80beae0a78b354737d0382a4e81565b34801561035057600080fd5b506101e261035f366004611c97565b610ab4565b34801561037057600080fd5b506101e261037f366004611c36565b610b92565b34801561039057600080fd5b506101e261039f366004611c36565b610d09565b3480156103b057600080fd5b50600354610204565b3480156103c557600080fd5b506101e26103d4366004611c97565b611020565b3480156103e557600080fd5b506101e26103f4366004611c97565b611139565b34801561040557600080fd5b5061026e610414366004611cc1565b61121e565b34801561042557600080fd5b506101ad610434366004611c6b565b61124a565b34801561044557600080fd5b50610204600081565b34801561045a57600080fd5b5061026e7f000000000000000000000000000000000000000000000000000000000000000081565b34801561048e57600080fd5b5061020461049d366004611c36565b611282565b3480156104ae57600080fd5b506102047f4be29e0e4eb91f98f709d98803cba271592782e293b84a625e025cbb40197ba881565b3480156104e257600080fd5b50600254610204565b3480156104f757600080fd5b506101e2610506366004611c6b565b6112a6565b60006001600160e01b03198216635a05180f60e01b148061053057506105308261134e565b92915050565b7fdc4bdb80567b84ea2c336e21379e01ec184fcca80beae0a78b354737d0382a4e6105618133611383565b6040516323b872dd60e01b81526001600160a01b037f000000000000000000000000000000000000000000000000000000000000000016906323b872dd906105b190339030908790600401611ce3565b602060405180830381600087803b1580156105cb57600080fd5b505af11580156105df573d6000803e3d6000fd5b505050506040513d601f19601f820116820180604052508101906106039190611d07565b50604051633103ec9560e11b8152600481018390526000907f00000000000000000000000000000000000000000000000000000000000000006001600160a01b031690636207d92a9060240160206040518083038186803b15801561066757600080fd5b505afa15801561067b573d6000803e3d6000fd5b505050506040513d601f19601f8201168201806040525081019061069f9190611d29565b90506106ad818460006113e7565b505050565b6000908152600080516020611f26833981519152602052604090206001015490565b60007f00000000000000000000000000000000000000000000000000000000000000006001600160a01b031663d577657861070d611482565b6040518263ffffffff1660e01b815260040161072b91815260200190565b60206040518083038186803b15801561074357600080fd5b505afa158015610757573d6000803e3d6000fd5b505050506040513d601f19601f8201168201806040525081019061077b9190611d29565b905090565b610789826106b2565b6107938133611383565b6106ad8383611555565b6001600160a01b03811633146108125760405162461bcd60e51b815260206004820152602f60248201527f416363657373436f6e74726f6c3a2063616e206f6e6c792072656e6f756e636560448201526e103937b632b9903337b91039b2b63360891b60648201526084015b60405180910390fd5b61081c8282611584565b5050565b7f4be29e0e4eb91f98f709d98803cba271592782e293b84a625e025cbb40197ba861084b8133611383565b604051636d78045960e01b81526000906001600160a01b037f00000000000000000000000000000000000000000000000000000000000000001690636d7804599061089e90879030908890600401611ce3565b602060405180830381600087803b1580156108b857600080fd5b505af11580156108cc573d6000803e3d6000fd5b505050506040513d601f19601f820116820180604052508101906108f09190611d29565b90506108fe838260006113e7565b50505050565b600061090e6106d4565b90508015610ab157604051633103ec9560e11b8152600481018290526000907f00000000000000000000000000000000000000000000000000000000000000006001600160a01b031690636207d92a9060240160206040518083038186803b15801561097957600080fd5b505afa15801561098d573d6000803e3d6000fd5b505050506040513d601f19601f820116820180604052508101906109b19190611d29565b604080518481526020810183905291925033917fd14101d038b72cc2b51b43c1f139f3120bdcf57e1ee20e98c63aba73b5695501910160405180910390a260405163a9059cbb60e01b81526001600160a01b037f000000000000000000000000000000000000000000000000000000000000000081166004830152602482018490527f0000000000000000000000000000000000000000000000000000000000000000169063a9059cbb90604401602060405180830381600087803b158015610a7957600080fd5b505af1158015610a8d573d6000803e3d6000fd5b505050506040513d601f19601f820116820180604052508101906106ad9190611d07565b50565b7f4be29e0e4eb91f98f709d98803cba271592782e293b84a625e025cbb40197ba8610adf8133611383565b604051636d78045960e01b81526000906001600160a01b037f00000000000000000000000000000000000000000000000000000000000000001690636d78045990610b3290879030908890600401611ce3565b602060405180830381600087803b158015610b4c57600080fd5b505af1158015610b60573d6000803e3d6000fd5b505050506040513d601f19601f82011682018060405250810190610b849190611d29565b90506108fe838260016113e7565b7fdc4bdb80567b84ea2c336e21379e01ec184fcca80beae0a78b354737d0382a4e610bbd8133611383565b6040516323b872dd60e01b81526001600160a01b037f000000000000000000000000000000000000000000000000000000000000000016906323b872dd90610c0d90339030908790600401611ce3565b602060405180830381600087803b158015610c2757600080fd5b505af1158015610c3b573d6000803e3d6000fd5b505050506040513d601f19601f82011682018060405250810190610c5f9190611d07565b50604051633103ec9560e11b8152600481018390526000907f00000000000000000000000000000000000000000000000000000000000000006001600160a01b031690636207d92a9060240160206040518083038186803b158015610cc357600080fd5b505afa158015610cd7573d6000803e3d6000fd5b505050506040513d601f19601f82011682018060405250810190610cfb9190611d29565b90506106ad818460016113e7565b336001600160a01b037f00000000000000000000000000000000000000000000000000000000000000001614610d52576040516319aa6cc160e11b815260040160405180910390fd5b80610d5a5750565b600080546001549091610d6d8284611d58565b905080841115610d9a5760405163feedbf2b60e01b81526004810185905260248101829052604401610809565b60008315610ec7576000610dae86866115b3565b90508060026000828254610dc29190611d58565b9091555050604051631aaeecaf60e31b8152600481018290526000907f00000000000000000000000000000000000000000000000000000000000000006001600160a01b03169063d57765789060240160206040518083038186803b158015610e2a57600080fd5b505afa158015610e3e573d6000803e3d6000fd5b505050506040513d601f19601f82011682018060405250810190610e629190611d29565b60408051828152602081018590529192506001917f7452872fb539062d8200e50edaa70e7bf7446e0455fc3695a7cb855f14e0d526910160405180910390a281600080828254610eb29190611d70565b90915550610ec290508284611d58565b925050505b600083118015610ed657508481105b1561100a576000610ef0610eea8388611d70565b856115b3565b90508060036000828254610f049190611d58565b9091555050604051631aaeecaf60e31b8152600481018290526000907f00000000000000000000000000000000000000000000000000000000000000006001600160a01b03169063d57765789060240160206040518083038186803b158015610f6c57600080fd5b505afa158015610f80573d6000803e3d6000fd5b505050506040513d601f19601f82011682018060405250810190610fa49190611d29565b60408051828152602081018590529192506000917f7452872fb539062d8200e50edaa70e7bf7446e0455fc3695a7cb855f14e0d526910160405180910390a28160016000828254610ff59190611d70565b9091555061100590508284611d58565b925050505b84811461101957611019611d87565b5050505050565b7f00000000000000000000000000000000000000000000000000000000000000006001600160a01b0316826001600160a01b0316141561107357604051639cfe323b60e01b815260040160405180910390fd5b6040518181526001600160a01b0383169033907f6a30e6784464f0d1f4158aa4cb65ae9239b0fa87c7f2c083ee6dde44ba97b5e69060200160405180910390a36040516323b872dd60e01b81526001600160a01b038316906323b872dd906111039030907f0000000000000000000000000000000000000000000000000000000000000000908690600401611ce3565b600060405180830381600087803b15801561111d57600080fd5b505af1158015611131573d6000803e3d6000fd5b505050505050565b80611157576040516313a3092d60e31b815260040160405180910390fd5b7f00000000000000000000000000000000000000000000000000000000000000006001600160a01b0316826001600160a01b031614156111aa57604051639cfe323b60e01b815260040160405180910390fd5b6040518181526001600160a01b0383169033907faca8fb252cde442184e5f10e0f2e6e4029e8cd7717cae63559079610702436aa9060200160405180910390a361081c6001600160a01b0383167f0000000000000000000000000000000000000000000000000000000000000000836115c9565b6000828152600080516020611f0683398151915260205260408120611243908361161b565b9392505050565b6000918252600080516020611f26833981519152602090815260408084206001600160a01b0393909316845291905290205460ff1690565b6000818152600080516020611f068339815191526020526040812061053090611627565b6112af826106b2565b6112b98133611383565b6106ad8383611584565b6112cd828261124a565b61081c576000828152600080516020611f26833981519152602090815260408083206001600160a01b0385168085529252808320805460ff1916600117905551339285917f2f8788117e7eff1d82e926ec794901d17c78024a50270940304540a733656f0d9190a45050565b6000611243836001600160a01b038416611631565b60006001600160e01b03198216637965db0b60e01b148061053057506301ffc9a760e01b6001600160e01b0319831614610530565b61138d828261124a565b61081c576113a5816001600160a01b03166014611680565b6113b0836020611680565b6040516020016113c1929190611dc9565b60408051601f198184030181529082905262461bcd60e51b825261080991600401611e3e565b82611405576040516325ee753160e21b815260040160405180910390fd5b60408051838152602081018590523391831515917f138514a3e686a43d0f3ffe46b2aa3eb86ad83370d9de7621760347071b94eb90910160405180910390a38015611466578260008082825461145b9190611d58565b909155506106ad9050565b82600160008282546114789190611d58565b9091555050505050565b6000806001546000546114959190611d58565b604051633d7ad0b760e21b81523060048201529091506000906001600160a01b037f0000000000000000000000000000000000000000000000000000000000000000169063f5eb42dc9060240160206040518083038186803b1580156114fa57600080fd5b505afa15801561150e573d6000803e3d6000fd5b505050506040513d601f19601f820116820180604052508101906115329190611d29565b90508181116115445760009250505090565b61154e8282611d70565b9250505090565b61155f82826112c3565b6000828152600080516020611f06833981519152602052604090206106ad9082611339565b61158e828261181c565b6000828152600080516020611f06833981519152602052604090206106ad9082611890565b60008183106115c25781611243565b5090919050565b604080516001600160a01b038416602482015260448082018490528251808303909101815260649091019091526020810180516001600160e01b031663a9059cbb60e01b1790526106ad9084906118a5565b60006112438383611977565b6000610530825490565b600081815260018301602052604081205461167857508154600181810184556000848152602080822090930184905584548482528286019093526040902091909155610530565b506000610530565b6060600061168f836002611e71565b61169a906002611d58565b67ffffffffffffffff8111156116b2576116b2611e90565b6040519080825280601f01601f1916602001820160405280156116dc576020820181803683370190505b509050600360fc1b816000815181106116f7576116f7611ea6565b60200101906001600160f81b031916908160001a905350600f60fb1b8160018151811061172657611726611ea6565b60200101906001600160f81b031916908160001a905350600061174a846002611e71565b611755906001611d58565b90505b60018111156117cd576f181899199a1a9b1b9c1cb0b131b232b360811b85600f166010811061178957611789611ea6565b1a60f81b82828151811061179f5761179f611ea6565b60200101906001600160f81b031916908160001a90535060049490941c936117c681611ebc565b9050611758565b5083156112435760405162461bcd60e51b815260206004820181905260248201527f537472696e67733a20686578206c656e67746820696e73756666696369656e746044820152606401610809565b611826828261124a565b1561081c576000828152600080516020611f26833981519152602090815260408083206001600160a01b0385168085529252808320805460ff1916905551339285917ff6391f5c32d9c69d2a47ea670b442974b53935d1edc7fd64eb21e047a839171b9190a45050565b6000611243836001600160a01b0384166119a1565b60006118fa826040518060400160405280602081526020017f5361666545524332303a206c6f772d6c6576656c2063616c6c206661696c6564815250856001600160a01b0316611a949092919063ffffffff16565b8051909150156106ad57808060200190518101906119189190611d07565b6106ad5760405162461bcd60e51b815260206004820152602a60248201527f5361666545524332303a204552433230206f7065726174696f6e20646964206e6044820152691bdd081cdd58d8d9595960b21b6064820152608401610809565b600082600001828154811061198e5761198e611ea6565b9060005260206000200154905092915050565b60008181526001830160205260408120548015611a8a5760006119c5600183611d70565b85549091506000906119d990600190611d70565b9050818114611a3e5760008660000182815481106119f9576119f9611ea6565b9060005260206000200154905080876000018481548110611a1c57611a1c611ea6565b6000918252602080832090910192909255918252600188019052604090208390555b8554869080611a4f57611a4f611ed3565b600190038181906000526020600020016000905590558560010160008681526020019081526020016000206000905560019350505050610530565b6000915050610530565b6060611aa38484600085611aab565b949350505050565b606082471015611b0c5760405162461bcd60e51b815260206004820152602660248201527f416464726573733a20696e73756666696369656e742062616c616e636520666f6044820152651c8818d85b1b60d21b6064820152608401610809565b843b611b5a5760405162461bcd60e51b815260206004820152601d60248201527f416464726573733a2063616c6c20746f206e6f6e2d636f6e74726163740000006044820152606401610809565b600080866001600160a01b03168587604051611b769190611ee9565b60006040518083038185875af1925050503d8060008114611bb3576040519150601f19603f3d011682016040523d82523d6000602084013e611bb8565b606091505b5091509150611bc8828286611bd3565b979650505050505050565b60608315611be2575081611243565b825115611bf25782518084602001fd5b8160405162461bcd60e51b81526004016108099190611e3e565b600060208284031215611c1e57600080fd5b81356001600160e01b03198116811461124357600080fd5b600060208284031215611c4857600080fd5b5035919050565b80356001600160a01b0381168114611c6657600080fd5b919050565b60008060408385031215611c7e57600080fd5b82359150611c8e60208401611c4f565b90509250929050565b60008060408385031215611caa57600080fd5b611cb383611c4f565b946020939093013593505050565b60008060408385031215611cd457600080fd5b50508035926020909101359150565b6001600160a01b039384168152919092166020820152604081019190915260600190565b600060208284031215611d1957600080fd5b8151801515811461124357600080fd5b600060208284031215611d3b57600080fd5b5051919050565b634e487b7160e01b600052601160045260246000fd5b60008219821115611d6b57611d6b611d42565b500190565b600082821015611d8257611d82611d42565b500390565b634e487b7160e01b600052600160045260246000fd5b60005b83811015611db8578181015183820152602001611da0565b838111156108fe5750506000910152565b7f416363657373436f6e74726f6c3a206163636f756e7420000000000000000000815260008351611e01816017850160208801611d9d565b7001034b99036b4b9b9b4b733903937b6329607d1b6017918401918201528351611e32816028840160208801611d9d565b01602801949350505050565b6020815260008251806020840152611e5d816040850160208701611d9d565b601f01601f19169190910160400192915050565b6000816000190483118215151615611e8b57611e8b611d42565b500290565b634e487b7160e01b600052604160045260246000fd5b634e487b7160e01b600052603260045260246000fd5b600081611ecb57611ecb611d42565b506000190190565b634e487b7160e01b600052603160045260246000fd5b60008251611efb818460208701611d9d565b919091019291505056fe8f8c450dae5029cd48cd91dd9db65da48fb742893edfc7941250f6721d93cbbe9a627a5d4aa7c17f87ff26e3fe9a42c2b6c559e8b41a42282d0ecebb17c0e4d3a2646970667358221220c770d3b68928cca533fa05548a648a61b3fa37ec4301ac8da8b3283dfd7d878864736f6c634300080900339a627a5d4aa7c17f87ff26e3fe9a42c2b6c559e8b41a42282d0ecebb17c0e4d3",
  "linkReferences": {},
  "deployedLinkReferences": {}
}