{
  "_format": "hh-sol-artifact-1",
  "contractName": "EVMScriptRunner",
  "sourceName": "@aragon/os/contracts/evmscript/EVMScriptRunner.sol",
  "abi": [
    {
      "constant": true,
      "inputs": [],
      "name": "hasInitialized",
      "outputs": [
        {
          "name": "",
          "type": "bool"
        }
      ],
      "payable": false,
      "stateMutability": "view",
      "type": "function"
    },
    {
      "constant": true,
      "inputs": [
        {
          "name": "_script",
          "type": "bytes"
        }
      ],
      "name": "getEVMScriptExecutor",
      "outputs": [
        {
          "name": "",
          "type": "address"
        }
      ],
      "payable": false,
      "stateMutability": "view",
      "type": "function"
    },
    {
      "constant": true,
      "inputs": [],
      "name": "appId",
      "outputs": [
        {
          "name": "",
          "type": "bytes32"
        }
      ],
      "payable": false,
      "stateMutability": "view",
      "type": "function"
    },
    {
      "constant": true,
      "inputs": [],
      "name": "getInitializationBlock",
      "outputs": [
        {
          "name": "",
          "type": "uint256"
        }
      ],
      "payable": false,
      "stateMutability": "view",
      "type": "function"
    },
    {
      "constant": true,
      "inputs": [],
      "name": "getEVMScriptRegistry",
      "outputs": [
        {
          "name": "",
          "type": "address"
        }
      ],
      "payable": false,
      "stateMutability": "view",
      "type": "function"
    },
    {
      "constant": true,
      "inputs": [],
      "name": "kernel",
      "outputs": [
        {
          "name": "",
          "type": "address"
        }
      ],
      "payable": false,
      "stateMutability": "view",
      "type": "function"
    },
    {
      "anonymous": false,
      "inputs": [
        {
          "indexed": true,
          "name": "executor",
          "type": "address"
        },
        {
          "indexed": false,
          "name": "script",
          "type": "bytes"
        },
        {
          "indexed": false,
          "name": "input",
          "type": "bytes"
        },
        {
          "indexed": false,
          "name": "returnData",
          "type": "bytes"
        }
      ],
      "name": "ScriptResult",
      "type": "event"
    }
  ],
  "bytecode": "0x608060405234801561001057600080fd5b50610406806100206000396000f30060806040526004361061005b5760003560e01c63ffffffff1680630803fac0146100605780632914b9bd1461008957806380afdea81461010b5780638b3dd74914610132578063a479e50814610147578063d4aae0c41461015c575b600080fd5b34801561006c57600080fd5b50610075610171565b604080519115158252519081900360200190f35b34801561009557600080fd5b506040805160206004803580820135601f81018490048402850184019095528484526100e294369492936024939284019190819084018382808284375094975061019a9650505050505050565b6040805173ffffffffffffffffffffffffffffffffffffffff9092168252519081900360200190f35b34801561011757600080fd5b5061012061028a565b60408051918252519081900360200190f35b34801561013e57600080fd5b506101206102ba565b34801561015357600080fd5b506100e26102e5565b34801561016857600080fd5b506100e26103a7565b60008061017c6102ba565b905080158015906101945750806101916103d2565b10155b91505090565b60006101a46102e5565b73ffffffffffffffffffffffffffffffffffffffff166304bf2a7f836040518263ffffffff1660e01b81526004018080602001828103825283818151815260200191508051906020019080838360005b8381101561020c5781810151838201526020016101f4565b50505050905090810190601f1680156102395780820380516001836020036101000a031916815260200191505b5092505050602060405180830381600087803b15801561025857600080fd5b505af115801561026c573d6000803e3d6000fd5b505050506040513d602081101561028257600080fd5b505192915050565b60006102b57fd625496217aa6a3453eecb9c3489dc5a53e6c67b444329ea2b2cbc9ff547639b6103d6565b905090565b60006102b57febb05b386a8d34882b8711d156f463690983dc47815980fb82aeeff1aa43579e6103d6565b6000806102f06103a7565b604080517fbe00bbd80000000000000000000000000000000000000000000000000000000081527fd6f028ca0e8edb4a8c9757ca4fdccab25fa1e0317da1188108f7d2dee14902fb60048201527fddbcfd564f642ab5627cf68b9b7d374fb4f8a36e941a75d89c87998cef03bd616024820152905173ffffffffffffffffffffffffffffffffffffffff929092169163be00bbd8916044808201926020929091908290030181600087803b15801561025857600080fd5b60006102b57f4172f0f7d2289153072b0a6ca36959e0cbe2efc3afe50fc81636caa96338137b6103d6565b4390565b54905600a165627a7a723058207928eefe6ac67d9f57016f43adf3de09743bbe039196764a1a24e34a70ef85d80029",
  "linkReferences": {},
  "deployedLinkReferences": {}
}