{
  "_format": "hh-sol-artifact-1",
  "contractName": "SignatureValidator",
  "sourceName": "@aragon/apps-agent/contracts/SignatureValidator.sol",
  "abi": [
    {
      "constant": true,
      "inputs": [],
      "name": "ERC1271_RETURN_VALID_SIGNATURE",
      "outputs": [
        {
          "name": "",
          "type": "bytes4"
        }
      ],
      "payable": false,
      "stateMutability": "view",
      "type": "function"
    }
  ],
  "bytecode": "0x60c961002f600b82828239805160001a6073146000811461001f57610021565bfe5b5030600052607381538281f300730000000000000000000000000000000000000000301460806040526004361060395760003560e01c63ffffffff1680639890cdca14603e575b600080fd5b60446079565b604080517fffffffff000000000000000000000000000000000000000000000000000000009092168252519081900360200190f35b7f20c13b0b00000000000000000000000000000000000000000000000000000000815600a165627a7a72305820f2d076f60c78500c0ddf999bc1b861f0d88ebf88ed1f71a2b815ee6bc02c8b6b0029",
  "linkReferences": {},
  "deployedLinkReferences": {}
}