{
  "_format": "hh-sol-artifact-1",
  "contractName": "AppProxyPinned",
  "sourceName": "@aragon/os/contracts/apps/AppProxyPinned.sol",
  "abi": [
    {
      "constant": true,
      "inputs": [],
      "name": "proxyType",
      "outputs": [
        {
          "name": "proxyTypeId",
          "type": "uint256"
        }
      ],
      "payable": false,
      "stateMutability": "pure",
      "type": "function"
    },
    {
      "constant": true,
      "inputs": [],
      "name": "isDepositable",
      "outputs": [
        {
          "name": "",
          "type": "bool"
        }
      ],
      "payable": false,
      "stateMutability": "view",
      "type": "function"
    },
    {
      "constant": true,
      "inputs": [],
      "name": "implementation",
      "outputs": [
        {
          "name": "",
          "type": "address"
        }
      ],
      "payable": false,
      "stateMutability": "view",
      "type": "function"
    },
    {
      "constant": true,
      "inputs": [],
      "name": "appId",
      "outputs": [
        {
          "name": "",
          "type": "bytes32"
        }
      ],
      "payable": false,
      "stateMutability": "view",
      "type": "function"
    },
    {
      "constant": true,
      "inputs": [],
      "name": "kernel",
      "outputs": [
        {
          "name": "",
          "type": "address"
        }
      ],
      "payable": false,
      "stateMutability": "view",
      "type": "function"
    },
    {
      "inputs": [
        {
          "name": "_kernel",
          "type": "address"
        },
        {
          "name": "_appId",
          "type": "bytes32"
        },
        {
          "name": "_initializePayload",
          "type": "bytes"
        }
      ],
      "payable": false,
      "stateMutability": "nonpayable",
      "type": "constructor"
    },
    {
      "payable": true,
      "stateMutability": "payable",
      "type": "fallback"
    },
    {
      "anonymous": false,
      "inputs": [
        {
          "indexed": false,
          "name": "sender",
          "type": "address"
        },
        {
          "indexed": false,
          "name": "value",
          "type": "uint256"
        }
      ],
      "name": "ProxyDeposit",
      "type": "event"
    }
  ],
  "bytecode": "0x608060405234801561001057600080fd5b506040516106cb3803806106cb83398101604090815281516020808401519284015191939190910190839083908390600090610051908590610165811b901c565b6100608361018b60201b60201c565b61006f836101c060201b60201c565b90506000825111156101155761008a8161028d60201b60201c565b151561009557600080fd5b80600160a060020a03168260405180828051906020019080838360005b838110156100ca5781810151838201526020016100b2565b50505050905090810190601f1680156100f75780820380516001836020036101000a031916815260200191505b50915050600060405180830381855af4915050151561011557600080fd5b5050505061013661012b836101c060201b60201c565b6102ba60201b60201c565b6101526101476102dd60201b60201c565b61028d60201b60201c565b151561015d57600080fd5b50505061033e565b61018860008051602061068b8339815191528261030c602090811b61030a17901c565b50565b6101887fd625496217aa6a3453eecb9c3489dc5a53e6c67b444329ea2b2cbc9ff547639b8261030c602090811b61030a17901c565b60006101d061031060201b60201c565b604080517fbe00bbd80000000000000000000000000000000000000000000000000000000081527ff1f3eb40f5bc1ad1344716ced8b8a0431d840b5783aea1fd01786bc26f35ac0f6004820152602481018590529051600160a060020a03929092169163be00bbd8916044808201926020929091908290030181600087803b15801561025b57600080fd5b505af115801561026f573d6000803e3d6000fd5b505050506040513d602081101561028557600080fd5b505192915050565b600080600160a060020a03831615156102a957600091506102b4565b823b90506000811191505b50919050565b6101886000805160206106ab8339815191528261030c602090811b61030a17901c565b60006103076000805160206106ab83398151915260001b6000191661033a60201b6103021760201c565b905090565b9055565b600061030760008051602061068b83398151915260001b6000191661033a60201b6103021760201c565b5490565b61033e8061034d6000396000f3006080604052600436106100505760003560e01c63ffffffff1680634555d5c91461010f57806348a0c8dd146101365780635c60da1b1461015f57806380afdea81461019d578063d4aae0c4146101b2575b6127107f665fd576fbbe6f247aff98f5c94a561e3f71ec2d3c988d56f12d342396c50cea6000825a10156100c55760003411361583541616156100c0576040513381523460208201527f15eeaa57c7bd188c1388020bcadc2c436ec60d647d36ef5b9eb3c742217ddee1604082a1005b600080fd5b6100cd6101c7565b905061010a816000368080601f016020809104026020016040519081016040528093929190818152602001838380828437506101d6945050505050565b505050005b34801561011b57600080fd5b50610124610217565b60408051918252519081900360200190f35b34801561014257600080fd5b5061014b61021c565b604080519115158252519081900360200190f35b34801561016b57600080fd5b506101746101c7565b6040805173ffffffffffffffffffffffffffffffffffffffff9092168252519081900360200190f35b3480156101a957600080fd5b50610124610247565b3480156101be57600080fd5b50610174610272565b60006101d161029d565b905090565b60006101e1836102c8565b15156101ec57600080fd5b612710905060008083516020850186855a03f43d604051816000823e828015610213578282f35b8282fd5b600190565b60006101d17f665fd576fbbe6f247aff98f5c94a561e3f71ec2d3c988d56f12d342396c50cea610302565b60006101d17fd625496217aa6a3453eecb9c3489dc5a53e6c67b444329ea2b2cbc9ff547639b610302565b60006101d17f4172f0f7d2289153072b0a6ca36959e0cbe2efc3afe50fc81636caa96338137b610302565b60006101d17fdee64df20d65e53d7f51cb6ab6d921a0a6a638a91e942e1d8d02df28e31c038e610302565b60008073ffffffffffffffffffffffffffffffffffffffff831615156102f157600091506102fc565b823b90506000811191505b50919050565b5490565b5490565b9055565b90555600a165627a7a7230582066039f53702494556ddb0724479babb75bb46e39aaf45f648059300454f79e0200294172f0f7d2289153072b0a6ca36959e0cbe2efc3afe50fc81636caa96338137bdee64df20d65e53d7f51cb6ab6d921a0a6a638a91e942e1d8d02df28e31c038e",
  "linkReferences": {},
  "deployedLinkReferences": {}
}