{
  "_format": "hh-sol-artifact-1",
  "contractName": "OracleDaemonConfig",
  "sourceName": "contracts/0.8.9/OracleDaemonConfig.sol",
  "abi": [
    {
      "inputs": [
        {
          "internalType": "address",
          "name": "_admin",
          "type": "address"
        },
        {
          "internalType": "address[]",
          "name": "_configManagers",
          "type": "address[]"
        }
      ],
      "stateMutability": "nonpayable",
      "type": "constructor"
    },
    {
      "inputs": [
        {
          "internalType": "string",
          "name": "key",
          "type": "string"
        }
      ],
      "name": "EmptyValue",
      "type": "error"
    },
    {
      "inputs": [
        {
          "internalType": "string",
          "name": "key",
          "type": "string"
        }
      ],
      "name": "ValueDoesntExist",
      "type": "error"
    },
    {
      "inputs": [
        {
          "internalType": "string",
          "name": "key",
          "type": "string"
        }
      ],
      "name": "ValueExists",
      "type": "error"
    },
    {
      "inputs": [
        {
          "internalType": "string",
          "name": "key",
          "type": "string"
        },
        {
          "internalType": "bytes",
          "name": "value",
          "type": "bytes"
        }
      ],
      "name": "ValueIsSame",
      "type": "error"
    },
    {
      "inputs": [],
      "name": "ZeroAddress",
      "type": "error"
    },
    {
      "anonymous": false,
      "inputs": [
        {
          "indexed": false,
          "internalType": "string",
          "name": "key",
          "type": "string"
        },
        {
          "indexed": false,
          "internalType": "bytes",
          "name": "value",
          "type": "bytes"
        }
      ],
      "name": "ConfigValueSet",
      "type": "event"
    },
    {
      "anonymous": false,
      "inputs": [
        {
          "indexed": false,
          "internalType": "string",
          "name": "key",
          "type": "string"
        }
      ],
      "name": "ConfigValueUnset",
      "type": "event"
    },
    {
      "anonymous": false,
      "inputs": [
        {
          "indexed": false,
          "internalType": "string",
          "name": "key",
          "type": "string"
        },
        {
          "indexed": false,
          "internalType": "bytes",
          "name": "value",
          "type": "bytes"
        }
      ],
      "name": "ConfigValueUpdated",
      "type": "event"
    },
    {
      "anonymous": false,
      "inputs": [
        {
          "indexed": true,
          "internalType": "bytes32",
          "name": "role",
          "type": "bytes32"
        },
        {
          "indexed": true,
          "internalType": "bytes32",
          "name": "previousAdminRole",
          "type": "bytes32"
        },
        {
          "indexed": true,
          "internalType": "bytes32",
          "name": "newAdminRole",
          "type": "bytes32"
        }
      ],
      "name": "RoleAdminChanged",
      "type": "event"
    },
    {
      "anonymous": false,
      "inputs": [
        {
          "indexed": true,
          "internalType": "bytes32",
          "name": "role",
          "type": "bytes32"
        },
        {
          "indexed": true,
          "internalType": "address",
          "name": "account",
          "type": "address"
        },
        {
          "indexed": true,
          "internalType": "address",
          "name": "sender",
          "type": "address"
        }
      ],
      "name": "RoleGranted",
      "type": "event"
    },
    {
      "anonymous": false,
      "inputs": [
        {
          "indexed": true,
          "internalType": "bytes32",
          "name": "role",
          "type": "bytes32"
        },
        {
          "indexed": true,
          "internalType": "address",
          "name": "account",
          "type": "address"
        },
        {
          "indexed": true,
          "internalType": "address",
          "name": "sender",
          "type": "address"
        }
      ],
      "name": "RoleRevoked",
      "type": "event"
    },
    {
      "inputs": [],
      "name": "CONFIG_MANAGER_ROLE",
      "outputs": [
        {
          "internalType": "bytes32",
          "name": "",
          "type": "bytes32"
        }
      ],
      "stateMutability": "view",
      "type": "function"
    },
    {
      "inputs": [],
      "name": "DEFAULT_ADMIN_ROLE",
      "outputs": [
        {
          "internalType": "bytes32",
          "name": "",
          "type": "bytes32"
        }
      ],
      "stateMutability": "view",
      "type": "function"
    },
    {
      "inputs": [
        {
          "internalType": "string",
          "name": "_key",
          "type": "string"
        }
      ],
      "name": "get",
      "outputs": [
        {
          "internalType": "bytes",
          "name": "",
          "type": "bytes"
        }
      ],
      "stateMutability": "view",
      "type": "function"
    },
    {
      "inputs": [
        {
          "internalType": "string[]",
          "name": "_keys",
          "type": "string[]"
        }
      ],
      "name": "getList",
      "outputs": [
        {
          "internalType": "bytes[]",
          "name": "",
          "type": "bytes[]"
        }
      ],
      "stateMutability": "view",
      "type": "function"
    },
    {
      "inputs": [
        {
          "internalType": "bytes32",
          "name": "role",
          "type": "bytes32"
        }
      ],
      "name": "getRoleAdmin",
      "outputs": [
        {
          "internalType": "bytes32",
          "name": "",
          "type": "bytes32"
        }
      ],
      "stateMutability": "view",
      "type": "function"
    },
    {
      "inputs": [
        {
          "internalType": "bytes32",
          "name": "role",
          "type": "bytes32"
        },
        {
          "internalType": "uint256",
          "name": "index",
          "type": "uint256"
        }
      ],
      "name": "getRoleMember",
      "outputs": [
        {
          "internalType": "address",
          "name": "",
          "type": "address"
        }
      ],
      "stateMutability": "view",
      "type": "function"
    },
    {
      "inputs": [
        {
          "internalType": "bytes32",
          "name": "role",
          "type": "bytes32"
        }
      ],
      "name": "getRoleMemberCount",
      "outputs": [
        {
          "internalType": "uint256",
          "name": "",
          "type": "uint256"
        }
      ],
      "stateMutability": "view",
      "type": "function"
    },
    {
      "inputs": [
        {
          "internalType": "bytes32",
          "name": "role",
          "type": "bytes32"
        },
        {
          "internalType": "address",
          "name": "account",
          "type": "address"
        }
      ],
      "name": "grantRole",
      "outputs": [],
      "stateMutability": "nonpayable",
      "type": "function"
    },
    {
      "inputs": [
        {
          "internalType": "bytes32",
          "name": "role",
          "type": "bytes32"
        },
        {
          "internalType": "address",
          "name": "account",
          "type": "address"
        }
      ],
      "name": "hasRole",
      "outputs": [
        {
          "internalType": "bool",
          "name": "",
          "type": "bool"
        }
      ],
      "stateMutability": "view",
      "type": "function"
    },
    {
      "inputs": [
        {
          "internalType": "bytes32",
          "name": "role",
          "type": "bytes32"
        },
        {
          "internalType": "address",
          "name": "account",
          "type": "address"
        }
      ],
      "name": "renounceRole",
      "outputs": [],
      "stateMutability": "nonpayable",
      "type": "function"
    },
    {
      "inputs": [
        {
          "internalType": "bytes32",
          "name": "role",
          "type": "bytes32"
        },
        {
          "internalType": "address",
          "name": "account",
          "type": "address"
        }
      ],
      "name": "revokeRole",
      "outputs": [],
      "stateMutability": "nonpayable",
      "type": "function"
    },
    {
      "inputs": [
        {
          "internalType": "string",
          "name": "_key",
          "type": "string"
        },
        {
          "internalType": "bytes",
          "name": "_value",
          "type": "bytes"
        }
      ],
      "name": "set",
      "outputs": [],
      "stateMutability": "nonpayable",
      "type": "function"
    },
    {
      "inputs": [
        {
          "internalType": "bytes4",
          "name": "interfaceId",
          "type": "bytes4"
        }
      ],
      "name": "supportsInterface",
      "outputs": [
        {
          "internalType": "bool",
          "name": "",
          "type": "bool"
        }
      ],
      "stateMutability": "view",
      "type": "function"
    },
    {
      "inputs": [
        {
          "internalType": "string",
          "name": "_key",
          "type": "string"
        }
      ],
      "name": "unset",
      "outputs": [],
      "stateMutability": "nonpayable",
      "type": "function"
    },
    {
      "inputs": [
        {
          "internalType": "string",
          "name": "_key",
          "type": "string"
        },
        {
          "internalType": "bytes",
          "name": "_value",
          "type": "bytes"
        }
      ],
      "name": "update",
      "outputs": [],
      "stateMutability": "nonpayable",
      "type": "function"
    }
  ],
  "bytecode": "0x60806040523480156200001157600080fd5b5060405162001a6838038062001a688339810160408190526200003491620002d0565b6001600160a01b0382166200005c5760405163d92e233d60e01b815260040160405180910390fd5b6200006960008362000127565b60005b81518110156200011e5760006001600160a01b0316828281518110620000965762000096620003b9565b60200260200101516001600160a01b03161415620000c75760405163d92e233d60e01b815260040160405180910390fd5b620001157fbbfb55d933c2bfa638763473275b1d84c4418e58d26cf9d2cd5758237756d9f0838381518110620001015762000101620003b9565b60200260200101516200012760201b60201c565b6001016200006c565b505050620003cf565b6200013e82826200018860201b62000a1f1760201c565b62000183817f8f8c450dae5029cd48cd91dd9db65da48fb742893edfc7941250f6721d93cbbe6000858152602091825260409020919062000a956200022b821b17901c565b505050565b600082815260008051602062001a48833981519152602090815260408083206001600160a01b038516845290915290205460ff166200022757600082815260008051602062001a48833981519152602090815260408083206001600160a01b0385168085529252808320805460ff1916600117905551339285917f2f8788117e7eff1d82e926ec794901d17c78024a50270940304540a733656f0d9190a45b5050565b600062000242836001600160a01b0384166200024b565b90505b92915050565b6000818152600183016020526040812054620002945750815460018181018455600084815260208082209093018490558454848252828601909352604090209190915562000245565b50600062000245565b80516001600160a01b0381168114620002b557600080fd5b919050565b634e487b7160e01b600052604160045260246000fd5b60008060408385031215620002e457600080fd5b620002ef836200029d565b602084810151919350906001600160401b03808211156200030f57600080fd5b818601915086601f8301126200032457600080fd5b815181811115620003395762000339620002ba565b8060051b604051601f19603f83011681018181108582111715620003615762000361620002ba565b6040529182528482019250838101850191898311156200038057600080fd5b938501935b82851015620003a95762000399856200029d565b8452938501939285019262000385565b8096505050505050509250929050565b634e487b7160e01b600052603260045260246000fd5b61166980620003df6000396000f3fe608060405234801561001057600080fd5b50600436106100f55760003560e01c80639010d07c11610097578063a217fddf11610066578063a217fddf14610224578063bb6e19721461022c578063ca15c8731461023f578063d547741f1461025257600080fd5b80639010d07c146101b157806391d14854146101dc578063a0c7f799146101ef578063a1e6f45d1461020457600080fd5b80632b29c0fa116100d35780632b29c0fa146101585780632f2ff15d1461016b57806336568abe1461017e578063693ec85e1461019157600080fd5b8063017bf9b4146100fa57806301ffc9a71461010f578063248a9ca314610137575b600080fd5b61010d610108366004611067565b610265565b005b61012261011d3660046110a9565b610341565b60405190151581526020015b60405180910390f35b61014a6101453660046110d3565b61036c565b60405190815260200161012e565b61010d6101663660046110ec565b61038e565b61010d610179366004611158565b61048d565b61010d61018c366004611158565b6104af565b6101a461019f366004611067565b61052d565b60405161012e91906111f0565b6101c46101bf366004611203565b610630565b6040516001600160a01b03909116815260200161012e565b6101226101ea366004611158565b61065c565b61014a6000805160206115d483398151915281565b610217610212366004611225565b610694565b60405161012e919061129a565b61014a600081565b61010d61023a3660046110ec565b61087e565b61014a61024d3660046110d3565b6109de565b61010d610260366004611158565b610a02565b6000805160206115d483398151915261027e8133610aaa565b600083836040516102909291906112fc565b908152602001604051809103902080546102a99061130c565b151590506102d757828260405163d102798d60e01b81526004016102ce929190611370565b60405180910390fd5b600083836040516102e99291906112fc565b908152602001604051809103902060006103039190610f48565b7f51058c913b42448a4a91c14d785efbd1d43cb2d051309714149b46602683b6878383604051610334929190611370565b60405180910390a1505050565b60006001600160e01b03198216635a05180f60e01b1480610366575061036682610b0e565b92915050565b6000908152600080516020611614833981519152602052604090206001015490565b6000805160206115d48339815191526103a78133610aaa565b60008086866040516103ba9291906112fc565b908152602001604051809103902080546103d39061130c565b905011156103f8578484604051630166a77d60e61b81526004016102ce929190611370565b8161041a578484604051632b8f831760e01b81526004016102ce929190611370565b82826000878760405161042e9291906112fc565b908152604051908190036020019020610448929091610f85565b507ff61a2f474b0f2f33c031ab3fef3d2a286ed33bdf5d3a0774416be647b0b3c3318585858560405161047e949392919061138c565b60405180910390a15050505050565b6104968261036c565b6104a08133610aaa565b6104aa8383610b43565b505050565b6001600160a01b038116331461051f5760405162461bcd60e51b815260206004820152602f60248201527f416363657373436f6e74726f6c3a2063616e206f6e6c792072656e6f756e636560448201526e103937b632b9903337b91039b2b63360891b60648201526084016102ce565b6105298282610b72565b5050565b6060600083836040516105419291906112fc565b9081526020016040518091039020805461055a9061130c565b1515905061057f57828260405163d102798d60e01b81526004016102ce929190611370565b600083836040516105919291906112fc565b908152602001604051809103902080546105aa9061130c565b80601f01602080910402602001604051908101604052809291908181526020018280546105d69061130c565b80156106235780601f106105f857610100808354040283529160200191610623565b820191906000526020600020905b81548152906001019060200180831161060657829003601f168201915b5050505050905092915050565b60008281526000805160206115f4833981519152602052604081206106559083610ba1565b9392505050565b6000918252600080516020611614833981519152602090815260408084206001600160a01b0393909316845291905290205460ff1690565b606060008267ffffffffffffffff8111156106b1576106b16113be565b6040519080825280602002602001820160405280156106e457816020015b60608152602001906001900390816106cf5790505b50905060005b83811015610876576000858583818110610706576107066113d4565b905060200281019061071891906113ea565b6040516107269291906112fc565b9081526020016040518091039020805461073f9061130c565b1515905061078657848482818110610759576107596113d4565b905060200281019061076b91906113ea565b60405163d102798d60e01b81526004016102ce929190611370565b600085858381811061079a5761079a6113d4565b90506020028101906107ac91906113ea565b6040516107ba9291906112fc565b908152602001604051809103902080546107d39061130c565b80601f01602080910402602001604051908101604052809291908181526020018280546107ff9061130c565b801561084c5780601f106108215761010080835404028352916020019161084c565b820191906000526020600020905b81548152906001019060200180831161082f57829003601f168201915b5050505050828281518110610863576108636113d4565b60209081029190910101526001016106ea565b509392505050565b6000805160206115d48339815191526108978133610aaa565b600085856040516108a99291906112fc565b908152602001604051809103902080546108c29061130c565b151590506108e757848460405163d102798d60e01b81526004016102ce929190611370565b81610909578484604051632b8f831760e01b81526004016102ce929190611370565b82826040516109199291906112fc565b6040518091039020600086866040516109339291906112fc565b90815260405190819003602001812061094b91611431565b6040518091039020141561097a57848484846040516331e0c31f60e11b81526004016102ce949392919061138c565b82826000878760405161098e9291906112fc565b9081526040519081900360200190206109a8929091610f85565b507fb095ed057610c63dba9ab6e5947cac0517b71f68ba2343310bfa26a3d11ad3e68585858560405161047e949392919061138c565b60008181526000805160206115f48339815191526020526040812061036690610bad565b610a0b8261036c565b610a158133610aaa565b6104aa8383610b72565b610a29828261065c565b610529576000828152600080516020611614833981519152602090815260408083206001600160a01b0385168085529252808320805460ff1916600117905551339285917f2f8788117e7eff1d82e926ec794901d17c78024a50270940304540a733656f0d9190a45050565b6000610655836001600160a01b038416610bb7565b610ab4828261065c565b61052957610acc816001600160a01b03166014610c06565b610ad7836020610c06565b604051602001610ae89291906114cd565b60408051601f198184030181529082905262461bcd60e51b82526102ce916004016111f0565b60006001600160e01b03198216637965db0b60e01b148061036657506301ffc9a760e01b6001600160e01b0319831614610366565b610b4d8282610a1f565b60008281526000805160206115f4833981519152602052604090206104aa9082610a95565b610b7c8282610da2565b60008281526000805160206115f4833981519152602052604090206104aa9082610e16565b60006106558383610e2b565b6000610366825490565b6000818152600183016020526040812054610bfe57508154600181810184556000848152602080822090930184905584548482528286019093526040902091909155610366565b506000610366565b60606000610c15836002611558565b610c20906002611577565b67ffffffffffffffff811115610c3857610c386113be565b6040519080825280601f01601f191660200182016040528015610c62576020820181803683370190505b509050600360fc1b81600081518110610c7d57610c7d6113d4565b60200101906001600160f81b031916908160001a905350600f60fb1b81600181518110610cac57610cac6113d4565b60200101906001600160f81b031916908160001a9053506000610cd0846002611558565b610cdb906001611577565b90505b6001811115610d53576f181899199a1a9b1b9c1cb0b131b232b360811b85600f1660108110610d0f57610d0f6113d4565b1a60f81b828281518110610d2557610d256113d4565b60200101906001600160f81b031916908160001a90535060049490941c93610d4c8161158f565b9050610cde565b5083156106555760405162461bcd60e51b815260206004820181905260248201527f537472696e67733a20686578206c656e67746820696e73756666696369656e7460448201526064016102ce565b610dac828261065c565b15610529576000828152600080516020611614833981519152602090815260408083206001600160a01b0385168085529252808320805460ff1916905551339285917ff6391f5c32d9c69d2a47ea670b442974b53935d1edc7fd64eb21e047a839171b9190a45050565b6000610655836001600160a01b038416610e55565b6000826000018281548110610e4257610e426113d4565b9060005260206000200154905092915050565b60008181526001830160205260408120548015610f3e576000610e796001836115a6565b8554909150600090610e8d906001906115a6565b9050818114610ef2576000866000018281548110610ead57610ead6113d4565b9060005260206000200154905080876000018481548110610ed057610ed06113d4565b6000918252602080832090910192909255918252600188019052604090208390555b8554869080610f0357610f036115bd565b600190038181906000526020600020016000905590558560010160008681526020019081526020016000206000905560019350505050610366565b6000915050610366565b508054610f549061130c565b6000825580601f10610f64575050565b601f016020900490600052602060002090810190610f829190611009565b50565b828054610f919061130c565b90600052602060002090601f016020900481019282610fb35760008555610ff9565b82601f10610fcc5782800160ff19823516178555610ff9565b82800160010185558215610ff9579182015b82811115610ff9578235825591602001919060010190610fde565b50611005929150611009565b5090565b5b80821115611005576000815560010161100a565b60008083601f84011261103057600080fd5b50813567ffffffffffffffff81111561104857600080fd5b60208301915083602082850101111561106057600080fd5b9250929050565b6000806020838503121561107a57600080fd5b823567ffffffffffffffff81111561109157600080fd5b61109d8582860161101e565b90969095509350505050565b6000602082840312156110bb57600080fd5b81356001600160e01b03198116811461065557600080fd5b6000602082840312156110e557600080fd5b5035919050565b6000806000806040858703121561110257600080fd5b843567ffffffffffffffff8082111561111a57600080fd5b6111268883890161101e565b9096509450602087013591508082111561113f57600080fd5b5061114c8782880161101e565b95989497509550505050565b6000806040838503121561116b57600080fd5b8235915060208301356001600160a01b038116811461118957600080fd5b809150509250929050565b60005b838110156111af578181015183820152602001611197565b838111156111be576000848401525b50505050565b600081518084526111dc816020860160208601611194565b601f01601f19169290920160200192915050565b60208152600061065560208301846111c4565b6000806040838503121561121657600080fd5b50508035926020909101359150565b6000806020838503121561123857600080fd5b823567ffffffffffffffff8082111561125057600080fd5b818501915085601f83011261126457600080fd5b81358181111561127357600080fd5b8660208260051b850101111561128857600080fd5b60209290920196919550909350505050565b6000602080830181845280855180835260408601915060408160051b870101925083870160005b828110156112ef57603f198886030184526112dd8583516111c4565b945092850192908501906001016112c1565b5092979650505050505050565b8183823760009101908152919050565b600181811c9082168061132057607f821691505b6020821081141561134157634e487b7160e01b600052602260045260246000fd5b50919050565b81835281816020850137506000828201602090810191909152601f909101601f19169091010190565b602081526000611384602083018486611347565b949350505050565b6040815260006113a0604083018688611347565b82810360208401526113b3818587611347565b979650505050505050565b634e487b7160e01b600052604160045260246000fd5b634e487b7160e01b600052603260045260246000fd5b6000808335601e1984360301811261140157600080fd5b83018035915067ffffffffffffffff82111561141c57600080fd5b60200191503681900382131561106057600080fd5b600080835481600182811c91508083168061144d57607f831692505b602080841082141561146d57634e487b7160e01b86526022600452602486fd5b8180156114815760018114611492576114bf565b60ff198616895284890196506114bf565b60008a81526020902060005b868110156114b75781548b82015290850190830161149e565b505084890196505b509498975050505050505050565b7f416363657373436f6e74726f6c3a206163636f756e7420000000000000000000815260008351611505816017850160208801611194565b7001034b99036b4b9b9b4b733903937b6329607d1b6017918401918201528351611536816028840160208801611194565b01602801949350505050565b634e487b7160e01b600052601160045260246000fd5b600081600019048311821515161561157257611572611542565b500290565b6000821982111561158a5761158a611542565b500190565b60008161159e5761159e611542565b506000190190565b6000828210156115b8576115b8611542565b500390565b634e487b7160e01b600052603160045260246000fdfebbfb55d933c2bfa638763473275b1d84c4418e58d26cf9d2cd5758237756d9f08f8c450dae5029cd48cd91dd9db65da48fb742893edfc7941250f6721d93cbbe9a627a5d4aa7c17f87ff26e3fe9a42c2b6c559e8b41a42282d0ecebb17c0e4d3a2646970667358221220045c6b941e29658218b58e2e5094923fd4de360aa759403d47d02b174863657364736f6c634300080900339a627a5d4aa7c17f87ff26e3fe9a42c2b6c559e8b41a42282d0ecebb17c0e4d3",
  "linkReferences": {},
  "deployedLinkReferences": {}
}