{
  "_format": "hh-sol-artifact-1",
  "contractName": "Versioned",
  "sourceName": "contracts/0.4.24/utils/Versioned.sol",
  "abi": [
    {
      "constant": true,
      "inputs": [],
      "name": "getContractVersion",
      "outputs": [
        {
          "name": "",
          "type": "uint256"
        }
      ],
      "payable": false,
      "stateMutability": "view",
      "type": "function"
    },
    {
      "inputs": [],
      "payable": false,
      "stateMutability": "nonpayable",
      "type": "constructor"
    },
    {
      "anonymous": false,
      "inputs": [
        {
          "indexed": false,
          "name": "version",
          "type": "uint256"
        }
      ],
      "name": "ContractVersionSet",
      "type": "event"
    }
  ],
  "bytecode": "0x608060405234801561001057600080fd5b50604080517f636174616c6973742e56657273696f6e65642e636f6e7472616374566572736981527f6f6e000000000000000000000000000000000000000000000000000000000000602080830191909152915190819003602201902061008291600019906100b6610087821b17901c565b61008b565b9055565b60e6806100996000396000f30060806040526004361060225760003560e01c63ffffffff1680638aa10435146027575b600080fd5b348015603257600080fd5b506039604b565b60408051918252519081900360200190f35b604080517f636174616c6973742e56657273696f6e65642e636f6e7472616374566572736981527f6f6e0000000000000000000000000000000000000000000000000000000000006020820152905190819003602201902060009060ad9060b2565b905090565b5490565b90555600a165627a7a7230582006f69194f59b1d84e755df544ea5bf03c463574633fefc190da433c6d09668240029",
  "linkReferences": {},
  "deployedLinkReferences": {}
}