{
  "_format": "hh-sol-artifact-1",
  "contractName": "CatalistLocator",
  "sourceName": "contracts/0.8.9/CatalistLocator.sol",
  "abi": [
    {
      "inputs": [
        {
          "components": [
            {
              "internalType": "address",
              "name": "accountingOracle",
              "type": "address"
            },
            {
              "internalType": "address",
              "name": "depositSecurityModule",
              "type": "address"
            },
            {
              "internalType": "address",
              "name": "elRewardsVault",
              "type": "address"
            },
            {
              "internalType": "address",
              "name": "legacyOracle",
              "type": "address"
            },
            {
              "internalType": "address",
              "name": "catalist",
              "type": "address"
            },
            {
              "internalType": "address",
              "name": "oracleReportSanityChecker",
              "type": "address"
            },
            {
              "internalType": "address",
              "name": "postTokenRebaseReceiver",
              "type": "address"
            },
            {
              "internalType": "address",
              "name": "burner",
              "type": "address"
            },
            {
              "internalType": "address",
              "name": "stakingRouter",
              "type": "address"
            },
            {
              "internalType": "address",
              "name": "treasury",
              "type": "address"
            },
            {
              "internalType": "address",
              "name": "validatorsExitBusOracle",
              "type": "address"
            },
            {
              "internalType": "address",
              "name": "withdrawalQueue",
              "type": "address"
            },
            {
              "internalType": "address",
              "name": "withdrawalVault",
              "type": "address"
            },
            {
              "internalType": "address",
              "name": "oracleDaemonConfig",
              "type": "address"
            }
          ],
          "internalType": "struct CatalistLocator.Config",
          "name": "_config",
          "type": "tuple"
        }
      ],
      "stateMutability": "nonpayable",
      "type": "constructor"
    },
    {
      "inputs": [],
      "name": "ZeroAddress",
      "type": "error"
    },
    {
      "inputs": [],
      "name": "accountingOracle",
      "outputs": [
        {
          "internalType": "address",
          "name": "",
          "type": "address"
        }
      ],
      "stateMutability": "view",
      "type": "function"
    },
    {
      "inputs": [],
      "name": "burner",
      "outputs": [
        {
          "internalType": "address",
          "name": "",
          "type": "address"
        }
      ],
      "stateMutability": "view",
      "type": "function"
    },
    {
      "inputs": [],
      "name": "catalist",
      "outputs": [
        {
          "internalType": "address",
          "name": "",
          "type": "address"
        }
      ],
      "stateMutability": "view",
      "type": "function"
    },
    {
      "inputs": [],
      "name": "coreComponents",
      "outputs": [
        {
          "internalType": "address",
          "name": "",
          "type": "address"
        },
        {
          "internalType": "address",
          "name": "",
          "type": "address"
        },
        {
          "internalType": "address",
          "name": "",
          "type": "address"
        },
        {
          "internalType": "address",
          "name": "",
          "type": "address"
        },
        {
          "internalType": "address",
          "name": "",
          "type": "address"
        },
        {
          "internalType": "address",
          "name": "",
          "type": "address"
        }
      ],
      "stateMutability": "view",
      "type": "function"
    },
    {
      "inputs": [],
      "name": "depositSecurityModule",
      "outputs": [
        {
          "internalType": "address",
          "name": "",
          "type": "address"
        }
      ],
      "stateMutability": "view",
      "type": "function"
    },
    {
      "inputs": [],
      "name": "elRewardsVault",
      "outputs": [
        {
          "internalType": "address",
          "name": "",
          "type": "address"
        }
      ],
      "stateMutability": "view",
      "type": "function"
    },
    {
      "inputs": [],
      "name": "legacyOracle",
      "outputs": [
        {
          "internalType": "address",
          "name": "",
          "type": "address"
        }
      ],
      "stateMutability": "view",
      "type": "function"
    },
    {
      "inputs": [],
      "name": "oracleDaemonConfig",
      "outputs": [
        {
          "internalType": "address",
          "name": "",
          "type": "address"
        }
      ],
      "stateMutability": "view",
      "type": "function"
    },
    {
      "inputs": [],
      "name": "oracleReportComponentsForCatalist",
      "outputs": [
        {
          "internalType": "address",
          "name": "",
          "type": "address"
        },
        {
          "internalType": "address",
          "name": "",
          "type": "address"
        },
        {
          "internalType": "address",
          "name": "",
          "type": "address"
        },
        {
          "internalType": "address",
          "name": "",
          "type": "address"
        },
        {
          "internalType": "address",
          "name": "",
          "type": "address"
        },
        {
          "internalType": "address",
          "name": "",
          "type": "address"
        },
        {
          "internalType": "address",
          "name": "",
          "type": "address"
        }
      ],
      "stateMutability": "view",
      "type": "function"
    },
    {
      "inputs": [],
      "name": "oracleReportSanityChecker",
      "outputs": [
        {
          "internalType": "address",
          "name": "",
          "type": "address"
        }
      ],
      "stateMutability": "view",
      "type": "function"
    },
    {
      "inputs": [],
      "name": "postTokenRebaseReceiver",
      "outputs": [
        {
          "internalType": "address",
          "name": "",
          "type": "address"
        }
      ],
      "stateMutability": "view",
      "type": "function"
    },
    {
      "inputs": [],
      "name": "stakingRouter",
      "outputs": [
        {
          "internalType": "address",
          "name": "",
          "type": "address"
        }
      ],
      "stateMutability": "view",
      "type": "function"
    },
    {
      "inputs": [],
      "name": "treasury",
      "outputs": [
        {
          "internalType": "address",
          "name": "",
          "type": "address"
        }
      ],
      "stateMutability": "view",
      "type": "function"
    },
    {
      "inputs": [],
      "name": "validatorsExitBusOracle",
      "outputs": [
        {
          "internalType": "address",
          "name": "",
          "type": "address"
        }
      ],
      "stateMutability": "view",
      "type": "function"
    },
    {
      "inputs": [],
      "name": "withdrawalQueue",
      "outputs": [
        {
          "internalType": "address",
          "name": "",
          "type": "address"
        }
      ],
      "stateMutability": "view",
      "type": "function"
    },
    {
      "inputs": [],
      "name": "withdrawalVault",
      "outputs": [
        {
          "internalType": "address",
          "name": "",
          "type": "address"
        }
      ],
      "stateMutability": "view",
      "type": "function"
    }
  ],
  "bytecode": "0x6102406040523480156200001257600080fd5b5060405162000a3238038062000a32833981016040819052620000359162000254565b80516200004290620001d1565b6001600160a01b031660805260208101516200005e90620001d1565b6001600160a01b031660a05260408101516200007a90620001d1565b6001600160a01b031660c05260608101516200009690620001d1565b6001600160a01b031660e0526080810151620000b290620001d1565b6001600160a01b03166101005260a0810151620000cf90620001d1565b6001600160a01b03166101205260c0810151620000ec90620001d1565b6001600160a01b03166101405260e08101516200010990620001d1565b6001600160a01b0316610160526101008101516200012790620001d1565b6001600160a01b0316610180526101208101516200014590620001d1565b6001600160a01b03166101a0526101408101516200016390620001d1565b6001600160a01b03166101c0526101608101516200018190620001d1565b6001600160a01b03166101e0526101808101516200019f90620001d1565b6001600160a01b0316610200526101a0810151620001bd90620001d1565b6001600160a01b0316610220525062000383565b60006001600160a01b038216620001fb5760405163d92e233d60e01b815260040160405180910390fd5b5090565b6040516101c081016001600160401b03811182821017156200023157634e487b7160e01b600052604160045260246000fd5b60405290565b80516001600160a01b03811681146200024f57600080fd5b919050565b60006101c082840312156200026857600080fd5b62000272620001ff565b6200027d8362000237565b81526200028d6020840162000237565b6020820152620002a06040840162000237565b6040820152620002b36060840162000237565b6060820152620002c66080840162000237565b6080820152620002d960a0840162000237565b60a0820152620002ec60c0840162000237565b60c0820152620002ff60e0840162000237565b60e08201526101006200031481850162000237565b908201526101206200032884820162000237565b908201526101406200033c84820162000237565b908201526101606200035084820162000237565b908201526101806200036484820162000237565b908201526101a06200037884820162000237565b908201529392505050565b60805160a05160c05160e05161010051610120516101405161016051610180516101a0516101c0516101e05161020051610220516105ac6200048660003960006102a10152600081816102450152818161033d01526104f701526000818161021d0152818161027a01526104cf0152600061010a0152600081816101f501526103160152600081816101cb015261040001526000818161014e01526104a701526000818161038b015261051f0152600081816101a30152818161047d0152610554015260006103b20152600061036401526000818161017e015281816103d90152610455015260006102c80152600081816102ef015261043001526105ac6000f3fe608060405234801561001057600080fd5b50600436106101005760003560e01c806369d4214811610097578063e441d25f11610066578063e441d25f146103d4578063ef6c064c146103fb578063f2d1c24014610422578063f5e6d50f1461054f57600080fd5b806369d4214814610338578063996107aa1461035f578063d680a87614610386578063dfcf5ac0146103ad57600080fd5b80633fe7d554116100d35780633fe7d5541461029c578063472c1776146102c35780635a2031f9146102ea57806361d027b31461031157600080fd5b806312f8d4b91461010557806327810b6e1461014957806335f4022e1461017057806337d5fe9914610275575b600080fd5b61012c7f000000000000000000000000000000000000000000000000000000000000000081565b6040516001600160a01b0390911681526020015b60405180910390f35b61012c7f000000000000000000000000000000000000000000000000000000000000000081565b604080516001600160a01b037f0000000000000000000000000000000000000000000000000000000000000000811682527f0000000000000000000000000000000000000000000000000000000000000000811660208301527f00000000000000000000000000000000000000000000000000000000000000008116928201929092527f0000000000000000000000000000000000000000000000000000000000000000821660608201527f0000000000000000000000000000000000000000000000000000000000000000821660808201527f00000000000000000000000000000000000000000000000000000000000000009190911660a082015260c001610140565b61012c7f000000000000000000000000000000000000000000000000000000000000000081565b61012c7f000000000000000000000000000000000000000000000000000000000000000081565b61012c7f000000000000000000000000000000000000000000000000000000000000000081565b61012c7f000000000000000000000000000000000000000000000000000000000000000081565b61012c7f000000000000000000000000000000000000000000000000000000000000000081565b61012c7f000000000000000000000000000000000000000000000000000000000000000081565b61012c7f000000000000000000000000000000000000000000000000000000000000000081565b61012c7f000000000000000000000000000000000000000000000000000000000000000081565b61012c7f000000000000000000000000000000000000000000000000000000000000000081565b61012c7f000000000000000000000000000000000000000000000000000000000000000081565b61012c7f000000000000000000000000000000000000000000000000000000000000000081565b604080516001600160a01b037f0000000000000000000000000000000000000000000000000000000000000000811682527f0000000000000000000000000000000000000000000000000000000000000000811660208301527f00000000000000000000000000000000000000000000000000000000000000008116928201929092527f0000000000000000000000000000000000000000000000000000000000000000821660608201527f0000000000000000000000000000000000000000000000000000000000000000821660808201527f0000000000000000000000000000000000000000000000000000000000000000821660a08201527f00000000000000000000000000000000000000000000000000000000000000009190911660c082015260e001610140565b61012c7f00000000000000000000000000000000000000000000000000000000000000008156fea2646970667358221220f9d7e3d8ac3d3ecaa0843867e25596e5eee246c8d9d293aee4a93ee9869b203e64736f6c63430008090033",
  "linkReferences": {},
  "deployedLinkReferences": {}
}