{
  "_format": "hh-sol-artifact-1",
  "contractName": "ENSFactory",
  "sourceName": "@aragon/os/contracts/factory/ENSFactory.sol",
  "abi": [
    {
      "constant": false,
      "inputs": [
        {
          "name": "_owner",
          "type": "address"
        }
      ],
      "name": "newENS",
      "outputs": [
        {
          "name": "",
          "type": "address"
        }
      ],
      "payable": false,
      "stateMutability": "nonpayable",
      "type": "function"
    },
    {
      "anonymous": false,
      "inputs": [
        {
          "indexed": false,
          "name": "ens",
          "type": "address"
        }
      ],
      "name": "DeployENS",
      "type": "event"
    }
  ],
  "bytecode": "0x608060405234801561001057600080fd5b50611bf4806100206000396000f3006080604052600436106100245760003560e01c63ffffffff168063e9358b0114610029575b600080fd5b34801561003557600080fd5b5061004a600160a060020a0360043516610066565b60408051600160a060020a039092168252519081900360200190f35b60008060006100736104e1565b604051809103906000f08015801561008f573d6000803e3d6000fd5b50604080517f06ab59230000000000000000000000000000000000000000000000000000000081526000600482018190527f4f5b812789fc606be1b3b16908db13fc7a9adf7ca72641f84d75b47069d3d7f060248301523060448301529151929450600160a060020a038516926306ab59239260648084019391929182900301818387803b15801561012057600080fd5b505af1158015610134573d6000803e3d6000fd5b50505050816101416104f1565b600160a060020a03909116815260405190819003602001906000f08015801561016e573d6000803e3d6000fd5b50604080517f06ab59230000000000000000000000000000000000000000000000000000000081527f93cdeb708b7545dc668eb9280176169d1c33cfd8ed6f04690a0bcc88a93fc4ae60048201527f329539a1d23af1810c48a07fe7fc66a3b34fbc8b37e9b3cdb97bb88ceab7e4bf60248201523060448201529051919250600160a060020a038416916306ab59239160648082019260009290919082900301818387803b15801561021f57600080fd5b505af1158015610233573d6000803e3d6000fd5b5050604080517f1896f70a0000000000000000000000000000000000000000000000000000000081527ffdd5d5de6dd63db72bbc2d487944ba13bf775b50a80805fe6fcaba9b0fba88f56004820152600160a060020a03858116602483015291519186169350631896f70a925060448082019260009290919082900301818387803b1580156102c157600080fd5b505af11580156102d5573d6000803e3d6000fd5b5050604080517fd5fa2b000000000000000000000000000000000000000000000000000000000081527ffdd5d5de6dd63db72bbc2d487944ba13bf775b50a80805fe6fcaba9b0fba88f56004820152600160a060020a03851660248201819052915191935063d5fa2b00925060448082019260009290919082900301818387803b15801561036257600080fd5b505af1158015610376573d6000803e3d6000fd5b5050604080517f5b0fc9c30000000000000000000000000000000000000000000000000000000081527f93cdeb708b7545dc668eb9280176169d1c33cfd8ed6f04690a0bcc88a93fc4ae6004820152600160a060020a03888116602483015291519186169350635b0fc9c3925060448082019260009290919082900301818387803b15801561040457600080fd5b505af1158015610418573d6000803e3d6000fd5b5050604080517f5b0fc9c3000000000000000000000000000000000000000000000000000000008152600060048201819052600160a060020a03898116602484015292519287169450635b0fc9c39350604480830193919282900301818387803b15801561048557600080fd5b505af1158015610499573d6000803e3d6000fd5b505060408051600160a060020a038616815290517fdbfb5ababf63f86424e8df6053dfb90f8b63ea26d7e1e8f68407af4fb2d2c4f29350908190036020019150a15092915050565b60405161053d8061050283390190565b60405161118a80610a3f833901905600608060405234801561001057600080fd5b5060008080526020527fad3228b676f7d3cd4284a5443f17f1962b36e491b30a40b2405849e597ba5fb58054600160a060020a031916331790556104e4806100596000396000f3006080604052600436106100665760003560e01c63ffffffff1680630178b8bf1461006b57806302571be31461009f57806306ab5923146100b757806314ab9038146100e057806316a25cbd146101055780631896f70a1461013a5780635b0fc9c31461015e575b600080fd5b34801561007757600080fd5b50610083600435610182565b60408051600160a060020a039092168252519081900360200190f35b3480156100ab57600080fd5b506100836004356101a0565b3480156100c357600080fd5b506100de600435602435600160a060020a03604435166101bb565b005b3480156100ec57600080fd5b506100de60043567ffffffffffffffff60243516610275565b34801561011157600080fd5b5061011d60043561033e565b6040805167ffffffffffffffff9092168252519081900360200190f35b34801561014657600080fd5b506100de600435600160a060020a0360243516610375565b34801561016a57600080fd5b506100de600435600160a060020a0360243516610418565b600090815260208190526040902060010154600160a060020a031690565b600090815260208190526040902054600160a060020a031690565b6000838152602081905260408120548490600160a060020a031633146101e057600080fd5b60408051868152602080820187905282519182900383018220600160a060020a03871683529251929450869288927fce0457fe73731f824cc272376169235128c118b49d344817417c6d108d155e8292908290030190a3506000908152602081905260409020805473ffffffffffffffffffffffffffffffffffffffff1916600160a060020a03929092169190911790555050565b6000828152602081905260409020548290600160a060020a0316331461029a57600080fd5b6040805167ffffffffffffffff84168152905184917f1d4f9bbfc9cab89d66e1a1562f2233ccbf1308cb4f63de2ead5787adddb8fa68919081900360200190a250600091825260208290526040909120600101805467ffffffffffffffff90921674010000000000000000000000000000000000000000027fffffffff0000000000000000ffffffffffffffffffffffffffffffffffffffff909216919091179055565b60009081526020819052604090206001015474010000000000000000000000000000000000000000900467ffffffffffffffff1690565b6000828152602081905260409020548290600160a060020a0316331461039a57600080fd5b60408051600160a060020a0384168152905184917f335721b01866dc23fbee8b6b2c7b1e14d6f05c28cd35a2c934239f94095602a0919081900360200190a250600091825260208290526040909120600101805473ffffffffffffffffffffffffffffffffffffffff1916600160a060020a03909216919091179055565b6000828152602081905260409020548290600160a060020a0316331461043d57600080fd5b60408051600160a060020a0384168152905184917fd4735d920b0f87494915f556dd9b54c8f309026070caea5c737245152564d266919081900360200190a250600091825260208290526040909120805473ffffffffffffffffffffffffffffffffffffffff1916600160a060020a039092169190911790555600a165627a7a723058205774bf60788ecbdb6de5b2974c4bab8ee5eb9359f21652c8398e3745cd000e500029608060405234801561001057600080fd5b5060405160208061118a833981016040525160008054600160a060020a03909216600160a060020a0319909216919091179055611138806100526000396000f3006080604052600436106100a85760003560e01c63ffffffff16806301ffc9a7146100ad57806310f13a8c146100e35780632203ab561461018157806329cd62ea1461021b5780632dff6941146102395780633b3b57de1461026357806359d1d43c14610297578063623195b01461036a578063691f3431146103ca57806377372213146103e2578063c3d014d614610440578063c86902331461045b578063d5fa2b001461048c575b600080fd5b3480156100b957600080fd5b506100cf600160e060020a0319600435166104b0565b604080519115158252519081900360200190f35b3480156100ef57600080fd5b5060408051602060046024803582810135601f810185900485028601850190965285855261017f95833595369560449491939091019190819084018382808284375050604080516020601f89358b018035918201839004830284018301909452808352979a99988101979196509182019450925082915084018382808284375094975061061d9650505050505050565b005b34801561018d57600080fd5b5061019c60043560243561082d565b6040518083815260200180602001828103825283818151815260200191508051906020019080838360005b838110156101df5781810151838201526020016101c7565b50505050905090810190601f16801561020c5780820380516001836020036101000a031916815260200191505b50935050505060405180910390f35b34801561022757600080fd5b5061017f60043560243560443561093a565b34801561024557600080fd5b50610251600435610a3a565b60408051918252519081900360200190f35b34801561026f57600080fd5b5061027b600435610a50565b60408051600160a060020a039092168252519081900360200190f35b3480156102a357600080fd5b5060408051602060046024803582810135601f81018590048502860185019096528585526102f5958335953695604494919390910191908190840183828082843750949750610a6b9650505050505050565b6040805160208082528351818301528351919283929083019185019080838360005b8381101561032f578181015183820152602001610317565b50505050905090810190601f16801561035c5780820380516001836020036101000a031916815260200191505b509250505060405180910390f35b34801561037657600080fd5b50604080516020600460443581810135601f810184900484028501840190955284845261017f948235946024803595369594606494920191908190840183828082843750949750610b749650505050505050565b3480156103d657600080fd5b506102f5600435610c75565b3480156103ee57600080fd5b5060408051602060046024803582810135601f810185900485028601850190965285855261017f958335953695604494919390910191908190840183828082843750949750610d199650505050505050565b34801561044c57600080fd5b5061017f600435602435610e6f565b34801561046757600080fd5b50610473600435610f50565b6040805192835260208301919091528051918290030190f35b34801561049857600080fd5b5061017f600435600160a060020a0360243516610f6d565b6000600160e060020a031982167f3b3b57de0000000000000000000000000000000000000000000000000000000014806105135750600160e060020a031982167fd8389dc500000000000000000000000000000000000000000000000000000000145b806105475750600160e060020a031982167f691f343100000000000000000000000000000000000000000000000000000000145b8061057b5750600160e060020a031982167f2203ab5600000000000000000000000000000000000000000000000000000000145b806105af5750600160e060020a031982167fc869023300000000000000000000000000000000000000000000000000000000145b806105e35750600160e060020a031982167f59d1d43c00000000000000000000000000000000000000000000000000000000145b806106175750600160e060020a031982167f01ffc9a700000000000000000000000000000000000000000000000000000000145b92915050565b600080546040805160e060020a6302571be302815260048101879052905186933393600160a060020a0316926302571be39260248083019360209383900390910190829087803b15801561067057600080fd5b505af1158015610684573d6000803e3d6000fd5b505050506040513d602081101561069a57600080fd5b5051600160a060020a0316146106af57600080fd5b6000848152600160209081526040918290209151855185936005019287929182918401908083835b602083106106f65780518252601f1990920191602091820191016106d7565b51815160209384036101000a600019018019909216911617905292019485525060405193849003810190932084516107379591949190910192509050611071565b50826040518082805190602001908083835b602083106107685780518252601f199092019160209182019101610749565b51815160209384036101000a60001901801990921691161790526040805192909401829003822081835289518383015289519096508a95507fd8c9334b1a9c2f9da342a0a2b32629c1a229b6445dad78947f674b44444a7550948a94508392908301919085019080838360005b838110156107ed5781810151838201526020016107d5565b50505050905090810190601f16801561081a5780820380516001836020036101000a031916815260200191505b509250505060405180910390a350505050565b60008281526001602081905260409091206060905b83831161092d578284161580159061087b5750600083815260068201602052604081205460026000196101006001841615020190911604115b1561092157600083815260068201602090815260409182902080548351601f6002600019610100600186161502019093169290920491820184900484028101840190945280845290918301828280156109155780601f106108ea57610100808354040283529160200191610915565b820191906000526020600020905b8154815290600101906020018083116108f857829003601f168201915b50505050509150610932565b600183901b9250610842565b600092505b509250929050565b600080546040805160e060020a6302571be302815260048101879052905186933393600160a060020a0316926302571be39260248083019360209383900390910190829087803b15801561098d57600080fd5b505af11580156109a1573d6000803e3d6000fd5b505050506040513d60208110156109b757600080fd5b5051600160a060020a0316146109cc57600080fd5b604080518082018252848152602080820185815260008881526001835284902092516003840155516004909201919091558151858152908101849052815186927f1d6f5e03d3f63eb58751986629a5439baee5079ff04f345becb66e23eb154e46928290030190a250505050565b6000908152600160208190526040909120015490565b600090815260016020526040902054600160a060020a031690565b600082815260016020908152604091829020915183516060936005019285929182918401908083835b60208310610ab35780518252601f199092019160209182019101610a94565b518151600019602094850361010090810a820192831692199390931691909117909252949092019687526040805197889003820188208054601f6002600183161590980290950116959095049283018290048202880182019052818752929450925050830182828015610b675780601f10610b3c57610100808354040283529160200191610b67565b820191906000526020600020905b815481529060010190602001808311610b4a57829003601f168201915b5050505050905092915050565b600080546040805160e060020a6302571be302815260048101879052905186933393600160a060020a0316926302571be39260248083019360209383900390910190829087803b158015610bc757600080fd5b505af1158015610bdb573d6000803e3d6000fd5b505050506040513d6020811015610bf157600080fd5b5051600160a060020a031614610c0657600080fd5b6000198301831615610c1757600080fd5b600084815260016020908152604080832086845260060182529091208351610c4192850190611071565b50604051839085907faa121bbeef5f32f5961a2a28966e769023910fc9479059ee3495d4c1a696efe390600090a350505050565b6000818152600160208181526040928390206002908101805485516000199582161561010002959095011691909104601f81018390048302840183019094528383526060939091830182828015610d0d5780601f10610ce257610100808354040283529160200191610d0d565b820191906000526020600020905b815481529060010190602001808311610cf057829003601f168201915b50505050509050919050565b600080546040805160e060020a6302571be302815260048101869052905185933393600160a060020a0316926302571be39260248083019360209383900390910190829087803b158015610d6c57600080fd5b505af1158015610d80573d6000803e3d6000fd5b505050506040513d6020811015610d9657600080fd5b5051600160a060020a031614610dab57600080fd5b60008381526001602090815260409091208351610dd092600290920191850190611071565b50604080516020808252845181830152845186937fb7d29e911041e8d9b843369e890bcb72c9388692ba48b65ac54e7214c4c348f79387939092839283019185019080838360005b83811015610e30578181015183820152602001610e18565b50505050905090810190601f168015610e5d5780820380516001836020036101000a031916815260200191505b509250505060405180910390a2505050565b600080546040805160e060020a6302571be302815260048101869052905185933393600160a060020a0316926302571be39260248083019360209383900390910190829087803b158015610ec257600080fd5b505af1158015610ed6573d6000803e3d6000fd5b505050506040513d6020811015610eec57600080fd5b5051600160a060020a031614610f0157600080fd5b6000838152600160208181526040928390209091018490558151848152915185927f0424b6fe0d9c3bdbece0e7879dc241bb0c22e900be8b6c168b4ee08bd9bf83bc92908290030190a2505050565b600090815260016020526040902060038101546004909101549091565b600080546040805160e060020a6302571be302815260048101869052905185933393600160a060020a0316926302571be39260248083019360209383900390910190829087803b158015610fc057600080fd5b505af1158015610fd4573d6000803e3d6000fd5b505050506040513d6020811015610fea57600080fd5b5051600160a060020a031614610fff57600080fd5b600083815260016020908152604091829020805473ffffffffffffffffffffffffffffffffffffffff1916600160a060020a0386169081179091558251908152915185927f52d7d861f09ab3d26239d492e8968629f95e9e318cf0b73bfddc441522a15fd292908290030190a2505050565b828054600181600116156101000203166002900490600052602060002090601f016020900481019282601f106110b257805160ff19168380011785556110df565b828001600101855582156110df579182015b828111156110df5782518255916020019190600101906110c4565b506110eb9291506110ef565b5090565b61110991905b808211156110eb57600081556001016110f5565b905600a165627a7a7230582048bc7e0de12061376814f781955c71a3e635ca7b95a03fc1aa728dea22d946100029a165627a7a723058209ceef0115c548bf9cb63cb0a8b091294ad1883cbe47ad75b9e6887e4a74f8d1d0029",
  "linkReferences": {},
  "deployedLinkReferences": {}
}