{
  "_format": "hh-sol-artifact-1",
  "contractName": "DepositSecurityModule",
  "sourceName": "contracts/0.8.9/DepositSecurityModule.sol",
  "abi": [
    {
      "inputs": [
        {
          "internalType": "address",
          "name": "_catalist",
          "type": "address"
        },
        {
          "internalType": "address",
          "name": "_depositContract",
          "type": "address"
        },
        {
          "internalType": "address",
          "name": "_stakingRouter",
          "type": "address"
        },
        {
          "internalType": "uint256",
          "name": "_maxDepositsPerBlock",
          "type": "uint256"
        },
        {
          "internalType": "uint256",
          "name": "_minDepositBlockDistance",
          "type": "uint256"
        },
        {
          "internalType": "uint256",
          "name": "_pauseIntentValidityPeriodBlocks",
          "type": "uint256"
        }
      ],
      "stateMutability": "nonpayable",
      "type": "constructor"
    },
    {
      "inputs": [],
      "name": "DepositInactiveModule",
      "type": "error"
    },
    {
      "inputs": [],
      "name": "DepositNoQuorum",
      "type": "error"
    },
    {
      "inputs": [],
      "name": "DepositNonceChanged",
      "type": "error"
    },
    {
      "inputs": [],
      "name": "DepositRootChanged",
      "type": "error"
    },
    {
      "inputs": [],
      "name": "DepositTooFrequent",
      "type": "error"
    },
    {
      "inputs": [],
      "name": "DepositUnexpectedBlockHash",
      "type": "error"
    },
    {
      "inputs": [
        {
          "internalType": "address",
          "name": "addr",
          "type": "address"
        }
      ],
      "name": "DuplicateAddress",
      "type": "error"
    },
    {
      "inputs": [],
      "name": "InvalidSignature",
      "type": "error"
    },
    {
      "inputs": [
        {
          "internalType": "address",
          "name": "addr",
          "type": "address"
        }
      ],
      "name": "NotAGuardian",
      "type": "error"
    },
    {
      "inputs": [
        {
          "internalType": "address",
          "name": "caller",
          "type": "address"
        }
      ],
      "name": "NotAnOwner",
      "type": "error"
    },
    {
      "inputs": [],
      "name": "PauseIntentExpired",
      "type": "error"
    },
    {
      "inputs": [],
      "name": "SignaturesNotSorted",
      "type": "error"
    },
    {
      "inputs": [
        {
          "internalType": "string",
          "name": "field",
          "type": "string"
        }
      ],
      "name": "ZeroAddress",
      "type": "error"
    },
    {
      "inputs": [
        {
          "internalType": "string",
          "name": "parameter",
          "type": "string"
        }
      ],
      "name": "ZeroParameter",
      "type": "error"
    },
    {
      "anonymous": false,
      "inputs": [
        {
          "indexed": true,
          "internalType": "address",
          "name": "guardian",
          "type": "address"
        },
        {
          "indexed": true,
          "internalType": "uint24",
          "name": "stakingModuleId",
          "type": "uint24"
        }
      ],
      "name": "DepositsPaused",
      "type": "event"
    },
    {
      "anonymous": false,
      "inputs": [
        {
          "indexed": true,
          "internalType": "uint24",
          "name": "stakingModuleId",
          "type": "uint24"
        }
      ],
      "name": "DepositsUnpaused",
      "type": "event"
    },
    {
      "anonymous": false,
      "inputs": [
        {
          "indexed": false,
          "internalType": "address",
          "name": "guardian",
          "type": "address"
        }
      ],
      "name": "GuardianAdded",
      "type": "event"
    },
    {
      "anonymous": false,
      "inputs": [
        {
          "indexed": false,
          "internalType": "uint256",
          "name": "newValue",
          "type": "uint256"
        }
      ],
      "name": "GuardianQuorumChanged",
      "type": "event"
    },
    {
      "anonymous": false,
      "inputs": [
        {
          "indexed": false,
          "internalType": "address",
          "name": "guardian",
          "type": "address"
        }
      ],
      "name": "GuardianRemoved",
      "type": "event"
    },
    {
      "anonymous": false,
      "inputs": [
        {
          "indexed": false,
          "internalType": "uint256",
          "name": "newValue",
          "type": "uint256"
        }
      ],
      "name": "MaxDepositsChanged",
      "type": "event"
    },
    {
      "anonymous": false,
      "inputs": [
        {
          "indexed": false,
          "internalType": "uint256",
          "name": "newValue",
          "type": "uint256"
        }
      ],
      "name": "MinDepositBlockDistanceChanged",
      "type": "event"
    },
    {
      "anonymous": false,
      "inputs": [
        {
          "indexed": false,
          "internalType": "address",
          "name": "newOwner",
          "type": "address"
        }
      ],
      "name": "OwnerAdded",
      "type": "event"
    },
    {
      "anonymous": false,
      "inputs": [
        {
          "indexed": false,
          "internalType": "address",
          "name": "owner",
          "type": "address"
        }
      ],
      "name": "OwnerRemoved",
      "type": "event"
    },
    {
      "anonymous": false,
      "inputs": [
        {
          "indexed": false,
          "internalType": "uint256",
          "name": "newValue",
          "type": "uint256"
        }
      ],
      "name": "PauseIntentValidityPeriodBlocksChanged",
      "type": "event"
    },
    {
      "inputs": [],
      "name": "ATTEST_MESSAGE_PREFIX",
      "outputs": [
        {
          "internalType": "bytes32",
          "name": "",
          "type": "bytes32"
        }
      ],
      "stateMutability": "view",
      "type": "function"
    },
    {
      "inputs": [],
      "name": "CATALIST",
      "outputs": [
        {
          "internalType": "contract ICatalist",
          "name": "",
          "type": "address"
        }
      ],
      "stateMutability": "view",
      "type": "function"
    },
    {
      "inputs": [],
      "name": "DEPOSIT_CONTRACT",
      "outputs": [
        {
          "internalType": "contract IDepositContract",
          "name": "",
          "type": "address"
        }
      ],
      "stateMutability": "view",
      "type": "function"
    },
    {
      "inputs": [],
      "name": "PAUSE_MESSAGE_PREFIX",
      "outputs": [
        {
          "internalType": "bytes32",
          "name": "",
          "type": "bytes32"
        }
      ],
      "stateMutability": "view",
      "type": "function"
    },
    {
      "inputs": [],
      "name": "STAKING_ROUTER",
      "outputs": [
        {
          "internalType": "contract IStakingRouter",
          "name": "",
          "type": "address"
        }
      ],
      "stateMutability": "view",
      "type": "function"
    },
    {
      "inputs": [
        {
          "internalType": "address",
          "name": "addr",
          "type": "address"
        },
        {
          "internalType": "uint256",
          "name": "newQuorum",
          "type": "uint256"
        }
      ],
      "name": "addGuardian",
      "outputs": [],
      "stateMutability": "nonpayable",
      "type": "function"
    },
    {
      "inputs": [
        {
          "internalType": "address[]",
          "name": "addresses",
          "type": "address[]"
        },
        {
          "internalType": "uint256",
          "name": "newQuorum",
          "type": "uint256"
        }
      ],
      "name": "addGuardians",
      "outputs": [],
      "stateMutability": "nonpayable",
      "type": "function"
    },
    {
      "inputs": [
        {
          "internalType": "uint256",
          "name": "stakingModuleId",
          "type": "uint256"
        }
      ],
      "name": "canDeposit",
      "outputs": [
        {
          "internalType": "bool",
          "name": "",
          "type": "bool"
        }
      ],
      "stateMutability": "view",
      "type": "function"
    },
    {
      "inputs": [
        {
          "internalType": "uint256",
          "name": "blockNumber",
          "type": "uint256"
        },
        {
          "internalType": "bytes32",
          "name": "blockHash",
          "type": "bytes32"
        },
        {
          "internalType": "bytes32",
          "name": "depositRoot",
          "type": "bytes32"
        },
        {
          "internalType": "uint256",
          "name": "stakingModuleId",
          "type": "uint256"
        },
        {
          "internalType": "uint256",
          "name": "nonce",
          "type": "uint256"
        },
        {
          "internalType": "bytes",
          "name": "depositCalldata",
          "type": "bytes"
        },
        {
          "components": [
            {
              "internalType": "bytes32",
              "name": "r",
              "type": "bytes32"
            },
            {
              "internalType": "bytes32",
              "name": "vs",
              "type": "bytes32"
            }
          ],
          "internalType": "struct DepositSecurityModule.Signature[]",
          "name": "sortedGuardianSignatures",
          "type": "tuple[]"
        }
      ],
      "name": "depositBufferedAce",
      "outputs": [],
      "stateMutability": "nonpayable",
      "type": "function"
    },
    {
      "inputs": [
        {
          "internalType": "address",
          "name": "addr",
          "type": "address"
        }
      ],
      "name": "getGuardianIndex",
      "outputs": [
        {
          "internalType": "int256",
          "name": "",
          "type": "int256"
        }
      ],
      "stateMutability": "view",
      "type": "function"
    },
    {
      "inputs": [],
      "name": "getGuardianQuorum",
      "outputs": [
        {
          "internalType": "uint256",
          "name": "",
          "type": "uint256"
        }
      ],
      "stateMutability": "view",
      "type": "function"
    },
    {
      "inputs": [],
      "name": "getGuardians",
      "outputs": [
        {
          "internalType": "address[]",
          "name": "",
          "type": "address[]"
        }
      ],
      "stateMutability": "view",
      "type": "function"
    },
    {
      "inputs": [],
      "name": "getMaxDeposits",
      "outputs": [
        {
          "internalType": "uint256",
          "name": "",
          "type": "uint256"
        }
      ],
      "stateMutability": "view",
      "type": "function"
    },
    {
      "inputs": [],
      "name": "getMinDepositBlockDistance",
      "outputs": [
        {
          "internalType": "uint256",
          "name": "",
          "type": "uint256"
        }
      ],
      "stateMutability": "view",
      "type": "function"
    },
    {
      "inputs": [],
      "name": "getPauseIntentValidityPeriodBlocks",
      "outputs": [
        {
          "internalType": "uint256",
          "name": "",
          "type": "uint256"
        }
      ],
      "stateMutability": "view",
      "type": "function"
    },
    {
      "inputs": [
        {
          "internalType": "address",
          "name": "addr",
          "type": "address"
        }
      ],
      "name": "isGuardian",
      "outputs": [
        {
          "internalType": "bool",
          "name": "",
          "type": "bool"
        }
      ],
      "stateMutability": "view",
      "type": "function"
    },
    {
      "inputs": [
        {
          "internalType": "address",
          "name": "adr",
          "type": "address"
        }
      ],
      "name": "isOwner",
      "outputs": [
        {
          "internalType": "bool",
          "name": "",
          "type": "bool"
        }
      ],
      "stateMutability": "view",
      "type": "function"
    },
    {
      "inputs": [
        {
          "internalType": "uint256",
          "name": "blockNumber",
          "type": "uint256"
        },
        {
          "internalType": "uint256",
          "name": "stakingModuleId",
          "type": "uint256"
        },
        {
          "components": [
            {
              "internalType": "bytes32",
              "name": "r",
              "type": "bytes32"
            },
            {
              "internalType": "bytes32",
              "name": "vs",
              "type": "bytes32"
            }
          ],
          "internalType": "struct DepositSecurityModule.Signature",
          "name": "sig",
          "type": "tuple"
        }
      ],
      "name": "pauseDeposits",
      "outputs": [],
      "stateMutability": "nonpayable",
      "type": "function"
    },
    {
      "inputs": [
        {
          "internalType": "address",
          "name": "addr",
          "type": "address"
        },
        {
          "internalType": "uint256",
          "name": "newQuorum",
          "type": "uint256"
        }
      ],
      "name": "removeGuardian",
      "outputs": [],
      "stateMutability": "nonpayable",
      "type": "function"
    },
    {
      "inputs": [
        {
          "internalType": "address",
          "name": "owner",
          "type": "address"
        }
      ],
      "name": "removeOwner",
      "outputs": [],
      "stateMutability": "nonpayable",
      "type": "function"
    },
    {
      "inputs": [
        {
          "internalType": "uint256",
          "name": "newValue",
          "type": "uint256"
        }
      ],
      "name": "setGuardianQuorum",
      "outputs": [],
      "stateMutability": "nonpayable",
      "type": "function"
    },
    {
      "inputs": [
        {
          "internalType": "uint256",
          "name": "newValue",
          "type": "uint256"
        }
      ],
      "name": "setMaxDeposits",
      "outputs": [],
      "stateMutability": "nonpayable",
      "type": "function"
    },
    {
      "inputs": [
        {
          "internalType": "uint256",
          "name": "newValue",
          "type": "uint256"
        }
      ],
      "name": "setMinDepositBlockDistance",
      "outputs": [],
      "stateMutability": "nonpayable",
      "type": "function"
    },
    {
      "inputs": [
        {
          "internalType": "address",
          "name": "newOwner",
          "type": "address"
        }
      ],
      "name": "setOwner",
      "outputs": [],
      "stateMutability": "nonpayable",
      "type": "function"
    },
    {
      "inputs": [
        {
          "internalType": "uint256",
          "name": "newValue",
          "type": "uint256"
        }
      ],
      "name": "setPauseIntentValidityPeriodBlocks",
      "outputs": [],
      "stateMutability": "nonpayable",
      "type": "function"
    },
    {
      "inputs": [
        {
          "internalType": "uint256",
          "name": "stakingModuleId",
          "type": "uint256"
        }
      ],
      "name": "unpauseDeposits",
      "outputs": [],
      "stateMutability": "nonpayable",
      "type": "function"
    }
  ],
  "bytecode": "0x6101206040523480156200001257600080fd5b50604051620023b8380380620023b883398101604081905262000035916200043f565b6001600160a01b0386166200007e5760405163eac0d38960e01b815260206004820152600960248201526817d8d85d185b1a5cdd60ba1b60448201526064015b60405180910390fd5b6001600160a01b038516620000ca5760405163eac0d38960e01b815260206004820152601060248201526f17d9195c1bdcda5d10dbdb9d1c9858dd60821b604482015260640162000075565b6001600160a01b038416620001145760405163eac0d38960e01b815260206004820152600e60248201526d2fb9ba30b5b4b733a937baba32b960911b604482015260640162000075565b6001600160a01b0380871660c05284811660e05285166101005260405162000182907fd5b82250000f4cb0efe995e24221711dadc72320678ab0fa0534057dab32a9e99046903090602001928352602083019190915260601b6001600160601b031916604082015260540190565b60408051601f1981840301815282825280516020918201206080527f8ddd2af6017f7cf1d273c53da3f52829e49638af882cae15a0cabd6109c9f4ac90830152469082015230606090811b6001600160601b0319169082015260740160408051601f19818403018152919052805160209091012060a052620002043362000231565b6200020f83620002d3565b6200021a8262000309565b62000225816200039c565b505050505050620004a5565b6001600160a01b038116620002785760405162461bcd60e51b815260206004820152600c60248201526b5a45524f5f4144445245535360a01b604482015260640162000075565b6001600160a01b038116600081815260036020908152604091829020805460ff1916600117905590519182527f994a936646fe87ffe4f1e469d3d6aa417d6b855598397f323de5b449f765f0c391015b60405180910390a150565b60008190556040518181527f4d72502b63cfe737b98b225a53708fe347cf8274baed31e0c4e4941b758da99290602001620002c8565b806200035957604051631fd43b6f60e21b815260206004820152601760248201527f6d696e4465706f736974426c6f636b44697374616e6365000000000000000000604482015260640162000075565b6001548114620003995760018190556040518181527fdb69cbc4aa6648b506b7854c26807bfd811c27feaf97ac8847e3a66356cace1490602001620002c8565b50565b80620003ec57604051631fd43b6f60e21b815260206004820152601f60248201527f7061757365496e74656e7456616c6964697479506572696f64426c6f636b7300604482015260640162000075565b60028190556040518181527f8120886d27fee35672e5d5a482d6c858105aebb26caf12178b8c0034fa88c2ba90602001620002c8565b80516001600160a01b03811681146200043a57600080fd5b919050565b60008060008060008060c087890312156200045957600080fd5b620004648762000422565b9550620004746020880162000422565b9450620004846040880162000422565b9350606087015192506080870151915060a087015190509295509295509295565b60805160a05160c05160e05161010051611e6562000553600039600081816102b40152610f3a01526000818161039e015281816105f1015281816106980152818161073e015281816108be0152818161095b01528181610a4001528181610bbf01528181611001015281816110b901526111af015260008181610348015281816107be01526112cd0152600081816103190152610ae901526000818161036f01526116cb0152611e656000f3fe608060405234801561001057600080fd5b506004361061018d5760003560e01c80636b96736b116100de578063c6dda2c311610097578063c8f712d511610071578063c8f712d5146103c0578063eccd085f146103d3578063f47610e6146103e6578063fa5cf8ba146103f957600080fd5b8063c6dda2c31461036a578063c7062e9814610391578063c8a5f8e61461039957600080fd5b80636b96736b146102af5780637e923312146102ee5780638d71a6f414610301578063a50833d614610314578063b7b7a4081461033b578063bfb326091461034357600080fd5b8063173825d91161014b57806339443b8e1161012557806339443b8e146102635780633bab964e146102765780633e6f6d68146102895780634acd54c31461029c57600080fd5b8063173825d91461021c578063251e3a211461022f5780632f54bf6e1461023757600080fd5b8062fed90214610192578063062b662e146101a75780630665f04b146101be5780630c68ba21146101d3578063111e5313146101f657806313af403514610209575b600080fd5b6101a56101a0366004611946565b61040c565b005b6004545b6040519081526020015b60405180910390f35b6101c6610450565b6040516101b5919061195f565b6101e66101e13660046119c8565b6104b2565b60405190151581526020016101b5565b6101a56102043660046119ea565b6104d4565b6101a56102173660046119c8565b610519565b6101a561022a3660046119c8565b610551565b6001546101ab565b6101e66102453660046119c8565b6001600160a01b031660009081526003602052604090205460ff1690565b6101e6610271366004611946565b6105d8565b6101a5610284366004611946565b610879565b6101a5610297366004611946565b6109f2565b6101a56102aa366004611aaa565b610a2a565b6102d67f000000000000000000000000000000000000000000000000000000000000000081565b6040516001600160a01b0390911681526020016101b5565b6101a56102fc366004611946565b610c65565b6101a561030f3660046119ea565b610c9d565b6101ab7f000000000000000000000000000000000000000000000000000000000000000081565b6000546101ab565b6102d67f000000000000000000000000000000000000000000000000000000000000000081565b6101ab7f000000000000000000000000000000000000000000000000000000000000000081565b6002546101ab565b6102d67f000000000000000000000000000000000000000000000000000000000000000081565b6101a56103ce366004611ae0565b610e4e565b6101a56103e1366004611946565b610ec5565b6101ab6103f43660046119c8565b610efd565b6101a5610407366004611bdf565b610f08565b3360009081526003602052604090205460ff166104445760405162461bcd60e51b815260040161043b90611caf565b60405180910390fd5b61044d81611347565b50565b606060058054806020026020016040519081016040528092919081815260200182805480156104a857602002820191906000526020600020905b81546001600160a01b0316815260019091019060200180831161048a575b5050505050905090565b6001600160a01b03811660009081526006602052604081205415155b92915050565b3360009081526003602052604090205460ff166105035760405162461bcd60e51b815260040161043b90611caf565b61050c8261137c565b61051581611490565b5050565b3360009081526003602052604090205460ff166105485760405162461bcd60e51b815260040161043b90611caf565b61044d816114ce565b3360009081526003602052604090205460ff166105805760405162461bcd60e51b815260040161043b90611caf565b6001600160a01b038116600081815260036020908152604091829020805460ff1916905590519182527f58619076adf5bb0943d100ef88d52d7c3fd691b19d3a9071b555b651fbf418da91015b60405180910390a150565b6040516329cd0ca760e21b8152600481018290526000907f00000000000000000000000000000000000000000000000000000000000000006001600160a01b03169063a734329c9060240160206040518083038186803b15801561063b57600080fd5b505afa15801561064f573d6000803e3d6000fd5b505050506040513d601f19601f820116820180604052508101906106739190611cd2565b61067f57506000919050565b604051636608b11b60e01b8152600481018390526000907f00000000000000000000000000000000000000000000000000000000000000006001600160a01b031690636608b11b9060240160206040518083038186803b1580156106e257600080fd5b505afa1580156106f6573d6000803e3d6000fd5b505050506040513d601f19601f8201168201806040525081019061071a9190611cd2565b60405163473e043360e01b8152600481018590529091506000906001600160a01b037f0000000000000000000000000000000000000000000000000000000000000000169063473e04339060240160206040518083038186803b15801561078057600080fd5b505afa158015610794573d6000803e3d6000fd5b505050506040513d601f19601f820116820180604052508101906107b89190611cf4565b905060007f00000000000000000000000000000000000000000000000000000000000000006001600160a01b031663e78a58756040518163ffffffff1660e01b815260040160206040518083038186803b15801561081557600080fd5b505afa158015610829573d6000803e3d6000fd5b505050506040513d601f19601f8201168201806040525081019061084d9190611cd2565b905082801561086757506001546108648343611d23565b10155b80156108705750805b95945050505050565b3360009081526003602052604090205460ff166108a85760405162461bcd60e51b815260040161043b90611caf565b60405163e24ce9f160e01b8152600481018290527f00000000000000000000000000000000000000000000000000000000000000006001600160a01b03169063e24ce9f19060240160206040518083038186803b15801561090857600080fd5b505afa15801561091c573d6000803e3d6000fd5b505050506040513d601f19601f820116820180604052508101906109409190611cd2565b1561044d57604051633618716160e21b8152600481018290527f00000000000000000000000000000000000000000000000000000000000000006001600160a01b03169063d861c58490602401600060405180830381600087803b1580156109a757600080fd5b505af11580156109bb573d6000803e3d6000fd5b505060405162ffffff841692507fb861fabb6dfce807f39e6f400693b8a826dcd89a4ce4ff8e955f6c4ddec398a39150600090a250565b3360009081526003602052604090205460ff16610a215760405162461bcd60e51b815260040161043b90611caf565b61044d81611490565b604051636608b11b60e01b8152600481018390527f00000000000000000000000000000000000000000000000000000000000000006001600160a01b031690636608b11b9060240160206040518083038186803b158015610a8a57600080fd5b505afa158015610a9e573d6000803e3d6000fd5b505050506040513d601f19601f82011682018060405250810190610ac29190611cd2565b610acb57505050565b336000610ad782611567565b9050806000191415610b7d57604080517f0000000000000000000000000000000000000000000000000000000000000000602082015290810186905260608101859052600090608001604051602081830303815290604052805190602001209050610b4b818560000151866020015161158c565b9250610b5683611567565b9150816000191415610b7b57604051638baa579f60e01b815260040160405180910390fd5b505b600254610b8a8643611d23565b1115610ba95760405163664af4ed60e01b815260040160405180910390fd5b60405163016fd57960e61b8152600481018590527f00000000000000000000000000000000000000000000000000000000000000006001600160a01b031690635bf55e4090602401600060405180830381600087803b158015610c0b57600080fd5b505af1158015610c1f573d6000803e3d6000fd5b505060405162ffffff871692506001600160a01b03851691507fa0b7f0a9bb410971c133acc48cc1b77dc067cb188643c832d0b11593f59c301b90600090a35050505050565b3360009081526003602052604090205460ff16610c945760405162461bcd60e51b815260040161043b90611caf565b61044d816115b6565b3360009081526003602052604090205460ff16610ccc5760405162461bcd60e51b815260040161043b90611caf565b6001600160a01b03821660009081526006602052604090205480610d0e576040516302333ca160e51b81526001600160a01b038416600482015260240161043b565b60055480821115610d2157610d21611d3a565b808214610db75760006005610d37600184611d23565b81548110610d4757610d47611d50565b6000918252602090912001546001600160a01b03169050806005610d6c600186611d23565b81548110610d7c57610d7c611d50565b600091825260208083209190910180546001600160a01b0319166001600160a01b039485161790559290911681526006909152604090208290555b6001600160a01b0384166000908152600660205260408120556005805480610de157610de1611d66565b600082815260209020810160001990810180546001600160a01b0319169055019055610e0c83611490565b6040516001600160a01b03851681527fb8107d0c6b40be480ce3172ee66ba6d64b71f6b1685a851340036e6e2e3e3c529060200160405180910390a150505050565b3360009081526003602052604090205460ff16610e7d5760405162461bcd60e51b815260040161043b90611caf565b60005b8251811015610ebb57610eab838281518110610e9e57610e9e611d50565b602002602001015161137c565b610eb481611d7c565b9050610e80565b5061051581611490565b3360009081526003602052604090205460ff16610ef45760405162461bcd60e51b815260040161043b90611caf565b61044d81611642565b60006104ce82611567565b6004541580610f18575060045481105b15610f3657604051630833b4e360e41b815260040160405180910390fd5b60007f00000000000000000000000000000000000000000000000000000000000000006001600160a01b031663c5f2892f6040518163ffffffff1660e01b815260040160206040518083038186803b158015610f9157600080fd5b505afa158015610fa5573d6000803e3d6000fd5b505050506040513d601f19601f82011682018060405250810190610fc99190611cf4565b9050808814610feb576040516302d654b160e41b815260040160405180910390fd5b604051636608b11b60e01b8152600481018890527f00000000000000000000000000000000000000000000000000000000000000006001600160a01b031690636608b11b9060240160206040518083038186803b15801561104b57600080fd5b505afa15801561105f573d6000803e3d6000fd5b505050506040513d601f19601f820116820180604052508101906110839190611cd2565b6110a05760405163fa7f287160e01b815260040160405180910390fd5b60405163473e043360e01b8152600481018890526000907f00000000000000000000000000000000000000000000000000000000000000006001600160a01b03169063473e04339060240160206040518083038186803b15801561110357600080fd5b505afa158015611117573d6000803e3d6000fd5b505050506040513d601f19601f8201168201806040525081019061113b9190611cf4565b60015490915061114b8243611d23565b101561116a57604051633ec3745360e11b815260040160405180910390fd5b8915806111785750898b4014155b15611196576040516328aada8b60e21b815260040160405180910390fd5b604051630519fbbf60e01b8152600481018990526000907f00000000000000000000000000000000000000000000000000000000000000006001600160a01b031690630519fbbf9060240160206040518083038186803b1580156111f957600080fd5b505afa15801561120d573d6000803e3d6000fd5b505050506040513d601f19601f820116820180604052508101906112319190611cf4565b905080881461125357604051632e8f7e7360e11b815260040160405180910390fd5b6112b38a8d8d8c8c8a8a808060200260200160405190810160405280939291908181526020016000905b828210156112a95761129a60408302860136819003810190611d97565b8152602001906001019061127d565b50505050506116c5565b60005460405163aa0b7db760e01b81526001600160a01b037f0000000000000000000000000000000000000000000000000000000000000000169163aa0b7db79161130791908d908c908c90600401611db3565b600060405180830381600087803b15801561132157600080fd5b505af1158015611335573d6000803e3d6000fd5b50505050505050505050505050505050565b60008190556040518181527f4d72502b63cfe737b98b225a53708fe347cf8274baed31e0c4e4941b758da992906020016105cd565b6001600160a01b0381166113c25760405163eac0d38960e01b815260206004820152600c60248201526b2fb732bba3bab0b93234b0b760a11b604482015260640161043b565b6001600160a01b0381166000908152600660205260409020541561140457604051639f2277f360e01b81526001600160a01b038216600482015260240161043b565b600580546001810182557f036b6384b5eca791c62761152d0c79bb0604c104a5fb6f4eb0703f3154bb3db00180546001600160a01b0319166001600160a01b038416908117909155905460008281526006602090815260409182902092909255519182527f038596bb31e2e7d3d9f184d4c98b310103f6d7f5830e5eec32bffe6f1728f96991016105cd565b806004541461044d5760048190556040518181527f70d7432f2ec830b36e5b8c45176a8079968714429c4be85665c06ec1b8fde4bb906020016105cd565b6001600160a01b0381166115135760405162461bcd60e51b815260206004820152600c60248201526b5a45524f5f4144445245535360a01b604482015260640161043b565b6001600160a01b038116600081815260036020908152604091829020805460ff1916600117905590519182527f994a936646fe87ffe4f1e469d3d6aa417d6b855598397f323de5b449f765f0c391016105cd565b6001600160a01b0381166000908152600660205260408120546104ce90600190611df0565b60006001600160ff1b03821660ff83901c601b016115ac86828785611812565b9695505050505050565b8061160457604051631fd43b6f60e21b815260206004820152601760248201527f6d696e4465706f736974426c6f636b44697374616e6365000000000000000000604482015260640161043b565b600154811461044d5760018190556040518181527fdb69cbc4aa6648b506b7854c26807bfd811c27feaf97ac8847e3a66356cace14906020016105cd565b8061169057604051631fd43b6f60e21b815260206004820152601f60248201527f7061757365496e74656e7456616c6964697479506572696f64426c6f636b7300604482015260640161043b565b60028190556040518181527f8120886d27fee35672e5d5a482d6c858105aebb26caf12178b8c0034fa88c2ba906020016105cd565b604080517f00000000000000000000000000000000000000000000000000000000000000006020820152908101869052606081018590526080810187905260a0810184905260c0810183905260009060e0016040516020818303038152906040528051906020012090506000805b83518110156118075760006117838486848151811061175457611754611d50565b60200260200101516000015187858151811061177257611772611d50565b60200260200101516020015161158c565b90506117a6816001600160a01b0316600090815260066020526040902054151590565b6117c357604051638baa579f60e01b815260040160405180910390fd5b826001600160a01b0316816001600160a01b0316116117f5576040516301eba55160e01b815260040160405180910390fd5b915061180081611d7c565b9050611733565b505050505050505050565b60007f7fffffffffffffffffffffffffffffff5d576e7357a4501ddfe92f46681b20a082111561188f5760405162461bcd60e51b815260206004820152602260248201527f45434453413a20696e76616c6964207369676e6174757265202773272076616c604482015261756560f01b606482015260840161043b565b6040805160008082526020820180845288905260ff871692820192909252606081018590526080810184905260019060a0016020604051602081039080840390855afa1580156118e3573d6000803e3d6000fd5b5050604051601f1901519150506001600160a01b0381166108705760405162461bcd60e51b815260206004820152601860248201527f45434453413a20696e76616c6964207369676e61747572650000000000000000604482015260640161043b565b60006020828403121561195857600080fd5b5035919050565b6020808252825182820181905260009190848201906040850190845b818110156119a05783516001600160a01b03168352928401929184019160010161197b565b50909695505050505050565b80356001600160a01b03811681146119c357600080fd5b919050565b6000602082840312156119da57600080fd5b6119e3826119ac565b9392505050565b600080604083850312156119fd57600080fd5b611a06836119ac565b946020939093013593505050565b634e487b7160e01b600052604160045260246000fd5b604051601f8201601f1916810167ffffffffffffffff81118282101715611a5357611a53611a14565b604052919050565b600060408284031215611a6d57600080fd5b6040516040810181811067ffffffffffffffff82111715611a9057611a90611a14565b604052823581526020928301359281019290925250919050565b600080600060808486031215611abf57600080fd5b8335925060208401359150611ad78560408601611a5b565b90509250925092565b60008060408385031215611af357600080fd5b823567ffffffffffffffff80821115611b0b57600080fd5b818501915085601f830112611b1f57600080fd5b8135602082821115611b3357611b33611a14565b8160051b9250611b44818401611a2a565b8281529284018101928181019089851115611b5e57600080fd5b948201945b84861015611b8357611b74866119ac565b82529482019490820190611b63565b9997909101359750505050505050565b60008083601f840112611ba557600080fd5b50813567ffffffffffffffff811115611bbd57600080fd5b6020830191508360208260061b8501011115611bd857600080fd5b9250929050565b600080600080600080600080600060e08a8c031215611bfd57600080fd5b8935985060208a0135975060408a0135965060608a0135955060808a0135945060a08a013567ffffffffffffffff80821115611c3857600080fd5b818c0191508c601f830112611c4c57600080fd5b813581811115611c5b57600080fd5b8d6020828501011115611c6d57600080fd5b6020830196508095505060c08c0135915080821115611c8b57600080fd5b50611c988c828d01611b93565b915080935050809150509295985092959850929598565b6020808252600990820152682727aa2fa7aba722a960b91b604082015260600190565b600060208284031215611ce457600080fd5b815180151581146119e357600080fd5b600060208284031215611d0657600080fd5b5051919050565b634e487b7160e01b600052601160045260246000fd5b600082821015611d3557611d35611d0d565b500390565b634e487b7160e01b600052600160045260246000fd5b634e487b7160e01b600052603260045260246000fd5b634e487b7160e01b600052603160045260246000fd5b6000600019821415611d9057611d90611d0d565b5060010190565b600060408284031215611da957600080fd5b6119e38383611a5b565b84815283602082015260606040820152816060820152818360808301376000818301608090810191909152601f909201601f191601019392505050565b60008083128015600160ff1b850184121615611e0e57611e0e611d0d565b6001600160ff1b0384018313811615611e2957611e29611d0d565b5050039056fea2646970667358221220057440805efe22268e0983f59ff15084bf91a8510f4b730cba0ced88ff98d2be64736f6c63430008090033",
  "linkReferences": {},
  "deployedLinkReferences": {}
}