{
  "_format": "hh-sol-artifact-1",
  "contractName": "Controlled",
  "sourceName": "@aragon/minime/contracts/MiniMeToken.sol",
  "abi": [
    {
      "constant": false,
      "inputs": [
        {
          "name": "_newController",
          "type": "address"
        }
      ],
      "name": "changeController",
      "outputs": [],
      "payable": false,
      "stateMutability": "nonpayable",
      "type": "function"
    },
    {
      "constant": true,
      "inputs": [],
      "name": "controller",
      "outputs": [
        {
          "name": "",
          "type": "address"
        }
      ],
      "payable": false,
      "stateMutability": "view",
      "type": "function"
    },
    {
      "inputs": [],
      "payable": false,
      "stateMutability": "nonpayable",
      "type": "constructor"
    }
  ],
  "bytecode": "0x608060405234801561001057600080fd5b5060008054600160a060020a0319163317905561014a806100326000396000f30060806040526004361061002f5760003560e01c63ffffffff1680633cebb82314610034578063f77c479114610064575b600080fd5b34801561004057600080fd5b5061006273ffffffffffffffffffffffffffffffffffffffff600435166100a2565b005b34801561007057600080fd5b50610079610102565b6040805173ffffffffffffffffffffffffffffffffffffffff9092168252519081900360200190f35b60005473ffffffffffffffffffffffffffffffffffffffff1633146100c657600080fd5b6000805473ffffffffffffffffffffffffffffffffffffffff191673ffffffffffffffffffffffffffffffffffffffff92909216919091179055565b60005473ffffffffffffffffffffffffffffffffffffffff16815600a165627a7a72305820c7c7f1b49b20973474a5c675f8774700b516aae2a943368f47b198d2fb9d3b070029",
  "linkReferences": {},
  "deployedLinkReferences": {}
}