{
  "_format": "hh-sol-artifact-1",
  "contractName": "MiniMeTokenFactory",
  "sourceName": "@aragon/minime/contracts/MiniMeToken.sol",
  "abi": [
    {
      "constant": false,
      "inputs": [
        {
          "name": "_parentToken",
          "type": "address"
        },
        {
          "name": "_snapshotBlock",
          "type": "uint256"
        },
        {
          "name": "_tokenName",
          "type": "string"
        },
        {
          "name": "_decimalUnits",
          "type": "uint8"
        },
        {
          "name": "_tokenSymbol",
          "type": "string"
        },
        {
          "name": "_transfersEnabled",
          "type": "bool"
        }
      ],
      "name": "createCloneToken",
      "outputs": [
        {
          "name": "",
          "type": "address"
        }
      ],
      "payable": false,
      "stateMutability": "nonpayable",
      "type": "function"
    },
    {
      "anonymous": false,
      "inputs": [
        {
          "indexed": true,
          "name": "_cloneToken",
          "type": "address"
        },
        {
          "indexed": true,
          "name": "_parentToken",
          "type": "address"
        },
        {
          "indexed": false,
          "name": "_snapshotBlock",
          "type": "uint256"
        }
      ],
      "name": "NewFactoryCloneToken",
      "type": "event"
    }
  ],
  "bytecode": "0x608060405234801561001057600080fd5b50611e8b806100206000396000f3006080604052600436106100245760003560e01c63ffffffff1680635b7b72c114610029575b600080fd5b34801561003557600080fd5b50604080516020600460443581810135601f81018490048402850184019095528484526100ea94823573ffffffffffffffffffffffffffffffffffffffff1694602480359536959460649492019190819084018382808284375050604080516020601f818a01358b0180359182018390048302840183018552818452989b60ff8b35169b909a909994019750919550918201935091508190840183828082843750949750505050913515159250610113915050565b6040805173ffffffffffffffffffffffffffffffffffffffff9092168252519081900360200190f35b6000803088888888888861012561033d565b73ffffffffffffffffffffffffffffffffffffffff808916825287166020808301919091526040820187905260ff8516608083015282151560c083015260e0606083018181528751918401919091528651909160a084019161010085019189019080838360005b838110156101a457818101518382015260200161018c565b50505050905090810190601f1680156101d15780820380516001836020036101000a031916815260200191505b50838103825285518152855160209182019187019080838360005b838110156102045781810151838201526020016101ec565b50505050905090810190601f1680156102315780820380516001836020036101000a031916815260200191505b509950505050505050505050604051809103906000f080158015610259573d6000803e3d6000fd5b50604080517f3cebb823000000000000000000000000000000000000000000000000000000008152336004820152905191925073ffffffffffffffffffffffffffffffffffffffff831691633cebb8239160248082019260009290919082900301818387803b1580156102cb57600080fd5b505af11580156102df573d6000803e3d6000fd5b5050604080518a8152905173ffffffffffffffffffffffffffffffffffffffff808d169450851692507fc337445265c93360601091223596471f7a4b93b349452fdf81df12fd9ceb57ca9181900360200190a3979650505050505050565b604051611b128061034e83390190560060c0604052600760808190527f4d4d545f302e310000000000000000000000000000000000000000000000000060a090815262000040916004919062000147565b503480156200004e57600080fd5b5060405162001b1238038062001b128339810160409081528151602080840151928401516060850151608086015160a087015160c088015160008054600160a060020a03191633179055600b8054600160a060020a0389166101000261010060a860020a031990911617905592880180519698949690959294919091019291620000de9160019187019062000147565b506002805460ff191660ff851617905581516200010390600390602085019062000147565b5060058054600160a060020a031916600160a060020a039790971696909617909555505050600655600b805460ff19169115159190911790555043600755620001ec565b828054600181600116156101000203166002900490600052602060002090601f016020900481019282601f106200018a57805160ff1916838001178555620001ba565b82800160010185558215620001ba579182015b82811115620001ba5782518255916020019190600101906200019d565b50620001c8929150620001cc565b5090565b620001e991905b80821115620001c85760008155600101620001d3565b90565b61191680620001fc6000396000f30060806040526004361061012c5760003560e01c63ffffffff16806306fdde03146101ef578063095ea7b31461027957806317634514146102b157806318160ddd146102d857806323b872dd146102ed578063313ce567146103175780633cebb823146103425780634ee2cd7e1461036357806354fd4d50146103875780636638c0871461039c57806370a082311461045f57806380a5400114610480578063827f32c01461049557806395d89b41146104b9578063981b24d0146104ce578063a9059cbb146104e6578063bef97c871461050a578063c5bcc4f11461051f578063cae9ca5114610534578063d3ce77fe1461059d578063dd62ed3e146105c1578063df8de3e7146105e8578063e77772fe14610609578063f41e60c51461061e578063f77c479114610638575b60005461014190600160a060020a031661064d565b151561014c57600080fd5b600054604080517ff48c30540000000000000000000000000000000000000000000000000000000081523360048201529051600160a060020a039092169163f48c3054913491602480830192602092919082900301818588803b1580156101b257600080fd5b505af11580156101c6573d6000803e3d6000fd5b50505050506040513d60208110156101dd57600080fd5b505115156001146101ed57600080fd5b005b3480156101fb57600080fd5b5061020461067a565b6040805160208082528351818301528351919283929083019185019080838360005b8381101561023e578181015183820152602001610226565b50505050905090810190601f16801561026b5780820380516001836020036101000a031916815260200191505b509250505060405180910390f35b34801561028557600080fd5b5061029d600160a060020a0360043516602435610707565b604080519115158252519081900360200190f35b3480156102bd57600080fd5b506102c6610888565b60408051918252519081900360200190f35b3480156102e457600080fd5b506102c661088e565b3480156102f957600080fd5b5061029d600160a060020a036004358116906024351660443561089f565b34801561032357600080fd5b5061032c610936565b6040805160ff9092168252519081900360200190f35b34801561034e57600080fd5b506101ed600160a060020a036004351661093f565b34801561036f57600080fd5b506102c6600160a060020a0360043516602435610985565b34801561039357600080fd5b50610204610acf565b3480156103a857600080fd5b506040805160206004803580820135601f810184900484028501840190955284845261044394369492936024939284019190819084018382808284375050604080516020601f818a01358b0180359182018390048302840183018552818452989b60ff8b35169b909a909994019750919550918201935091508190840183828082843750949750508435955050505050602001351515610b2a565b60408051600160a060020a039092168252519081900360200190f35b34801561046b57600080fd5b506102c6600160a060020a0360043516610d90565b34801561048c57600080fd5b50610443610da4565b3480156104a157600080fd5b5061029d600160a060020a0360043516602435610db3565b3480156104c557600080fd5b50610204610e7f565b3480156104da57600080fd5b506102c6600435610eda565b3480156104f257600080fd5b5061029d600160a060020a0360043516602435610fcb565b34801561051657600080fd5b5061029d610fea565b34801561052b57600080fd5b506102c6610ff3565b34801561054057600080fd5b50604080516020600460443581810135601f810184900484028501840190955284845261029d948235600160a060020a0316946024803595369594606494920191908190840183828082843750949750610ff99650505050505050565b3480156105a957600080fd5b5061029d600160a060020a0360043516602435611114565b3480156105cd57600080fd5b506102c6600160a060020a03600435811690602435166111dc565b3480156105f457600080fd5b506101ed600160a060020a0360043516611207565b34801561061557600080fd5b506104436113ee565b34801561062a57600080fd5b506101ed6004351515611402565b34801561064457600080fd5b5061044361142c565b600080600160a060020a03831615156106695760009150610674565b823b90506000811191505b50919050565b60018054604080516020600284861615610100026000190190941693909304601f810184900484028201840190925281815292918301828280156106ff5780601f106106d4576101008083540402835291602001916106ff565b820191906000526020600020905b8154815290600101906020018083116106e257829003601f168201915b505050505081565b600b5460009060ff16151561071b57600080fd5b8115806107495750336000908152600960209081526040808320600160a060020a0387168452909152902054155b151561075457600080fd5b60005461076990600160a060020a031661064d565b156108205760008054604080517fda682aeb000000000000000000000000000000000000000000000000000000008152336004820152600160a060020a038781166024830152604482018790529151919092169263da682aeb92606480820193602093909283900390910190829087803b1580156107e657600080fd5b505af11580156107fa573d6000803e3d6000fd5b505050506040513d602081101561081057600080fd5b5051151560011461082057600080fd5b336000818152600960209081526040808320600160a060020a03881680855290835292819020869055805186815290519293927f8c5be1e5ebec7d5bd14f71427d1e84f3dd0314c0f7b2291e5b200ac8c7c3b925929181900390910190a35060015b92915050565b60075481565b600061089943610eda565b90505b90565b60008054600160a060020a0316331461092157600b5460ff1615156108c357600080fd5b600160a060020a03841660009081526009602090815260408083203384529091529020548211156108f65750600061092f565b600160a060020a03841660009081526009602090815260408083203384529091529020805483900390555b61092c84848461143b565b90505b9392505050565b60025460ff1681565b600054600160a060020a0316331461095657600080fd5b6000805473ffffffffffffffffffffffffffffffffffffffff1916600160a060020a0392909216919091179055565b600160a060020a03821660009081526008602052604081205415806109e15750600160a060020a0383166000908152600860205260408120805484929081106109ca57fe5b6000918252602090912001546001608060020a0316115b15610aa657600554600160a060020a031615610a9e57600554600654600160a060020a0390911690634ee2cd7e908590610a1c908690611630565b6040518363ffffffff1660e01b81526004018083600160a060020a0316600160a060020a0316815260200182815260200192505050602060405180830381600087803b158015610a6b57600080fd5b505af1158015610a7f573d6000803e3d6000fd5b505050506040513d6020811015610a9557600080fd5b50519050610882565b506000610882565b600160a060020a0383166000908152600860205260409020610ac89083611646565b9050610882565b6004805460408051602060026001851615610100026000190190941693909304601f810184900484028201840190925281815292918301828280156106ff5780601f106106d4576101008083540402835291602001916106ff565b600080808415610b3a5784610b3f565b600143035b600b546040517f5b7b72c100000000000000000000000000000000000000000000000000000000815230600482018181526024830185905260ff8c16606484015288151560a484015260c0604484019081528d5160c48501528d51959750610100909404600160a060020a031694635b7b72c194929388938f938f938f938e9391608482019160e40190602089019080838360005b83811015610bec578181015183820152602001610bd4565b50505050905090810190601f168015610c195780820380516001836020036101000a031916815260200191505b50838103825285518152855160209182019187019080838360005b83811015610c4c578181015183820152602001610c34565b50505050905090810190601f168015610c795780820380516001836020036101000a031916815260200191505b5098505050505050505050602060405180830381600087803b158015610c9e57600080fd5b505af1158015610cb2573d6000803e3d6000fd5b505050506040513d6020811015610cc857600080fd5b5051604080517f3cebb8230000000000000000000000000000000000000000000000000000000081523360048201529051919250600160a060020a03831691633cebb8239160248082019260009290919082900301818387803b158015610d2e57600080fd5b505af1158015610d42573d6000803e3d6000fd5b5050604080518581529051600160a060020a03851693507f086c875b377f900b07ce03575813022f05dd10ed7640b5282cf6d3c3fc352ade92509081900360200190a2979650505050505050565b6000610d9c8243610985565b90505b919050565b600554600160a060020a031681565b6000805481908190600160a060020a03163314610dcf57600080fd5b610dd761088e565b9150838201821115610de857600080fd5b610df185610d90565b9050838101811115610e0257600080fd5b610e0f600a8584016117a5565b600160a060020a0385166000908152600860205260409020610e33908286016117a5565b604080518581529051600160a060020a038716916000917fddf252ad1be2c89b69c2b068fc378daa952ba7f163c4a11628f55a4df523b3ef9181900360200190a3506001949350505050565b6003805460408051602060026001851615610100026000190190941693909304601f810184900484028201840190925281815292918301828280156106ff5780601f106106d4576101008083540402835291602001916106ff565b600a546000901580610f0f575081600a6000815481101515610ef857fe5b6000918252602090912001546001608060020a0316115b15610fb957600554600160a060020a031615610fb157600554600654600160a060020a039091169063981b24d090610f48908590611630565b6040518263ffffffff1660e01b815260040180828152602001915050602060405180830381600087803b158015610f7e57600080fd5b505af1158015610f92573d6000803e3d6000fd5b505050506040513d6020811015610fa857600080fd5b50519050610d9f565b506000610d9f565b610fc4600a83611646565b9050610d9f565b600b5460009060ff161515610fdf57600080fd5b61092f33848461143b565b600b5460ff1681565b60065481565b60006110058484610707565b151561101057600080fd5b6040517f8f4ffcb10000000000000000000000000000000000000000000000000000000081523360048201818152602483018690523060448401819052608060648501908152865160848601528651600160a060020a038a1695638f4ffcb195948a94938a939192909160a490910190602085019080838360005b838110156110a357818101518382015260200161108b565b50505050905090810190601f1680156110d05780820380516001836020036101000a031916815260200191505b5095505050505050600060405180830381600087803b1580156110f257600080fd5b505af1158015611106573d6000803e3d6000fd5b506001979650505050505050565b6000805481908190600160a060020a0316331461113057600080fd5b61113861088e565b91508382101561114757600080fd5b61115085610d90565b90508381101561115f57600080fd5b61116c600a8584036117a5565b600160a060020a0385166000908152600860205260409020611190908583036117a5565b604080518581529051600091600160a060020a038816917fddf252ad1be2c89b69c2b068fc378daa952ba7f163c4a11628f55a4df523b3ef9181900360200190a3506001949350505050565b600160a060020a03918216600090815260096020908152604080832093909416825291909152205490565b600080548190600160a060020a0316331461122157600080fd5b600160a060020a03831615156112725760008054604051600160a060020a0390911691303180156108fc02929091818181858888f1935050505015801561126c573d6000803e3d6000fd5b506113e9565b604080517f70a082310000000000000000000000000000000000000000000000000000000081523060048201529051849350600160a060020a038416916370a082319160248083019260209291908290030181600087803b1580156112d657600080fd5b505af11580156112ea573d6000803e3d6000fd5b505050506040513d602081101561130057600080fd5b505160008054604080517fa9059cbb000000000000000000000000000000000000000000000000000000008152600160a060020a0392831660048201526024810185905290519394509085169263a9059cbb92604480840193602093929083900390910190829087803b15801561137657600080fd5b505af115801561138a573d6000803e3d6000fd5b505050506040513d60208110156113a057600080fd5b5050600054604080518381529051600160a060020a03928316928616917ff931edb47c50b4b4104c187b5814a9aef5f709e17e2ecf9617e860cacade929c919081900360200190a35b505050565b600b546101009004600160a060020a031681565b600054600160a060020a0316331461141957600080fd5b600b805460ff1916911515919091179055565b600054600160a060020a031681565b6000808083151561144f5760019250611627565b600654431161145d57600080fd5b600160a060020a0385161580159061147e5750600160a060020a0385163014155b151561148957600080fd5b6114938643610985565b9150838210156114a65760009250611627565b6000546114bb90600160a060020a031661064d565b156115745760008054604080517f4a393149000000000000000000000000000000000000000000000000000000008152600160a060020a038a8116600483015289811660248301526044820189905291519190921692634a39314992606480820193602093909283900390910190829087803b15801561153a57600080fd5b505af115801561154e573d6000803e3d6000fd5b505050506040513d602081101561156457600080fd5b5051151560011461157457600080fd5b600160a060020a0386166000908152600860205260409020611598908584036117a5565b6115a28543610985565b90508381018111156115b357600080fd5b600160a060020a03851660009081526008602052604090206115d7908286016117a5565b84600160a060020a031686600160a060020a03167fddf252ad1be2c89b69c2b068fc378daa952ba7f163c4a11628f55a4df523b3ef866040518082815260200191505060405180910390a3600192505b50509392505050565b600081831061163f578161092f565b5090919050565b600080600080858054905060001415611662576000935061179c565b85548690600019810190811061167457fe5b6000918252602090912001546001608060020a031685106116d1578554869060001981019081106116a157fe5b60009182526020909120015470010000000000000000000000000000000090046001608060020a0316935061179c565b8560008154811015156116e057fe5b6000918252602090912001546001608060020a0316851015611705576000935061179c565b8554600093506000190191505b8282111561176257600260018385010104905084868281548110151561173457fe5b6000918252602090912001546001608060020a0316116117565780925061175d565b6001810391505b611712565b858381548110151561177057fe5b60009182526020909120015470010000000000000000000000000000000090046001608060020a031693505b50505092915050565b6000806001608060020a038311156117bc57600080fd5b835415806117f0575083544390859060001981019081106117d957fe5b6000918252602090912001546001608060020a0316105b15611862578354849061180682600183016118ad565b8154811061181057fe5b600091825260209091200180546001608060020a03858116700100000000000000000000000000000000024382166fffffffffffffffffffffffffffffffff19909316929092171617815591506118a7565b83548490600019810190811061187457fe5b600091825260209091200180546001608060020a0380861670010000000000000000000000000000000002911617815590505b50505050565b8154818355818111156113e9576000838152602090206113e991810190830161089c91905b808211156118e657600081556001016118d2565b50905600a165627a7a7230582099ddf1aa0b3060fa788c690cdc60d330f7e05eced500925d53f53d1c854867570029a165627a7a72305820e0aabe221e0f3c8998dcb27d736e6830b620d4662e1197fcc74124aa5cfbd1fe0029",
  "linkReferences": {},
  "deployedLinkReferences": {}
}