{
  "_format": "hh-sol-artifact-1",
  "contractName": "ENS",
  "sourceName": "@aragon/os/contracts/lib/ens/ENS.sol",
  "abi": [
    {
      "constant": true,
      "inputs": [
        {
          "name": "node",
          "type": "bytes32"
        }
      ],
      "name": "resolver",
      "outputs": [
        {
          "name": "",
          "type": "address"
        }
      ],
      "payable": false,
      "stateMutability": "view",
      "type": "function"
    },
    {
      "constant": true,
      "inputs": [
        {
          "name": "node",
          "type": "bytes32"
        }
      ],
      "name": "owner",
      "outputs": [
        {
          "name": "",
          "type": "address"
        }
      ],
      "payable": false,
      "stateMutability": "view",
      "type": "function"
    },
    {
      "constant": false,
      "inputs": [
        {
          "name": "node",
          "type": "bytes32"
        },
        {
          "name": "label",
          "type": "bytes32"
        },
        {
          "name": "owner",
          "type": "address"
        }
      ],
      "name": "setSubnodeOwner",
      "outputs": [],
      "payable": false,
      "stateMutability": "nonpayable",
      "type": "function"
    },
    {
      "constant": false,
      "inputs": [
        {
          "name": "node",
          "type": "bytes32"
        },
        {
          "name": "ttl",
          "type": "uint64"
        }
      ],
      "name": "setTTL",
      "outputs": [],
      "payable": false,
      "stateMutability": "nonpayable",
      "type": "function"
    },
    {
      "constant": true,
      "inputs": [
        {
          "name": "node",
          "type": "bytes32"
        }
      ],
      "name": "ttl",
      "outputs": [
        {
          "name": "",
          "type": "uint64"
        }
      ],
      "payable": false,
      "stateMutability": "view",
      "type": "function"
    },
    {
      "constant": false,
      "inputs": [
        {
          "name": "node",
          "type": "bytes32"
        },
        {
          "name": "resolver",
          "type": "address"
        }
      ],
      "name": "setResolver",
      "outputs": [],
      "payable": false,
      "stateMutability": "nonpayable",
      "type": "function"
    },
    {
      "constant": false,
      "inputs": [
        {
          "name": "node",
          "type": "bytes32"
        },
        {
          "name": "owner",
          "type": "address"
        }
      ],
      "name": "setOwner",
      "outputs": [],
      "payable": false,
      "stateMutability": "nonpayable",
      "type": "function"
    },
    {
      "inputs": [],
      "payable": false,
      "stateMutability": "nonpayable",
      "type": "constructor"
    },
    {
      "anonymous": false,
      "inputs": [
        {
          "indexed": true,
          "name": "_node",
          "type": "bytes32"
        },
        {
          "indexed": true,
          "name": "_label",
          "type": "bytes32"
        },
        {
          "indexed": false,
          "name": "_owner",
          "type": "address"
        }
      ],
      "name": "NewOwner",
      "type": "event"
    },
    {
      "anonymous": false,
      "inputs": [
        {
          "indexed": true,
          "name": "_node",
          "type": "bytes32"
        },
        {
          "indexed": false,
          "name": "_owner",
          "type": "address"
        }
      ],
      "name": "Transfer",
      "type": "event"
    },
    {
      "anonymous": false,
      "inputs": [
        {
          "indexed": true,
          "name": "_node",
          "type": "bytes32"
        },
        {
          "indexed": false,
          "name": "_resolver",
          "type": "address"
        }
      ],
      "name": "NewResolver",
      "type": "event"
    },
    {
      "anonymous": false,
      "inputs": [
        {
          "indexed": true,
          "name": "_node",
          "type": "bytes32"
        },
        {
          "indexed": false,
          "name": "_ttl",
          "type": "uint64"
        }
      ],
      "name": "NewTTL",
      "type": "event"
    }
  ],
  "bytecode": "0x608060405234801561001057600080fd5b5060008080526020527fad3228b676f7d3cd4284a5443f17f1962b36e491b30a40b2405849e597ba5fb58054600160a060020a031916331790556104e4806100596000396000f3006080604052600436106100665760003560e01c63ffffffff1680630178b8bf1461006b57806302571be31461009f57806306ab5923146100b757806314ab9038146100e057806316a25cbd146101055780631896f70a1461013a5780635b0fc9c31461015e575b600080fd5b34801561007757600080fd5b50610083600435610182565b60408051600160a060020a039092168252519081900360200190f35b3480156100ab57600080fd5b506100836004356101a0565b3480156100c357600080fd5b506100de600435602435600160a060020a03604435166101bb565b005b3480156100ec57600080fd5b506100de60043567ffffffffffffffff60243516610275565b34801561011157600080fd5b5061011d60043561033e565b6040805167ffffffffffffffff9092168252519081900360200190f35b34801561014657600080fd5b506100de600435600160a060020a0360243516610375565b34801561016a57600080fd5b506100de600435600160a060020a0360243516610418565b600090815260208190526040902060010154600160a060020a031690565b600090815260208190526040902054600160a060020a031690565b6000838152602081905260408120548490600160a060020a031633146101e057600080fd5b60408051868152602080820187905282519182900383018220600160a060020a03871683529251929450869288927fce0457fe73731f824cc272376169235128c118b49d344817417c6d108d155e8292908290030190a3506000908152602081905260409020805473ffffffffffffffffffffffffffffffffffffffff1916600160a060020a03929092169190911790555050565b6000828152602081905260409020548290600160a060020a0316331461029a57600080fd5b6040805167ffffffffffffffff84168152905184917f1d4f9bbfc9cab89d66e1a1562f2233ccbf1308cb4f63de2ead5787adddb8fa68919081900360200190a250600091825260208290526040909120600101805467ffffffffffffffff90921674010000000000000000000000000000000000000000027fffffffff0000000000000000ffffffffffffffffffffffffffffffffffffffff909216919091179055565b60009081526020819052604090206001015474010000000000000000000000000000000000000000900467ffffffffffffffff1690565b6000828152602081905260409020548290600160a060020a0316331461039a57600080fd5b60408051600160a060020a0384168152905184917f335721b01866dc23fbee8b6b2c7b1e14d6f05c28cd35a2c934239f94095602a0919081900360200190a250600091825260208290526040909120600101805473ffffffffffffffffffffffffffffffffffffffff1916600160a060020a03909216919091179055565b6000828152602081905260409020548290600160a060020a0316331461043d57600080fd5b60408051600160a060020a0384168152905184917fd4735d920b0f87494915f556dd9b54c8f309026070caea5c737245152564d266919081900360200190a250600091825260208290526040909120805473ffffffffffffffffffffffffffffffffffffffff1916600160a060020a039092169190911790555600a165627a7a723058205774bf60788ecbdb6de5b2974c4bab8ee5eb9359f21652c8398e3745cd000e500029",
  "linkReferences": {},
  "deployedLinkReferences": {}
}