{
  "_format": "hh-sol-artifact-1",
  "contractName": "DepositableStorage",
  "sourceName": "@aragon/os/contracts/common/DepositableStorage.sol",
  "abi": [
    {
      "constant": true,
      "inputs": [],
      "name": "isDepositable",
      "outputs": [
        {
          "name": "",
          "type": "bool"
        }
      ],
      "payable": false,
      "stateMutability": "view",
      "type": "function"
    }
  ],
  "bytecode": "0x608060405234801561001057600080fd5b5060ab8061001f6000396000f30060806040526004361060225760003560e01c63ffffffff16806348a0c8dd146027575b600080fd5b348015603257600080fd5b506039604d565b604080519115158252519081900360200190f35b600060767f665fd576fbbe6f247aff98f5c94a561e3f71ec2d3c988d56f12d342396c50cea607b565b905090565b54905600a165627a7a72305820e84553367ac57ca5c001aad3d5d0a913f83af94b094bef6795279224012e014e0029",
  "linkReferences": {},
  "deployedLinkReferences": {}
}