{
  "_format": "hh-sol-artifact-1",
  "contractName": "DAOFactory",
  "sourceName": "@aragon/os/contracts/factory/DAOFactory.sol",
  "abi": [
    {
      "constant": true,
      "inputs": [],
      "name": "baseACL",
      "outputs": [
        {
          "name": "",
          "type": "address"
        }
      ],
      "payable": false,
      "stateMutability": "view",
      "type": "function"
    },
    {
      "constant": false,
      "inputs": [
        {
          "name": "_root",
          "type": "address"
        }
      ],
      "name": "newDAO",
      "outputs": [
        {
          "name": "",
          "type": "address"
        }
      ],
      "payable": false,
      "stateMutability": "nonpayable",
      "type": "function"
    },
    {
      "constant": true,
      "inputs": [],
      "name": "regFactory",
      "outputs": [
        {
          "name": "",
          "type": "address"
        }
      ],
      "payable": false,
      "stateMutability": "view",
      "type": "function"
    },
    {
      "constant": true,
      "inputs": [],
      "name": "baseKernel",
      "outputs": [
        {
          "name": "",
          "type": "address"
        }
      ],
      "payable": false,
      "stateMutability": "view",
      "type": "function"
    },
    {
      "inputs": [
        {
          "name": "_baseKernel",
          "type": "address"
        },
        {
          "name": "_baseACL",
          "type": "address"
        },
        {
          "name": "_regFactory",
          "type": "address"
        }
      ],
      "payable": false,
      "stateMutability": "nonpayable",
      "type": "constructor"
    },
    {
      "anonymous": false,
      "inputs": [
        {
          "indexed": false,
          "name": "dao",
          "type": "address"
        }
      ],
      "name": "DeployDAO",
      "type": "event"
    },
    {
      "anonymous": false,
      "inputs": [
        {
          "indexed": false,
          "name": "reg",
          "type": "address"
        }
      ],
      "name": "DeployEVMScriptRegistry",
      "type": "event"
    }
  ],
  "bytecode": "0x608060405234801561001057600080fd5b50604051606080610eef833981016040908152815160208301519190920151600160a060020a0381161561005a5760028054600160a060020a031916600160a060020a0383161790555b5060008054600160a060020a03938416600160a060020a03199182161790915560018054929093169116179055610e59806100966000396000f3006080604052600436106100455760003560e01c63ffffffff168063086b339e1461004a578063216874441461007b578063656362b51461009c578063b16dd130146100b1575b600080fd5b34801561005657600080fd5b5061005f6100c6565b60408051600160a060020a039092168252519081900360200190f35b34801561008757600080fd5b5061005f600160a060020a03600435166100d5565b3480156100a857600080fd5b5061005f61093f565b3480156100bd57600080fd5b5061005f61094e565b600154600160a060020a031681565b6000805481908190819081908190600160a060020a03166100f461095d565b600160a060020a03909116815260405190819003602001906000f080158015610121573d6000803e3d6000fd5b50600254909550600160a060020a031615156101c357600154604080517f485cc955000000000000000000000000000000000000000000000000000000008152600160a060020a039283166004820152898316602482015290519187169163485cc9559160448082019260009290919082900301818387803b1580156101a657600080fd5b505af11580156101ba573d6000803e3d6000fd5b505050506108f8565b600154604080517f485cc955000000000000000000000000000000000000000000000000000000008152600160a060020a03928316600482015230602482015290519187169163485cc9559160448082019260009290919082900301818387803b15801561023057600080fd5b505af1158015610244573d6000803e3d6000fd5b5050505084600160a060020a031663de2873596040518163ffffffff1660e01b8152600401602060405180830381600087803b15801561028357600080fd5b505af1158015610297573d6000803e3d6000fd5b505050506040513d60208110156102ad57600080fd5b5051604080517f3d6ab68f0000000000000000000000000000000000000000000000000000000081529051919550600160a060020a03861691633d6ab68f916004808201926020929091908290030181600087803b15801561030e57600080fd5b505af1158015610322573d6000803e3d6000fd5b505050506040513d602081101561033857600080fd5b5051604080517f8ea8dc9d0000000000000000000000000000000000000000000000000000000081529051919450600160a060020a03871691638ea8dc9d916004808201926020929091908290030181600087803b15801561039957600080fd5b505af11580156103ad573d6000803e3d6000fd5b505050506040513d60208110156103c357600080fd5b5051600254604080517f0a8ed3db000000000000000000000000000000000000000000000000000000008152600160a060020a0392831660048201529187166024830181905260448301879052905192945091630a8ed3db9160648082019260009290919082900301818387803b15801561043d57600080fd5b505af1158015610451573d6000803e3d6000fd5b5050600254604080517fbe038478000000000000000000000000000000000000000000000000000000008152600160a060020a0392831660048201528983166024820152604481018790523060648201529051918816935063be038478925060848082019260009290919082900301818387803b1580156104d157600080fd5b505af11580156104e5573d6000803e3d6000fd5b5050600254604080517f33404143000000000000000000000000000000000000000000000000000000008152600160a060020a038a8116600483015291519190921693506333404143925060248083019260209291908290030181600087803b15801561055157600080fd5b505af1158015610565573d6000803e3d6000fd5b505050506040513d602081101561057b57600080fd5b505160408051600160a060020a038316815290519192507f1a40224412580c1ae5a2fbe8029a565f49a3a029608a8fd9320b32477f314579919081900360200190a1600254604080517f9d0effdb000000000000000000000000000000000000000000000000000000008152600160a060020a039283166004820152878316602482015260448101859052905191861691639d0effdb9160648082019260009290919082900301818387803b15801561063357600080fd5b505af1158015610647573d6000803e3d6000fd5b5050604080517fa885508a000000000000000000000000000000000000000000000000000000008152600160a060020a038981166004830152602482018790529151918816935063a885508a925060448082019260009290919082900301818387803b1580156106b657600080fd5b505af11580156106ca573d6000803e3d6000fd5b5050600254604080517f9d0effdb000000000000000000000000000000000000000000000000000000008152600160a060020a03928316600482015291881660248301819052604483018890529051909350639d0effdb9250606480830192600092919082900301818387803b15801561074357600080fd5b505af1158015610757573d6000803e3d6000fd5b5050604080517f9d0effdb000000000000000000000000000000000000000000000000000000008152306004820152600160a060020a03881660248201819052604482018890529151919350639d0effdb925060648082019260009290919082900301818387803b1580156107cb57600080fd5b505af11580156107df573d6000803e3d6000fd5b5050604080517f0a8ed3db000000000000000000000000000000000000000000000000000000008152600160a060020a038b81166004830152881660248201819052604482018890529151919350630a8ed3db925060648082019260009290919082900301818387803b15801561085557600080fd5b505af1158015610869573d6000803e3d6000fd5b5050604080517fafd925df000000000000000000000000000000000000000000000000000000008152600160a060020a038b8116600483015288166024820181905260448201889052915191935063afd925df925060648082019260009290919082900301818387803b1580156108df57600080fd5b505af11580156108f3573d6000803e3d6000fd5b505050505b60408051600160a060020a038716815290517f3a7eb042a769adf51e9be78b68ed7af0ad7b379246536efc376ed2ca012382829181900360200190a1509295945050505050565b600254600160a060020a031681565b600054600160a060020a031681565b6040516104c08061096e833901905600608060405234801561001057600080fd5b506040516020806104c083398101604052516100328161011e602090811b901c565b151561003d57600080fd5b7f3b4bf6bf3ad5000ecf0f989d5befde585c6860fea3e574a4fab4c49d1c177d9c60008190527fc67454ed56db7ff90a4bb32fc9a8de1ab3174b221e5fecea22b7503a3111791f60209081527f8e2ed18767e9c33b25344c240cdf92034fae56be99e2c07f3d9946d949ffede48054600160a060020a031916600160a060020a03851690811790915560408051918252517fc681a85306374a5ab27f0bbc385296a54bcd314a1948b6cf61c4ea1bc44bb9f8927f2ec1ae0a449b7ae354b9dacfb3ade6b6332ba26b7fcbb935835fa39dd7263b23928290030190a35061014b565b600080600160a060020a038316151561013a5760009150610145565b823b90506000811191505b50919050565b6103668061015a6000396000f3006080604052600436106100505760003560e01c63ffffffff1680634555d5c91461010f5780634558850c1461013657806348a0c8dd1461017a5780635c60da1b146101a357806386070cfe146101b8575b6127107f665fd576fbbe6f247aff98f5c94a561e3f71ec2d3c988d56f12d342396c50cea6000825a10156100c55760003411361583541616156100c0576040513381523460208201527f15eeaa57c7bd188c1388020bcadc2c436ec60d647d36ef5b9eb3c742217ddee1604082a1005b600080fd5b6100cd6101cd565b905061010a816000368080601f01602080910402602001604051908101604052809392919081815260200183838082843750610250945050505050565b505050005b34801561011b57600080fd5b50610124610291565b60408051918252519081900360200190f35b34801561014257600080fd5b50610151600435602435610296565b6040805173ffffffffffffffffffffffffffffffffffffffff9092168252519081900360200190f35b34801561018657600080fd5b5061018f6102c6565b604080519115158252519081900360200190f35b3480156101af57600080fd5b506101516101cd565b3480156101c457600080fd5b506101246102f6565b7f3b4bf6bf3ad5000ecf0f989d5befde585c6860fea3e574a4fab4c49d1c177d9c6000527fc67454ed56db7ff90a4bb32fc9a8de1ab3174b221e5fecea22b7503a3111791f6020527f8e2ed18767e9c33b25344c240cdf92034fae56be99e2c07f3d9946d949ffede45473ffffffffffffffffffffffffffffffffffffffff1690565b600061025b836102fc565b151561026657600080fd5b612710905060008083516020850186855a03f43d604051816000823e82801561028d578282f35b8282fd5b600290565b600060208181529281526040808220909352908152205473ffffffffffffffffffffffffffffffffffffffff1681565b60006102f17f665fd576fbbe6f247aff98f5c94a561e3f71ec2d3c988d56f12d342396c50cea610336565b905090565b60015481565b60008073ffffffffffffffffffffffffffffffffffffffff831615156103255760009150610330565b823b90506000811191505b50919050565b54905600a165627a7a72305820a47469a1e8f6791ec45760c7b065382f6a96d959015a0f9a5a5b042397411e930029a165627a7a723058207750a09394ec2a98773e56f51519edd4924b49ac0a7790f79a1083fdf3210acf0029",
  "linkReferences": {},
  "deployedLinkReferences": {}
}