{
  "_format": "hh-sol-artifact-1",
  "contractName": "EIP712BACE",
  "sourceName": "contracts/0.8.9/EIP712BACE.sol",
  "abi": [
    {
      "inputs": [
        {
          "internalType": "address",
          "name": "_bACE",
          "type": "address"
        }
      ],
      "stateMutability": "nonpayable",
      "type": "constructor"
    },
    {
      "inputs": [],
      "name": "ZeroBACEAddress",
      "type": "error"
    },
    {
      "inputs": [
        {
          "internalType": "address",
          "name": "_bACE",
          "type": "address"
        }
      ],
      "name": "domainSeparatorV4",
      "outputs": [
        {
          "internalType": "bytes32",
          "name": "",
          "type": "bytes32"
        }
      ],
      "stateMutability": "view",
      "type": "function"
    },
    {
      "inputs": [
        {
          "internalType": "address",
          "name": "_bACE",
          "type": "address"
        }
      ],
      "name": "eip712Domain",
      "outputs": [
        {
          "internalType": "string",
          "name": "name",
          "type": "string"
        },
        {
          "internalType": "string",
          "name": "version",
          "type": "string"
        },
        {
          "internalType": "uint256",
          "name": "chainId",
          "type": "uint256"
        },
        {
          "internalType": "address",
          "name": "verifyingContract",
          "type": "address"
        }
      ],
      "stateMutability": "view",
      "type": "function"
    },
    {
      "inputs": [
        {
          "internalType": "address",
          "name": "_bACE",
          "type": "address"
        },
        {
          "internalType": "bytes32",
          "name": "_structHash",
          "type": "bytes32"
        }
      ],
      "name": "hashTypedDataV4",
      "outputs": [
        {
          "internalType": "bytes32",
          "name": "",
          "type": "bytes32"
        }
      ],
      "stateMutability": "view",
      "type": "function"
    }
  ],
  "bytecode": "0x61014060405234801561001157600080fd5b506040516105473803806105478339810160408190526100309161012f565b6001600160a01b03811661005757604051633ec5120560e01b815260040160405180910390fd5b7fe8c486f6d23c3ea92274bde0b3642d7da24fe6641eb75a7dd7e694d6cf61500a60e08190527fad7c5bef027816a800da1736444fb58a807ef4c9603b7848673f7e3a68eb14a56101008190524660a0818152604080517f8b73c3c69bb8fe3d512ecc4cf759cc79239f7b179b0ffacaa9a75d522b39400f60208083018290528284018890526060830187905260808301959095526001600160a01b038816828501528251808303909401845260c0909101909152815191909201206080526001600160a01b0390931660c05250506101205261015f565b60006020828403121561014157600080fd5b81516001600160a01b038116811461015857600080fd5b9392505050565b60805160a05160c05160e05161010051610120516103996101ae60003960006101c501526000610214015260006101ef01526000610135015260006101710152600061019b01526103996000f3fe608060405234801561001057600080fd5b50600436106100415760003560e01c8063804e5eb314610046578063b8f120b31461006c578063f44093191461007f575b600080fd5b61005961005436600461028a565b6100db565b6040519081526020015b60405180910390f35b61005961007a3660046102b4565b610131565b6100cb61008d3660046102b4565b6040805180820182526008815267426f6e642041636560c01b602080830191909152825180840190935260018352603160f81b908301529290914691565b604051610063949392919061031c565b600061012a6100e984610131565b8360405161190160f01b6020820152602281018390526042810182905260009060620160405160208183030381529060405280519060200120905092915050565b9392505050565b60007f00000000000000000000000000000000000000000000000000000000000000006001600160a01b0316826001600160a01b031614801561019357507f000000000000000000000000000000000000000000000000000000000000000046145b156101bf57507f0000000000000000000000000000000000000000000000000000000000000000919050565b604080517f00000000000000000000000000000000000000000000000000000000000000006020808301919091527f0000000000000000000000000000000000000000000000000000000000000000828401527f000000000000000000000000000000000000000000000000000000000000000060608301524660808301526001600160a01b03851660a0808401919091528351808403909101815260c0909201909252805191012092915050565b919050565b80356001600160a01b038116811461026e57600080fd5b6000806040838503121561029d57600080fd5b6102a683610273565b946020939093013593505050565b6000602082840312156102c657600080fd5b61012a82610273565b6000815180845260005b818110156102f5576020818501810151868301820152016102d9565b81811115610307576000602083870101525b50601f01601f19169290920160200192915050565b60808152600061032f60808301876102cf565b828103602084015261034181876102cf565b604084019590955250506001600160a01b03919091166060909101529291505056fea2646970667358221220d0f4849365c9c388453a795c1a00b019df74c3ab813d0af398227c58bf7edc6264736f6c63430008090033",
  "linkReferences": {},
  "deployedLinkReferences": {}
}