{
  "_format": "hh-sol-artifact-1",
  "contractName": "WbACE",
  "sourceName": "contracts/0.6.12/WbACE.sol",
  "abi": [
    {
      "inputs": [
        {
          "internalType": "contract IBACE",
          "name": "_bACE",
          "type": "address"
        }
      ],
      "stateMutability": "nonpayable",
      "type": "constructor"
    },
    {
      "anonymous": false,
      "inputs": [
        {
          "indexed": true,
          "internalType": "address",
          "name": "owner",
          "type": "address"
        },
        {
          "indexed": true,
          "internalType": "address",
          "name": "spender",
          "type": "address"
        },
        {
          "indexed": false,
          "internalType": "uint256",
          "name": "value",
          "type": "uint256"
        }
      ],
      "name": "Approval",
      "type": "event"
    },
    {
      "anonymous": false,
      "inputs": [
        {
          "indexed": true,
          "internalType": "address",
          "name": "from",
          "type": "address"
        },
        {
          "indexed": true,
          "internalType": "address",
          "name": "to",
          "type": "address"
        },
        {
          "indexed": false,
          "internalType": "uint256",
          "name": "value",
          "type": "uint256"
        }
      ],
      "name": "Transfer",
      "type": "event"
    },
    {
      "inputs": [],
      "name": "DOMAIN_SEPARATOR",
      "outputs": [
        {
          "internalType": "bytes32",
          "name": "",
          "type": "bytes32"
        }
      ],
      "stateMutability": "view",
      "type": "function"
    },
    {
      "inputs": [
        {
          "internalType": "address",
          "name": "owner",
          "type": "address"
        },
        {
          "internalType": "address",
          "name": "spender",
          "type": "address"
        }
      ],
      "name": "allowance",
      "outputs": [
        {
          "internalType": "uint256",
          "name": "",
          "type": "uint256"
        }
      ],
      "stateMutability": "view",
      "type": "function"
    },
    {
      "inputs": [
        {
          "internalType": "address",
          "name": "spender",
          "type": "address"
        },
        {
          "internalType": "uint256",
          "name": "amount",
          "type": "uint256"
        }
      ],
      "name": "approve",
      "outputs": [
        {
          "internalType": "bool",
          "name": "",
          "type": "bool"
        }
      ],
      "stateMutability": "nonpayable",
      "type": "function"
    },
    {
      "inputs": [],
      "name": "bACE",
      "outputs": [
        {
          "internalType": "contract IBACE",
          "name": "",
          "type": "address"
        }
      ],
      "stateMutability": "view",
      "type": "function"
    },
    {
      "inputs": [],
      "name": "bAcePerToken",
      "outputs": [
        {
          "internalType": "uint256",
          "name": "",
          "type": "uint256"
        }
      ],
      "stateMutability": "view",
      "type": "function"
    },
    {
      "inputs": [
        {
          "internalType": "address",
          "name": "account",
          "type": "address"
        }
      ],
      "name": "balanceOf",
      "outputs": [
        {
          "internalType": "uint256",
          "name": "",
          "type": "uint256"
        }
      ],
      "stateMutability": "view",
      "type": "function"
    },
    {
      "inputs": [],
      "name": "decimals",
      "outputs": [
        {
          "internalType": "uint8",
          "name": "",
          "type": "uint8"
        }
      ],
      "stateMutability": "view",
      "type": "function"
    },
    {
      "inputs": [
        {
          "internalType": "address",
          "name": "spender",
          "type": "address"
        },
        {
          "internalType": "uint256",
          "name": "subtractedValue",
          "type": "uint256"
        }
      ],
      "name": "decreaseAllowance",
      "outputs": [
        {
          "internalType": "bool",
          "name": "",
          "type": "bool"
        }
      ],
      "stateMutability": "nonpayable",
      "type": "function"
    },
    {
      "inputs": [
        {
          "internalType": "uint256",
          "name": "_wbACEAmount",
          "type": "uint256"
        }
      ],
      "name": "getBACEByWbACE",
      "outputs": [
        {
          "internalType": "uint256",
          "name": "",
          "type": "uint256"
        }
      ],
      "stateMutability": "view",
      "type": "function"
    },
    {
      "inputs": [
        {
          "internalType": "uint256",
          "name": "_bACEAmount",
          "type": "uint256"
        }
      ],
      "name": "getWbACEByBACE",
      "outputs": [
        {
          "internalType": "uint256",
          "name": "",
          "type": "uint256"
        }
      ],
      "stateMutability": "view",
      "type": "function"
    },
    {
      "inputs": [
        {
          "internalType": "address",
          "name": "spender",
          "type": "address"
        },
        {
          "internalType": "uint256",
          "name": "addedValue",
          "type": "uint256"
        }
      ],
      "name": "increaseAllowance",
      "outputs": [
        {
          "internalType": "bool",
          "name": "",
          "type": "bool"
        }
      ],
      "stateMutability": "nonpayable",
      "type": "function"
    },
    {
      "inputs": [],
      "name": "name",
      "outputs": [
        {
          "internalType": "string",
          "name": "",
          "type": "string"
        }
      ],
      "stateMutability": "view",
      "type": "function"
    },
    {
      "inputs": [
        {
          "internalType": "address",
          "name": "owner",
          "type": "address"
        }
      ],
      "name": "nonces",
      "outputs": [
        {
          "internalType": "uint256",
          "name": "",
          "type": "uint256"
        }
      ],
      "stateMutability": "view",
      "type": "function"
    },
    {
      "inputs": [
        {
          "internalType": "address",
          "name": "owner",
          "type": "address"
        },
        {
          "internalType": "address",
          "name": "spender",
          "type": "address"
        },
        {
          "internalType": "uint256",
          "name": "value",
          "type": "uint256"
        },
        {
          "internalType": "uint256",
          "name": "deadline",
          "type": "uint256"
        },
        {
          "internalType": "uint8",
          "name": "v",
          "type": "uint8"
        },
        {
          "internalType": "bytes32",
          "name": "r",
          "type": "bytes32"
        },
        {
          "internalType": "bytes32",
          "name": "s",
          "type": "bytes32"
        }
      ],
      "name": "permit",
      "outputs": [],
      "stateMutability": "nonpayable",
      "type": "function"
    },
    {
      "inputs": [],
      "name": "symbol",
      "outputs": [
        {
          "internalType": "string",
          "name": "",
          "type": "string"
        }
      ],
      "stateMutability": "view",
      "type": "function"
    },
    {
      "inputs": [],
      "name": "tokensPerBAce",
      "outputs": [
        {
          "internalType": "uint256",
          "name": "",
          "type": "uint256"
        }
      ],
      "stateMutability": "view",
      "type": "function"
    },
    {
      "inputs": [],
      "name": "totalSupply",
      "outputs": [
        {
          "internalType": "uint256",
          "name": "",
          "type": "uint256"
        }
      ],
      "stateMutability": "view",
      "type": "function"
    },
    {
      "inputs": [
        {
          "internalType": "address",
          "name": "recipient",
          "type": "address"
        },
        {
          "internalType": "uint256",
          "name": "amount",
          "type": "uint256"
        }
      ],
      "name": "transfer",
      "outputs": [
        {
          "internalType": "bool",
          "name": "",
          "type": "bool"
        }
      ],
      "stateMutability": "nonpayable",
      "type": "function"
    },
    {
      "inputs": [
        {
          "internalType": "address",
          "name": "sender",
          "type": "address"
        },
        {
          "internalType": "address",
          "name": "recipient",
          "type": "address"
        },
        {
          "internalType": "uint256",
          "name": "amount",
          "type": "uint256"
        }
      ],
      "name": "transferFrom",
      "outputs": [
        {
          "internalType": "bool",
          "name": "",
          "type": "bool"
        }
      ],
      "stateMutability": "nonpayable",
      "type": "function"
    },
    {
      "inputs": [
        {
          "internalType": "uint256",
          "name": "_wbACEAmount",
          "type": "uint256"
        }
      ],
      "name": "unwrap",
      "outputs": [
        {
          "internalType": "uint256",
          "name": "",
          "type": "uint256"
        }
      ],
      "stateMutability": "nonpayable",
      "type": "function"
    },
    {
      "inputs": [
        {
          "internalType": "uint256",
          "name": "_bACEAmount",
          "type": "uint256"
        }
      ],
      "name": "wrap",
      "outputs": [
        {
          "internalType": "uint256",
          "name": "",
          "type": "uint256"
        }
      ],
      "stateMutability": "nonpayable",
      "type": "function"
    },
    {
      "stateMutability": "payable",
      "type": "receive"
    }
  ],
  "bytecode": "0x6101406040527f6e71edae12b1b97f4d1f60370fef10105fa2faae0126114a169c64845d6126c9610120523480156200003757600080fd5b5060405162001c4038038062001c40833981810160405260208110156200005d57600080fd5b50516040805180820182526012808252715772617070656420426f6e6465642041636560701b60208381018290528451808601865260018152603160f81b818301528551808701875293845283820192835285518087019096526005865264776241434560d81b918601919091528251939485949193929091620000e491600391620001ff565b508051620000fa906004906020840190620001ff565b50506005805460ff1916601217905550815160208084019190912082519183019190912060c082905260e08190527f8b73c3c69bb8fe3d512ecc4cf759cc79239f7b179b0ffacaa9a75d522b39400f6200015362000197565b60a052620001638184846200019b565b608052610100525050600780546001600160a01b0319166001600160a01b039590951694909417909355506200029b915050565b4690565b6000838383620001aa62000197565b3060405160200180868152602001858152602001848152602001838152602001826001600160a01b03168152602001955050505050506040516020818303038152906040528051906020012090509392505050565b828054600181600116156101000203166002900490600052602060002090601f016020900481019282601f106200024257805160ff191683800117855562000272565b8280016001018555821562000272579182015b828111156200027257825182559160200191906001019062000255565b506200028092915062000284565b5090565b5b8082111562000280576000815560010162000285565b60805160a05160c05160e051610100516101205161195b620002e560003980610bcf5250806113755250806113b752508061139652508061131c52508061134c525061195b6000f3fe60806040526004361061012e5760003560e01c806370a08231116100ab578063ad1211191161006f578063ad121119146104bf578063d505accf146104e9578063dd62ed3e14610549578063de0e9a3e14610584578063e6b0d281146105ae578063ea598cb0146105df576101bf565b806370a08231146103d25780637ecebe001461040557806395d89b4114610438578063a457c2d71461044d578063a9059cbb14610486576101bf565b806323b872dd116100f257806323b872dd14610301578063313ce567146103445780633644e5151461036f57806339509351146103845780635048175b146103bd576101bf565b806306fdde03146101c457806307d229b61461024e578063095ea7b31461028a57806310fc7176146102d757806318160ddd146102ec576101bf565b366101bf576007546040805163a1903eab60e01b8152600060048201819052915191926001600160a01b03169163a1903eab913491602480830192602092919082900301818588803b15801561018357600080fd5b505af1158015610197573d6000803e3d6000fd5b50505050506040513d60208110156101ae57600080fd5b505190506101bc3382610609565b50005b600080fd5b3480156101d057600080fd5b506101d96106f9565b6040805160208082528351818301528351919283929083019185019080838360005b838110156102135781810151838201526020016101fb565b50505050905090810190601f1680156102405780820380516001836020036101000a031916815260200191505b509250505060405180910390f35b34801561025a57600080fd5b506102786004803603602081101561027157600080fd5b5035610790565b60408051918252519081900360200190f35b34801561029657600080fd5b506102c3600480360360408110156102ad57600080fd5b506001600160a01b03813516906020013561080e565b604080519115158252519081900360200190f35b3480156102e357600080fd5b5061027861082b565b3480156102f857600080fd5b506102786108af565b34801561030d57600080fd5b506102c36004803603606081101561032457600080fd5b506001600160a01b038135811691602081013590911690604001356108b5565b34801561035057600080fd5b5061035961093c565b6040805160ff9092168252519081900360200190f35b34801561037b57600080fd5b50610278610945565b34801561039057600080fd5b506102c3600480360360408110156103a757600080fd5b506001600160a01b038135169060200135610954565b3480156103c957600080fd5b506102786109a2565b3480156103de57600080fd5b50610278600480360360208110156103f557600080fd5b50356001600160a01b03166109f5565b34801561041157600080fd5b506102786004803603602081101561042857600080fd5b50356001600160a01b0316610a10565b34801561044457600080fd5b506101d9610a37565b34801561045957600080fd5b506102c36004803603604081101561047057600080fd5b506001600160a01b038135169060200135610a98565b34801561049257600080fd5b506102c3600480360360408110156104a957600080fd5b506001600160a01b038135169060200135610b00565b3480156104cb57600080fd5b50610278600480360360208110156104e257600080fd5b5035610b14565b3480156104f557600080fd5b50610547600480360360e081101561050c57600080fd5b506001600160a01b03813581169160208101359091169060408101359060608101359060ff6080820135169060a08101359060c00135610b60565b005b34801561055557600080fd5b506102786004803603604081101561056c57600080fd5b506001600160a01b0381358116916020013516610d17565b34801561059057600080fd5b50610278600480360360208110156105a757600080fd5b5035610d42565b3480156105ba57600080fd5b506105c3610e8d565b604080516001600160a01b039092168252519081900360200190f35b3480156105eb57600080fd5b506102786004803603602081101561060257600080fd5b5035610e9c565b6001600160a01b038216610664576040805162461bcd60e51b815260206004820152601f60248201527f45524332303a206d696e7420746f20746865207a65726f206164647265737300604482015290519081900360640190fd5b61067060008383610fd0565b60025461067d9082610fd5565b6002556001600160a01b0382166000908152602081905260409020546106a39082610fd5565b6001600160a01b0383166000818152602081815260408083209490945583518581529351929391927fddf252ad1be2c89b69c2b068fc378daa952ba7f163c4a11628f55a4df523b3ef9281900390910190a35050565b60038054604080516020601f60026000196101006001881615020190951694909404938401819004810282018101909252828152606093909290918301828280156107855780601f1061075a57610100808354040283529160200191610785565b820191906000526020600020905b81548152906001019060200180831161076857829003601f168201915b505050505090505b90565b60075460408051633103ec9560e11b81526004810184905290516000926001600160a01b031691636207d92a916024808301926020929190829003018186803b1580156107dc57600080fd5b505afa1580156107f0573d6000803e3d6000fd5b505050506040513d602081101561080657600080fd5b505192915050565b600061082261081b611036565b848461103a565b50600192915050565b60075460408051633103ec9560e11b8152670de0b6b3a7640000600482015290516000926001600160a01b031691636207d92a916024808301926020929190829003018186803b15801561087e57600080fd5b505afa158015610892573d6000803e3d6000fd5b505050506040513d60208110156108a857600080fd5b5051905090565b60025490565b60006108c2848484611126565b610932846108ce611036565b61092d8560405180606001604052806028815260200161186f602891396001600160a01b038a1660009081526001602052604081209061090c611036565b6001600160a01b031681526020810191909152604001600020549190611281565b61103a565b5060019392505050565b60055460ff1690565b600061094f611318565b905090565b6000610822610961611036565b8461092d8560016000610972611036565b6001600160a01b03908116825260208083019390935260409182016000908120918c168152925290205490610fd5565b60075460408051631aaeecaf60e31b8152670de0b6b3a7640000600482015290516000926001600160a01b03169163d5776578916024808301926020929190829003018186803b15801561087e57600080fd5b6001600160a01b031660009081526020819052604090205490565b6001600160a01b0381166000908152600660205260408120610a31906113e2565b92915050565b60048054604080516020601f60026000196101006001881615020190951694909404938401819004810282018101909252828152606093909290918301828280156107855780601f1061075a57610100808354040283529160200191610785565b6000610822610aa5611036565b8461092d856040518060600160405280602581526020016119016025913960016000610acf611036565b6001600160a01b03908116825260208083019390935260409182016000908120918d16815292529020549190611281565b6000610822610b0d611036565b8484611126565b60075460408051631aaeecaf60e31b81526004810184905290516000926001600160a01b03169163d5776578916024808301926020929190829003018186803b1580156107dc57600080fd5b83421115610bb5576040805162461bcd60e51b815260206004820152601d60248201527f45524332305065726d69743a206578706972656420646561646c696e65000000604482015290519081900360640190fd5b6001600160a01b03871660009081526006602052604081207f000000000000000000000000000000000000000000000000000000000000000090899089908990610bfe906113e2565b8960405160200180878152602001866001600160a01b03168152602001856001600160a01b0316815260200184815260200183815260200182815260200196505050505050506040516020818303038152906040528051906020012090506000610c67826113e6565b90506000610c7782878787611432565b9050896001600160a01b0316816001600160a01b031614610cdf576040805162461bcd60e51b815260206004820152601e60248201527f45524332305065726d69743a20696e76616c6964207369676e61747572650000604482015290519081900360640190fd5b6001600160a01b038a166000908152600660205260409020610d00906115b0565b610d0b8a8a8a61103a565b50505050505050505050565b6001600160a01b03918216600090815260016020908152604080832093909416825291909152205490565b6000808211610d825760405162461bcd60e51b815260040180806020018281038252602581526020018061184a6025913960400191505060405180910390fd5b60075460408051631aaeecaf60e31b81526004810185905290516000926001600160a01b03169163d5776578916024808301926020929190829003018186803b158015610dce57600080fd5b505afa158015610de2573d6000803e3d6000fd5b505050506040513d6020811015610df857600080fd5b50519050610e0633846115b9565b6007546040805163a9059cbb60e01b81523360048201526024810184905290516001600160a01b039092169163a9059cbb916044808201926020929091908290030181600087803b158015610e5a57600080fd5b505af1158015610e6e573d6000803e3d6000fd5b505050506040513d6020811015610e8457600080fd5b50909392505050565b6007546001600160a01b031681565b6000808211610ef2576040805162461bcd60e51b815260206004820152601b60248201527f77624143453a2063616e27742077726170207a65726f20624143450000000000604482015290519081900360640190fd5b60075460408051633103ec9560e11b81526004810185905290516000926001600160a01b031691636207d92a916024808301926020929190829003018186803b158015610f3e57600080fd5b505afa158015610f52573d6000803e3d6000fd5b505050506040513d6020811015610f6857600080fd5b50519050610f763382610609565b600754604080516323b872dd60e01b81523360048201523060248201526044810186905290516001600160a01b03909216916323b872dd916064808201926020929091908290030181600087803b158015610e5a57600080fd5b505050565b60008282018381101561102f576040805162461bcd60e51b815260206004820152601b60248201527f536166654d6174683a206164646974696f6e206f766572666c6f770000000000604482015290519081900360640190fd5b9392505050565b3390565b6001600160a01b03831661107f5760405162461bcd60e51b81526004018080602001828103825260248152602001806118dd6024913960400191505060405180910390fd5b6001600160a01b0382166110c45760405162461bcd60e51b81526004018080602001828103825260228152602001806117be6022913960400191505060405180910390fd5b6001600160a01b03808416600081815260016020908152604080832094871680845294825291829020859055815185815291517f8c5be1e5ebec7d5bd14f71427d1e84f3dd0314c0f7b2291e5b200ac8c7c3b9259281900390910190a3505050565b6001600160a01b03831661116b5760405162461bcd60e51b81526004018080602001828103825260258152602001806118b86025913960400191505060405180910390fd5b6001600160a01b0382166111b05760405162461bcd60e51b81526004018080602001828103825260238152602001806117796023913960400191505060405180910390fd5b6111bb838383610fd0565b6111f8816040518060600160405280602681526020016117e0602691396001600160a01b0386166000908152602081905260409020549190611281565b6001600160a01b0380851660009081526020819052604080822093909355908416815220546112279082610fd5565b6001600160a01b038084166000818152602081815260409182902094909455805185815290519193928716927fddf252ad1be2c89b69c2b068fc378daa952ba7f163c4a11628f55a4df523b3ef92918290030190a3505050565b600081848411156113105760405162461bcd60e51b81526004018080602001828103825283818151815260200191508051906020019080838360005b838110156112d55781810151838201526020016112bd565b50505050905090810190601f1680156113025780820380516001836020036101000a031916815260200191505b509250505060405180910390fd5b505050900390565b60007f00000000000000000000000000000000000000000000000000000000000000006113436116b5565b141561137057507f000000000000000000000000000000000000000000000000000000000000000061078d565b6113db7f00000000000000000000000000000000000000000000000000000000000000007f00000000000000000000000000000000000000000000000000000000000000007f00000000000000000000000000000000000000000000000000000000000000006116b9565b905061078d565b5490565b60006113f0611318565b82604051602001808061190160f01b81525060020183815260200182815260200192505050604051602081830303815290604052805190602001209050919050565b60007f7fffffffffffffffffffffffffffffff5d576e7357a4501ddfe92f46681b20a08211156114935760405162461bcd60e51b81526004018080602001828103825260228152602001806118066022913960400191505060405180910390fd5b8360ff16601b14806114a857508360ff16601c145b6114e35760405162461bcd60e51b81526004018080602001828103825260228152602001806118286022913960400191505060405180910390fd5b600060018686868660405160008152602001604052604051808581526020018460ff1681526020018381526020018281526020019450505050506020604051602081039080840390855afa15801561153f573d6000803e3d6000fd5b5050604051601f1901519150506001600160a01b0381166115a7576040805162461bcd60e51b815260206004820152601860248201527f45434453413a20696e76616c6964207369676e61747572650000000000000000604482015290519081900360640190fd5b95945050505050565b80546001019055565b6001600160a01b0382166115fe5760405162461bcd60e51b81526004018080602001828103825260218152602001806118976021913960400191505060405180910390fd5b61160a82600083610fd0565b6116478160405180606001604052806022815260200161179c602291396001600160a01b0385166000908152602081905260409020549190611281565b6001600160a01b03831660009081526020819052604090205560025461166d908261171b565b6002556040805182815290516000916001600160a01b038516917fddf252ad1be2c89b69c2b068fc378daa952ba7f163c4a11628f55a4df523b3ef9181900360200190a35050565b4690565b60008383836116c66116b5565b3060405160200180868152602001858152602001848152602001838152602001826001600160a01b03168152602001955050505050506040516020818303038152906040528051906020012090509392505050565b600082821115611772576040805162461bcd60e51b815260206004820152601e60248201527f536166654d6174683a207375627472616374696f6e206f766572666c6f770000604482015290519081900360640190fd5b5090039056fe45524332303a207472616e7366657220746f20746865207a65726f206164647265737345524332303a206275726e20616d6f756e7420657863656564732062616c616e636545524332303a20617070726f766520746f20746865207a65726f206164647265737345524332303a207472616e7366657220616d6f756e7420657863656564732062616c616e636545434453413a20696e76616c6964207369676e6174757265202773272076616c756545434453413a20696e76616c6964207369676e6174757265202776272076616c756577624143453a207a65726f20616d6f756e7420756e77726170206e6f7420616c6c6f77656445524332303a207472616e7366657220616d6f756e74206578636565647320616c6c6f77616e636545524332303a206275726e2066726f6d20746865207a65726f206164647265737345524332303a207472616e736665722066726f6d20746865207a65726f206164647265737345524332303a20617070726f76652066726f6d20746865207a65726f206164647265737345524332303a2064656372656173656420616c6c6f77616e63652062656c6f77207a65726fa2646970667358221220446b468ce39a825d8f21e227d5fe821f03ec7682895ee4c0af5ef4008e04aad964736f6c634300060c0033",
  "linkReferences": {},
  "deployedLinkReferences": {}
}