{
  "_format": "hh-sol-artifact-1",
  "contractName": "WithdrawalQueueERC721",
  "sourceName": "contracts/0.8.9/WithdrawalQueueERC721.sol",
  "abi": [
    {
      "inputs": [
        {
          "internalType": "address",
          "name": "_wbACE",
          "type": "address"
        },
        {
          "internalType": "string",
          "name": "_name",
          "type": "string"
        },
        {
          "internalType": "string",
          "name": "_symbol",
          "type": "string"
        }
      ],
      "stateMutability": "nonpayable",
      "type": "constructor"
    },
    {
      "inputs": [],
      "name": "AdminZeroAddress",
      "type": "error"
    },
    {
      "inputs": [],
      "name": "ApprovalToOwner",
      "type": "error"
    },
    {
      "inputs": [],
      "name": "ApproveToCaller",
      "type": "error"
    },
    {
      "inputs": [
        {
          "internalType": "uint256",
          "name": "_firstArrayLength",
          "type": "uint256"
        },
        {
          "internalType": "uint256",
          "name": "_secondArrayLength",
          "type": "uint256"
        }
      ],
      "name": "ArraysLengthMismatch",
      "type": "error"
    },
    {
      "inputs": [],
      "name": "BatchesAreNotSorted",
      "type": "error"
    },
    {
      "inputs": [],
      "name": "CantSendValueRecipientMayHaveReverted",
      "type": "error"
    },
    {
      "inputs": [],
      "name": "EmptyBatches",
      "type": "error"
    },
    {
      "inputs": [],
      "name": "InvalidContractVersionIncrement",
      "type": "error"
    },
    {
      "inputs": [
        {
          "internalType": "uint256",
          "name": "_hint",
          "type": "uint256"
        }
      ],
      "name": "InvalidHint",
      "type": "error"
    },
    {
      "inputs": [
        {
          "internalType": "address",
          "name": "",
          "type": "address"
        }
      ],
      "name": "InvalidOwnerAddress",
      "type": "error"
    },
    {
      "inputs": [],
      "name": "InvalidReportTimestamp",
      "type": "error"
    },
    {
      "inputs": [
        {
          "internalType": "uint256",
          "name": "_requestId",
          "type": "uint256"
        }
      ],
      "name": "InvalidRequestId",
      "type": "error"
    },
    {
      "inputs": [
        {
          "internalType": "uint256",
          "name": "startId",
          "type": "uint256"
        },
        {
          "internalType": "uint256",
          "name": "endId",
          "type": "uint256"
        }
      ],
      "name": "InvalidRequestIdRange",
      "type": "error"
    },
    {
      "inputs": [],
      "name": "InvalidState",
      "type": "error"
    },
    {
      "inputs": [],
      "name": "NonZeroContractVersionOnInit",
      "type": "error"
    },
    {
      "inputs": [],
      "name": "NotEnoughAce",
      "type": "error"
    },
    {
      "inputs": [
        {
          "internalType": "address",
          "name": "_sender",
          "type": "address"
        },
        {
          "internalType": "address",
          "name": "_owner",
          "type": "address"
        }
      ],
      "name": "NotOwner",
      "type": "error"
    },
    {
      "inputs": [
        {
          "internalType": "address",
          "name": "sender",
          "type": "address"
        }
      ],
      "name": "NotOwnerOrApproved",
      "type": "error"
    },
    {
      "inputs": [
        {
          "internalType": "address",
          "name": "sender",
          "type": "address"
        }
      ],
      "name": "NotOwnerOrApprovedForAll",
      "type": "error"
    },
    {
      "inputs": [],
      "name": "PauseUntilMustBeInFuture",
      "type": "error"
    },
    {
      "inputs": [],
      "name": "PausedExpected",
      "type": "error"
    },
    {
      "inputs": [
        {
          "internalType": "uint256",
          "name": "_requestId",
          "type": "uint256"
        }
      ],
      "name": "RequestAlreadyClaimed",
      "type": "error"
    },
    {
      "inputs": [
        {
          "internalType": "uint256",
          "name": "_amountOfBACE",
          "type": "uint256"
        }
      ],
      "name": "RequestAmountTooLarge",
      "type": "error"
    },
    {
      "inputs": [
        {
          "internalType": "uint256",
          "name": "_amountOfBACE",
          "type": "uint256"
        }
      ],
      "name": "RequestAmountTooSmall",
      "type": "error"
    },
    {
      "inputs": [],
      "name": "RequestIdsNotSorted",
      "type": "error"
    },
    {
      "inputs": [
        {
          "internalType": "uint256",
          "name": "_requestId",
          "type": "uint256"
        }
      ],
      "name": "RequestNotFoundOrNotFinalized",
      "type": "error"
    },
    {
      "inputs": [],
      "name": "ResumedExpected",
      "type": "error"
    },
    {
      "inputs": [
        {
          "internalType": "string",
          "name": "str",
          "type": "string"
        }
      ],
      "name": "StringTooLong",
      "type": "error"
    },
    {
      "inputs": [
        {
          "internalType": "uint256",
          "name": "sent",
          "type": "uint256"
        },
        {
          "internalType": "uint256",
          "name": "maxExpected",
          "type": "uint256"
        }
      ],
      "name": "TooMuchAceToFinalize",
      "type": "error"
    },
    {
      "inputs": [
        {
          "internalType": "address",
          "name": "from",
          "type": "address"
        },
        {
          "internalType": "address",
          "name": "realOwner",
          "type": "address"
        }
      ],
      "name": "TransferFromIncorrectOwner",
      "type": "error"
    },
    {
      "inputs": [],
      "name": "TransferFromZeroAddress",
      "type": "error"
    },
    {
      "inputs": [
        {
          "internalType": "address",
          "name": "",
          "type": "address"
        }
      ],
      "name": "TransferToNonIERC721Receiver",
      "type": "error"
    },
    {
      "inputs": [],
      "name": "TransferToThemselves",
      "type": "error"
    },
    {
      "inputs": [],
      "name": "TransferToZeroAddress",
      "type": "error"
    },
    {
      "inputs": [
        {
          "internalType": "uint256",
          "name": "expected",
          "type": "uint256"
        },
        {
          "internalType": "uint256",
          "name": "received",
          "type": "uint256"
        }
      ],
      "name": "UnexpectedContractVersion",
      "type": "error"
    },
    {
      "inputs": [],
      "name": "ZeroAmountOfACE",
      "type": "error"
    },
    {
      "inputs": [],
      "name": "ZeroMetadata",
      "type": "error"
    },
    {
      "inputs": [],
      "name": "ZeroPauseDuration",
      "type": "error"
    },
    {
      "inputs": [],
      "name": "ZeroRecipient",
      "type": "error"
    },
    {
      "inputs": [],
      "name": "ZeroShareRate",
      "type": "error"
    },
    {
      "inputs": [],
      "name": "ZeroTimestamp",
      "type": "error"
    },
    {
      "anonymous": false,
      "inputs": [
        {
          "indexed": true,
          "internalType": "address",
          "name": "owner",
          "type": "address"
        },
        {
          "indexed": true,
          "internalType": "address",
          "name": "approved",
          "type": "address"
        },
        {
          "indexed": true,
          "internalType": "uint256",
          "name": "tokenId",
          "type": "uint256"
        }
      ],
      "name": "Approval",
      "type": "event"
    },
    {
      "anonymous": false,
      "inputs": [
        {
          "indexed": true,
          "internalType": "address",
          "name": "owner",
          "type": "address"
        },
        {
          "indexed": true,
          "internalType": "address",
          "name": "operator",
          "type": "address"
        },
        {
          "indexed": false,
          "internalType": "bool",
          "name": "approved",
          "type": "bool"
        }
      ],
      "name": "ApprovalForAll",
      "type": "event"
    },
    {
      "anonymous": false,
      "inputs": [
        {
          "indexed": false,
          "internalType": "string",
          "name": "baseURI",
          "type": "string"
        }
      ],
      "name": "BaseURISet",
      "type": "event"
    },
    {
      "anonymous": false,
      "inputs": [
        {
          "indexed": false,
          "internalType": "uint256",
          "name": "_fromTokenId",
          "type": "uint256"
        },
        {
          "indexed": false,
          "internalType": "uint256",
          "name": "_toTokenId",
          "type": "uint256"
        }
      ],
      "name": "BatchMetadataUpdate",
      "type": "event"
    },
    {
      "anonymous": false,
      "inputs": [],
      "name": "BunkerModeDisabled",
      "type": "event"
    },
    {
      "anonymous": false,
      "inputs": [
        {
          "indexed": false,
          "internalType": "uint256",
          "name": "_sinceTimestamp",
          "type": "uint256"
        }
      ],
      "name": "BunkerModeEnabled",
      "type": "event"
    },
    {
      "anonymous": false,
      "inputs": [
        {
          "indexed": false,
          "internalType": "uint256",
          "name": "version",
          "type": "uint256"
        }
      ],
      "name": "ContractVersionSet",
      "type": "event"
    },
    {
      "anonymous": false,
      "inputs": [
        {
          "indexed": false,
          "internalType": "address",
          "name": "_admin",
          "type": "address"
        }
      ],
      "name": "InitializedV1",
      "type": "event"
    },
    {
      "anonymous": false,
      "inputs": [
        {
          "indexed": false,
          "internalType": "uint256",
          "name": "_tokenId",
          "type": "uint256"
        }
      ],
      "name": "MetadataUpdate",
      "type": "event"
    },
    {
      "anonymous": false,
      "inputs": [
        {
          "indexed": false,
          "internalType": "address",
          "name": "nftDescriptorAddress",
          "type": "address"
        }
      ],
      "name": "NftDescriptorAddressSet",
      "type": "event"
    },
    {
      "anonymous": false,
      "inputs": [
        {
          "indexed": false,
          "internalType": "uint256",
          "name": "duration",
          "type": "uint256"
        }
      ],
      "name": "Paused",
      "type": "event"
    },
    {
      "anonymous": false,
      "inputs": [],
      "name": "Resumed",
      "type": "event"
    },
    {
      "anonymous": false,
      "inputs": [
        {
          "indexed": true,
          "internalType": "bytes32",
          "name": "role",
          "type": "bytes32"
        },
        {
          "indexed": true,
          "internalType": "bytes32",
          "name": "previousAdminRole",
          "type": "bytes32"
        },
        {
          "indexed": true,
          "internalType": "bytes32",
          "name": "newAdminRole",
          "type": "bytes32"
        }
      ],
      "name": "RoleAdminChanged",
      "type": "event"
    },
    {
      "anonymous": false,
      "inputs": [
        {
          "indexed": true,
          "internalType": "bytes32",
          "name": "role",
          "type": "bytes32"
        },
        {
          "indexed": true,
          "internalType": "address",
          "name": "account",
          "type": "address"
        },
        {
          "indexed": true,
          "internalType": "address",
          "name": "sender",
          "type": "address"
        }
      ],
      "name": "RoleGranted",
      "type": "event"
    },
    {
      "anonymous": false,
      "inputs": [
        {
          "indexed": true,
          "internalType": "bytes32",
          "name": "role",
          "type": "bytes32"
        },
        {
          "indexed": true,
          "internalType": "address",
          "name": "account",
          "type": "address"
        },
        {
          "indexed": true,
          "internalType": "address",
          "name": "sender",
          "type": "address"
        }
      ],
      "name": "RoleRevoked",
      "type": "event"
    },
    {
      "anonymous": false,
      "inputs": [
        {
          "indexed": true,
          "internalType": "address",
          "name": "from",
          "type": "address"
        },
        {
          "indexed": true,
          "internalType": "address",
          "name": "to",
          "type": "address"
        },
        {
          "indexed": true,
          "internalType": "uint256",
          "name": "tokenId",
          "type": "uint256"
        }
      ],
      "name": "Transfer",
      "type": "event"
    },
    {
      "anonymous": false,
      "inputs": [
        {
          "indexed": true,
          "internalType": "uint256",
          "name": "requestId",
          "type": "uint256"
        },
        {
          "indexed": true,
          "internalType": "address",
          "name": "owner",
          "type": "address"
        },
        {
          "indexed": true,
          "internalType": "address",
          "name": "receiver",
          "type": "address"
        },
        {
          "indexed": false,
          "internalType": "uint256",
          "name": "amountOfACE",
          "type": "uint256"
        }
      ],
      "name": "WithdrawalClaimed",
      "type": "event"
    },
    {
      "anonymous": false,
      "inputs": [
        {
          "indexed": true,
          "internalType": "uint256",
          "name": "requestId",
          "type": "uint256"
        },
        {
          "indexed": true,
          "internalType": "address",
          "name": "requestor",
          "type": "address"
        },
        {
          "indexed": true,
          "internalType": "address",
          "name": "owner",
          "type": "address"
        },
        {
          "indexed": false,
          "internalType": "uint256",
          "name": "amountOfBACE",
          "type": "uint256"
        },
        {
          "indexed": false,
          "internalType": "uint256",
          "name": "amountOfShares",
          "type": "uint256"
        }
      ],
      "name": "WithdrawalRequested",
      "type": "event"
    },
    {
      "anonymous": false,
      "inputs": [
        {
          "indexed": true,
          "internalType": "uint256",
          "name": "from",
          "type": "uint256"
        },
        {
          "indexed": true,
          "internalType": "uint256",
          "name": "to",
          "type": "uint256"
        },
        {
          "indexed": false,
          "internalType": "uint256",
          "name": "amountOfACELocked",
          "type": "uint256"
        },
        {
          "indexed": false,
          "internalType": "uint256",
          "name": "sharesToBurn",
          "type": "uint256"
        },
        {
          "indexed": false,
          "internalType": "uint256",
          "name": "timestamp",
          "type": "uint256"
        }
      ],
      "name": "WithdrawalsFinalized",
      "type": "event"
    },
    {
      "inputs": [],
      "name": "BACE",
      "outputs": [
        {
          "internalType": "contract IBACE",
          "name": "",
          "type": "address"
        }
      ],
      "stateMutability": "view",
      "type": "function"
    },
    {
      "inputs": [],
      "name": "BUNKER_MODE_DISABLED_TIMESTAMP",
      "outputs": [
        {
          "internalType": "uint256",
          "name": "",
          "type": "uint256"
        }
      ],
      "stateMutability": "view",
      "type": "function"
    },
    {
      "inputs": [],
      "name": "DEFAULT_ADMIN_ROLE",
      "outputs": [
        {
          "internalType": "bytes32",
          "name": "",
          "type": "bytes32"
        }
      ],
      "stateMutability": "view",
      "type": "function"
    },
    {
      "inputs": [],
      "name": "FINALIZE_ROLE",
      "outputs": [
        {
          "internalType": "bytes32",
          "name": "",
          "type": "bytes32"
        }
      ],
      "stateMutability": "view",
      "type": "function"
    },
    {
      "inputs": [],
      "name": "MANAGE_TOKEN_URI_ROLE",
      "outputs": [
        {
          "internalType": "bytes32",
          "name": "",
          "type": "bytes32"
        }
      ],
      "stateMutability": "view",
      "type": "function"
    },
    {
      "inputs": [],
      "name": "MAX_BACE_WITHDRAWAL_AMOUNT",
      "outputs": [
        {
          "internalType": "uint256",
          "name": "",
          "type": "uint256"
        }
      ],
      "stateMutability": "view",
      "type": "function"
    },
    {
      "inputs": [],
      "name": "MAX_BATCHES_LENGTH",
      "outputs": [
        {
          "internalType": "uint256",
          "name": "",
          "type": "uint256"
        }
      ],
      "stateMutability": "view",
      "type": "function"
    },
    {
      "inputs": [],
      "name": "MIN_BACE_WITHDRAWAL_AMOUNT",
      "outputs": [
        {
          "internalType": "uint256",
          "name": "",
          "type": "uint256"
        }
      ],
      "stateMutability": "view",
      "type": "function"
    },
    {
      "inputs": [],
      "name": "ORACLE_ROLE",
      "outputs": [
        {
          "internalType": "bytes32",
          "name": "",
          "type": "bytes32"
        }
      ],
      "stateMutability": "view",
      "type": "function"
    },
    {
      "inputs": [],
      "name": "PAUSE_INFINITELY",
      "outputs": [
        {
          "internalType": "uint256",
          "name": "",
          "type": "uint256"
        }
      ],
      "stateMutability": "view",
      "type": "function"
    },
    {
      "inputs": [],
      "name": "PAUSE_ROLE",
      "outputs": [
        {
          "internalType": "bytes32",
          "name": "",
          "type": "bytes32"
        }
      ],
      "stateMutability": "view",
      "type": "function"
    },
    {
      "inputs": [],
      "name": "RESUME_ROLE",
      "outputs": [
        {
          "internalType": "bytes32",
          "name": "",
          "type": "bytes32"
        }
      ],
      "stateMutability": "view",
      "type": "function"
    },
    {
      "inputs": [],
      "name": "WBACE",
      "outputs": [
        {
          "internalType": "contract IWbACE",
          "name": "",
          "type": "address"
        }
      ],
      "stateMutability": "view",
      "type": "function"
    },
    {
      "inputs": [
        {
          "internalType": "address",
          "name": "_to",
          "type": "address"
        },
        {
          "internalType": "uint256",
          "name": "_requestId",
          "type": "uint256"
        }
      ],
      "name": "approve",
      "outputs": [],
      "stateMutability": "nonpayable",
      "type": "function"
    },
    {
      "inputs": [
        {
          "internalType": "address",
          "name": "_owner",
          "type": "address"
        }
      ],
      "name": "balanceOf",
      "outputs": [
        {
          "internalType": "uint256",
          "name": "",
          "type": "uint256"
        }
      ],
      "stateMutability": "view",
      "type": "function"
    },
    {
      "inputs": [],
      "name": "bunkerModeSinceTimestamp",
      "outputs": [
        {
          "internalType": "uint256",
          "name": "",
          "type": "uint256"
        }
      ],
      "stateMutability": "view",
      "type": "function"
    },
    {
      "inputs": [
        {
          "internalType": "uint256",
          "name": "_maxShareRate",
          "type": "uint256"
        },
        {
          "internalType": "uint256",
          "name": "_maxTimestamp",
          "type": "uint256"
        },
        {
          "internalType": "uint256",
          "name": "_maxRequestsPerCall",
          "type": "uint256"
        },
        {
          "components": [
            {
              "internalType": "uint256",
              "name": "remainingAceBudget",
              "type": "uint256"
            },
            {
              "internalType": "bool",
              "name": "finished",
              "type": "bool"
            },
            {
              "internalType": "uint256[36]",
              "name": "batches",
              "type": "uint256[36]"
            },
            {
              "internalType": "uint256",
              "name": "batchesLength",
              "type": "uint256"
            }
          ],
          "internalType": "struct WithdrawalQueueBase.BatchesCalculationState",
          "name": "_state",
          "type": "tuple"
        }
      ],
      "name": "calculateFinalizationBatches",
      "outputs": [
        {
          "components": [
            {
              "internalType": "uint256",
              "name": "remainingAceBudget",
              "type": "uint256"
            },
            {
              "internalType": "bool",
              "name": "finished",
              "type": "bool"
            },
            {
              "internalType": "uint256[36]",
              "name": "batches",
              "type": "uint256[36]"
            },
            {
              "internalType": "uint256",
              "name": "batchesLength",
              "type": "uint256"
            }
          ],
          "internalType": "struct WithdrawalQueueBase.BatchesCalculationState",
          "name": "",
          "type": "tuple"
        }
      ],
      "stateMutability": "view",
      "type": "function"
    },
    {
      "inputs": [
        {
          "internalType": "uint256",
          "name": "_requestId",
          "type": "uint256"
        }
      ],
      "name": "claimWithdrawal",
      "outputs": [],
      "stateMutability": "nonpayable",
      "type": "function"
    },
    {
      "inputs": [
        {
          "internalType": "uint256[]",
          "name": "_requestIds",
          "type": "uint256[]"
        },
        {
          "internalType": "uint256[]",
          "name": "_hints",
          "type": "uint256[]"
        }
      ],
      "name": "claimWithdrawals",
      "outputs": [],
      "stateMutability": "nonpayable",
      "type": "function"
    },
    {
      "inputs": [
        {
          "internalType": "uint256[]",
          "name": "_requestIds",
          "type": "uint256[]"
        },
        {
          "internalType": "uint256[]",
          "name": "_hints",
          "type": "uint256[]"
        },
        {
          "internalType": "address",
          "name": "_recipient",
          "type": "address"
        }
      ],
      "name": "claimWithdrawalsTo",
      "outputs": [],
      "stateMutability": "nonpayable",
      "type": "function"
    },
    {
      "inputs": [
        {
          "internalType": "uint256",
          "name": "_lastRequestIdToBeFinalized",
          "type": "uint256"
        },
        {
          "internalType": "uint256",
          "name": "_maxShareRate",
          "type": "uint256"
        }
      ],
      "name": "finalize",
      "outputs": [],
      "stateMutability": "payable",
      "type": "function"
    },
    {
      "inputs": [
        {
          "internalType": "uint256[]",
          "name": "_requestIds",
          "type": "uint256[]"
        },
        {
          "internalType": "uint256",
          "name": "_firstIndex",
          "type": "uint256"
        },
        {
          "internalType": "uint256",
          "name": "_lastIndex",
          "type": "uint256"
        }
      ],
      "name": "findCheckpointHints",
      "outputs": [
        {
          "internalType": "uint256[]",
          "name": "hintIds",
          "type": "uint256[]"
        }
      ],
      "stateMutability": "view",
      "type": "function"
    },
    {
      "inputs": [
        {
          "internalType": "uint256",
          "name": "_requestId",
          "type": "uint256"
        }
      ],
      "name": "getApproved",
      "outputs": [
        {
          "internalType": "address",
          "name": "",
          "type": "address"
        }
      ],
      "stateMutability": "view",
      "type": "function"
    },
    {
      "inputs": [],
      "name": "getBaseURI",
      "outputs": [
        {
          "internalType": "string",
          "name": "",
          "type": "string"
        }
      ],
      "stateMutability": "view",
      "type": "function"
    },
    {
      "inputs": [
        {
          "internalType": "uint256[]",
          "name": "_requestIds",
          "type": "uint256[]"
        },
        {
          "internalType": "uint256[]",
          "name": "_hints",
          "type": "uint256[]"
        }
      ],
      "name": "getClaimableAce",
      "outputs": [
        {
          "internalType": "uint256[]",
          "name": "claimableAceValues",
          "type": "uint256[]"
        }
      ],
      "stateMutability": "view",
      "type": "function"
    },
    {
      "inputs": [],
      "name": "getContractVersion",
      "outputs": [
        {
          "internalType": "uint256",
          "name": "",
          "type": "uint256"
        }
      ],
      "stateMutability": "view",
      "type": "function"
    },
    {
      "inputs": [],
      "name": "getLastCheckpointIndex",
      "outputs": [
        {
          "internalType": "uint256",
          "name": "",
          "type": "uint256"
        }
      ],
      "stateMutability": "view",
      "type": "function"
    },
    {
      "inputs": [],
      "name": "getLastFinalizedRequestId",
      "outputs": [
        {
          "internalType": "uint256",
          "name": "",
          "type": "uint256"
        }
      ],
      "stateMutability": "view",
      "type": "function"
    },
    {
      "inputs": [],
      "name": "getLastRequestId",
      "outputs": [
        {
          "internalType": "uint256",
          "name": "",
          "type": "uint256"
        }
      ],
      "stateMutability": "view",
      "type": "function"
    },
    {
      "inputs": [],
      "name": "getLockedAceAmount",
      "outputs": [
        {
          "internalType": "uint256",
          "name": "",
          "type": "uint256"
        }
      ],
      "stateMutability": "view",
      "type": "function"
    },
    {
      "inputs": [],
      "name": "getNFTDescriptorAddress",
      "outputs": [
        {
          "internalType": "address",
          "name": "",
          "type": "address"
        }
      ],
      "stateMutability": "view",
      "type": "function"
    },
    {
      "inputs": [],
      "name": "getResumeSinceTimestamp",
      "outputs": [
        {
          "internalType": "uint256",
          "name": "",
          "type": "uint256"
        }
      ],
      "stateMutability": "view",
      "type": "function"
    },
    {
      "inputs": [
        {
          "internalType": "bytes32",
          "name": "role",
          "type": "bytes32"
        }
      ],
      "name": "getRoleAdmin",
      "outputs": [
        {
          "internalType": "bytes32",
          "name": "",
          "type": "bytes32"
        }
      ],
      "stateMutability": "view",
      "type": "function"
    },
    {
      "inputs": [
        {
          "internalType": "bytes32",
          "name": "role",
          "type": "bytes32"
        },
        {
          "internalType": "uint256",
          "name": "index",
          "type": "uint256"
        }
      ],
      "name": "getRoleMember",
      "outputs": [
        {
          "internalType": "address",
          "name": "",
          "type": "address"
        }
      ],
      "stateMutability": "view",
      "type": "function"
    },
    {
      "inputs": [
        {
          "internalType": "bytes32",
          "name": "role",
          "type": "bytes32"
        }
      ],
      "name": "getRoleMemberCount",
      "outputs": [
        {
          "internalType": "uint256",
          "name": "",
          "type": "uint256"
        }
      ],
      "stateMutability": "view",
      "type": "function"
    },
    {
      "inputs": [
        {
          "internalType": "address",
          "name": "_owner",
          "type": "address"
        }
      ],
      "name": "getWithdrawalRequests",
      "outputs": [
        {
          "internalType": "uint256[]",
          "name": "requestsIds",
          "type": "uint256[]"
        }
      ],
      "stateMutability": "view",
      "type": "function"
    },
    {
      "inputs": [
        {
          "internalType": "uint256[]",
          "name": "_requestIds",
          "type": "uint256[]"
        }
      ],
      "name": "getWithdrawalStatus",
      "outputs": [
        {
          "components": [
            {
              "internalType": "uint256",
              "name": "amountOfBACE",
              "type": "uint256"
            },
            {
              "internalType": "uint256",
              "name": "amountOfShares",
              "type": "uint256"
            },
            {
              "internalType": "address",
              "name": "owner",
              "type": "address"
            },
            {
              "internalType": "uint256",
              "name": "timestamp",
              "type": "uint256"
            },
            {
              "internalType": "bool",
              "name": "isFinalized",
              "type": "bool"
            },
            {
              "internalType": "bool",
              "name": "isClaimed",
              "type": "bool"
            }
          ],
          "internalType": "struct WithdrawalQueueBase.WithdrawalRequestStatus[]",
          "name": "statuses",
          "type": "tuple[]"
        }
      ],
      "stateMutability": "view",
      "type": "function"
    },
    {
      "inputs": [
        {
          "internalType": "bytes32",
          "name": "role",
          "type": "bytes32"
        },
        {
          "internalType": "address",
          "name": "account",
          "type": "address"
        }
      ],
      "name": "grantRole",
      "outputs": [],
      "stateMutability": "nonpayable",
      "type": "function"
    },
    {
      "inputs": [
        {
          "internalType": "bytes32",
          "name": "role",
          "type": "bytes32"
        },
        {
          "internalType": "address",
          "name": "account",
          "type": "address"
        }
      ],
      "name": "hasRole",
      "outputs": [
        {
          "internalType": "bool",
          "name": "",
          "type": "bool"
        }
      ],
      "stateMutability": "view",
      "type": "function"
    },
    {
      "inputs": [
        {
          "internalType": "address",
          "name": "_admin",
          "type": "address"
        }
      ],
      "name": "initialize",
      "outputs": [],
      "stateMutability": "nonpayable",
      "type": "function"
    },
    {
      "inputs": [
        {
          "internalType": "address",
          "name": "_owner",
          "type": "address"
        },
        {
          "internalType": "address",
          "name": "_operator",
          "type": "address"
        }
      ],
      "name": "isApprovedForAll",
      "outputs": [
        {
          "internalType": "bool",
          "name": "",
          "type": "bool"
        }
      ],
      "stateMutability": "view",
      "type": "function"
    },
    {
      "inputs": [],
      "name": "isBunkerModeActive",
      "outputs": [
        {
          "internalType": "bool",
          "name": "",
          "type": "bool"
        }
      ],
      "stateMutability": "view",
      "type": "function"
    },
    {
      "inputs": [],
      "name": "isPaused",
      "outputs": [
        {
          "internalType": "bool",
          "name": "",
          "type": "bool"
        }
      ],
      "stateMutability": "view",
      "type": "function"
    },
    {
      "inputs": [],
      "name": "name",
      "outputs": [
        {
          "internalType": "string",
          "name": "",
          "type": "string"
        }
      ],
      "stateMutability": "view",
      "type": "function"
    },
    {
      "inputs": [
        {
          "internalType": "bool",
          "name": "_isBunkerModeNow",
          "type": "bool"
        },
        {
          "internalType": "uint256",
          "name": "_bunkerStartTimestamp",
          "type": "uint256"
        },
        {
          "internalType": "uint256",
          "name": "_currentReportTimestamp",
          "type": "uint256"
        }
      ],
      "name": "onOracleReport",
      "outputs": [],
      "stateMutability": "nonpayable",
      "type": "function"
    },
    {
      "inputs": [
        {
          "internalType": "uint256",
          "name": "_requestId",
          "type": "uint256"
        }
      ],
      "name": "ownerOf",
      "outputs": [
        {
          "internalType": "address",
          "name": "",
          "type": "address"
        }
      ],
      "stateMutability": "view",
      "type": "function"
    },
    {
      "inputs": [
        {
          "internalType": "uint256",
          "name": "_duration",
          "type": "uint256"
        }
      ],
      "name": "pauseFor",
      "outputs": [],
      "stateMutability": "nonpayable",
      "type": "function"
    },
    {
      "inputs": [
        {
          "internalType": "uint256",
          "name": "_pauseUntilInclusive",
          "type": "uint256"
        }
      ],
      "name": "pauseUntil",
      "outputs": [],
      "stateMutability": "nonpayable",
      "type": "function"
    },
    {
      "inputs": [
        {
          "internalType": "uint256[]",
          "name": "_batches",
          "type": "uint256[]"
        },
        {
          "internalType": "uint256",
          "name": "_maxShareRate",
          "type": "uint256"
        }
      ],
      "name": "prefinalize",
      "outputs": [
        {
          "internalType": "uint256",
          "name": "ethToLock",
          "type": "uint256"
        },
        {
          "internalType": "uint256",
          "name": "sharesToBurn",
          "type": "uint256"
        }
      ],
      "stateMutability": "view",
      "type": "function"
    },
    {
      "inputs": [
        {
          "internalType": "bytes32",
          "name": "role",
          "type": "bytes32"
        },
        {
          "internalType": "address",
          "name": "account",
          "type": "address"
        }
      ],
      "name": "renounceRole",
      "outputs": [],
      "stateMutability": "nonpayable",
      "type": "function"
    },
    {
      "inputs": [
        {
          "internalType": "uint256[]",
          "name": "_amounts",
          "type": "uint256[]"
        },
        {
          "internalType": "address",
          "name": "_owner",
          "type": "address"
        }
      ],
      "name": "requestWithdrawals",
      "outputs": [
        {
          "internalType": "uint256[]",
          "name": "requestIds",
          "type": "uint256[]"
        }
      ],
      "stateMutability": "nonpayable",
      "type": "function"
    },
    {
      "inputs": [
        {
          "internalType": "uint256[]",
          "name": "_amounts",
          "type": "uint256[]"
        },
        {
          "internalType": "address",
          "name": "_owner",
          "type": "address"
        }
      ],
      "name": "requestWithdrawalsWbACE",
      "outputs": [
        {
          "internalType": "uint256[]",
          "name": "requestIds",
          "type": "uint256[]"
        }
      ],
      "stateMutability": "nonpayable",
      "type": "function"
    },
    {
      "inputs": [
        {
          "internalType": "uint256[]",
          "name": "_amounts",
          "type": "uint256[]"
        },
        {
          "internalType": "address",
          "name": "_owner",
          "type": "address"
        },
        {
          "components": [
            {
              "internalType": "uint256",
              "name": "value",
              "type": "uint256"
            },
            {
              "internalType": "uint256",
              "name": "deadline",
              "type": "uint256"
            },
            {
              "internalType": "uint8",
              "name": "v",
              "type": "uint8"
            },
            {
              "internalType": "bytes32",
              "name": "r",
              "type": "bytes32"
            },
            {
              "internalType": "bytes32",
              "name": "s",
              "type": "bytes32"
            }
          ],
          "internalType": "struct WithdrawalQueue.PermitInput",
          "name": "_permit",
          "type": "tuple"
        }
      ],
      "name": "requestWithdrawalsWbACEWithPermit",
      "outputs": [
        {
          "internalType": "uint256[]",
          "name": "requestIds",
          "type": "uint256[]"
        }
      ],
      "stateMutability": "nonpayable",
      "type": "function"
    },
    {
      "inputs": [
        {
          "internalType": "uint256[]",
          "name": "_amounts",
          "type": "uint256[]"
        },
        {
          "internalType": "address",
          "name": "_owner",
          "type": "address"
        },
        {
          "components": [
            {
              "internalType": "uint256",
              "name": "value",
              "type": "uint256"
            },
            {
              "internalType": "uint256",
              "name": "deadline",
              "type": "uint256"
            },
            {
              "internalType": "uint8",
              "name": "v",
              "type": "uint8"
            },
            {
              "internalType": "bytes32",
              "name": "r",
              "type": "bytes32"
            },
            {
              "internalType": "bytes32",
              "name": "s",
              "type": "bytes32"
            }
          ],
          "internalType": "struct WithdrawalQueue.PermitInput",
          "name": "_permit",
          "type": "tuple"
        }
      ],
      "name": "requestWithdrawalsWithPermit",
      "outputs": [
        {
          "internalType": "uint256[]",
          "name": "requestIds",
          "type": "uint256[]"
        }
      ],
      "stateMutability": "nonpayable",
      "type": "function"
    },
    {
      "inputs": [],
      "name": "resume",
      "outputs": [],
      "stateMutability": "nonpayable",
      "type": "function"
    },
    {
      "inputs": [
        {
          "internalType": "bytes32",
          "name": "role",
          "type": "bytes32"
        },
        {
          "internalType": "address",
          "name": "account",
          "type": "address"
        }
      ],
      "name": "revokeRole",
      "outputs": [],
      "stateMutability": "nonpayable",
      "type": "function"
    },
    {
      "inputs": [
        {
          "internalType": "address",
          "name": "_from",
          "type": "address"
        },
        {
          "internalType": "address",
          "name": "_to",
          "type": "address"
        },
        {
          "internalType": "uint256",
          "name": "_requestId",
          "type": "uint256"
        }
      ],
      "name": "safeTransferFrom",
      "outputs": [],
      "stateMutability": "nonpayable",
      "type": "function"
    },
    {
      "inputs": [
        {
          "internalType": "address",
          "name": "_from",
          "type": "address"
        },
        {
          "internalType": "address",
          "name": "_to",
          "type": "address"
        },
        {
          "internalType": "uint256",
          "name": "_requestId",
          "type": "uint256"
        },
        {
          "internalType": "bytes",
          "name": "_data",
          "type": "bytes"
        }
      ],
      "name": "safeTransferFrom",
      "outputs": [],
      "stateMutability": "nonpayable",
      "type": "function"
    },
    {
      "inputs": [
        {
          "internalType": "address",
          "name": "_operator",
          "type": "address"
        },
        {
          "internalType": "bool",
          "name": "_approved",
          "type": "bool"
        }
      ],
      "name": "setApprovalForAll",
      "outputs": [],
      "stateMutability": "nonpayable",
      "type": "function"
    },
    {
      "inputs": [
        {
          "internalType": "string",
          "name": "_baseURI",
          "type": "string"
        }
      ],
      "name": "setBaseURI",
      "outputs": [],
      "stateMutability": "nonpayable",
      "type": "function"
    },
    {
      "inputs": [
        {
          "internalType": "address",
          "name": "_nftDescriptorAddress",
          "type": "address"
        }
      ],
      "name": "setNFTDescriptorAddress",
      "outputs": [],
      "stateMutability": "nonpayable",
      "type": "function"
    },
    {
      "inputs": [
        {
          "internalType": "bytes4",
          "name": "interfaceId",
          "type": "bytes4"
        }
      ],
      "name": "supportsInterface",
      "outputs": [
        {
          "internalType": "bool",
          "name": "",
          "type": "bool"
        }
      ],
      "stateMutability": "view",
      "type": "function"
    },
    {
      "inputs": [],
      "name": "symbol",
      "outputs": [
        {
          "internalType": "string",
          "name": "",
          "type": "string"
        }
      ],
      "stateMutability": "view",
      "type": "function"
    },
    {
      "inputs": [
        {
          "internalType": "uint256",
          "name": "_requestId",
          "type": "uint256"
        }
      ],
      "name": "tokenURI",
      "outputs": [
        {
          "internalType": "string",
          "name": "",
          "type": "string"
        }
      ],
      "stateMutability": "view",
      "type": "function"
    },
    {
      "inputs": [
        {
          "internalType": "address",
          "name": "_from",
          "type": "address"
        },
        {
          "internalType": "address",
          "name": "_to",
          "type": "address"
        },
        {
          "internalType": "uint256",
          "name": "_requestId",
          "type": "uint256"
        }
      ],
      "name": "transferFrom",
      "outputs": [],
      "stateMutability": "nonpayable",
      "type": "function"
    },
    {
      "inputs": [],
      "name": "unfinalizedBACE",
      "outputs": [
        {
          "internalType": "uint256",
          "name": "",
          "type": "uint256"
        }
      ],
      "stateMutability": "view",
      "type": "function"
    },
    {
      "inputs": [],
      "name": "unfinalizedRequestNumber",
      "outputs": [
        {
          "internalType": "uint256",
          "name": "",
          "type": "uint256"
        }
      ],
      "stateMutability": "view",
      "type": "function"
    }
  ],
  "bytecode": "0x6101006040523480156200001257600080fd5b506040516200628238038062006282833981016040819052620000359162000296565b82620000726000197ff812f8d799ea071b4ecf0f6612f1129571268aad3c9d7f3535c25db1f88757726200015360201b6200275b1790919060201c565b6001600160a01b03811660a08190526040805163e6b0d28160e01b8152905163e6b0d28191600480820192602092909190829003018186803b158015620000b857600080fd5b505afa158015620000cd573d6000803e3d6000fd5b505050506040513d601f19601f82011682018060405250810190620000f3919062000315565b6001600160a01b031660805250815115806200010e57508051155b156200012d5760405163388bc6b360e11b815260040160405180910390fd5b620001388262000157565b60c052620001468162000157565b60e0525062000399915050565b9055565b600080829050601f815111156200018e578260405163305a27a960e01b81526004016200018591906200033c565b60405180910390fd5b80516200019b8262000371565b179392505050565b6001600160a01b0381168114620001b957600080fd5b50565b634e487b7160e01b600052604160045260246000fd5b60005b83811015620001ef578181015183820152602001620001d5565b83811115620001ff576000848401525b50505050565b600082601f8301126200021757600080fd5b81516001600160401b0380821115620002345762000234620001bc565b604051601f8301601f19908116603f011681019082821181831017156200025f576200025f620001bc565b816040528381528660208588010111156200027957600080fd5b6200028c846020830160208901620001d2565b9695505050505050565b600080600060608486031215620002ac57600080fd5b8351620002b981620001a3565b60208501519093506001600160401b0380821115620002d757600080fd5b620002e58783880162000205565b93506040860151915080821115620002fc57600080fd5b506200030b8682870162000205565b9150509250925092565b6000602082840312156200032857600080fd5b81516200033581620001a3565b9392505050565b60208152600082518060208401526200035d816040850160208701620001d2565b601f01601f19169190910160400192915050565b8051602080830151919081101562000393576000198160200360031b1b821691505b50919050565b60805160a05160c05160e051615e7e62000404600039600061169301526000610cec0152600081816106a8015281816113ec01528181613cfb0152613d9901526000818161098e01528181611bd301528181613b9b01528181613c390152613e410152615e7e6000f3fe6080604052600436106103e45760003560e01c80638aa1043511610208578063b7bdf74811610118578063d547741f116100ab578063e7c0835d1161007a578063e7c0835d14610931578063e985e9c514610bc3578063eed53bf514610be3578063f3f449c714610c10578063f844443614610c3057600080fd5b8063d547741f14610b43578063d668104214610b63578063dff49e4c14610b83578063e3afe0a314610ba357600080fd5b8063c2fc7aff116100e7578063c2fc7aff14610ace578063c4d66de814610ae3578063c87b56dd14610b03578063ca15c87314610b2357600080fd5b8063b7bdf74814610a38578063b88d4fde14610a6c578063b8c4b85a14610a8c578063c146486a14610ab957600080fd5b8063a22cb4651161019b578063ab9b2d611161016a578063ab9b2d61146109b0578063abe9cfc8146109d0578063acf41e4d146109f0578063b187bd2614610a10578063b6013cef14610a2557600080fd5b8063a22cb46514610911578063a302ee3814610931578063a52e9c9f14610947578063a9c1376c1461097c57600080fd5b806395d89b41116101d757806395d89b41146108b257806396992fed146108c75780639b36be58146108e7578063a217fddf146108fc57600080fd5b80638aa104351461083d5780639010d07c1461085257806391d148541461087257806392b18a471461089257600080fd5b806342842e0e1161030357806362abe3fa1161029657806373b06e611161026557806373b06e61146107b65780637d031b65146107d657806382deca8d146107f65780638866ee2c1461080b57806388b0429c1461082057600080fd5b806362abe3fa146107345780636352211e1461076157806370a0823114610781578063714c5398146107a157600080fd5b8063526eae3e116102d2578063526eae3e146106ca57806355f804b3146106df578063589ff76c146106ff5780635e7eead91461071457600080fd5b806342842e0e1461064c57806346a086b41461066c5780634f069a13146106815780635054c4c91461069657600080fd5b806323b872dd1161037b5780632de03aa11161034a5780632de03aa1146105a45780632f2ff15d146105d857806336568abe146105f8578063389ed2671461061857600080fd5b806323b872dd1461053a578063248a9ca31461055a57806329fd065d1461057a5780632b95b7811461058f57600080fd5b8063081812fc116103b7578063081812fc14610499578063095ea7b3146104d157806319c2b4c3146104f1578063220ca2f41461050657600080fd5b806301ffc9a7146103e9578063046f7da21461041e57806306fdde031461043557806307e2cea514610457575b600080fd5b3480156103f557600080fd5b5061040961040436600461502f565b610c50565b60405190151581526020015b60405180910390f35b34801561042a57600080fd5b50610433610cb1565b005b34801561044157600080fd5b5061044a610ce5565b60405161041591906150a4565b34801561046357600080fd5b5061048b7f68e79a7bf1e0bc45d0a330c573bc367f9cf464fd326078812f301165fbda4ef181565b604051908152602001610415565b3480156104a557600080fd5b506104b96104b43660046150b7565b610d15565b6040516001600160a01b039091168152602001610415565b3480156104dd57600080fd5b506104336104ec3660046150ec565b610d6e565b3480156104fd57600080fd5b5061048b610dfd565b34801561051257600080fd5b5061048b7f485191a2ef18512555bd4426d18a716ce8e98c80ec2de16394dcf86d7d91bc8081565b34801561054657600080fd5b50610433610555366004615116565b610e27565b34801561056657600080fd5b5061048b6105753660046150b7565b610e32565b34801561058657600080fd5b5061048b602481565b34801561059b57600080fd5b50610409610e54565b3480156105b057600080fd5b5061048b7f2fc10cc8ae19568712f7a176fb4978616a610650813c9d05326c34abb62749c781565b3480156105e457600080fd5b506104336105f3366004615152565b610e67565b34801561060457600080fd5b50610433610613366004615152565b610e84565b34801561062457600080fd5b5061048b7f139c2898040ef16910dc9f44dc697df79363da767d8bc92f2e310312b816e46d81565b34801561065857600080fd5b50610433610667366004615116565b610f02565b34801561067857600080fd5b506104b9610f1d565b34801561068d57600080fd5b5061048b610f47565b3480156106a257600080fd5b506104b97f000000000000000000000000000000000000000000000000000000000000000081565b3480156106d657600080fd5b5061048b610f71565b3480156106eb57600080fd5b506104336106fa36600461517e565b610f9b565b34801561070b57600080fd5b5061048b611030565b34801561072057600080fd5b5061043361072f36600461523a565b611048565b34801561074057600080fd5b5061075461074f3660046152ba565b61111b565b604051610415919061530a565b34801561076d57600080fd5b506104b961077c3660046150b7565b611239565b34801561078d57600080fd5b5061048b61079c36600461534e565b6112ce565b3480156107ad57600080fd5b5061044a61132f565b3480156107c257600080fd5b506107546107d1366004615369565b6113e0565b3480156107e257600080fd5b506107546107f136600461534e565b61149d565b34801561080257600080fd5b5061048b6114ce565b34801561081757600080fd5b5061048b6114f8565b34801561082c57600080fd5b5061048b683635c9adc5dea0000081565b34801561084957600080fd5b5061048b61156a565b34801561085e57600080fd5b506104b961086d3660046153d7565b611594565b34801561087e57600080fd5b5061040961088d366004615152565b6115c0565b34801561089e57600080fd5b506104336108ad36600461534e565b6115f8565b3480156108be57600080fd5b5061044a61168c565b3480156108d357600080fd5b506104336108e2366004615407565b6116b7565b3480156108f357600080fd5b5061048b6117d9565b34801561090857600080fd5b5061048b600081565b34801561091d57600080fd5b5061043361092c36600461543c565b6117f1565b34801561093d57600080fd5b5061048b60001981565b34801561095357600080fd5b50610967610962366004615473565b6117fc565b60408051928352602083019190915201610415565b34801561098857600080fd5b506104b97f000000000000000000000000000000000000000000000000000000000000000081565b3480156109bc57600080fd5b506107546109cb3660046154be565b611ad2565b3480156109dc57600080fd5b506104336109eb3660046150b7565b611b93565b3480156109fc57600080fd5b50610754610a0b366004615369565b611bc7565b348015610a1c57600080fd5b50610409611c79565b610433610a333660046153d7565b611c98565b348015610a4457600080fd5b5061048b7fbe882725f03f148e7c5a5e63ec45f182f7dcdb6bb8b92311ade5a6d138e0ee0f81565b348015610a7857600080fd5b50610433610a873660046155e1565b611d2b565b348015610a9857600080fd5b50610aac610aa736600461568b565b611d6a565b60405161041591906156cc565b348015610ac557600080fd5b5061048b606481565b348015610ada57600080fd5b5061048b611e21565b348015610aef57600080fd5b50610433610afe36600461534e565b611e3d565b348015610b0f57600080fd5b5061044a610b1e3660046150b7565b611e70565b348015610b2f57600080fd5b5061048b610b3e3660046150b7565b611f61565b348015610b4f57600080fd5b50610433610b5e366004615152565b611f85565b348015610b6f57600080fd5b50610754610b7e366004615751565b611fa2565b348015610b8f57600080fd5b50610754610b9e366004615751565b612085565b348015610baf57600080fd5b50610433610bbe3660046154be565b61213f565b348015610bcf57600080fd5b50610409610bde3660046157a4565b6121de565b348015610bef57600080fd5b50610c03610bfe3660046157ce565b61222b565b6040516104159190615893565b348015610c1c57600080fd5b50610433610c2b3660046150b7565b6126fe565b348015610c3c57600080fd5b50610433610c4b3660046150b7565b612732565b60006001600160e01b031982166380ac58cd60e01b1480610c8157506001600160e01b03198216635b5e139f60e01b145b80610c9c57506001600160e01b03198216632483248360e11b145b80610cab5750610cab8261275f565b92915050565b610cdb7f2fc10cc8ae19568712f7a176fb4978616a610650813c9d05326c34abb62749c733612784565b610ce36127e8565b565b6060610d107f000000000000000000000000000000000000000000000000000000000000000061282c565b905090565b6000610d2082612861565b610d45576040516364b4f07960e11b8152600481018390526024015b60405180910390fd5b600080516020615d8983398151915260009283526020525060409020546001600160a01b031690565b6000610d7982611239565b9050806001600160a01b0316836001600160a01b03161415610dae576040516349fa8bc360e11b815260040160405180910390fd5b336001600160a01b03821614801590610dce5750610dcc81336121de565b155b15610dee5760405163106abbeb60e21b8152336004820152602401610d3c565b610df883836128a7565b505050565b6000610d107ff2625c21a0f7446928066977fc066a76b063cb763a753ddfb5f66050d0a852975490565b610df8838383612922565b6000908152600080516020615de9833981519152602052604090206001015490565b6000600019610e616117d9565b10905090565b610e7082610e32565b610e7a8133612784565b610df88383612b75565b6001600160a01b0381163314610ef45760405162461bcd60e51b815260206004820152602f60248201527f416363657373436f6e74726f6c3a2063616e206f6e6c792072656e6f756e636560448201526e103937b632b9903337b91039b2b63360891b6064820152608401610d3c565b610efe8282612ba4565b5050565b610df883838360405180602001604052806000815250611d2b565b6000610d107fc05ca7d1416e49467d5edc7d7ab87ec72336e51e1aa4bd667aa65e3f135fd3a85490565b6000610d107f4c0a0c9053dec7f5a947951f22974f5d3e32ea9d3b3af7d146eb92ea4d8592205490565b6000610d107f0876181c50533c514a32d2532d6e641b36733647e147558717733ca97182304e5490565b7fbe882725f03f148e7c5a5e63ec45f182f7dcdb6bb8b92311ade5a6d138e0ee0f610fc68133612784565b610ff17f64e8f8e17613d87eea8ab1779bc027d9869e9babcba1688da507c03cb75e03388484614ef2565b507ff9c7803e94e0d3c02900d8a90893a6d5e90dd04d32a4cfe825520f82bf9f32f683836040516110239291906158e7565b60405180910390a1505050565b6000610d10600080516020615e098339815191525490565b6001600160a01b03811661106f5760405163d27b444360e01b815260040160405180910390fd5b8382146110995760405163098b37e560e31b81526004810185905260248101839052604401610d3c565b60005b84811015611113576110df8686838181106110b9576110b9615916565b905060200201358585848181106110d2576110d2615916565b9050602002013584612bd3565b6111033360008888858181106110f7576110f7615916565b90506020020135612d95565b61110c81615942565b905061109c565b505050505050565b6060836001600160401b0381111561113557611135615529565b60405190808252806020026020018201604052801561115e578160200160208202803683370190505b5090506000805b8581101561122f578187878381811061118057611180615916565b9050602002013510156111a65760405163374e8bd160e01b815260040160405180910390fd5b6111c98787838181106111bb576111bb615916565b905060200201358686612ddb565b8382815181106111db576111db615916565b6020026020010181815250508281815181106111f9576111f9615916565b6020026020010151945086868281811061121557611215615916565b9050602002013591508061122890615942565b9050611165565b5050949350505050565b600081158061124e575061124b610dfd565b82115b1561126f576040516364b4f07960e11b815260048101839052602401610d3c565b6000611279612fac565b6000848152602091909152604090206001810154909150600160c81b900460ff16156112bb5760405163f0e0cc2d60e01b815260048101849052602401610d3c565b600101546001600160a01b031692915050565b60006001600160a01b0382166113015760405162793e5560e21b81526001600160a01b0383166004820152602401610d3c565b6001600160a01b0382166000908152600080516020615da983398151915260205260409020610cab90612fd0565b60607f64e8f8e17613d87eea8ab1779bc027d9869e9babcba1688da507c03cb75e0338805461135d9061595d565b80601f01602080910402602001604051908101604052809291908181526020018280546113899061595d565b80156113d65780601f106113ab576101008083540402835291602001916113d6565b820191906000526020600020905b8154815290600101906020018083116113b957829003601f168201915b5050505050905090565b60606001600160a01b037f00000000000000000000000000000000000000000000000000000000000000001663d505accf33308535602087013561142988880160408a01615992565b886060013589608001356040518863ffffffff1660e01b815260040161145597969594939291906159b5565b600060405180830381600087803b15801561146f57600080fd5b505af1158015611483573d6000803e3d6000fd5b50505050611492858585612085565b90505b949350505050565b6001600160a01b0381166000908152600080516020615da983398151915260205260409020606090610cab90612fda565b6000610d107fd0d759f74c6b04701571a84e1a682ae553e3b460b771844eb86561fb5d71388e5490565b6000611502612fac565b600061150c610f47565b81526020810191909152604001600020546001600160801b031661152e612fac565b6000611538610dfd565b815260208101919091526040016000205461155c91906001600160801b03166159f6565b6001600160801b0316905090565b6000610d107ff812f8d799ea071b4ecf0f6612f1129571268aad3c9d7f3535c25db1f88757725490565b6000828152600080516020615dc9833981519152602052604081206115b99083612fe7565b9392505050565b6000918252600080516020615de9833981519152602090815260408084206001600160a01b0393909316845291905290205460ff1690565b7fbe882725f03f148e7c5a5e63ec45f182f7dcdb6bb8b92311ade5a6d138e0ee0f6116238133612784565b61164c7fc05ca7d1416e49467d5edc7d7ab87ec72336e51e1aa4bd667aa65e3f135fd3a8839055565b6040516001600160a01b03831681527f4ec04ac71c49eea0a94dc5967b493412a8cdb2934b367713019d3b110e9f0ba89060200160405180910390a15050565b6060610d107f000000000000000000000000000000000000000000000000000000000000000061282c565b6116e17f68e79a7bf1e0bc45d0a330c573bc367f9cf464fd326078812f301165fbda4ef133612784565b428210611701576040516334819c0360e01b815260040160405180910390fd5b428110611721576040516334819c0360e01b815260040160405180910390fd5b61172a81612ff3565b6000611734610e54565b9050801515841515146117d35783156117965761175e600080516020615d69833981519152849055565b6040518381527f47f03b07e5b5377f871539bb2942f5ecb72733be9fc9d55a17b6d6a05d4183459060200160405180910390a16117d3565b600019600080516020615d69833981519152556040517fd1f8a2998c0caf73e09434aa93d273a599060d789407c6f70ccd4c9c9f32c8f490600090a15b50505050565b6000610d10600080516020615d698339815191525490565b610efe33838361301c565b6000808261181d5760405163e4e9735760e01b815260040160405180910390fd5b8361183b576040516312de1df360e01b815260040160405180910390fd5b611843610f47565b8585600081811061185657611856615916565b9050602002013511611898578484600081811061187557611875615916565b905060200201356040516364b4f07960e11b8152600401610d3c91815260200190565b6118a0610dfd565b85856118ad600182615a1e565b8181106118bc576118bc615916565b9050602002013511156118e55784846118d6600182615a1e565b81811061187557611875615916565b6000806118f0610f47565b905060006118fc612fac565b60008381526020918252604090819020815160c08101835281546001600160801b038082168352600160801b9091041693810193909352600101546001600160a01b0381169183019190915264ffffffffff600160a01b82048116606084015260ff600160c81b83041615156080840152600160d01b9091041660a082015290505b86831015611ac757600088888581811061199a5761199a615916565b9050602002013590508281116119c35760405163337c4a7160e21b815260040160405180910390fd5b60006119cd612fac565b600083815260209182526040808220815160c08101835281546001600160801b038082168352600160801b9091041694810194909452600101546001600160a01b0381169184019190915264ffffffffff600160a01b82048116606085015260ff600160c81b83041615156080850152600160d01b9091041660a08301529091508080611a5a86856130dc565b9250925092508a831115611a9a576b033b2e3c9fd0803ce8000000611a7f8c83615a35565b611a899190615a6a565b611a93908b615a7e565b9950611aa7565b611aa4828b615a7e565b99505b611ab1818a615a7e565b98505060019096019550919350915061197e9050565b505050935093915050565b6060836001600160401b03811115611aec57611aec615529565b604051908082528060200260200182016040528015611b15578160200160208202803683370190505b50905060005b84811015611b8a57611b5d868683818110611b3857611b38615916565b90506020020135858584818110611b5157611b51615916565b90506020020135613144565b828281518110611b6f57611b6f615916565b6020908102919091010152611b8381615942565b9050611b1b565b50949350505050565b7f139c2898040ef16910dc9f44dc697df79363da767d8bc92f2e310312b816e46d611bbe8133612784565b610efe826131d6565b60606001600160a01b037f00000000000000000000000000000000000000000000000000000000000000001663d505accf333085356020870135611c1088880160408a01615992565b886060013589608001356040518863ffffffff1660e01b8152600401611c3c97969594939291906159b5565b600060405180830381600087803b158015611c5657600080fd5b505af1158015611c6a573d6000803e3d6000fd5b50505050611492858585611fa2565b6000611c91600080516020615e098339815191525490565b4210905090565b611ca061322a565b611cca7f485191a2ef18512555bd4426d18a716ce8e98c80ec2de16394dcf86d7d91bc8033612784565b6000611cd4610f47565b611cdf906001615a7e565b9050611cec833484613250565b7f6bd5c950a8d8df17f772f5af37cb3655737899cbf903264b9795592da439661c81611d16610dfd565b60408051928352602083019190915201611023565b611d36848484612922565b611d428484848461351c565b6117d3576040516309f844e360e01b81526001600160a01b0384166004820152602401610d3c565b6060816001600160401b03811115611d8457611d84615529565b604051908082528060200260200182016040528015611dbd57816020015b611daa614f76565b815260200190600190039081611da25790505b50905060005b82811015611e1a57611dec848483818110611de057611de0615916565b90506020020135613632565b828281518110611dfe57611dfe615916565b602002602001018190525080611e1390615942565b9050611dc3565b5092915050565b6000611e2b610f47565b611e33610dfd565b610d109190615a1e565b6001600160a01b038116611e645760405163016b8ae160e11b815260040160405180910390fd5b611e6d81613824565b50565b6060611e7b82612861565b611e9b576040516364b4f07960e11b815260048101839052602401610d3c565b6000611ec57fc05ca7d1416e49467d5edc7d7ab87ec72336e51e1aa4bd667aa65e3f135fd3a85490565b90506001600160a01b03811615611f52576040516344a5a61760e11b8152600481018490526001600160a01b0382169063894b4c2e9060240160006040518083038186803b158015611f1657600080fd5b505afa158015611f2a573d6000803e3d6000fd5b505050506040513d6000823e601f3d908101601f191682016040526115b99190810190615a96565b6115b98361389f565b50919050565b6000818152600080516020615dc983398151915260205260408120610cab90612fd0565b611f8e82610e32565b611f988133612784565b610df88383612ba4565b6060611fac61322a565b6001600160a01b038216611fbe573391505b826001600160401b03811115611fd657611fd6615529565b604051908082528060200260200182016040528015611fff578160200160208202803683370190505b50905060005b8381101561207d5761202e85858381811061202257612022615916565b90506020020135613b24565b61205085858381811061204357612043615916565b9050602002013584613b76565b82828151811061206257612062615916565b602090810291909101015261207681615942565b9050612005565b509392505050565b606061208f61322a565b6001600160a01b0382166120a1573391505b826001600160401b038111156120b9576120b9615529565b6040519080825280602002602001820160405280156120e2578160200160208202803683370190505b50905060005b8381101561207d5761211285858381811061210557612105615916565b9050602002013584613cd6565b82828151811061212457612124615916565b602090810291909101015261213881615942565b90506120e8565b8281146121695760405163098b37e560e31b81526004810184905260248101829052604401610d3c565b60005b838110156121d7576121af85858381811061218957612189615916565b905060200201358484848181106121a2576121a2615916565b9050602002013533612bd3565b6121c73360008787858181106110f7576110f7615916565b6121d081615942565b905061216c565b5050505050565b6001600160a01b0391821660009081527f1886c98c6935f5af694865742d347f021ff255d8db3ee6479ff1769bb556af266020908152604080832093909416825291909152205460ff1690565b612233614fb9565b81602001518061224257508151155b156122605760405163baf3f0f760e01b815260040160405180910390fd5b6040805160c081018252600080825260208201819052918101829052606081018290526080810182905260a081018290526000846060015160001415612353576122a8610f47565b6122b3906001615a7e565b92506122bd612fac565b60006122ca600186615a1e565b81526020808201929092526040908101600020815160c08101835281546001600160801b038082168352600160801b9091041693810193909352600101546001600160a01b0381169183019190915264ffffffffff600160a01b82048116606084015260ff600160c81b83041615156080840152600160d01b9091041660a082015291506124bf565b600085604001516001876060015161236b9190615a1e565b6024811061237b5761237b615916565b6020020151905061238d816001615a7e565b9350612397612fac565b60008281526020918252604090819020815160c08101835281546001600160801b038082168352600160801b9091041693810193909352600101546001600160a01b0381169183019190915264ffffffffff600160a01b82048116606084015260ff600160c81b83041615156080840152600160d01b9091041660a082015292506124b8612423612fac565b6000612430600185615a1e565b81526020808201929092526040908101600020815160c08101835281546001600160801b038082168352600160801b9091041693810193909352600101546001600160a01b0381169183019190915264ffffffffff600160a01b82048116606084015260ff600160c81b83041615156080840152600160d01b9091041660a0820152846130dc565b5090925050505b60006124cb8785615a7e565b905060006124d7610dfd565b6124e2906001615a7e565b90505b80851080156124f357508185105b156126dc576000612502612fac565b60008781526020918252604090819020815160c08101835281546001600160801b038082168352600160801b9091041693810193909352600101546001600160a01b0381169183019190915264ffffffffff600160a01b820481166060840181905260ff600160c81b84041615156080850152600160d01b9092041660a08301529091508a101561259357506126dc565b60008060006125a288856130dc565b9250925092508d8311156125d4576b033b2e3c9fd0803ce80000006125c78f83615a35565b6125d19190615a6a565b91505b8a518211156125e657505050506126dc565b818b6000018181516125f89190615a1e565b90525060608b01511580159061264c57508360a0015164ffffffffff168860a0015164ffffffffff16148061263857508d871115801561263857508d8311155b8061264c57508d8711801561264c57508d83115b1561268257888b6040015160018d606001516126689190615a1e565b6024811061267857612678615916565b60200201526126ca565b60248b60600151141561269857505050506126dc565b888b604001518c60600151602481106126b3576126b3615916565b602002015260608b0180516126c790615942565b90525b505060019096019590945092506124e5565b808514806126e957508185105b15156020880152509498975050505050505050565b7f139c2898040ef16910dc9f44dc697df79363da767d8bc92f2e310312b816e46d6127298133612784565b610efe82613ee6565b61274f81612749836001612744610f71565b612ddb565b33612bd3565b611e6d33600083612d95565b9055565b60006001600160e01b03198216635a05180f60e01b1480610cab5750610cab82613f36565b61278e82826115c0565b610efe576127a6816001600160a01b03166014613f6b565b6127b1836020613f6b565b6040516020016127c2929190615b0c565b60408051601f198184030181529082905262461bcd60e51b8252610d3c916004016150a4565b6127f0614106565b42600080516020615e09833981519152556040517f62451d457bc659158be6e6247f56ec1df424a5c7597f71c20c2bc44e0965c8f990600090a1565b60408051602080825281830190925260609160ff84169160009180820181803683375050509182525060208101929092525090565b600080821180156128795750612875610dfd565b8211155b8015610cab5750612888612fac565b6000928352602052506040902060010154600160c81b900460ff161590565b6000818152600080516020615d898339815191526020526040902080546001600160a01b0319166001600160a01b03841690811790915581906128e982611239565b6001600160a01b03167f8c5be1e5ebec7d5bd14f71427d1e84f3dd0314c0f7b2291e5b200ac8c7c3b92560405160405180910390a45050565b6001600160a01b03821661294957604051633a954ecd60e21b815260040160405180910390fd5b826001600160a01b0316826001600160a01b0316141561297c576040516352ce6f2160e01b815260040160405180910390fd5b80158061298f575061298c610dfd565b81115b156129b0576040516364b4f07960e11b815260048101829052602401610d3c565b60006129ba612fac565b6000838152602091909152604090206001810154909150600160c81b900460ff16156129fc5760405163f0e0cc2d60e01b815260048101839052602401610d3c565b60018101546001600160a01b03858116911614612a4557600181015460405163c0eeaa6160e01b81526001600160a01b0380871660048301529091166024820152604401610d3c565b336001600160a01b038516811480612a625750612a6285826121de565b80612a9357506000838152600080516020615d8983398151915260205260409020546001600160a01b038281169116145b612abb5760405163aee697e760e01b81526001600160a01b0382166004820152602401610d3c565b600080516020615d8983398151915260008481526020918252604080822080546001600160a01b03199081169091556001860180546001600160a01b038a81169190931617905588168252600080516020615da983398151915290925220612b23908461412b565b612b2f57612b2f615b81565b6001600160a01b0384166000908152600080516020615da983398151915260205260409020612b5e9084614137565b612b6a57612b6a615b81565b6121d7858585612d95565b612b7f8282614143565b6000828152600080516020615dc983398151915260205260409020610df890826141b9565b612bae82826141ce565b6000828152600080516020615dc983398151915260205260409020610df89082614242565b82612bf4576040516364b4f07960e11b815260048101849052602401610d3c565b612bfc610f47565b831115612c1f5760405163095ca04560e31b815260048101849052602401610d3c565b6000612c29612fac565b6000858152602091909152604090206001810154909150600160c81b900460ff1615612c6b5760405163f0e0cc2d60e01b815260048101859052602401610d3c565b60018101546001600160a01b03163314612caf576001810154604051631194af8760e11b81523360048201526001600160a01b039091166024820152604401610d3c565b60018101805460ff60c81b1916600160c81b179055612d0084612cdd600080516020615da983398151915290565b60018401546001600160a01b03166000908152602091909152604090209061412b565b612d0c57612d0c615b81565b6000612d19828686614257565b9050612d3681612d276114ce565b612d319190615a1e565b61460d565b612d408382614636565b826001600160a01b0316336001600160a01b0316867f6ad26c5e238e7d002799f9a5db07e81ef14e37386ae03496d7a7ef04713e145b84604051612d8691815260200190565b60405180910390a45050505050565b80826001600160a01b0316846001600160a01b03167fddf252ad1be2c89b69c2b068fc378daa952ba7f163c4a11628f55a4df523b3ef60405160405180910390a4505050565b6000831580612df05750612ded610dfd565b84115b15612e11576040516364b4f07960e11b815260048101859052602401610d3c565b6000612e1b610f71565b9050831580612e2957508083115b15612e5157604051637189425760e01b81526004810185905260248101849052604401610d3c565b801580612e645750612e61610f47565b85115b80612e6e57508284115b15612e7d5760009150506115b9565b6000838152600080516020615e2983398151915260205260409020548510612ef85780831415612eb057829150506115b9565b600080516020615e298339815191526000612ecc856001615a7e565b815260200190815260200160002060000154851015612eee57829150506115b9565b60009150506115b9565b6000848152600080516020615e298339815191526020526040902054851015612f255760009150506115b9565b836000612f33600186615a1e565b90505b81811115612fa25760006002612f4c8484615a7e565b612f57906001615a7e565b612f619190615a6a565b6000818152600080516020615e2983398151915260205260409020549091508810612f8e57809250612f9c565b612f99600182615a1e565b91505b50612f36565b5095945050505050565b7f82d902cc357288d583210b573a9d62f3db3be12b3fb6605b81bfb74aae873bf090565b6000610cab825490565b606060006115b9836146cb565b60006115b98383614727565b611e6d7f3696285c4731d14bc4027d17e54255ac55c94b2a4622516ddc5a21d8cea8a1d1829055565b816001600160a01b0316836001600160a01b0316141561304f5760405163b06307db60e01b815260040160405180910390fd5b6001600160a01b0383811660008181527f1886c98c6935f5af694865742d347f021ff255d8db3ee6479ff1769bb556af266020908152604080832094871680845294825291829020805460ff1916861515908117909155825190815291517f17307eab39ab6107e8899845ad3d59bd9653f200f220920489ca2b5937696c319281900390910190a3505050565b81518151600091829182916130f0916159f6565b6001600160801b031691508460200151846020015161310f91906159f6565b6001600160801b03169050806131316b033b2e3c9fd0803ce800000084615a35565b61313b9190615a6a565b92509250925092565b60008215806131595750613156610dfd565b83115b1561317a576040516364b4f07960e11b815260048101849052602401610d3c565b613182610f47565b83111561319157506000610cab565b600061319b612fac565b6000858152602091909152604090206001810154909150600160c81b900460ff16156131cb576000915050610cab565b611495818585614257565b6131de61322a565b428110156131ff576040516339e2ec5360e11b815260040160405180910390fd5b6000600019821461321c57613215826001615a7e565b9050613221565b506000195b610efe81614751565b613232611c79565b15610ce357604051630286f07360e31b815260040160405180910390fd5b613258610dfd565b83111561327b576040516364b4f07960e11b815260048101849052602401610d3c565b6000613285610f47565b90508084116132aa576040516364b4f07960e11b815260048101859052602401610d3c565b60006132b4612fac565b600083815260209182526040808220815160c08101835281546001600160801b038082168352600160801b9091041694810194909452600101546001600160a01b0381169184019190915264ffffffffff600160a01b82048116606085015260ff600160c81b83041615156080850152600160d01b9091041660a083015290915061333d612fac565b600087815260209182526040808220815160c08101835281546001600160801b03808216808452600160801b90920416958201959095526001909101546001600160a01b0381169282019290925264ffffffffff600160a01b83048116606083015260ff600160c81b84041615156080830152600160d01b90920490911660a0820152845190935090916133d191906159f6565b9050806001600160801b031686111561340f576040516359c1125b60e01b8152600481018790526001600160801b0382166024820152604401610d3c565b600061341c856001615a7e565b90506000613428610f71565b9050604051806040016040528083815260200188815250613454600080516020615e2983398151915290565b6000613461846001615a7e565b8152602080820192909252604001600020825181559101516001918201556134939061348e908390615a7e565b6147dd565b6134a98861349f6114ce565b612d319190615a7e565b6134b289614806565b88827f197874c72af6a06fb0aa4fab45fd39c7cb61ac0992159872dc3295207da7e9eb8a886020015188602001516134ea91906159f6565b604080519283526001600160801b039091166020830152429082015260600160405180910390a3505050505050505050565b60006001600160a01b0384163b1561362a57604051630a85bd0160e11b81526001600160a01b0385169063150b7a0290613560903390899088908890600401615b97565b602060405180830381600087803b15801561357a57600080fd5b505af19250505080156135aa575060408051601f3d908101601f191682019092526135a791810190615bd4565b60015b613610573d8080156135d8576040519150601f19603f3d011682016040523d82523d6000602084013e6135dd565b606091505b508051613608576040516309f844e360e01b81526001600160a01b0386166004820152602401610d3c565b805181602001fd5b6001600160e01b031916630a85bd0160e11b149050611495565b506001611495565b61363a614f76565b81158061364d575061364a610dfd565b82115b1561366e576040516364b4f07960e11b815260048101839052602401610d3c565b6000613678612fac565b600084815260209182526040808220815160c08101835281546001600160801b038082168352600160801b9091041694810194909452600101546001600160a01b0381169184019190915264ffffffffff600160a01b82048116606085015260ff600160c81b83041615156080850152600160d01b9091041660a0830152909150613701612fac565b600061370e600187615a1e565b81526020808201929092526040908101600020815160c0808201845282546001600160801b038082168452600160801b90910416948201949094526001909101546001600160a01b0381168284015264ffffffffff600160a01b82048116606084015260ff600160c81b83041615156080840152600160d01b9091041660a082015281519283019091528051845191935082916137ab91906159f6565b6001600160801b03168152602001826020015184602001516137cd91906159f6565b6001600160801b0316815260200183604001516001600160a01b03168152602001836060015164ffffffffff168152602001613807610f47565b861115151581526020018360800151151581525092505050919050565b61382c61482f565b613837600019613ee6565b6138416001614965565b61384c600082612b75565b600019600080516020615d69833981519152556040516001600160a01b03821681527f20b34d2aaaf6acb4fbbc9c4846858bb824053ab11ff44a59dfba1e22ceb8a509906020015b60405180910390a150565b606060007f64e8f8e17613d87eea8ab1779bc027d9869e9babcba1688da507c03cb75e033880546138cf9061595d565b80601f01602080910402602001604051908101604052809291908181526020018280546138fb9061595d565b80156139485780601f1061391d57610100808354040283529160200191613948565b820191906000526020600020905b81548152906001019060200180831161392b57829003601f168201915b5050505050905080516000141561396f575050604080516020810190915260008152919050565b600081604051806040016040528060018152602001602f60f81b81525061399586614994565b6040518060400160405280600b81526020016a3f7265717565737465643d60a81b815250613a246139c4612fac565b60006139d160018c615a1e565b81526020810191909152604001600020546001600160801b03166139f3612fac565b60008b81526020919091526040902054613a1691906001600160801b03166159f6565b6001600160801b0316614994565b6040518060400160405280600c81526020016b26637265617465645f61743d60a01b815250613a7a613a54612fac565b60008c81526020919091526040902060010154600160a01b900464ffffffffff16614994565b604051602001613a909796959493929190615bf1565b60405160208183030381529060405290506000613aab610f47565b85118015915061207d57816040518060400160405280600b81526020016a2666696e616c697a65643d60a81b815250613af9613af488613aef8a6001612744610f71565b613144565b614994565b604051602001613b0b93929190615c83565b6040516020818303038152906040529150509392505050565b6064811015613b495760405163171370f960e31b815260048101829052602401610d3c565b683635c9adc5dea00000811115611e6d57604051638ebfb78d60e01b815260048101829052602401610d3c565b6040516323b872dd60e01b8152336004820152306024820152604481018390526000907f00000000000000000000000000000000000000000000000000000000000000006001600160a01b0316906323b872dd90606401602060405180830381600087803b158015613be757600080fd5b505af1158015613bfb573d6000803e3d6000fd5b505050506040513d601f19601f82011682018060405250810190613c1f9190615cc6565b50604051633103ec9560e11b8152600481018490526000907f00000000000000000000000000000000000000000000000000000000000000006001600160a01b031690636207d92a9060240160206040518083038186803b158015613c8357600080fd5b505afa158015613c97573d6000803e3d6000fd5b505050506040513d601f19601f82011682018060405250810190613cbb9190615ce3565b9050613cc8848285614a91565b9150611e1a60008484612d95565b6040516323b872dd60e01b8152336004820152306024820152604481018390526000907f00000000000000000000000000000000000000000000000000000000000000006001600160a01b0316906323b872dd90606401602060405180830381600087803b158015613d4757600080fd5b505af1158015613d5b573d6000803e3d6000fd5b505050506040513d601f19601f82011682018060405250810190613d7f9190615cc6565b50604051636f074d1f60e11b8152600481018490526000907f00000000000000000000000000000000000000000000000000000000000000006001600160a01b03169063de0e9a3e90602401602060405180830381600087803b158015613de557600080fd5b505af1158015613df9573d6000803e3d6000fd5b505050506040513d601f19601f82011682018060405250810190613e1d9190615ce3565b9050613e2881613b24565b604051633103ec9560e11b8152600481018290526000907f00000000000000000000000000000000000000000000000000000000000000006001600160a01b031690636207d92a9060240160206040518083038186803b158015613e8b57600080fd5b505afa158015613e9f573d6000803e3d6000fd5b505050506040513d601f19601f82011682018060405250810190613ec39190615ce3565b9050613ed0828286614a91565b9250613ede60008585612d95565b505092915050565b613eee61322a565b80613f0c5760405163ad58bfc760e01b815260040160405180910390fd5b6000600019821415613f215750600019613221565b613f2b8242615a7e565b9050610efe81614751565b60006001600160e01b03198216637965db0b60e01b1480610cab57506301ffc9a760e01b6001600160e01b0319831614610cab565b60606000613f7a836002615a35565b613f85906002615a7e565b6001600160401b03811115613f9c57613f9c615529565b6040519080825280601f01601f191660200182016040528015613fc6576020820181803683370190505b509050600360fc1b81600081518110613fe157613fe1615916565b60200101906001600160f81b031916908160001a905350600f60fb1b8160018151811061401057614010615916565b60200101906001600160f81b031916908160001a9053506000614034846002615a35565b61403f906001615a7e565b90505b60018111156140b7576f181899199a1a9b1b9c1cb0b131b232b360811b85600f166010811061407357614073615916565b1a60f81b82828151811061408957614089615916565b60200101906001600160f81b031916908160001a90535060049490941c936140b081615cfc565b9050614042565b5083156115b95760405162461bcd60e51b815260206004820181905260248201527f537472696e67733a20686578206c656e67746820696e73756666696369656e746044820152606401610d3c565b61410e611c79565b610ce35760405163b047186b60e01b815260040160405180910390fd5b60006115b98383614d04565b60006115b98383614df7565b61414d82826115c0565b610efe576000828152600080516020615de9833981519152602090815260408083206001600160a01b0385168085529252808320805460ff1916600117905551339285917f2f8788117e7eff1d82e926ec794901d17c78024a50270940304540a733656f0d9190a45050565b60006115b9836001600160a01b038416614df7565b6141d882826115c0565b15610efe576000828152600080516020615de9833981519152602090815260408083206001600160a01b0385168085529252808320805460ff1916905551339285917ff6391f5c32d9c69d2a47ea670b442974b53935d1edc7fd64eb21e047a839171b9190a45050565b60006115b9836001600160a01b038416614d04565b60008161427a57604051636773bc7160e11b815260048101839052602401610d3c565b6000614284610f71565b9050808311156142aa57604051636773bc7160e11b815260048101849052602401610d3c565b6000838152600080516020615e298339815191526020908152604091829020825180840190935280548084526001909101549183019190915285101561430657604051636773bc7160e11b815260048101859052602401610d3c565b81841015614384576000600080516020615e29833981519152600061432c876001615a7e565b81526020019081526020016000206040518060400160405290816000820154815260200160018201548152505090508581600001511161438257604051636773bc7160e11b815260048101869052602401610d3c565b505b600061438e612fac565b600061439b600189615a1e565b81526020019081526020016000206040518060c00160405290816000820160009054906101000a90046001600160801b03166001600160801b03166001600160801b031681526020016000820160109054906101000a90046001600160801b03166001600160801b03166001600160801b031681526020016001820160009054906101000a90046001600160a01b03166001600160a01b03166001600160a01b031681526020016001820160149054906101000a900464ffffffffff1664ffffffffff1664ffffffffff1681526020016001820160199054906101000a900460ff1615151515815260200160018201601a9054906101000a900464ffffffffff1664ffffffffff1664ffffffffff1681525050905060008060006145c4848b6040518060c00160405290816000820160009054906101000a90046001600160801b03166001600160801b03166001600160801b031681526020016000820160109054906101000a90046001600160801b03166001600160801b03166001600160801b031681526020016001820160009054906101000a90046001600160a01b03166001600160a01b03166001600160a01b031681526020016001820160149054906101000a900464ffffffffff1664ffffffffff1664ffffffffff1681526020016001820160199054906101000a900460ff1615151515815260200160018201601a9054906101000a900464ffffffffff1664ffffffffff1664ffffffffff16815250506130dc565b9250925092508460200151831115614600576b033b2e3c9fd0803ce80000008560200151826145f39190615a35565b6145fd9190615a6a565b91505b5098975050505050505050565b611e6d7fd0d759f74c6b04701571a84e1a682ae553e3b460b771844eb86561fb5d71388e829055565b80471015614657576040516384429a5160e01b815260040160405180910390fd5b6000826001600160a01b03168260405160006040518083038185875af1925050503d80600081146146a4576040519150601f19603f3d011682016040523d82523d6000602084013e6146a9565b606091505b5050905080610df857604051630f0b498d60e01b815260040160405180910390fd5b60608160000180548060200260200160405190810160405280929190818152602001828054801561471b57602002820191906000526020600020905b815481526020019060010190808311614707575b50505050509050919050565b600082600001828154811061473e5761473e615916565b9060005260206000200154905092915050565b614768600080516020615e09833981519152829055565b6000198114156147a45760405160001981527f32fb7c9891bc4f963c7de9f1186d2a7755c7d6e9f4604dabe1d8bb3027c2f49e90602001613894565b7f32fb7c9891bc4f963c7de9f1186d2a7755c7d6e9f4604dabe1d8bb3027c2f49e6147cf4283615a1e565b604051908152602001613894565b611e6d7f0876181c50533c514a32d2532d6e641b36733647e147558717733ca97182304e829055565b611e6d7f4c0a0c9053dec7f5a947951f22974f5d3e32ea9d3b3af7d146eb92ea4d859220829055565b6040805160c08101825260008082526020820181905291810182905264ffffffffff421660608201526001608082015260a081019190915261486f612fac565b6000808052602091825260408082208451858501516001600160801b03918216600160801b929091169190910217815584820151600190910180546060870151608088015160a0909801516001600160a01b039094166001600160c81b031990921691909117600160a01b64ffffffffff928316021765ffffffffffff60c81b1916600160c81b9715159790970264ffffffffff60d01b191696909617600160d01b969092169590950217909355825180840190935280835290820152600080516020615e298339815191526000614945610f71565b815260208082019290925260400160002082518155910151600190910155565b61496d61156a565b1561498b5760405163184e52a160e21b815260040160405180910390fd5b611e6d81614e46565b6060816149b85750506040805180820190915260018152600360fc1b602082015290565b8160005b81156149e257806149cc81615942565b91506149db9050600a83615a6a565b91506149bc565b6000816001600160401b038111156149fc576149fc615529565b6040519080825280601f01601f191660200182016040528015614a26576020820181803683370190505b5090505b841561149557614a3b600183615a1e565b9150614a48600a86615d13565b614a53906030615a7e565b60f81b818381518110614a6857614a68615916565b60200101906001600160f81b031916908160001a905350614a8a600a86615a6a565b9450614a2a565b600080614a9c610dfd565b90506000614aa8612fac565b600083815260209182526040808220815160c08101835281546001600160801b038082168352600160801b909104169481018590526001909101546001600160a01b0381169282019290925264ffffffffff600160a01b83048116606083015260ff600160c81b84041615156080830152600160d01b90920490911660a0820152925090614b37908790615d27565b90506000878360000151614b4b9190615d27565b9050614b58846001615a7e565b9450614b6385614e9f565b60006040518060c00160405280836001600160801b03168152602001846001600160801b03168152602001886001600160a01b031681526020014264ffffffffff168152602001600015158152602001614bbb614ec8565b64ffffffffff169052905080614bcf612fac565b6000888152602091825260408082208451858501516001600160801b03908116600160801b02911617815584820151600190910180546060870151608088015160a09098015164ffffffffff908116600160d01b0264ffffffffff60d01b19991515600160c81b029990991665ffffffffffff60c81b1991909216600160a01b026001600160c81b03199093166001600160a01b039586161792909217919091161795909517909455928a168152600080516020615da983398151915290915220614c9a9087614137565b614ca657614ca6615b81565b604080516001600160801b03808c1682528a1660208201526001600160a01b03891691339189917ff0cb471f23fb74ea44b8252eb1881a2dca546288d9f6e90d1a0e82fe0ed342ab910160405180910390a450505050509392505050565b60008181526001830160205260408120548015614ded576000614d28600183615a1e565b8554909150600090614d3c90600190615a1e565b9050818114614da1576000866000018281548110614d5c57614d5c615916565b9060005260206000200154905080876000018481548110614d7f57614d7f615916565b6000918252602080832090910192909255918252600188019052604090208390555b8554869080614db257614db2615d52565b600190038181906000526020600020016000905590558560010160008681526020019081526020016000206000905560019350505050610cab565b6000915050610cab565b6000818152600183016020526040812054614e3e57508154600181810184556000848152602080822090930184905584548482528286019093526040902091909155610cab565b506000610cab565b614e6f7ff812f8d799ea071b4ecf0f6612f1129571268aad3c9d7f3535c25db1f8875772829055565b6040518181527ffddcded6b4f4730c226821172046b48372d3cd963c159701ae1b7c3bcac541bb90602001613894565b611e6d7ff2625c21a0f7446928066977fc066a76b063cb763a753ddfb5f66050d0a85297829055565b6000610d107f3696285c4731d14bc4027d17e54255ac55c94b2a4622516ddc5a21d8cea8a1d15490565b828054614efe9061595d565b90600052602060002090601f016020900481019282614f205760008555614f66565b82601f10614f395782800160ff19823516178555614f66565b82800160010185558215614f66579182015b82811115614f66578235825591602001919060010190614f4b565b50614f72929150614fe5565b5090565b6040518060c00160405280600081526020016000815260200160006001600160a01b03168152602001600081526020016000151581526020016000151581525090565b6040805160808101825260008082526020820152908101614fd8614ffa565b8152602001600081525090565b5b80821115614f725760008155600101614fe6565b6040518061048001604052806024906020820280368337509192915050565b6001600160e01b031981168114611e6d57600080fd5b60006020828403121561504157600080fd5b81356115b981615019565b60005b8381101561506757818101518382015260200161504f565b838111156117d35750506000910152565b6000815180845261509081602086016020860161504c565b601f01601f19169290920160200192915050565b6020815260006115b96020830184615078565b6000602082840312156150c957600080fd5b5035919050565b80356001600160a01b03811681146150e757600080fd5b919050565b600080604083850312156150ff57600080fd5b615108836150d0565b946020939093013593505050565b60008060006060848603121561512b57600080fd5b615134846150d0565b9250615142602085016150d0565b9150604084013590509250925092565b6000806040838503121561516557600080fd5b82359150615175602084016150d0565b90509250929050565b6000806020838503121561519157600080fd5b82356001600160401b03808211156151a857600080fd5b818501915085601f8301126151bc57600080fd5b8135818111156151cb57600080fd5b8660208285010111156151dd57600080fd5b60209290920196919550909350505050565b60008083601f84011261520157600080fd5b5081356001600160401b0381111561521857600080fd5b6020830191508360208260051b850101111561523357600080fd5b9250929050565b60008060008060006060868803121561525257600080fd5b85356001600160401b038082111561526957600080fd5b61527589838a016151ef565b9097509550602088013591508082111561528e57600080fd5b5061529b888289016151ef565b90945092506152ae9050604087016150d0565b90509295509295909350565b600080600080606085870312156152d057600080fd5b84356001600160401b038111156152e657600080fd5b6152f2878288016151ef565b90989097506020870135966040013595509350505050565b6020808252825182820181905260009190848201906040850190845b8181101561534257835183529284019291840191600101615326565b50909695505050505050565b60006020828403121561536057600080fd5b6115b9826150d0565b60008060008084860360e081121561538057600080fd5b85356001600160401b0381111561539657600080fd5b6153a2888289016151ef565b90965094506153b59050602087016150d0565b925060a0603f19820112156153c957600080fd5b509295919450926040019150565b600080604083850312156153ea57600080fd5b50508035926020909101359150565b8015158114611e6d57600080fd5b60008060006060848603121561541c57600080fd5b8335615427816153f9565b95602085013595506040909401359392505050565b6000806040838503121561544f57600080fd5b615458836150d0565b91506020830135615468816153f9565b809150509250929050565b60008060006040848603121561548857600080fd5b83356001600160401b0381111561549e57600080fd5b6154aa868287016151ef565b909790965060209590950135949350505050565b600080600080604085870312156154d457600080fd5b84356001600160401b03808211156154eb57600080fd5b6154f7888389016151ef565b9096509450602087013591508082111561551057600080fd5b5061551d878288016151ef565b95989497509550505050565b634e487b7160e01b600052604160045260246000fd5b604051608081016001600160401b038111828210171561556157615561615529565b60405290565b60405161048081016001600160401b038111828210171561556157615561615529565b604051601f8201601f191681016001600160401b03811182821017156155b2576155b2615529565b604052919050565b60006001600160401b038211156155d3576155d3615529565b50601f01601f191660200190565b600080600080608085870312156155f757600080fd5b615600856150d0565b935061560e602086016150d0565b92506040850135915060608501356001600160401b0381111561563057600080fd5b8501601f8101871361564157600080fd5b803561565461564f826155ba565b61558a565b81815288602083850101111561566957600080fd5b8160208401602083013760006020838301015280935050505092959194509250565b6000806020838503121561569e57600080fd5b82356001600160401b038111156156b457600080fd5b6156c0858286016151ef565b90969095509350505050565b602080825282518282018190526000919060409081850190868401855b82811015615744578151805185528681015187860152858101516001600160a01b0316868601526060808201519086015260808082015115159086015260a09081015115159085015260c090930192908501906001016156e9565b5091979650505050505050565b60008060006040848603121561576657600080fd5b83356001600160401b0381111561577c57600080fd5b615788868287016151ef565b909450925061579b9050602085016150d0565b90509250925092565b600080604083850312156157b757600080fd5b6157c0836150d0565b9150615175602084016150d0565b6000806000808486036105408112156157e657600080fd5b853594506020808701359450604087013593506104e0605f198301121561580c57600080fd5b61581461553f565b915060608701358252608087013561582b816153f9565b8282015260bf8701881361583e57600080fd5b615846615567565b8061052089018a81111561585957600080fd5b60a08a015b81811015615875578035845292840192840161585e565b50604085019190915235606084015250949793965091945090925050565b815181526020808301511515818301526040808401516104e084019291840160005b60248110156158d2578251825291830191908301906001016158b5565b5050505060608301516104c083015292915050565b60208152816020820152818360408301376000818301604090810191909152601f909201601f19160101919050565b634e487b7160e01b600052603260045260246000fd5b634e487b7160e01b600052601160045260246000fd5b60006000198214156159565761595661592c565b5060010190565b600181811c9082168061597157607f821691505b60208210811415611f5b57634e487b7160e01b600052602260045260246000fd5b6000602082840312156159a457600080fd5b813560ff811681146115b957600080fd5b6001600160a01b0397881681529590961660208601526040850193909352606084019190915260ff16608083015260a082015260c081019190915260e00190565b60006001600160801b0383811690831681811015615a1657615a1661592c565b039392505050565b600082821015615a3057615a3061592c565b500390565b6000816000190483118215151615615a4f57615a4f61592c565b500290565b634e487b7160e01b600052601260045260246000fd5b600082615a7957615a79615a54565b500490565b60008219821115615a9157615a9161592c565b500190565b600060208284031215615aa857600080fd5b81516001600160401b03811115615abe57600080fd5b8201601f81018413615acf57600080fd5b8051615add61564f826155ba565b818152856020838501011115615af257600080fd5b615b0382602083016020860161504c565b95945050505050565b7f416363657373436f6e74726f6c3a206163636f756e7420000000000000000000815260008351615b4481601785016020880161504c565b7001034b99036b4b9b9b4b733903937b6329607d1b6017918401918201528351615b7581602884016020880161504c565b01602801949350505050565b634e487b7160e01b600052600160045260246000fd5b6001600160a01b0385811682528416602082015260408101839052608060608201819052600090615bca90830184615078565b9695505050505050565b600060208284031215615be657600080fd5b81516115b981615019565b600088516020615c048285838e0161504c565b895191840191615c178184848e0161504c565b8951920191615c298184848d0161504c565b8851920191615c3b8184848c0161504c565b8751920191615c4d8184848b0161504c565b8651920191615c5f8184848a0161504c565b8551920191615c71818484890161504c565b919091019a9950505050505050505050565b60008451615c9581846020890161504c565b845190830190615ca981836020890161504c565b8451910190615cbc81836020880161504c565b0195945050505050565b600060208284031215615cd857600080fd5b81516115b9816153f9565b600060208284031215615cf557600080fd5b5051919050565b600081615d0b57615d0b61592c565b506000190190565b600082615d2257615d22615a54565b500690565b60006001600160801b03808316818516808303821115615d4957615d4961592c565b01949350505050565b634e487b7160e01b600052603160045260246000fdfe7349046951adb42e446f42f6f384496aac699da9f174f1d2dec7c6e050ebf72c789feefc71a7e444f018803821279cd999b50ea63623ee3a317c6edcaf692ef8252d33784d798f069c477347776e330f5d8a092bea5ec77af5f3e6b5d2b34ae38f8c450dae5029cd48cd91dd9db65da48fb742893edfc7941250f6721d93cbbe9a627a5d4aa7c17f87ff26e3fe9a42c2b6c559e8b41a42282d0ecebb17c0e4d332640ac550357e2bfe4fa43fd3d4a9291f58d5d66cbabb5b8fe11db1552007e33780f5c1e8f757cb578b0a9e65d4fb6e6e7a11a92480b346548bf79b92ff637da2646970667358221220d9bf79117133cf31bb1764c30252cf74c476966653289de77319dfd8e2cac58364736f6c63430008090033",
  "linkReferences": {},
  "deployedLinkReferences": {}
}