{
  "_format": "hh-sol-artifact-1",
  "contractName": "WithdrawalQueueERC721",
  "sourceName": "contracts/0.8.9/WithdrawalQueueERC721.sol",
  "abi": [
    {
      "inputs": [
        {
          "internalType": "address",
          "name": "_wbACE",
          "type": "address"
        },
        {
          "internalType": "string",
          "name": "_name",
          "type": "string"
        },
        {
          "internalType": "string",
          "name": "_symbol",
          "type": "string"
        }
      ],
      "stateMutability": "nonpayable",
      "type": "constructor"
    },
    {
      "inputs": [],
      "name": "AdminZeroAddress",
      "type": "error"
    },
    {
      "inputs": [],
      "name": "ApprovalToOwner",
      "type": "error"
    },
    {
      "inputs": [],
      "name": "ApproveToCaller",
      "type": "error"
    },
    {
      "inputs": [
        {
          "internalType": "uint256",
          "name": "_firstArrayLength",
          "type": "uint256"
        },
        {
          "internalType": "uint256",
          "name": "_secondArrayLength",
          "type": "uint256"
        }
      ],
      "name": "ArraysLengthMismatch",
      "type": "error"
    },
    {
      "inputs": [],
      "name": "BatchesAreNotSorted",
      "type": "error"
    },
    {
      "inputs": [],
      "name": "CantSendValueRecipientMayHaveReverted",
      "type": "error"
    },
    {
      "inputs": [],
      "name": "EmptyBatches",
      "type": "error"
    },
    {
      "inputs": [],
      "name": "InvalidContractVersionIncrement",
      "type": "error"
    },
    {
      "inputs": [
        {
          "internalType": "uint256",
          "name": "_hint",
          "type": "uint256"
        }
      ],
      "name": "InvalidHint",
      "type": "error"
    },
    {
      "inputs": [
        {
          "internalType": "address",
          "name": "",
          "type": "address"
        }
      ],
      "name": "InvalidOwnerAddress",
      "type": "error"
    },
    {
      "inputs": [],
      "name": "InvalidReportTimestamp",
      "type": "error"
    },
    {
      "inputs": [
        {
          "internalType": "uint256",
          "name": "_requestId",
          "type": "uint256"
        }
      ],
      "name": "InvalidRequestId",
      "type": "error"
    },
    {
      "inputs": [
        {
          "internalType": "uint256",
          "name": "startId",
          "type": "uint256"
        },
        {
          "internalType": "uint256",
          "name": "endId",
          "type": "uint256"
        }
      ],
      "name": "InvalidRequestIdRange",
      "type": "error"
    },
    {
      "inputs": [],
      "name": "InvalidState",
      "type": "error"
    },
    {
      "inputs": [],
      "name": "NonZeroContractVersionOnInit",
      "type": "error"
    },
    {
      "inputs": [],
      "name": "NotEnoughAce",
      "type": "error"
    },
    {
      "inputs": [
        {
          "internalType": "address",
          "name": "_sender",
          "type": "address"
        },
        {
          "internalType": "address",
          "name": "_owner",
          "type": "address"
        }
      ],
      "name": "NotOwner",
      "type": "error"
    },
    {
      "inputs": [
        {
          "internalType": "address",
          "name": "sender",
          "type": "address"
        }
      ],
      "name": "NotOwnerOrApproved",
      "type": "error"
    },
    {
      "inputs": [
        {
          "internalType": "address",
          "name": "sender",
          "type": "address"
        }
      ],
      "name": "NotOwnerOrApprovedForAll",
      "type": "error"
    },
    {
      "inputs": [],
      "name": "PauseUntilMustBeInFuture",
      "type": "error"
    },
    {
      "inputs": [],
      "name": "PausedExpected",
      "type": "error"
    },
    {
      "inputs": [
        {
          "internalType": "uint256",
          "name": "_requestId",
          "type": "uint256"
        }
      ],
      "name": "RequestAlreadyClaimed",
      "type": "error"
    },
    {
      "inputs": [
        {
          "internalType": "uint256",
          "name": "_amountOfBACE",
          "type": "uint256"
        }
      ],
      "name": "RequestAmountTooLarge",
      "type": "error"
    },
    {
      "inputs": [
        {
          "internalType": "uint256",
          "name": "_amountOfBACE",
          "type": "uint256"
        }
      ],
      "name": "RequestAmountTooSmall",
      "type": "error"
    },
    {
      "inputs": [],
      "name": "RequestIdsNotSorted",
      "type": "error"
    },
    {
      "inputs": [
        {
          "internalType": "uint256",
          "name": "_requestId",
          "type": "uint256"
        }
      ],
      "name": "RequestNotFoundOrNotFinalized",
      "type": "error"
    },
    {
      "inputs": [],
      "name": "ResumedExpected",
      "type": "error"
    },
    {
      "inputs": [
        {
          "internalType": "string",
          "name": "str",
          "type": "string"
        }
      ],
      "name": "StringTooLong",
      "type": "error"
    },
    {
      "inputs": [
        {
          "internalType": "uint256",
          "name": "sent",
          "type": "uint256"
        },
        {
          "internalType": "uint256",
          "name": "maxExpected",
          "type": "uint256"
        }
      ],
      "name": "TooMuchAceToFinalize",
      "type": "error"
    },
    {
      "inputs": [
        {
          "internalType": "address",
          "name": "from",
          "type": "address"
        },
        {
          "internalType": "address",
          "name": "realOwner",
          "type": "address"
        }
      ],
      "name": "TransferFromIncorrectOwner",
      "type": "error"
    },
    {
      "inputs": [],
      "name": "TransferFromZeroAddress",
      "type": "error"
    },
    {
      "inputs": [
        {
          "internalType": "address",
          "name": "",
          "type": "address"
        }
      ],
      "name": "TransferToNonIERC721Receiver",
      "type": "error"
    },
    {
      "inputs": [],
      "name": "TransferToThemselves",
      "type": "error"
    },
    {
      "inputs": [],
      "name": "TransferToZeroAddress",
      "type": "error"
    },
    {
      "inputs": [
        {
          "internalType": "uint256",
          "name": "expected",
          "type": "uint256"
        },
        {
          "internalType": "uint256",
          "name": "received",
          "type": "uint256"
        }
      ],
      "name": "UnexpectedContractVersion",
      "type": "error"
    },
    {
      "inputs": [],
      "name": "ZeroAmountOfACE",
      "type": "error"
    },
    {
      "inputs": [],
      "name": "ZeroMetadata",
      "type": "error"
    },
    {
      "inputs": [],
      "name": "ZeroPauseDuration",
      "type": "error"
    },
    {
      "inputs": [],
      "name": "ZeroRecipient",
      "type": "error"
    },
    {
      "inputs": [],
      "name": "ZeroShareRate",
      "type": "error"
    },
    {
      "inputs": [],
      "name": "ZeroTimestamp",
      "type": "error"
    },
    {
      "anonymous": false,
      "inputs": [
        {
          "indexed": true,
          "internalType": "address",
          "name": "owner",
          "type": "address"
        },
        {
          "indexed": true,
          "internalType": "address",
          "name": "approved",
          "type": "address"
        },
        {
          "indexed": true,
          "internalType": "uint256",
          "name": "tokenId",
          "type": "uint256"
        }
      ],
      "name": "Approval",
      "type": "event"
    },
    {
      "anonymous": false,
      "inputs": [
        {
          "indexed": true,
          "internalType": "address",
          "name": "owner",
          "type": "address"
        },
        {
          "indexed": true,
          "internalType": "address",
          "name": "operator",
          "type": "address"
        },
        {
          "indexed": false,
          "internalType": "bool",
          "name": "approved",
          "type": "bool"
        }
      ],
      "name": "ApprovalForAll",
      "type": "event"
    },
    {
      "anonymous": false,
      "inputs": [
        {
          "indexed": false,
          "internalType": "string",
          "name": "baseURI",
          "type": "string"
        }
      ],
      "name": "BaseURISet",
      "type": "event"
    },
    {
      "anonymous": false,
      "inputs": [
        {
          "indexed": false,
          "internalType": "uint256",
          "name": "_fromTokenId",
          "type": "uint256"
        },
        {
          "indexed": false,
          "internalType": "uint256",
          "name": "_toTokenId",
          "type": "uint256"
        }
      ],
      "name": "BatchMetadataUpdate",
      "type": "event"
    },
    {
      "anonymous": false,
      "inputs": [],
      "name": "BunkerModeDisabled",
      "type": "event"
    },
    {
      "anonymous": false,
      "inputs": [
        {
          "indexed": false,
          "internalType": "uint256",
          "name": "_sinceTimestamp",
          "type": "uint256"
        }
      ],
      "name": "BunkerModeEnabled",
      "type": "event"
    },
    {
      "anonymous": false,
      "inputs": [
        {
          "indexed": false,
          "internalType": "uint256",
          "name": "version",
          "type": "uint256"
        }
      ],
      "name": "ContractVersionSet",
      "type": "event"
    },
    {
      "anonymous": false,
      "inputs": [
        {
          "indexed": false,
          "internalType": "address",
          "name": "_admin",
          "type": "address"
        }
      ],
      "name": "InitializedV1",
      "type": "event"
    },
    {
      "anonymous": false,
      "inputs": [
        {
          "indexed": false,
          "internalType": "uint256",
          "name": "_tokenId",
          "type": "uint256"
        }
      ],
      "name": "MetadataUpdate",
      "type": "event"
    },
    {
      "anonymous": false,
      "inputs": [
        {
          "indexed": false,
          "internalType": "address",
          "name": "nftDescriptorAddress",
          "type": "address"
        }
      ],
      "name": "NftDescriptorAddressSet",
      "type": "event"
    },
    {
      "anonymous": false,
      "inputs": [
        {
          "indexed": false,
          "internalType": "uint256",
          "name": "duration",
          "type": "uint256"
        }
      ],
      "name": "Paused",
      "type": "event"
    },
    {
      "anonymous": false,
      "inputs": [],
      "name": "Resumed",
      "type": "event"
    },
    {
      "anonymous": false,
      "inputs": [
        {
          "indexed": true,
          "internalType": "bytes32",
          "name": "role",
          "type": "bytes32"
        },
        {
          "indexed": true,
          "internalType": "bytes32",
          "name": "previousAdminRole",
          "type": "bytes32"
        },
        {
          "indexed": true,
          "internalType": "bytes32",
          "name": "newAdminRole",
          "type": "bytes32"
        }
      ],
      "name": "RoleAdminChanged",
      "type": "event"
    },
    {
      "anonymous": false,
      "inputs": [
        {
          "indexed": true,
          "internalType": "bytes32",
          "name": "role",
          "type": "bytes32"
        },
        {
          "indexed": true,
          "internalType": "address",
          "name": "account",
          "type": "address"
        },
        {
          "indexed": true,
          "internalType": "address",
          "name": "sender",
          "type": "address"
        }
      ],
      "name": "RoleGranted",
      "type": "event"
    },
    {
      "anonymous": false,
      "inputs": [
        {
          "indexed": true,
          "internalType": "bytes32",
          "name": "role",
          "type": "bytes32"
        },
        {
          "indexed": true,
          "internalType": "address",
          "name": "account",
          "type": "address"
        },
        {
          "indexed": true,
          "internalType": "address",
          "name": "sender",
          "type": "address"
        }
      ],
      "name": "RoleRevoked",
      "type": "event"
    },
    {
      "anonymous": false,
      "inputs": [
        {
          "indexed": true,
          "internalType": "address",
          "name": "from",
          "type": "address"
        },
        {
          "indexed": true,
          "internalType": "address",
          "name": "to",
          "type": "address"
        },
        {
          "indexed": true,
          "internalType": "uint256",
          "name": "tokenId",
          "type": "uint256"
        }
      ],
      "name": "Transfer",
      "type": "event"
    },
    {
      "anonymous": false,
      "inputs": [
        {
          "indexed": true,
          "internalType": "uint256",
          "name": "requestId",
          "type": "uint256"
        },
        {
          "indexed": true,
          "internalType": "address",
          "name": "owner",
          "type": "address"
        },
        {
          "indexed": true,
          "internalType": "address",
          "name": "receiver",
          "type": "address"
        },
        {
          "indexed": false,
          "internalType": "uint256",
          "name": "amountOfACE",
          "type": "uint256"
        }
      ],
      "name": "WithdrawalClaimed",
      "type": "event"
    },
    {
      "anonymous": false,
      "inputs": [
        {
          "indexed": true,
          "internalType": "uint256",
          "name": "requestId",
          "type": "uint256"
        },
        {
          "indexed": true,
          "internalType": "address",
          "name": "requestor",
          "type": "address"
        },
        {
          "indexed": true,
          "internalType": "address",
          "name": "owner",
          "type": "address"
        },
        {
          "indexed": false,
          "internalType": "uint256",
          "name": "amountOfBACE",
          "type": "uint256"
        },
        {
          "indexed": false,
          "internalType": "uint256",
          "name": "amountOfShares",
          "type": "uint256"
        }
      ],
      "name": "WithdrawalRequested",
      "type": "event"
    },
    {
      "anonymous": false,
      "inputs": [
        {
          "indexed": true,
          "internalType": "uint256",
          "name": "from",
          "type": "uint256"
        },
        {
          "indexed": true,
          "internalType": "uint256",
          "name": "to",
          "type": "uint256"
        },
        {
          "indexed": false,
          "internalType": "uint256",
          "name": "amountOfACELocked",
          "type": "uint256"
        },
        {
          "indexed": false,
          "internalType": "uint256",
          "name": "sharesToBurn",
          "type": "uint256"
        },
        {
          "indexed": false,
          "internalType": "uint256",
          "name": "timestamp",
          "type": "uint256"
        }
      ],
      "name": "WithdrawalsFinalized",
      "type": "event"
    },
    {
      "inputs": [],
      "name": "BACE",
      "outputs": [
        {
          "internalType": "contract IBACE",
          "name": "",
          "type": "address"
        }
      ],
      "stateMutability": "view",
      "type": "function"
    },
    {
      "inputs": [],
      "name": "BUNKER_MODE_DISABLED_TIMESTAMP",
      "outputs": [
        {
          "internalType": "uint256",
          "name": "",
          "type": "uint256"
        }
      ],
      "stateMutability": "view",
      "type": "function"
    },
    {
      "inputs": [],
      "name": "DEFAULT_ADMIN_ROLE",
      "outputs": [
        {
          "internalType": "bytes32",
          "name": "",
          "type": "bytes32"
        }
      ],
      "stateMutability": "view",
      "type": "function"
    },
    {
      "inputs": [],
      "name": "FINALIZE_ROLE",
      "outputs": [
        {
          "internalType": "bytes32",
          "name": "",
          "type": "bytes32"
        }
      ],
      "stateMutability": "view",
      "type": "function"
    },
    {
      "inputs": [],
      "name": "MANAGE_TOKEN_URI_ROLE",
      "outputs": [
        {
          "internalType": "bytes32",
          "name": "",
          "type": "bytes32"
        }
      ],
      "stateMutability": "view",
      "type": "function"
    },
    {
      "inputs": [],
      "name": "MAX_BACE_WITHDRAWAL_AMOUNT",
      "outputs": [
        {
          "internalType": "uint256",
          "name": "",
          "type": "uint256"
        }
      ],
      "stateMutability": "view",
      "type": "function"
    },
    {
      "inputs": [],
      "name": "MAX_BATCHES_LENGTH",
      "outputs": [
        {
          "internalType": "uint256",
          "name": "",
          "type": "uint256"
        }
      ],
      "stateMutability": "view",
      "type": "function"
    },
    {
      "inputs": [],
      "name": "MIN_BACE_WITHDRAWAL_AMOUNT",
      "outputs": [
        {
          "internalType": "uint256",
          "name": "",
          "type": "uint256"
        }
      ],
      "stateMutability": "view",
      "type": "function"
    },
    {
      "inputs": [],
      "name": "ORACLE_ROLE",
      "outputs": [
        {
          "internalType": "bytes32",
          "name": "",
          "type": "bytes32"
        }
      ],
      "stateMutability": "view",
      "type": "function"
    },
    {
      "inputs": [],
      "name": "PAUSE_INFINITELY",
      "outputs": [
        {
          "internalType": "uint256",
          "name": "",
          "type": "uint256"
        }
      ],
      "stateMutability": "view",
      "type": "function"
    },
    {
      "inputs": [],
      "name": "PAUSE_ROLE",
      "outputs": [
        {
          "internalType": "bytes32",
          "name": "",
          "type": "bytes32"
        }
      ],
      "stateMutability": "view",
      "type": "function"
    },
    {
      "inputs": [],
      "name": "RESUME_ROLE",
      "outputs": [
        {
          "internalType": "bytes32",
          "name": "",
          "type": "bytes32"
        }
      ],
      "stateMutability": "view",
      "type": "function"
    },
    {
      "inputs": [],
      "name": "WBACE",
      "outputs": [
        {
          "internalType": "contract IWbACE",
          "name": "",
          "type": "address"
        }
      ],
      "stateMutability": "view",
      "type": "function"
    },
    {
      "inputs": [
        {
          "internalType": "address",
          "name": "_to",
          "type": "address"
        },
        {
          "internalType": "uint256",
          "name": "_requestId",
          "type": "uint256"
        }
      ],
      "name": "approve",
      "outputs": [],
      "stateMutability": "nonpayable",
      "type": "function"
    },
    {
      "inputs": [
        {
          "internalType": "address",
          "name": "_owner",
          "type": "address"
        }
      ],
      "name": "balanceOf",
      "outputs": [
        {
          "internalType": "uint256",
          "name": "",
          "type": "uint256"
        }
      ],
      "stateMutability": "view",
      "type": "function"
    },
    {
      "inputs": [],
      "name": "bunkerModeSinceTimestamp",
      "outputs": [
        {
          "internalType": "uint256",
          "name": "",
          "type": "uint256"
        }
      ],
      "stateMutability": "view",
      "type": "function"
    },
    {
      "inputs": [
        {
          "internalType": "uint256",
          "name": "_maxShareRate",
          "type": "uint256"
        },
        {
          "internalType": "uint256",
          "name": "_maxTimestamp",
          "type": "uint256"
        },
        {
          "internalType": "uint256",
          "name": "_maxRequestsPerCall",
          "type": "uint256"
        },
        {
          "components": [
            {
              "internalType": "uint256",
              "name": "remainingAceBudget",
              "type": "uint256"
            },
            {
              "internalType": "bool",
              "name": "finished",
              "type": "bool"
            },
            {
              "internalType": "uint256[36]",
              "name": "batches",
              "type": "uint256[36]"
            },
            {
              "internalType": "uint256",
              "name": "batchesLength",
              "type": "uint256"
            }
          ],
          "internalType": "struct WithdrawalQueueBase.BatchesCalculationState",
          "name": "_state",
          "type": "tuple"
        }
      ],
      "name": "calculateFinalizationBatches",
      "outputs": [
        {
          "components": [
            {
              "internalType": "uint256",
              "name": "remainingAceBudget",
              "type": "uint256"
            },
            {
              "internalType": "bool",
              "name": "finished",
              "type": "bool"
            },
            {
              "internalType": "uint256[36]",
              "name": "batches",
              "type": "uint256[36]"
            },
            {
              "internalType": "uint256",
              "name": "batchesLength",
              "type": "uint256"
            }
          ],
          "internalType": "struct WithdrawalQueueBase.BatchesCalculationState",
          "name": "",
          "type": "tuple"
        }
      ],
      "stateMutability": "view",
      "type": "function"
    },
    {
      "inputs": [
        {
          "internalType": "uint256",
          "name": "_requestId",
          "type": "uint256"
        }
      ],
      "name": "claimWithdrawal",
      "outputs": [],
      "stateMutability": "nonpayable",
      "type": "function"
    },
    {
      "inputs": [
        {
          "internalType": "uint256[]",
          "name": "_requestIds",
          "type": "uint256[]"
        },
        {
          "internalType": "uint256[]",
          "name": "_hints",
          "type": "uint256[]"
        }
      ],
      "name": "claimWithdrawals",
      "outputs": [],
      "stateMutability": "nonpayable",
      "type": "function"
    },
    {
      "inputs": [
        {
          "internalType": "uint256[]",
          "name": "_requestIds",
          "type": "uint256[]"
        },
        {
          "internalType": "uint256[]",
          "name": "_hints",
          "type": "uint256[]"
        },
        {
          "internalType": "address",
          "name": "_recipient",
          "type": "address"
        }
      ],
      "name": "claimWithdrawalsTo",
      "outputs": [],
      "stateMutability": "nonpayable",
      "type": "function"
    },
    {
      "inputs": [
        {
          "internalType": "uint256",
          "name": "_lastRequestIdToBeFinalized",
          "type": "uint256"
        },
        {
          "internalType": "uint256",
          "name": "_maxShareRate",
          "type": "uint256"
        }
      ],
      "name": "finalize",
      "outputs": [],
      "stateMutability": "payable",
      "type": "function"
    },
    {
      "inputs": [
        {
          "internalType": "uint256[]",
          "name": "_requestIds",
          "type": "uint256[]"
        },
        {
          "internalType": "uint256",
          "name": "_firstIndex",
          "type": "uint256"
        },
        {
          "internalType": "uint256",
          "name": "_lastIndex",
          "type": "uint256"
        }
      ],
      "name": "findCheckpointHints",
      "outputs": [
        {
          "internalType": "uint256[]",
          "name": "hintIds",
          "type": "uint256[]"
        }
      ],
      "stateMutability": "view",
      "type": "function"
    },
    {
      "inputs": [
        {
          "internalType": "uint256",
          "name": "_requestId",
          "type": "uint256"
        }
      ],
      "name": "getApproved",
      "outputs": [
        {
          "internalType": "address",
          "name": "",
          "type": "address"
        }
      ],
      "stateMutability": "view",
      "type": "function"
    },
    {
      "inputs": [],
      "name": "getBaseURI",
      "outputs": [
        {
          "internalType": "string",
          "name": "",
          "type": "string"
        }
      ],
      "stateMutability": "view",
      "type": "function"
    },
    {
      "inputs": [
        {
          "internalType": "uint256[]",
          "name": "_requestIds",
          "type": "uint256[]"
        },
        {
          "internalType": "uint256[]",
          "name": "_hints",
          "type": "uint256[]"
        }
      ],
      "name": "getClaimableAce",
      "outputs": [
        {
          "internalType": "uint256[]",
          "name": "claimableAceValues",
          "type": "uint256[]"
        }
      ],
      "stateMutability": "view",
      "type": "function"
    },
    {
      "inputs": [],
      "name": "getContractVersion",
      "outputs": [
        {
          "internalType": "uint256",
          "name": "",
          "type": "uint256"
        }
      ],
      "stateMutability": "view",
      "type": "function"
    },
    {
      "inputs": [],
      "name": "getLastCheckpointIndex",
      "outputs": [
        {
          "internalType": "uint256",
          "name": "",
          "type": "uint256"
        }
      ],
      "stateMutability": "view",
      "type": "function"
    },
    {
      "inputs": [],
      "name": "getLastFinalizedRequestId",
      "outputs": [
        {
          "internalType": "uint256",
          "name": "",
          "type": "uint256"
        }
      ],
      "stateMutability": "view",
      "type": "function"
    },
    {
      "inputs": [],
      "name": "getLastRequestId",
      "outputs": [
        {
          "internalType": "uint256",
          "name": "",
          "type": "uint256"
        }
      ],
      "stateMutability": "view",
      "type": "function"
    },
    {
      "inputs": [],
      "name": "getLockedAceAmount",
      "outputs": [
        {
          "internalType": "uint256",
          "name": "",
          "type": "uint256"
        }
      ],
      "stateMutability": "view",
      "type": "function"
    },
    {
      "inputs": [],
      "name": "getNFTDescriptorAddress",
      "outputs": [
        {
          "internalType": "address",
          "name": "",
          "type": "address"
        }
      ],
      "stateMutability": "view",
      "type": "function"
    },
    {
      "inputs": [],
      "name": "getResumeSinceTimestamp",
      "outputs": [
        {
          "internalType": "uint256",
          "name": "",
          "type": "uint256"
        }
      ],
      "stateMutability": "view",
      "type": "function"
    },
    {
      "inputs": [
        {
          "internalType": "bytes32",
          "name": "role",
          "type": "bytes32"
        }
      ],
      "name": "getRoleAdmin",
      "outputs": [
        {
          "internalType": "bytes32",
          "name": "",
          "type": "bytes32"
        }
      ],
      "stateMutability": "view",
      "type": "function"
    },
    {
      "inputs": [
        {
          "internalType": "bytes32",
          "name": "role",
          "type": "bytes32"
        },
        {
          "internalType": "uint256",
          "name": "index",
          "type": "uint256"
        }
      ],
      "name": "getRoleMember",
      "outputs": [
        {
          "internalType": "address",
          "name": "",
          "type": "address"
        }
      ],
      "stateMutability": "view",
      "type": "function"
    },
    {
      "inputs": [
        {
          "internalType": "bytes32",
          "name": "role",
          "type": "bytes32"
        }
      ],
      "name": "getRoleMemberCount",
      "outputs": [
        {
          "internalType": "uint256",
          "name": "",
          "type": "uint256"
        }
      ],
      "stateMutability": "view",
      "type": "function"
    },
    {
      "inputs": [
        {
          "internalType": "address",
          "name": "_owner",
          "type": "address"
        }
      ],
      "name": "getWithdrawalRequests",
      "outputs": [
        {
          "internalType": "uint256[]",
          "name": "requestsIds",
          "type": "uint256[]"
        }
      ],
      "stateMutability": "view",
      "type": "function"
    },
    {
      "inputs": [
        {
          "internalType": "uint256[]",
          "name": "_requestIds",
          "type": "uint256[]"
        }
      ],
      "name": "getWithdrawalStatus",
      "outputs": [
        {
          "components": [
            {
              "internalType": "uint256",
              "name": "amountOfBACE",
              "type": "uint256"
            },
            {
              "internalType": "uint256",
              "name": "amountOfShares",
              "type": "uint256"
            },
            {
              "internalType": "address",
              "name": "owner",
              "type": "address"
            },
            {
              "internalType": "uint256",
              "name": "timestamp",
              "type": "uint256"
            },
            {
              "internalType": "bool",
              "name": "isFinalized",
              "type": "bool"
            },
            {
              "internalType": "bool",
              "name": "isClaimed",
              "type": "bool"
            }
          ],
          "internalType": "struct WithdrawalQueueBase.WithdrawalRequestStatus[]",
          "name": "statuses",
          "type": "tuple[]"
        }
      ],
      "stateMutability": "view",
      "type": "function"
    },
    {
      "inputs": [
        {
          "internalType": "bytes32",
          "name": "role",
          "type": "bytes32"
        },
        {
          "internalType": "address",
          "name": "account",
          "type": "address"
        }
      ],
      "name": "grantRole",
      "outputs": [],
      "stateMutability": "nonpayable",
      "type": "function"
    },
    {
      "inputs": [
        {
          "internalType": "bytes32",
          "name": "role",
          "type": "bytes32"
        },
        {
          "internalType": "address",
          "name": "account",
          "type": "address"
        }
      ],
      "name": "hasRole",
      "outputs": [
        {
          "internalType": "bool",
          "name": "",
          "type": "bool"
        }
      ],
      "stateMutability": "view",
      "type": "function"
    },
    {
      "inputs": [
        {
          "internalType": "address",
          "name": "_admin",
          "type": "address"
        }
      ],
      "name": "initialize",
      "outputs": [],
      "stateMutability": "nonpayable",
      "type": "function"
    },
    {
      "inputs": [
        {
          "internalType": "address",
          "name": "_owner",
          "type": "address"
        },
        {
          "internalType": "address",
          "name": "_operator",
          "type": "address"
        }
      ],
      "name": "isApprovedForAll",
      "outputs": [
        {
          "internalType": "bool",
          "name": "",
          "type": "bool"
        }
      ],
      "stateMutability": "view",
      "type": "function"
    },
    {
      "inputs": [],
      "name": "isBunkerModeActive",
      "outputs": [
        {
          "internalType": "bool",
          "name": "",
          "type": "bool"
        }
      ],
      "stateMutability": "view",
      "type": "function"
    },
    {
      "inputs": [],
      "name": "isPaused",
      "outputs": [
        {
          "internalType": "bool",
          "name": "",
          "type": "bool"
        }
      ],
      "stateMutability": "view",
      "type": "function"
    },
    {
      "inputs": [],
      "name": "name",
      "outputs": [
        {
          "internalType": "string",
          "name": "",
          "type": "string"
        }
      ],
      "stateMutability": "view",
      "type": "function"
    },
    {
      "inputs": [
        {
          "internalType": "bool",
          "name": "_isBunkerModeNow",
          "type": "bool"
        },
        {
          "internalType": "uint256",
          "name": "_bunkerStartTimestamp",
          "type": "uint256"
        },
        {
          "internalType": "uint256",
          "name": "_currentReportTimestamp",
          "type": "uint256"
        }
      ],
      "name": "onOracleReport",
      "outputs": [],
      "stateMutability": "nonpayable",
      "type": "function"
    },
    {
      "inputs": [
        {
          "internalType": "uint256",
          "name": "_requestId",
          "type": "uint256"
        }
      ],
      "name": "ownerOf",
      "outputs": [
        {
          "internalType": "address",
          "name": "",
          "type": "address"
        }
      ],
      "stateMutability": "view",
      "type": "function"
    },
    {
      "inputs": [
        {
          "internalType": "uint256",
          "name": "_duration",
          "type": "uint256"
        }
      ],
      "name": "pauseFor",
      "outputs": [],
      "stateMutability": "nonpayable",
      "type": "function"
    },
    {
      "inputs": [
        {
          "internalType": "uint256",
          "name": "_pauseUntilInclusive",
          "type": "uint256"
        }
      ],
      "name": "pauseUntil",
      "outputs": [],
      "stateMutability": "nonpayable",
      "type": "function"
    },
    {
      "inputs": [
        {
          "internalType": "uint256[]",
          "name": "_batches",
          "type": "uint256[]"
        },
        {
          "internalType": "uint256",
          "name": "_maxShareRate",
          "type": "uint256"
        }
      ],
      "name": "prefinalize",
      "outputs": [
        {
          "internalType": "uint256",
          "name": "ethToLock",
          "type": "uint256"
        },
        {
          "internalType": "uint256",
          "name": "sharesToBurn",
          "type": "uint256"
        }
      ],
      "stateMutability": "view",
      "type": "function"
    },
    {
      "inputs": [
        {
          "internalType": "bytes32",
          "name": "role",
          "type": "bytes32"
        },
        {
          "internalType": "address",
          "name": "account",
          "type": "address"
        }
      ],
      "name": "renounceRole",
      "outputs": [],
      "stateMutability": "nonpayable",
      "type": "function"
    },
    {
      "inputs": [
        {
          "internalType": "uint256[]",
          "name": "_amounts",
          "type": "uint256[]"
        },
        {
          "internalType": "address",
          "name": "_owner",
          "type": "address"
        }
      ],
      "name": "requestWithdrawals",
      "outputs": [
        {
          "internalType": "uint256[]",
          "name": "requestIds",
          "type": "uint256[]"
        }
      ],
      "stateMutability": "nonpayable",
      "type": "function"
    },
    {
      "inputs": [
        {
          "internalType": "uint256[]",
          "name": "_amounts",
          "type": "uint256[]"
        },
        {
          "internalType": "address",
          "name": "_owner",
          "type": "address"
        }
      ],
      "name": "requestWithdrawalsWbACE",
      "outputs": [
        {
          "internalType": "uint256[]",
          "name": "requestIds",
          "type": "uint256[]"
        }
      ],
      "stateMutability": "nonpayable",
      "type": "function"
    },
    {
      "inputs": [
        {
          "internalType": "uint256[]",
          "name": "_amounts",
          "type": "uint256[]"
        },
        {
          "internalType": "address",
          "name": "_owner",
          "type": "address"
        },
        {
          "components": [
            {
              "internalType": "uint256",
              "name": "value",
              "type": "uint256"
            },
            {
              "internalType": "uint256",
              "name": "deadline",
              "type": "uint256"
            },
            {
              "internalType": "uint8",
              "name": "v",
              "type": "uint8"
            },
            {
              "internalType": "bytes32",
              "name": "r",
              "type": "bytes32"
            },
            {
              "internalType": "bytes32",
              "name": "s",
              "type": "bytes32"
            }
          ],
          "internalType": "struct WithdrawalQueue.PermitInput",
          "name": "_permit",
          "type": "tuple"
        }
      ],
      "name": "requestWithdrawalsWbACEWithPermit",
      "outputs": [
        {
          "internalType": "uint256[]",
          "name": "requestIds",
          "type": "uint256[]"
        }
      ],
      "stateMutability": "nonpayable",
      "type": "function"
    },
    {
      "inputs": [
        {
          "internalType": "uint256[]",
          "name": "_amounts",
          "type": "uint256[]"
        },
        {
          "internalType": "address",
          "name": "_owner",
          "type": "address"
        },
        {
          "components": [
            {
              "internalType": "uint256",
              "name": "value",
              "type": "uint256"
            },
            {
              "internalType": "uint256",
              "name": "deadline",
              "type": "uint256"
            },
            {
              "internalType": "uint8",
              "name": "v",
              "type": "uint8"
            },
            {
              "internalType": "bytes32",
              "name": "r",
              "type": "bytes32"
            },
            {
              "internalType": "bytes32",
              "name": "s",
              "type": "bytes32"
            }
          ],
          "internalType": "struct WithdrawalQueue.PermitInput",
          "name": "_permit",
          "type": "tuple"
        }
      ],
      "name": "requestWithdrawalsWithPermit",
      "outputs": [
        {
          "internalType": "uint256[]",
          "name": "requestIds",
          "type": "uint256[]"
        }
      ],
      "stateMutability": "nonpayable",
      "type": "function"
    },
    {
      "inputs": [],
      "name": "resume",
      "outputs": [],
      "stateMutability": "nonpayable",
      "type": "function"
    },
    {
      "inputs": [
        {
          "internalType": "bytes32",
          "name": "role",
          "type": "bytes32"
        },
        {
          "internalType": "address",
          "name": "account",
          "type": "address"
        }
      ],
      "name": "revokeRole",
      "outputs": [],
      "stateMutability": "nonpayable",
      "type": "function"
    },
    {
      "inputs": [
        {
          "internalType": "address",
          "name": "_from",
          "type": "address"
        },
        {
          "internalType": "address",
          "name": "_to",
          "type": "address"
        },
        {
          "internalType": "uint256",
          "name": "_requestId",
          "type": "uint256"
        }
      ],
      "name": "safeTransferFrom",
      "outputs": [],
      "stateMutability": "nonpayable",
      "type": "function"
    },
    {
      "inputs": [
        {
          "internalType": "address",
          "name": "_from",
          "type": "address"
        },
        {
          "internalType": "address",
          "name": "_to",
          "type": "address"
        },
        {
          "internalType": "uint256",
          "name": "_requestId",
          "type": "uint256"
        },
        {
          "internalType": "bytes",
          "name": "_data",
          "type": "bytes"
        }
      ],
      "name": "safeTransferFrom",
      "outputs": [],
      "stateMutability": "nonpayable",
      "type": "function"
    },
    {
      "inputs": [
        {
          "internalType": "address",
          "name": "_operator",
          "type": "address"
        },
        {
          "internalType": "bool",
          "name": "_approved",
          "type": "bool"
        }
      ],
      "name": "setApprovalForAll",
      "outputs": [],
      "stateMutability": "nonpayable",
      "type": "function"
    },
    {
      "inputs": [
        {
          "internalType": "string",
          "name": "_baseURI",
          "type": "string"
        }
      ],
      "name": "setBaseURI",
      "outputs": [],
      "stateMutability": "nonpayable",
      "type": "function"
    },
    {
      "inputs": [
        {
          "internalType": "address",
          "name": "_nftDescriptorAddress",
          "type": "address"
        }
      ],
      "name": "setNFTDescriptorAddress",
      "outputs": [],
      "stateMutability": "nonpayable",
      "type": "function"
    },
    {
      "inputs": [
        {
          "internalType": "bytes4",
          "name": "interfaceId",
          "type": "bytes4"
        }
      ],
      "name": "supportsInterface",
      "outputs": [
        {
          "internalType": "bool",
          "name": "",
          "type": "bool"
        }
      ],
      "stateMutability": "view",
      "type": "function"
    },
    {
      "inputs": [],
      "name": "symbol",
      "outputs": [
        {
          "internalType": "string",
          "name": "",
          "type": "string"
        }
      ],
      "stateMutability": "view",
      "type": "function"
    },
    {
      "inputs": [
        {
          "internalType": "uint256",
          "name": "_requestId",
          "type": "uint256"
        }
      ],
      "name": "tokenURI",
      "outputs": [
        {
          "internalType": "string",
          "name": "",
          "type": "string"
        }
      ],
      "stateMutability": "view",
      "type": "function"
    },
    {
      "inputs": [
        {
          "internalType": "address",
          "name": "_from",
          "type": "address"
        },
        {
          "internalType": "address",
          "name": "_to",
          "type": "address"
        },
        {
          "internalType": "uint256",
          "name": "_requestId",
          "type": "uint256"
        }
      ],
      "name": "transferFrom",
      "outputs": [],
      "stateMutability": "nonpayable",
      "type": "function"
    },
    {
      "inputs": [],
      "name": "unfinalizedBACE",
      "outputs": [
        {
          "internalType": "uint256",
          "name": "",
          "type": "uint256"
        }
      ],
      "stateMutability": "view",
      "type": "function"
    },
    {
      "inputs": [],
      "name": "unfinalizedRequestNumber",
      "outputs": [
        {
          "internalType": "uint256",
          "name": "",
          "type": "uint256"
        }
      ],
      "stateMutability": "view",
      "type": "function"
    }
  ],
  "bytecode": "0x6101006040523480156200001257600080fd5b506040516200628438038062006284833981016040819052620000359162000296565b82620000726000197ff812f8d799ea071b4ecf0f6612f1129571268aad3c9d7f3535c25db1f88757726200015360201b6200275c1790919060201c565b6001600160a01b03811660a08190526040805163e6b0d28160e01b8152905163e6b0d28191600480820192602092909190829003018186803b158015620000b857600080fd5b505afa158015620000cd573d6000803e3d6000fd5b505050506040513d601f19601f82011682018060405250810190620000f3919062000315565b6001600160a01b031660805250815115806200010e57508051155b156200012d5760405163388bc6b360e11b815260040160405180910390fd5b620001388262000157565b60c052620001468162000157565b60e0525062000399915050565b9055565b600080829050601f815111156200018e578260405163305a27a960e01b81526004016200018591906200033c565b60405180910390fd5b80516200019b8262000371565b179392505050565b6001600160a01b0381168114620001b957600080fd5b50565b634e487b7160e01b600052604160045260246000fd5b60005b83811015620001ef578181015183820152602001620001d5565b83811115620001ff576000848401525b50505050565b600082601f8301126200021757600080fd5b81516001600160401b0380821115620002345762000234620001bc565b604051601f8301601f19908116603f011681019082821181831017156200025f576200025f620001bc565b816040528381528660208588010111156200027957600080fd5b6200028c846020830160208901620001d2565b9695505050505050565b600080600060608486031215620002ac57600080fd5b8351620002b981620001a3565b60208501519093506001600160401b0380821115620002d757600080fd5b620002e58783880162000205565b93506040860151915080821115620002fc57600080fd5b506200030b8682870162000205565b9150509250925092565b6000602082840312156200032857600080fd5b81516200033581620001a3565b9392505050565b60208152600082518060208401526200035d816040850160208701620001d2565b601f01601f19169190910160400192915050565b8051602080830151919081101562000393576000198160200360031b1b821691505b50919050565b60805160a05160c05160e051615e8062000404600039600061169401526000610ced0152600081816106a8015281816113ed01528181613cfd0152613d9b01526000818161098f01528181611bd401528181613b9d01528181613c3b0152613e430152615e806000f3fe6080604052600436106103e45760003560e01c80638aa1043511610208578063b7bdf74811610118578063d547741f116100ab578063e7c0835d1161007a578063e7c0835d14610932578063e985e9c514610bc4578063eed53bf514610be4578063f3f449c714610c11578063f844443614610c3157600080fd5b8063d547741f14610b44578063d668104214610b64578063dff49e4c14610b84578063e3afe0a314610ba457600080fd5b8063c2fc7aff116100e7578063c2fc7aff14610acf578063c4d66de814610ae4578063c87b56dd14610b04578063ca15c87314610b2457600080fd5b8063b7bdf74814610a39578063b88d4fde14610a6d578063b8c4b85a14610a8d578063c146486a14610aba57600080fd5b8063a22cb4651161019b578063ab9b2d611161016a578063ab9b2d61146109b1578063abe9cfc8146109d1578063acf41e4d146109f1578063b187bd2614610a11578063b6013cef14610a2657600080fd5b8063a22cb46514610912578063a302ee3814610932578063a52e9c9f14610948578063a9c1376c1461097d57600080fd5b806395d89b41116101d757806395d89b41146108b357806396992fed146108c85780639b36be58146108e8578063a217fddf146108fd57600080fd5b80638aa104351461083e5780639010d07c1461085357806391d148541461087357806392b18a471461089357600080fd5b806342842e0e1161030357806362abe3fa1161029657806373b06e611161026557806373b06e61146107b65780637d031b65146107d657806382deca8d146107f65780638866ee2c1461080b57806388b0429c1461082057600080fd5b806362abe3fa146107345780636352211e1461076157806370a0823114610781578063714c5398146107a157600080fd5b8063526eae3e116102d2578063526eae3e146106ca57806355f804b3146106df578063589ff76c146106ff5780635e7eead91461071457600080fd5b806342842e0e1461064c57806346a086b41461066c5780634f069a13146106815780635054c4c91461069657600080fd5b806323b872dd1161037b5780632de03aa11161034a5780632de03aa1146105a45780632f2ff15d146105d857806336568abe146105f8578063389ed2671461061857600080fd5b806323b872dd1461053a578063248a9ca31461055a57806329fd065d1461057a5780632b95b7811461058f57600080fd5b8063081812fc116103b7578063081812fc14610499578063095ea7b3146104d157806319c2b4c3146104f1578063220ca2f41461050657600080fd5b806301ffc9a7146103e9578063046f7da21461041e57806306fdde031461043557806307e2cea514610457575b600080fd5b3480156103f557600080fd5b50610409610404366004615031565b610c51565b60405190151581526020015b60405180910390f35b34801561042a57600080fd5b50610433610cb2565b005b34801561044157600080fd5b5061044a610ce6565b60405161041591906150a6565b34801561046357600080fd5b5061048b7f68e79a7bf1e0bc45d0a330c573bc367f9cf464fd326078812f301165fbda4ef181565b604051908152602001610415565b3480156104a557600080fd5b506104b96104b43660046150b9565b610d16565b6040516001600160a01b039091168152602001610415565b3480156104dd57600080fd5b506104336104ec3660046150ee565b610d6f565b3480156104fd57600080fd5b5061048b610dfe565b34801561051257600080fd5b5061048b7f485191a2ef18512555bd4426d18a716ce8e98c80ec2de16394dcf86d7d91bc8081565b34801561054657600080fd5b50610433610555366004615118565b610e28565b34801561056657600080fd5b5061048b6105753660046150b9565b610e33565b34801561058657600080fd5b5061048b602481565b34801561059b57600080fd5b50610409610e55565b3480156105b057600080fd5b5061048b7f2fc10cc8ae19568712f7a176fb4978616a610650813c9d05326c34abb62749c781565b3480156105e457600080fd5b506104336105f3366004615154565b610e68565b34801561060457600080fd5b50610433610613366004615154565b610e85565b34801561062457600080fd5b5061048b7f139c2898040ef16910dc9f44dc697df79363da767d8bc92f2e310312b816e46d81565b34801561065857600080fd5b50610433610667366004615118565b610f03565b34801561067857600080fd5b506104b9610f1e565b34801561068d57600080fd5b5061048b610f48565b3480156106a257600080fd5b506104b97f000000000000000000000000000000000000000000000000000000000000000081565b3480156106d657600080fd5b5061048b610f72565b3480156106eb57600080fd5b506104336106fa366004615180565b610f9c565b34801561070b57600080fd5b5061048b611031565b34801561072057600080fd5b5061043361072f36600461523c565b611049565b34801561074057600080fd5b5061075461074f3660046152bc565b61111c565b604051610415919061530c565b34801561076d57600080fd5b506104b961077c3660046150b9565b61123a565b34801561078d57600080fd5b5061048b61079c366004615350565b6112cf565b3480156107ad57600080fd5b5061044a611330565b3480156107c257600080fd5b506107546107d136600461536b565b6113e1565b3480156107e257600080fd5b506107546107f1366004615350565b61149e565b34801561080257600080fd5b5061048b6114cf565b34801561081757600080fd5b5061048b6114f9565b34801561082c57600080fd5b5061048b69152d02c7e14af680000081565b34801561084a57600080fd5b5061048b61156b565b34801561085f57600080fd5b506104b961086e3660046153d9565b611595565b34801561087f57600080fd5b5061040961088e366004615154565b6115c1565b34801561089f57600080fd5b506104336108ae366004615350565b6115f9565b3480156108bf57600080fd5b5061044a61168d565b3480156108d457600080fd5b506104336108e3366004615409565b6116b8565b3480156108f457600080fd5b5061048b6117da565b34801561090957600080fd5b5061048b600081565b34801561091e57600080fd5b5061043361092d36600461543e565b6117f2565b34801561093e57600080fd5b5061048b60001981565b34801561095457600080fd5b50610968610963366004615475565b6117fd565b60408051928352602083019190915201610415565b34801561098957600080fd5b506104b97f000000000000000000000000000000000000000000000000000000000000000081565b3480156109bd57600080fd5b506107546109cc3660046154c0565b611ad3565b3480156109dd57600080fd5b506104336109ec3660046150b9565b611b94565b3480156109fd57600080fd5b50610754610a0c36600461536b565b611bc8565b348015610a1d57600080fd5b50610409611c7a565b610433610a343660046153d9565b611c99565b348015610a4557600080fd5b5061048b7fbe882725f03f148e7c5a5e63ec45f182f7dcdb6bb8b92311ade5a6d138e0ee0f81565b348015610a7957600080fd5b50610433610a883660046155e3565b611d2c565b348015610a9957600080fd5b50610aad610aa836600461568d565b611d6b565b60405161041591906156ce565b348015610ac657600080fd5b5061048b606481565b348015610adb57600080fd5b5061048b611e22565b348015610af057600080fd5b50610433610aff366004615350565b611e3e565b348015610b1057600080fd5b5061044a610b1f3660046150b9565b611e71565b348015610b3057600080fd5b5061048b610b3f3660046150b9565b611f62565b348015610b5057600080fd5b50610433610b5f366004615154565b611f86565b348015610b7057600080fd5b50610754610b7f366004615753565b611fa3565b348015610b9057600080fd5b50610754610b9f366004615753565b612086565b348015610bb057600080fd5b50610433610bbf3660046154c0565b612140565b348015610bd057600080fd5b50610409610bdf3660046157a6565b6121df565b348015610bf057600080fd5b50610c04610bff3660046157d0565b61222c565b6040516104159190615895565b348015610c1d57600080fd5b50610433610c2c3660046150b9565b6126ff565b348015610c3d57600080fd5b50610433610c4c3660046150b9565b612733565b60006001600160e01b031982166380ac58cd60e01b1480610c8257506001600160e01b03198216635b5e139f60e01b145b80610c9d57506001600160e01b03198216632483248360e11b145b80610cac5750610cac82612760565b92915050565b610cdc7f2fc10cc8ae19568712f7a176fb4978616a610650813c9d05326c34abb62749c733612785565b610ce46127e9565b565b6060610d117f000000000000000000000000000000000000000000000000000000000000000061282d565b905090565b6000610d2182612862565b610d46576040516364b4f07960e11b8152600481018390526024015b60405180910390fd5b600080516020615d8b83398151915260009283526020525060409020546001600160a01b031690565b6000610d7a8261123a565b9050806001600160a01b0316836001600160a01b03161415610daf576040516349fa8bc360e11b815260040160405180910390fd5b336001600160a01b03821614801590610dcf5750610dcd81336121df565b155b15610def5760405163106abbeb60e21b8152336004820152602401610d3d565b610df983836128a8565b505050565b6000610d117ff2625c21a0f7446928066977fc066a76b063cb763a753ddfb5f66050d0a852975490565b610df9838383612923565b6000908152600080516020615deb833981519152602052604090206001015490565b6000600019610e626117da565b10905090565b610e7182610e33565b610e7b8133612785565b610df98383612b76565b6001600160a01b0381163314610ef55760405162461bcd60e51b815260206004820152602f60248201527f416363657373436f6e74726f6c3a2063616e206f6e6c792072656e6f756e636560448201526e103937b632b9903337b91039b2b63360891b6064820152608401610d3d565b610eff8282612ba5565b5050565b610df983838360405180602001604052806000815250611d2c565b6000610d117fc05ca7d1416e49467d5edc7d7ab87ec72336e51e1aa4bd667aa65e3f135fd3a85490565b6000610d117f4c0a0c9053dec7f5a947951f22974f5d3e32ea9d3b3af7d146eb92ea4d8592205490565b6000610d117f0876181c50533c514a32d2532d6e641b36733647e147558717733ca97182304e5490565b7fbe882725f03f148e7c5a5e63ec45f182f7dcdb6bb8b92311ade5a6d138e0ee0f610fc78133612785565b610ff27f64e8f8e17613d87eea8ab1779bc027d9869e9babcba1688da507c03cb75e03388484614ef4565b507ff9c7803e94e0d3c02900d8a90893a6d5e90dd04d32a4cfe825520f82bf9f32f683836040516110249291906158e9565b60405180910390a1505050565b6000610d11600080516020615e0b8339815191525490565b6001600160a01b0381166110705760405163d27b444360e01b815260040160405180910390fd5b83821461109a5760405163098b37e560e31b81526004810185905260248101839052604401610d3d565b60005b84811015611114576110e08686838181106110ba576110ba615918565b905060200201358585848181106110d3576110d3615918565b9050602002013584612bd4565b6111043360008888858181106110f8576110f8615918565b90506020020135612d96565b61110d81615944565b905061109d565b505050505050565b6060836001600160401b038111156111365761113661552b565b60405190808252806020026020018201604052801561115f578160200160208202803683370190505b5090506000805b85811015611230578187878381811061118157611181615918565b9050602002013510156111a75760405163374e8bd160e01b815260040160405180910390fd5b6111ca8787838181106111bc576111bc615918565b905060200201358686612ddc565b8382815181106111dc576111dc615918565b6020026020010181815250508281815181106111fa576111fa615918565b6020026020010151945086868281811061121657611216615918565b9050602002013591508061122990615944565b9050611166565b5050949350505050565b600081158061124f575061124c610dfe565b82115b15611270576040516364b4f07960e11b815260048101839052602401610d3d565b600061127a612fad565b6000848152602091909152604090206001810154909150600160c81b900460ff16156112bc5760405163f0e0cc2d60e01b815260048101849052602401610d3d565b600101546001600160a01b031692915050565b60006001600160a01b0382166113025760405162793e5560e21b81526001600160a01b0383166004820152602401610d3d565b6001600160a01b0382166000908152600080516020615dab83398151915260205260409020610cac90612fd1565b60607f64e8f8e17613d87eea8ab1779bc027d9869e9babcba1688da507c03cb75e0338805461135e9061595f565b80601f016020809104026020016040519081016040528092919081815260200182805461138a9061595f565b80156113d75780601f106113ac576101008083540402835291602001916113d7565b820191906000526020600020905b8154815290600101906020018083116113ba57829003601f168201915b5050505050905090565b60606001600160a01b037f00000000000000000000000000000000000000000000000000000000000000001663d505accf33308535602087013561142a88880160408a01615994565b886060013589608001356040518863ffffffff1660e01b815260040161145697969594939291906159b7565b600060405180830381600087803b15801561147057600080fd5b505af1158015611484573d6000803e3d6000fd5b50505050611493858585612086565b90505b949350505050565b6001600160a01b0381166000908152600080516020615dab83398151915260205260409020606090610cac90612fdb565b6000610d117fd0d759f74c6b04701571a84e1a682ae553e3b460b771844eb86561fb5d71388e5490565b6000611503612fad565b600061150d610f48565b81526020810191909152604001600020546001600160801b031661152f612fad565b6000611539610dfe565b815260208101919091526040016000205461155d91906001600160801b03166159f8565b6001600160801b0316905090565b6000610d117ff812f8d799ea071b4ecf0f6612f1129571268aad3c9d7f3535c25db1f88757725490565b6000828152600080516020615dcb833981519152602052604081206115ba9083612fe8565b9392505050565b6000918252600080516020615deb833981519152602090815260408084206001600160a01b0393909316845291905290205460ff1690565b7fbe882725f03f148e7c5a5e63ec45f182f7dcdb6bb8b92311ade5a6d138e0ee0f6116248133612785565b61164d7fc05ca7d1416e49467d5edc7d7ab87ec72336e51e1aa4bd667aa65e3f135fd3a8839055565b6040516001600160a01b03831681527f4ec04ac71c49eea0a94dc5967b493412a8cdb2934b367713019d3b110e9f0ba89060200160405180910390a15050565b6060610d117f000000000000000000000000000000000000000000000000000000000000000061282d565b6116e27f68e79a7bf1e0bc45d0a330c573bc367f9cf464fd326078812f301165fbda4ef133612785565b428210611702576040516334819c0360e01b815260040160405180910390fd5b428110611722576040516334819c0360e01b815260040160405180910390fd5b61172b81612ff4565b6000611735610e55565b9050801515841515146117d45783156117975761175f600080516020615d6b833981519152849055565b6040518381527f47f03b07e5b5377f871539bb2942f5ecb72733be9fc9d55a17b6d6a05d4183459060200160405180910390a16117d4565b600019600080516020615d6b833981519152556040517fd1f8a2998c0caf73e09434aa93d273a599060d789407c6f70ccd4c9c9f32c8f490600090a15b50505050565b6000610d11600080516020615d6b8339815191525490565b610eff33838361301d565b6000808261181e5760405163e4e9735760e01b815260040160405180910390fd5b8361183c576040516312de1df360e01b815260040160405180910390fd5b611844610f48565b8585600081811061185757611857615918565b9050602002013511611899578484600081811061187657611876615918565b905060200201356040516364b4f07960e11b8152600401610d3d91815260200190565b6118a1610dfe565b85856118ae600182615a20565b8181106118bd576118bd615918565b9050602002013511156118e65784846118d7600182615a20565b81811061187657611876615918565b6000806118f1610f48565b905060006118fd612fad565b60008381526020918252604090819020815160c08101835281546001600160801b038082168352600160801b9091041693810193909352600101546001600160a01b0381169183019190915264ffffffffff600160a01b82048116606084015260ff600160c81b83041615156080840152600160d01b9091041660a082015290505b86831015611ac857600088888581811061199b5761199b615918565b9050602002013590508281116119c45760405163337c4a7160e21b815260040160405180910390fd5b60006119ce612fad565b600083815260209182526040808220815160c08101835281546001600160801b038082168352600160801b9091041694810194909452600101546001600160a01b0381169184019190915264ffffffffff600160a01b82048116606085015260ff600160c81b83041615156080850152600160d01b9091041660a08301529091508080611a5b86856130dd565b9250925092508a831115611a9b576b033b2e3c9fd0803ce8000000611a808c83615a37565b611a8a9190615a6c565b611a94908b615a80565b9950611aa8565b611aa5828b615a80565b99505b611ab2818a615a80565b98505060019096019550919350915061197f9050565b505050935093915050565b6060836001600160401b03811115611aed57611aed61552b565b604051908082528060200260200182016040528015611b16578160200160208202803683370190505b50905060005b84811015611b8b57611b5e868683818110611b3957611b39615918565b90506020020135858584818110611b5257611b52615918565b90506020020135613145565b828281518110611b7057611b70615918565b6020908102919091010152611b8481615944565b9050611b1c565b50949350505050565b7f139c2898040ef16910dc9f44dc697df79363da767d8bc92f2e310312b816e46d611bbf8133612785565b610eff826131d7565b60606001600160a01b037f00000000000000000000000000000000000000000000000000000000000000001663d505accf333085356020870135611c1188880160408a01615994565b886060013589608001356040518863ffffffff1660e01b8152600401611c3d97969594939291906159b7565b600060405180830381600087803b158015611c5757600080fd5b505af1158015611c6b573d6000803e3d6000fd5b50505050611493858585611fa3565b6000611c92600080516020615e0b8339815191525490565b4210905090565b611ca161322b565b611ccb7f485191a2ef18512555bd4426d18a716ce8e98c80ec2de16394dcf86d7d91bc8033612785565b6000611cd5610f48565b611ce0906001615a80565b9050611ced833484613251565b7f6bd5c950a8d8df17f772f5af37cb3655737899cbf903264b9795592da439661c81611d17610dfe565b60408051928352602083019190915201611024565b611d37848484612923565b611d438484848461351d565b6117d4576040516309f844e360e01b81526001600160a01b0384166004820152602401610d3d565b6060816001600160401b03811115611d8557611d8561552b565b604051908082528060200260200182016040528015611dbe57816020015b611dab614f78565b815260200190600190039081611da35790505b50905060005b82811015611e1b57611ded848483818110611de157611de1615918565b90506020020135613633565b828281518110611dff57611dff615918565b602002602001018190525080611e1490615944565b9050611dc4565b5092915050565b6000611e2c610f48565b611e34610dfe565b610d119190615a20565b6001600160a01b038116611e655760405163016b8ae160e11b815260040160405180910390fd5b611e6e81613825565b50565b6060611e7c82612862565b611e9c576040516364b4f07960e11b815260048101839052602401610d3d565b6000611ec67fc05ca7d1416e49467d5edc7d7ab87ec72336e51e1aa4bd667aa65e3f135fd3a85490565b90506001600160a01b03811615611f53576040516344a5a61760e11b8152600481018490526001600160a01b0382169063894b4c2e9060240160006040518083038186803b158015611f1757600080fd5b505afa158015611f2b573d6000803e3d6000fd5b505050506040513d6000823e601f3d908101601f191682016040526115ba9190810190615a98565b6115ba836138a0565b50919050565b6000818152600080516020615dcb83398151915260205260408120610cac90612fd1565b611f8f82610e33565b611f998133612785565b610df98383612ba5565b6060611fad61322b565b6001600160a01b038216611fbf573391505b826001600160401b03811115611fd757611fd761552b565b604051908082528060200260200182016040528015612000578160200160208202803683370190505b50905060005b8381101561207e5761202f85858381811061202357612023615918565b90506020020135613b25565b61205185858381811061204457612044615918565b9050602002013584613b78565b82828151811061206357612063615918565b602090810291909101015261207781615944565b9050612006565b509392505050565b606061209061322b565b6001600160a01b0382166120a2573391505b826001600160401b038111156120ba576120ba61552b565b6040519080825280602002602001820160405280156120e3578160200160208202803683370190505b50905060005b8381101561207e5761211385858381811061210657612106615918565b9050602002013584613cd8565b82828151811061212557612125615918565b602090810291909101015261213981615944565b90506120e9565b82811461216a5760405163098b37e560e31b81526004810184905260248101829052604401610d3d565b60005b838110156121d8576121b085858381811061218a5761218a615918565b905060200201358484848181106121a3576121a3615918565b9050602002013533612bd4565b6121c83360008787858181106110f8576110f8615918565b6121d181615944565b905061216d565b5050505050565b6001600160a01b0391821660009081527f1886c98c6935f5af694865742d347f021ff255d8db3ee6479ff1769bb556af266020908152604080832093909416825291909152205460ff1690565b612234614fbb565b81602001518061224357508151155b156122615760405163baf3f0f760e01b815260040160405180910390fd5b6040805160c081018252600080825260208201819052918101829052606081018290526080810182905260a081018290526000846060015160001415612354576122a9610f48565b6122b4906001615a80565b92506122be612fad565b60006122cb600186615a20565b81526020808201929092526040908101600020815160c08101835281546001600160801b038082168352600160801b9091041693810193909352600101546001600160a01b0381169183019190915264ffffffffff600160a01b82048116606084015260ff600160c81b83041615156080840152600160d01b9091041660a082015291506124c0565b600085604001516001876060015161236c9190615a20565b6024811061237c5761237c615918565b6020020151905061238e816001615a80565b9350612398612fad565b60008281526020918252604090819020815160c08101835281546001600160801b038082168352600160801b9091041693810193909352600101546001600160a01b0381169183019190915264ffffffffff600160a01b82048116606084015260ff600160c81b83041615156080840152600160d01b9091041660a082015292506124b9612424612fad565b6000612431600185615a20565b81526020808201929092526040908101600020815160c08101835281546001600160801b038082168352600160801b9091041693810193909352600101546001600160a01b0381169183019190915264ffffffffff600160a01b82048116606084015260ff600160c81b83041615156080840152600160d01b9091041660a0820152846130dd565b5090925050505b60006124cc8785615a80565b905060006124d8610dfe565b6124e3906001615a80565b90505b80851080156124f457508185105b156126dd576000612503612fad565b60008781526020918252604090819020815160c08101835281546001600160801b038082168352600160801b9091041693810193909352600101546001600160a01b0381169183019190915264ffffffffff600160a01b820481166060840181905260ff600160c81b84041615156080850152600160d01b9092041660a08301529091508a101561259457506126dd565b60008060006125a388856130dd565b9250925092508d8311156125d5576b033b2e3c9fd0803ce80000006125c88f83615a37565b6125d29190615a6c565b91505b8a518211156125e757505050506126dd565b818b6000018181516125f99190615a20565b90525060608b01511580159061264d57508360a0015164ffffffffff168860a0015164ffffffffff16148061263957508d871115801561263957508d8311155b8061264d57508d8711801561264d57508d83115b1561268357888b6040015160018d606001516126699190615a20565b6024811061267957612679615918565b60200201526126cb565b60248b60600151141561269957505050506126dd565b888b604001518c60600151602481106126b4576126b4615918565b602002015260608b0180516126c890615944565b90525b505060019096019590945092506124e6565b808514806126ea57508185105b15156020880152509498975050505050505050565b7f139c2898040ef16910dc9f44dc697df79363da767d8bc92f2e310312b816e46d61272a8133612785565b610eff82613ee8565b6127508161274a836001612745610f72565b612ddc565b33612bd4565b611e6e33600083612d96565b9055565b60006001600160e01b03198216635a05180f60e01b1480610cac5750610cac82613f38565b61278f82826115c1565b610eff576127a7816001600160a01b03166014613f6d565b6127b2836020613f6d565b6040516020016127c3929190615b0e565b60408051601f198184030181529082905262461bcd60e51b8252610d3d916004016150a6565b6127f1614108565b42600080516020615e0b833981519152556040517f62451d457bc659158be6e6247f56ec1df424a5c7597f71c20c2bc44e0965c8f990600090a1565b60408051602080825281830190925260609160ff84169160009180820181803683375050509182525060208101929092525090565b6000808211801561287a5750612876610dfe565b8211155b8015610cac5750612889612fad565b6000928352602052506040902060010154600160c81b900460ff161590565b6000818152600080516020615d8b8339815191526020526040902080546001600160a01b0319166001600160a01b03841690811790915581906128ea8261123a565b6001600160a01b03167f8c5be1e5ebec7d5bd14f71427d1e84f3dd0314c0f7b2291e5b200ac8c7c3b92560405160405180910390a45050565b6001600160a01b03821661294a57604051633a954ecd60e21b815260040160405180910390fd5b826001600160a01b0316826001600160a01b0316141561297d576040516352ce6f2160e01b815260040160405180910390fd5b801580612990575061298d610dfe565b81115b156129b1576040516364b4f07960e11b815260048101829052602401610d3d565b60006129bb612fad565b6000838152602091909152604090206001810154909150600160c81b900460ff16156129fd5760405163f0e0cc2d60e01b815260048101839052602401610d3d565b60018101546001600160a01b03858116911614612a4657600181015460405163c0eeaa6160e01b81526001600160a01b0380871660048301529091166024820152604401610d3d565b336001600160a01b038516811480612a635750612a6385826121df565b80612a9457506000838152600080516020615d8b83398151915260205260409020546001600160a01b038281169116145b612abc5760405163aee697e760e01b81526001600160a01b0382166004820152602401610d3d565b600080516020615d8b83398151915260008481526020918252604080822080546001600160a01b03199081169091556001860180546001600160a01b038a81169190931617905588168252600080516020615dab83398151915290925220612b24908461412d565b612b3057612b30615b83565b6001600160a01b0384166000908152600080516020615dab83398151915260205260409020612b5f9084614139565b612b6b57612b6b615b83565b6121d8858585612d96565b612b808282614145565b6000828152600080516020615dcb83398151915260205260409020610df990826141bb565b612baf82826141d0565b6000828152600080516020615dcb83398151915260205260409020610df99082614244565b82612bf5576040516364b4f07960e11b815260048101849052602401610d3d565b612bfd610f48565b831115612c205760405163095ca04560e31b815260048101849052602401610d3d565b6000612c2a612fad565b6000858152602091909152604090206001810154909150600160c81b900460ff1615612c6c5760405163f0e0cc2d60e01b815260048101859052602401610d3d565b60018101546001600160a01b03163314612cb0576001810154604051631194af8760e11b81523360048201526001600160a01b039091166024820152604401610d3d565b60018101805460ff60c81b1916600160c81b179055612d0184612cde600080516020615dab83398151915290565b60018401546001600160a01b03166000908152602091909152604090209061412d565b612d0d57612d0d615b83565b6000612d1a828686614259565b9050612d3781612d286114cf565b612d329190615a20565b61460f565b612d418382614638565b826001600160a01b0316336001600160a01b0316867f6ad26c5e238e7d002799f9a5db07e81ef14e37386ae03496d7a7ef04713e145b84604051612d8791815260200190565b60405180910390a45050505050565b80826001600160a01b0316846001600160a01b03167fddf252ad1be2c89b69c2b068fc378daa952ba7f163c4a11628f55a4df523b3ef60405160405180910390a4505050565b6000831580612df15750612dee610dfe565b84115b15612e12576040516364b4f07960e11b815260048101859052602401610d3d565b6000612e1c610f72565b9050831580612e2a57508083115b15612e5257604051637189425760e01b81526004810185905260248101849052604401610d3d565b801580612e655750612e62610f48565b85115b80612e6f57508284115b15612e7e5760009150506115ba565b6000838152600080516020615e2b83398151915260205260409020548510612ef95780831415612eb157829150506115ba565b600080516020615e2b8339815191526000612ecd856001615a80565b815260200190815260200160002060000154851015612eef57829150506115ba565b60009150506115ba565b6000848152600080516020615e2b8339815191526020526040902054851015612f265760009150506115ba565b836000612f34600186615a20565b90505b81811115612fa35760006002612f4d8484615a80565b612f58906001615a80565b612f629190615a6c565b6000818152600080516020615e2b83398151915260205260409020549091508810612f8f57809250612f9d565b612f9a600182615a20565b91505b50612f37565b5095945050505050565b7f82d902cc357288d583210b573a9d62f3db3be12b3fb6605b81bfb74aae873bf090565b6000610cac825490565b606060006115ba836146cd565b60006115ba8383614729565b611e6e7f3696285c4731d14bc4027d17e54255ac55c94b2a4622516ddc5a21d8cea8a1d1829055565b816001600160a01b0316836001600160a01b031614156130505760405163b06307db60e01b815260040160405180910390fd5b6001600160a01b0383811660008181527f1886c98c6935f5af694865742d347f021ff255d8db3ee6479ff1769bb556af266020908152604080832094871680845294825291829020805460ff1916861515908117909155825190815291517f17307eab39ab6107e8899845ad3d59bd9653f200f220920489ca2b5937696c319281900390910190a3505050565b81518151600091829182916130f1916159f8565b6001600160801b031691508460200151846020015161311091906159f8565b6001600160801b03169050806131326b033b2e3c9fd0803ce800000084615a37565b61313c9190615a6c565b92509250925092565b600082158061315a5750613157610dfe565b83115b1561317b576040516364b4f07960e11b815260048101849052602401610d3d565b613183610f48565b83111561319257506000610cac565b600061319c612fad565b6000858152602091909152604090206001810154909150600160c81b900460ff16156131cc576000915050610cac565b611496818585614259565b6131df61322b565b42811015613200576040516339e2ec5360e11b815260040160405180910390fd5b6000600019821461321d57613216826001615a80565b9050613222565b506000195b610eff81614753565b613233611c7a565b15610ce457604051630286f07360e31b815260040160405180910390fd5b613259610dfe565b83111561327c576040516364b4f07960e11b815260048101849052602401610d3d565b6000613286610f48565b90508084116132ab576040516364b4f07960e11b815260048101859052602401610d3d565b60006132b5612fad565b600083815260209182526040808220815160c08101835281546001600160801b038082168352600160801b9091041694810194909452600101546001600160a01b0381169184019190915264ffffffffff600160a01b82048116606085015260ff600160c81b83041615156080850152600160d01b9091041660a083015290915061333e612fad565b600087815260209182526040808220815160c08101835281546001600160801b03808216808452600160801b90920416958201959095526001909101546001600160a01b0381169282019290925264ffffffffff600160a01b83048116606083015260ff600160c81b84041615156080830152600160d01b90920490911660a0820152845190935090916133d291906159f8565b9050806001600160801b0316861115613410576040516359c1125b60e01b8152600481018790526001600160801b0382166024820152604401610d3d565b600061341d856001615a80565b90506000613429610f72565b9050604051806040016040528083815260200188815250613455600080516020615e2b83398151915290565b6000613462846001615a80565b8152602080820192909252604001600020825181559101516001918201556134949061348f908390615a80565b6147df565b6134aa886134a06114cf565b612d329190615a80565b6134b389614808565b88827f197874c72af6a06fb0aa4fab45fd39c7cb61ac0992159872dc3295207da7e9eb8a886020015188602001516134eb91906159f8565b604080519283526001600160801b039091166020830152429082015260600160405180910390a3505050505050505050565b60006001600160a01b0384163b1561362b57604051630a85bd0160e11b81526001600160a01b0385169063150b7a0290613561903390899088908890600401615b99565b602060405180830381600087803b15801561357b57600080fd5b505af19250505080156135ab575060408051601f3d908101601f191682019092526135a891810190615bd6565b60015b613611573d8080156135d9576040519150601f19603f3d011682016040523d82523d6000602084013e6135de565b606091505b508051613609576040516309f844e360e01b81526001600160a01b0386166004820152602401610d3d565b805181602001fd5b6001600160e01b031916630a85bd0160e11b149050611496565b506001611496565b61363b614f78565b81158061364e575061364b610dfe565b82115b1561366f576040516364b4f07960e11b815260048101839052602401610d3d565b6000613679612fad565b600084815260209182526040808220815160c08101835281546001600160801b038082168352600160801b9091041694810194909452600101546001600160a01b0381169184019190915264ffffffffff600160a01b82048116606085015260ff600160c81b83041615156080850152600160d01b9091041660a0830152909150613702612fad565b600061370f600187615a20565b81526020808201929092526040908101600020815160c0808201845282546001600160801b038082168452600160801b90910416948201949094526001909101546001600160a01b0381168284015264ffffffffff600160a01b82048116606084015260ff600160c81b83041615156080840152600160d01b9091041660a082015281519283019091528051845191935082916137ac91906159f8565b6001600160801b03168152602001826020015184602001516137ce91906159f8565b6001600160801b0316815260200183604001516001600160a01b03168152602001836060015164ffffffffff168152602001613808610f48565b861115151581526020018360800151151581525092505050919050565b61382d614831565b613838600019613ee8565b6138426001614967565b61384d600082612b76565b600019600080516020615d6b833981519152556040516001600160a01b03821681527f20b34d2aaaf6acb4fbbc9c4846858bb824053ab11ff44a59dfba1e22ceb8a509906020015b60405180910390a150565b606060007f64e8f8e17613d87eea8ab1779bc027d9869e9babcba1688da507c03cb75e033880546138d09061595f565b80601f01602080910402602001604051908101604052809291908181526020018280546138fc9061595f565b80156139495780601f1061391e57610100808354040283529160200191613949565b820191906000526020600020905b81548152906001019060200180831161392c57829003601f168201915b50505050509050805160001415613970575050604080516020810190915260008152919050565b600081604051806040016040528060018152602001602f60f81b81525061399686614996565b6040518060400160405280600b81526020016a3f7265717565737465643d60a81b815250613a256139c5612fad565b60006139d260018c615a20565b81526020810191909152604001600020546001600160801b03166139f4612fad565b60008b81526020919091526040902054613a1791906001600160801b03166159f8565b6001600160801b0316614996565b6040518060400160405280600c81526020016b26637265617465645f61743d60a01b815250613a7b613a55612fad565b60008c81526020919091526040902060010154600160a01b900464ffffffffff16614996565b604051602001613a919796959493929190615bf3565b60405160208183030381529060405290506000613aac610f48565b85118015915061207e57816040518060400160405280600b81526020016a2666696e616c697a65643d60a81b815250613afa613af588613af08a6001612745610f72565b613145565b614996565b604051602001613b0c93929190615c85565b6040516020818303038152906040529150509392505050565b6064811015613b4a5760405163171370f960e31b815260048101829052602401610d3d565b69152d02c7e14af6800000811115611e6e57604051638ebfb78d60e01b815260048101829052602401610d3d565b6040516323b872dd60e01b8152336004820152306024820152604481018390526000907f00000000000000000000000000000000000000000000000000000000000000006001600160a01b0316906323b872dd90606401602060405180830381600087803b158015613be957600080fd5b505af1158015613bfd573d6000803e3d6000fd5b505050506040513d601f19601f82011682018060405250810190613c219190615cc8565b50604051633103ec9560e11b8152600481018490526000907f00000000000000000000000000000000000000000000000000000000000000006001600160a01b031690636207d92a9060240160206040518083038186803b158015613c8557600080fd5b505afa158015613c99573d6000803e3d6000fd5b505050506040513d601f19601f82011682018060405250810190613cbd9190615ce5565b9050613cca848285614a93565b9150611e1b60008484612d96565b6040516323b872dd60e01b8152336004820152306024820152604481018390526000907f00000000000000000000000000000000000000000000000000000000000000006001600160a01b0316906323b872dd90606401602060405180830381600087803b158015613d4957600080fd5b505af1158015613d5d573d6000803e3d6000fd5b505050506040513d601f19601f82011682018060405250810190613d819190615cc8565b50604051636f074d1f60e11b8152600481018490526000907f00000000000000000000000000000000000000000000000000000000000000006001600160a01b03169063de0e9a3e90602401602060405180830381600087803b158015613de757600080fd5b505af1158015613dfb573d6000803e3d6000fd5b505050506040513d601f19601f82011682018060405250810190613e1f9190615ce5565b9050613e2a81613b25565b604051633103ec9560e11b8152600481018290526000907f00000000000000000000000000000000000000000000000000000000000000006001600160a01b031690636207d92a9060240160206040518083038186803b158015613e8d57600080fd5b505afa158015613ea1573d6000803e3d6000fd5b505050506040513d601f19601f82011682018060405250810190613ec59190615ce5565b9050613ed2828286614a93565b9250613ee060008585612d96565b505092915050565b613ef061322b565b80613f0e5760405163ad58bfc760e01b815260040160405180910390fd5b6000600019821415613f235750600019613222565b613f2d8242615a80565b9050610eff81614753565b60006001600160e01b03198216637965db0b60e01b1480610cac57506301ffc9a760e01b6001600160e01b0319831614610cac565b60606000613f7c836002615a37565b613f87906002615a80565b6001600160401b03811115613f9e57613f9e61552b565b6040519080825280601f01601f191660200182016040528015613fc8576020820181803683370190505b509050600360fc1b81600081518110613fe357613fe3615918565b60200101906001600160f81b031916908160001a905350600f60fb1b8160018151811061401257614012615918565b60200101906001600160f81b031916908160001a9053506000614036846002615a37565b614041906001615a80565b90505b60018111156140b9576f181899199a1a9b1b9c1cb0b131b232b360811b85600f166010811061407557614075615918565b1a60f81b82828151811061408b5761408b615918565b60200101906001600160f81b031916908160001a90535060049490941c936140b281615cfe565b9050614044565b5083156115ba5760405162461bcd60e51b815260206004820181905260248201527f537472696e67733a20686578206c656e67746820696e73756666696369656e746044820152606401610d3d565b614110611c7a565b610ce45760405163b047186b60e01b815260040160405180910390fd5b60006115ba8383614d06565b60006115ba8383614df9565b61414f82826115c1565b610eff576000828152600080516020615deb833981519152602090815260408083206001600160a01b0385168085529252808320805460ff1916600117905551339285917f2f8788117e7eff1d82e926ec794901d17c78024a50270940304540a733656f0d9190a45050565b60006115ba836001600160a01b038416614df9565b6141da82826115c1565b15610eff576000828152600080516020615deb833981519152602090815260408083206001600160a01b0385168085529252808320805460ff1916905551339285917ff6391f5c32d9c69d2a47ea670b442974b53935d1edc7fd64eb21e047a839171b9190a45050565b60006115ba836001600160a01b038416614d06565b60008161427c57604051636773bc7160e11b815260048101839052602401610d3d565b6000614286610f72565b9050808311156142ac57604051636773bc7160e11b815260048101849052602401610d3d565b6000838152600080516020615e2b8339815191526020908152604091829020825180840190935280548084526001909101549183019190915285101561430857604051636773bc7160e11b815260048101859052602401610d3d565b81841015614386576000600080516020615e2b833981519152600061432e876001615a80565b81526020019081526020016000206040518060400160405290816000820154815260200160018201548152505090508581600001511161438457604051636773bc7160e11b815260048101869052602401610d3d565b505b6000614390612fad565b600061439d600189615a20565b81526020019081526020016000206040518060c00160405290816000820160009054906101000a90046001600160801b03166001600160801b03166001600160801b031681526020016000820160109054906101000a90046001600160801b03166001600160801b03166001600160801b031681526020016001820160009054906101000a90046001600160a01b03166001600160a01b03166001600160a01b031681526020016001820160149054906101000a900464ffffffffff1664ffffffffff1664ffffffffff1681526020016001820160199054906101000a900460ff1615151515815260200160018201601a9054906101000a900464ffffffffff1664ffffffffff1664ffffffffff1681525050905060008060006145c6848b6040518060c00160405290816000820160009054906101000a90046001600160801b03166001600160801b03166001600160801b031681526020016000820160109054906101000a90046001600160801b03166001600160801b03166001600160801b031681526020016001820160009054906101000a90046001600160a01b03166001600160a01b03166001600160a01b031681526020016001820160149054906101000a900464ffffffffff1664ffffffffff1664ffffffffff1681526020016001820160199054906101000a900460ff1615151515815260200160018201601a9054906101000a900464ffffffffff1664ffffffffff1664ffffffffff16815250506130dd565b9250925092508460200151831115614602576b033b2e3c9fd0803ce80000008560200151826145f59190615a37565b6145ff9190615a6c565b91505b5098975050505050505050565b611e6e7fd0d759f74c6b04701571a84e1a682ae553e3b460b771844eb86561fb5d71388e829055565b80471015614659576040516384429a5160e01b815260040160405180910390fd5b6000826001600160a01b03168260405160006040518083038185875af1925050503d80600081146146a6576040519150601f19603f3d011682016040523d82523d6000602084013e6146ab565b606091505b5050905080610df957604051630f0b498d60e01b815260040160405180910390fd5b60608160000180548060200260200160405190810160405280929190818152602001828054801561471d57602002820191906000526020600020905b815481526020019060010190808311614709575b50505050509050919050565b600082600001828154811061474057614740615918565b9060005260206000200154905092915050565b61476a600080516020615e0b833981519152829055565b6000198114156147a65760405160001981527f32fb7c9891bc4f963c7de9f1186d2a7755c7d6e9f4604dabe1d8bb3027c2f49e90602001613895565b7f32fb7c9891bc4f963c7de9f1186d2a7755c7d6e9f4604dabe1d8bb3027c2f49e6147d14283615a20565b604051908152602001613895565b611e6e7f0876181c50533c514a32d2532d6e641b36733647e147558717733ca97182304e829055565b611e6e7f4c0a0c9053dec7f5a947951f22974f5d3e32ea9d3b3af7d146eb92ea4d859220829055565b6040805160c08101825260008082526020820181905291810182905264ffffffffff421660608201526001608082015260a0810191909152614871612fad565b6000808052602091825260408082208451858501516001600160801b03918216600160801b929091169190910217815584820151600190910180546060870151608088015160a0909801516001600160a01b039094166001600160c81b031990921691909117600160a01b64ffffffffff928316021765ffffffffffff60c81b1916600160c81b9715159790970264ffffffffff60d01b191696909617600160d01b969092169590950217909355825180840190935280835290820152600080516020615e2b8339815191526000614947610f72565b815260208082019290925260400160002082518155910151600190910155565b61496f61156b565b1561498d5760405163184e52a160e21b815260040160405180910390fd5b611e6e81614e48565b6060816149ba5750506040805180820190915260018152600360fc1b602082015290565b8160005b81156149e457806149ce81615944565b91506149dd9050600a83615a6c565b91506149be565b6000816001600160401b038111156149fe576149fe61552b565b6040519080825280601f01601f191660200182016040528015614a28576020820181803683370190505b5090505b841561149657614a3d600183615a20565b9150614a4a600a86615d15565b614a55906030615a80565b60f81b818381518110614a6a57614a6a615918565b60200101906001600160f81b031916908160001a905350614a8c600a86615a6c565b9450614a2c565b600080614a9e610dfe565b90506000614aaa612fad565b600083815260209182526040808220815160c08101835281546001600160801b038082168352600160801b909104169481018590526001909101546001600160a01b0381169282019290925264ffffffffff600160a01b83048116606083015260ff600160c81b84041615156080830152600160d01b90920490911660a0820152925090614b39908790615d29565b90506000878360000151614b4d9190615d29565b9050614b5a846001615a80565b9450614b6585614ea1565b60006040518060c00160405280836001600160801b03168152602001846001600160801b03168152602001886001600160a01b031681526020014264ffffffffff168152602001600015158152602001614bbd614eca565b64ffffffffff169052905080614bd1612fad565b6000888152602091825260408082208451858501516001600160801b03908116600160801b02911617815584820151600190910180546060870151608088015160a09098015164ffffffffff908116600160d01b0264ffffffffff60d01b19991515600160c81b029990991665ffffffffffff60c81b1991909216600160a01b026001600160c81b03199093166001600160a01b039586161792909217919091161795909517909455928a168152600080516020615dab83398151915290915220614c9c9087614139565b614ca857614ca8615b83565b604080516001600160801b03808c1682528a1660208201526001600160a01b03891691339189917ff0cb471f23fb74ea44b8252eb1881a2dca546288d9f6e90d1a0e82fe0ed342ab910160405180910390a450505050509392505050565b60008181526001830160205260408120548015614def576000614d2a600183615a20565b8554909150600090614d3e90600190615a20565b9050818114614da3576000866000018281548110614d5e57614d5e615918565b9060005260206000200154905080876000018481548110614d8157614d81615918565b6000918252602080832090910192909255918252600188019052604090208390555b8554869080614db457614db4615d54565b600190038181906000526020600020016000905590558560010160008681526020019081526020016000206000905560019350505050610cac565b6000915050610cac565b6000818152600183016020526040812054614e4057508154600181810184556000848152602080822090930184905584548482528286019093526040902091909155610cac565b506000610cac565b614e717ff812f8d799ea071b4ecf0f6612f1129571268aad3c9d7f3535c25db1f8875772829055565b6040518181527ffddcded6b4f4730c226821172046b48372d3cd963c159701ae1b7c3bcac541bb90602001613895565b611e6e7ff2625c21a0f7446928066977fc066a76b063cb763a753ddfb5f66050d0a85297829055565b6000610d117f3696285c4731d14bc4027d17e54255ac55c94b2a4622516ddc5a21d8cea8a1d15490565b828054614f009061595f565b90600052602060002090601f016020900481019282614f225760008555614f68565b82601f10614f3b5782800160ff19823516178555614f68565b82800160010185558215614f68579182015b82811115614f68578235825591602001919060010190614f4d565b50614f74929150614fe7565b5090565b6040518060c00160405280600081526020016000815260200160006001600160a01b03168152602001600081526020016000151581526020016000151581525090565b6040805160808101825260008082526020820152908101614fda614ffc565b8152602001600081525090565b5b80821115614f745760008155600101614fe8565b6040518061048001604052806024906020820280368337509192915050565b6001600160e01b031981168114611e6e57600080fd5b60006020828403121561504357600080fd5b81356115ba8161501b565b60005b83811015615069578181015183820152602001615051565b838111156117d45750506000910152565b6000815180845261509281602086016020860161504e565b601f01601f19169290920160200192915050565b6020815260006115ba602083018461507a565b6000602082840312156150cb57600080fd5b5035919050565b80356001600160a01b03811681146150e957600080fd5b919050565b6000806040838503121561510157600080fd5b61510a836150d2565b946020939093013593505050565b60008060006060848603121561512d57600080fd5b615136846150d2565b9250615144602085016150d2565b9150604084013590509250925092565b6000806040838503121561516757600080fd5b82359150615177602084016150d2565b90509250929050565b6000806020838503121561519357600080fd5b82356001600160401b03808211156151aa57600080fd5b818501915085601f8301126151be57600080fd5b8135818111156151cd57600080fd5b8660208285010111156151df57600080fd5b60209290920196919550909350505050565b60008083601f84011261520357600080fd5b5081356001600160401b0381111561521a57600080fd5b6020830191508360208260051b850101111561523557600080fd5b9250929050565b60008060008060006060868803121561525457600080fd5b85356001600160401b038082111561526b57600080fd5b61527789838a016151f1565b9097509550602088013591508082111561529057600080fd5b5061529d888289016151f1565b90945092506152b09050604087016150d2565b90509295509295909350565b600080600080606085870312156152d257600080fd5b84356001600160401b038111156152e857600080fd5b6152f4878288016151f1565b90989097506020870135966040013595509350505050565b6020808252825182820181905260009190848201906040850190845b8181101561534457835183529284019291840191600101615328565b50909695505050505050565b60006020828403121561536257600080fd5b6115ba826150d2565b60008060008084860360e081121561538257600080fd5b85356001600160401b0381111561539857600080fd5b6153a4888289016151f1565b90965094506153b79050602087016150d2565b925060a0603f19820112156153cb57600080fd5b509295919450926040019150565b600080604083850312156153ec57600080fd5b50508035926020909101359150565b8015158114611e6e57600080fd5b60008060006060848603121561541e57600080fd5b8335615429816153fb565b95602085013595506040909401359392505050565b6000806040838503121561545157600080fd5b61545a836150d2565b9150602083013561546a816153fb565b809150509250929050565b60008060006040848603121561548a57600080fd5b83356001600160401b038111156154a057600080fd5b6154ac868287016151f1565b909790965060209590950135949350505050565b600080600080604085870312156154d657600080fd5b84356001600160401b03808211156154ed57600080fd5b6154f9888389016151f1565b9096509450602087013591508082111561551257600080fd5b5061551f878288016151f1565b95989497509550505050565b634e487b7160e01b600052604160045260246000fd5b604051608081016001600160401b03811182821017156155635761556361552b565b60405290565b60405161048081016001600160401b03811182821017156155635761556361552b565b604051601f8201601f191681016001600160401b03811182821017156155b4576155b461552b565b604052919050565b60006001600160401b038211156155d5576155d561552b565b50601f01601f191660200190565b600080600080608085870312156155f957600080fd5b615602856150d2565b9350615610602086016150d2565b92506040850135915060608501356001600160401b0381111561563257600080fd5b8501601f8101871361564357600080fd5b8035615656615651826155bc565b61558c565b81815288602083850101111561566b57600080fd5b8160208401602083013760006020838301015280935050505092959194509250565b600080602083850312156156a057600080fd5b82356001600160401b038111156156b657600080fd5b6156c2858286016151f1565b90969095509350505050565b602080825282518282018190526000919060409081850190868401855b82811015615746578151805185528681015187860152858101516001600160a01b0316868601526060808201519086015260808082015115159086015260a09081015115159085015260c090930192908501906001016156eb565b5091979650505050505050565b60008060006040848603121561576857600080fd5b83356001600160401b0381111561577e57600080fd5b61578a868287016151f1565b909450925061579d9050602085016150d2565b90509250925092565b600080604083850312156157b957600080fd5b6157c2836150d2565b9150615177602084016150d2565b6000806000808486036105408112156157e857600080fd5b853594506020808701359450604087013593506104e0605f198301121561580e57600080fd5b615816615541565b915060608701358252608087013561582d816153fb565b8282015260bf8701881361584057600080fd5b615848615569565b8061052089018a81111561585b57600080fd5b60a08a015b818110156158775780358452928401928401615860565b50604085019190915235606084015250949793965091945090925050565b815181526020808301511515818301526040808401516104e084019291840160005b60248110156158d4578251825291830191908301906001016158b7565b5050505060608301516104c083015292915050565b60208152816020820152818360408301376000818301604090810191909152601f909201601f19160101919050565b634e487b7160e01b600052603260045260246000fd5b634e487b7160e01b600052601160045260246000fd5b60006000198214156159585761595861592e565b5060010190565b600181811c9082168061597357607f821691505b60208210811415611f5c57634e487b7160e01b600052602260045260246000fd5b6000602082840312156159a657600080fd5b813560ff811681146115ba57600080fd5b6001600160a01b0397881681529590961660208601526040850193909352606084019190915260ff16608083015260a082015260c081019190915260e00190565b60006001600160801b0383811690831681811015615a1857615a1861592e565b039392505050565b600082821015615a3257615a3261592e565b500390565b6000816000190483118215151615615a5157615a5161592e565b500290565b634e487b7160e01b600052601260045260246000fd5b600082615a7b57615a7b615a56565b500490565b60008219821115615a9357615a9361592e565b500190565b600060208284031215615aaa57600080fd5b81516001600160401b03811115615ac057600080fd5b8201601f81018413615ad157600080fd5b8051615adf615651826155bc565b818152856020838501011115615af457600080fd5b615b0582602083016020860161504e565b95945050505050565b7f416363657373436f6e74726f6c3a206163636f756e7420000000000000000000815260008351615b4681601785016020880161504e565b7001034b99036b4b9b9b4b733903937b6329607d1b6017918401918201528351615b7781602884016020880161504e565b01602801949350505050565b634e487b7160e01b600052600160045260246000fd5b6001600160a01b0385811682528416602082015260408101839052608060608201819052600090615bcc9083018461507a565b9695505050505050565b600060208284031215615be857600080fd5b81516115ba8161501b565b600088516020615c068285838e0161504e565b895191840191615c198184848e0161504e565b8951920191615c2b8184848d0161504e565b8851920191615c3d8184848c0161504e565b8751920191615c4f8184848b0161504e565b8651920191615c618184848a0161504e565b8551920191615c73818484890161504e565b919091019a9950505050505050505050565b60008451615c9781846020890161504e565b845190830190615cab81836020890161504e565b8451910190615cbe81836020880161504e565b0195945050505050565b600060208284031215615cda57600080fd5b81516115ba816153fb565b600060208284031215615cf757600080fd5b5051919050565b600081615d0d57615d0d61592e565b506000190190565b600082615d2457615d24615a56565b500690565b60006001600160801b03808316818516808303821115615d4b57615d4b61592e565b01949350505050565b634e487b7160e01b600052603160045260246000fdfe7349046951adb42e446f42f6f384496aac699da9f174f1d2dec7c6e050ebf72c789feefc71a7e444f018803821279cd999b50ea63623ee3a317c6edcaf692ef8252d33784d798f069c477347776e330f5d8a092bea5ec77af5f3e6b5d2b34ae38f8c450dae5029cd48cd91dd9db65da48fb742893edfc7941250f6721d93cbbe9a627a5d4aa7c17f87ff26e3fe9a42c2b6c559e8b41a42282d0ecebb17c0e4d332640ac550357e2bfe4fa43fd3d4a9291f58d5d66cbabb5b8fe11db1552007e33780f5c1e8f757cb578b0a9e65d4fb6e6e7a11a92480b346548bf79b92ff637da2646970667358221220f5ad0e24ea31b8955b32f278b0122a64e793515b401e4d3b4e93c37628c565f364736f6c63430008090033",
  "linkReferences": {},
  "deployedLinkReferences": {}
}