{
  "_format": "hh-sol-artifact-1",
  "contractName": "Catalist",
  "sourceName": "contracts/0.4.24/Catalist.sol",
  "abi": [
    {
      "constant": false,
      "inputs": [],
      "name": "resume",
      "outputs": [],
      "payable": false,
      "stateMutability": "nonpayable",
      "type": "function"
    },
    {
      "constant": true,
      "inputs": [],
      "name": "name",
      "outputs": [
        {
          "name": "",
          "type": "string"
        }
      ],
      "payable": false,
      "stateMutability": "pure",
      "type": "function"
    },
    {
      "constant": false,
      "inputs": [],
      "name": "stop",
      "outputs": [],
      "payable": false,
      "stateMutability": "nonpayable",
      "type": "function"
    },
    {
      "constant": true,
      "inputs": [],
      "name": "hasInitialized",
      "outputs": [
        {
          "name": "",
          "type": "bool"
        }
      ],
      "payable": false,
      "stateMutability": "view",
      "type": "function"
    },
    {
      "constant": false,
      "inputs": [
        {
          "name": "_spender",
          "type": "address"
        },
        {
          "name": "_amount",
          "type": "uint256"
        }
      ],
      "name": "approve",
      "outputs": [
        {
          "name": "",
          "type": "bool"
        }
      ],
      "payable": false,
      "stateMutability": "nonpayable",
      "type": "function"
    },
    {
      "constant": true,
      "inputs": [],
      "name": "STAKING_CONTROL_ROLE",
      "outputs": [
        {
          "name": "",
          "type": "bytes32"
        }
      ],
      "payable": false,
      "stateMutability": "view",
      "type": "function"
    },
    {
      "constant": true,
      "inputs": [],
      "name": "totalSupply",
      "outputs": [
        {
          "name": "",
          "type": "uint256"
        }
      ],
      "payable": false,
      "stateMutability": "view",
      "type": "function"
    },
    {
      "constant": true,
      "inputs": [],
      "name": "isStakingPaused",
      "outputs": [
        {
          "name": "",
          "type": "bool"
        }
      ],
      "payable": false,
      "stateMutability": "view",
      "type": "function"
    },
    {
      "constant": false,
      "inputs": [
        {
          "name": "_sender",
          "type": "address"
        },
        {
          "name": "_recipient",
          "type": "address"
        },
        {
          "name": "_amount",
          "type": "uint256"
        }
      ],
      "name": "transferFrom",
      "outputs": [
        {
          "name": "",
          "type": "bool"
        }
      ],
      "payable": false,
      "stateMutability": "nonpayable",
      "type": "function"
    },
    {
      "constant": true,
      "inputs": [
        {
          "name": "_script",
          "type": "bytes"
        }
      ],
      "name": "getEVMScriptExecutor",
      "outputs": [
        {
          "name": "",
          "type": "address"
        }
      ],
      "payable": false,
      "stateMutability": "view",
      "type": "function"
    },
    {
      "constant": false,
      "inputs": [
        {
          "name": "_maxStakeLimit",
          "type": "uint256"
        },
        {
          "name": "_stakeLimitIncreasePerBlock",
          "type": "uint256"
        }
      ],
      "name": "setStakingLimit",
      "outputs": [],
      "payable": false,
      "stateMutability": "nonpayable",
      "type": "function"
    },
    {
      "constant": true,
      "inputs": [],
      "name": "RESUME_ROLE",
      "outputs": [
        {
          "name": "",
          "type": "bytes32"
        }
      ],
      "payable": false,
      "stateMutability": "view",
      "type": "function"
    },
    {
      "constant": false,
      "inputs": [
        {
          "name": "_catalistLocator",
          "type": "address"
        },
        {
          "name": "_eip712BACE",
          "type": "address"
        }
      ],
      "name": "finalizeUpgrade_v2",
      "outputs": [],
      "payable": false,
      "stateMutability": "nonpayable",
      "type": "function"
    },
    {
      "constant": true,
      "inputs": [],
      "name": "decimals",
      "outputs": [
        {
          "name": "",
          "type": "uint8"
        }
      ],
      "payable": false,
      "stateMutability": "pure",
      "type": "function"
    },
    {
      "constant": true,
      "inputs": [],
      "name": "getRecoveryVault",
      "outputs": [
        {
          "name": "",
          "type": "address"
        }
      ],
      "payable": false,
      "stateMutability": "view",
      "type": "function"
    },
    {
      "constant": true,
      "inputs": [],
      "name": "getBufferedAce",
      "outputs": [
        {
          "name": "",
          "type": "uint256"
        }
      ],
      "payable": false,
      "stateMutability": "view",
      "type": "function"
    },
    {
      "constant": true,
      "inputs": [],
      "name": "DOMAIN_SEPARATOR",
      "outputs": [
        {
          "name": "",
          "type": "bytes32"
        }
      ],
      "payable": false,
      "stateMutability": "view",
      "type": "function"
    },
    {
      "constant": false,
      "inputs": [
        {
          "name": "_newDepositedValidators",
          "type": "uint256"
        }
      ],
      "name": "unsafeChangeDepositedValidators",
      "outputs": [],
      "payable": false,
      "stateMutability": "nonpayable",
      "type": "function"
    },
    {
      "constant": true,
      "inputs": [],
      "name": "PAUSE_ROLE",
      "outputs": [
        {
          "name": "",
          "type": "bytes32"
        }
      ],
      "payable": false,
      "stateMutability": "view",
      "type": "function"
    },
    {
      "constant": false,
      "inputs": [
        {
          "name": "_spender",
          "type": "address"
        },
        {
          "name": "_addedValue",
          "type": "uint256"
        }
      ],
      "name": "increaseAllowance",
      "outputs": [
        {
          "name": "",
          "type": "bool"
        }
      ],
      "payable": false,
      "stateMutability": "nonpayable",
      "type": "function"
    },
    {
      "constant": true,
      "inputs": [],
      "name": "getTreasury",
      "outputs": [
        {
          "name": "",
          "type": "address"
        }
      ],
      "payable": false,
      "stateMutability": "view",
      "type": "function"
    },
    {
      "constant": true,
      "inputs": [],
      "name": "isStopped",
      "outputs": [
        {
          "name": "",
          "type": "bool"
        }
      ],
      "payable": false,
      "stateMutability": "view",
      "type": "function"
    },
    {
      "constant": false,
      "inputs": [
        {
          "name": "_catalistLocator",
          "type": "address"
        },
        {
          "name": "_eip712BACE",
          "type": "address"
        }
      ],
      "name": "initialize",
      "outputs": [],
      "payable": true,
      "stateMutability": "payable",
      "type": "function"
    },
    {
      "constant": false,
      "inputs": [],
      "name": "receiveELRewards",
      "outputs": [],
      "payable": true,
      "stateMutability": "payable",
      "type": "function"
    },
    {
      "constant": true,
      "inputs": [],
      "name": "getWithdrawalCredentials",
      "outputs": [
        {
          "name": "",
          "type": "bytes32"
        }
      ],
      "payable": false,
      "stateMutability": "view",
      "type": "function"
    },
    {
      "constant": true,
      "inputs": [],
      "name": "getCurrentStakeLimit",
      "outputs": [
        {
          "name": "",
          "type": "uint256"
        }
      ],
      "payable": false,
      "stateMutability": "view",
      "type": "function"
    },
    {
      "constant": true,
      "inputs": [
        {
          "name": "_aceAmount",
          "type": "uint256"
        }
      ],
      "name": "getSharesByPooledAce",
      "outputs": [
        {
          "name": "",
          "type": "uint256"
        }
      ],
      "payable": false,
      "stateMutability": "view",
      "type": "function"
    },
    {
      "constant": true,
      "inputs": [],
      "name": "getStakeLimitFullInfo",
      "outputs": [
        {
          "name": "isStakingPaused",
          "type": "bool"
        },
        {
          "name": "isStakingLimitSet",
          "type": "bool"
        },
        {
          "name": "currentStakeLimit",
          "type": "uint256"
        },
        {
          "name": "maxStakeLimit",
          "type": "uint256"
        },
        {
          "name": "maxStakeLimitGrowthBlocks",
          "type": "uint256"
        },
        {
          "name": "prevStakeLimit",
          "type": "uint256"
        },
        {
          "name": "prevStakeBlockNumber",
          "type": "uint256"
        }
      ],
      "payable": false,
      "stateMutability": "view",
      "type": "function"
    },
    {
      "constant": false,
      "inputs": [
        {
          "name": "_sender",
          "type": "address"
        },
        {
          "name": "_recipient",
          "type": "address"
        },
        {
          "name": "_sharesAmount",
          "type": "uint256"
        }
      ],
      "name": "transferSharesFrom",
      "outputs": [
        {
          "name": "",
          "type": "uint256"
        }
      ],
      "payable": false,
      "stateMutability": "nonpayable",
      "type": "function"
    },
    {
      "constant": true,
      "inputs": [
        {
          "name": "_account",
          "type": "address"
        }
      ],
      "name": "balanceOf",
      "outputs": [
        {
          "name": "",
          "type": "uint256"
        }
      ],
      "payable": false,
      "stateMutability": "view",
      "type": "function"
    },
    {
      "constant": true,
      "inputs": [],
      "name": "getTotalPooledAce",
      "outputs": [
        {
          "name": "",
          "type": "uint256"
        }
      ],
      "payable": false,
      "stateMutability": "view",
      "type": "function"
    },
    {
      "constant": false,
      "inputs": [],
      "name": "resumeStaking",
      "outputs": [],
      "payable": false,
      "stateMutability": "nonpayable",
      "type": "function"
    },
    {
      "constant": true,
      "inputs": [],
      "name": "getFeeDistribution",
      "outputs": [
        {
          "name": "treasuryFeeBasisPoints",
          "type": "uint16"
        },
        {
          "name": "insuranceFeeBasisPoints",
          "type": "uint16"
        },
        {
          "name": "operatorsFeeBasisPoints",
          "type": "uint16"
        }
      ],
      "payable": false,
      "stateMutability": "view",
      "type": "function"
    },
    {
      "constant": true,
      "inputs": [],
      "name": "getDepositableAce",
      "outputs": [
        {
          "name": "",
          "type": "uint256"
        }
      ],
      "payable": false,
      "stateMutability": "view",
      "type": "function"
    },
    {
      "constant": false,
      "inputs": [],
      "name": "receiveWithdrawals",
      "outputs": [],
      "payable": true,
      "stateMutability": "payable",
      "type": "function"
    },
    {
      "constant": true,
      "inputs": [
        {
          "name": "token",
          "type": "address"
        }
      ],
      "name": "allowRecoverability",
      "outputs": [
        {
          "name": "",
          "type": "bool"
        }
      ],
      "payable": false,
      "stateMutability": "view",
      "type": "function"
    },
    {
      "constant": true,
      "inputs": [
        {
          "name": "owner",
          "type": "address"
        }
      ],
      "name": "nonces",
      "outputs": [
        {
          "name": "",
          "type": "uint256"
        }
      ],
      "payable": false,
      "stateMutability": "view",
      "type": "function"
    },
    {
      "constant": true,
      "inputs": [],
      "name": "appId",
      "outputs": [
        {
          "name": "",
          "type": "bytes32"
        }
      ],
      "payable": false,
      "stateMutability": "view",
      "type": "function"
    },
    {
      "constant": true,
      "inputs": [],
      "name": "getOracle",
      "outputs": [
        {
          "name": "",
          "type": "address"
        }
      ],
      "payable": false,
      "stateMutability": "view",
      "type": "function"
    },
    {
      "constant": true,
      "inputs": [],
      "name": "eip712Domain",
      "outputs": [
        {
          "name": "name",
          "type": "string"
        },
        {
          "name": "version",
          "type": "string"
        },
        {
          "name": "chainId",
          "type": "uint256"
        },
        {
          "name": "verifyingContract",
          "type": "address"
        }
      ],
      "payable": false,
      "stateMutability": "view",
      "type": "function"
    },
    {
      "constant": true,
      "inputs": [],
      "name": "getContractVersion",
      "outputs": [
        {
          "name": "",
          "type": "uint256"
        }
      ],
      "payable": false,
      "stateMutability": "view",
      "type": "function"
    },
    {
      "constant": true,
      "inputs": [],
      "name": "getInitializationBlock",
      "outputs": [
        {
          "name": "",
          "type": "uint256"
        }
      ],
      "payable": false,
      "stateMutability": "view",
      "type": "function"
    },
    {
      "constant": false,
      "inputs": [
        {
          "name": "_recipient",
          "type": "address"
        },
        {
          "name": "_sharesAmount",
          "type": "uint256"
        }
      ],
      "name": "transferShares",
      "outputs": [
        {
          "name": "",
          "type": "uint256"
        }
      ],
      "payable": false,
      "stateMutability": "nonpayable",
      "type": "function"
    },
    {
      "constant": true,
      "inputs": [],
      "name": "symbol",
      "outputs": [
        {
          "name": "",
          "type": "string"
        }
      ],
      "payable": false,
      "stateMutability": "pure",
      "type": "function"
    },
    {
      "constant": false,
      "inputs": [
        {
          "name": "",
          "type": "address"
        }
      ],
      "name": "transferToVault",
      "outputs": [],
      "payable": false,
      "stateMutability": "nonpayable",
      "type": "function"
    },
    {
      "constant": true,
      "inputs": [
        {
          "name": "_sender",
          "type": "address"
        },
        {
          "name": "_role",
          "type": "bytes32"
        },
        {
          "name": "_params",
          "type": "uint256[]"
        }
      ],
      "name": "canPerform",
      "outputs": [
        {
          "name": "",
          "type": "bool"
        }
      ],
      "payable": false,
      "stateMutability": "view",
      "type": "function"
    },
    {
      "constant": false,
      "inputs": [
        {
          "name": "_referral",
          "type": "address"
        }
      ],
      "name": "submit",
      "outputs": [
        {
          "name": "",
          "type": "uint256"
        }
      ],
      "payable": true,
      "stateMutability": "payable",
      "type": "function"
    },
    {
      "constant": false,
      "inputs": [
        {
          "name": "_spender",
          "type": "address"
        },
        {
          "name": "_subtractedValue",
          "type": "uint256"
        }
      ],
      "name": "decreaseAllowance",
      "outputs": [
        {
          "name": "",
          "type": "bool"
        }
      ],
      "payable": false,
      "stateMutability": "nonpayable",
      "type": "function"
    },
    {
      "constant": true,
      "inputs": [],
      "name": "getEVMScriptRegistry",
      "outputs": [
        {
          "name": "",
          "type": "address"
        }
      ],
      "payable": false,
      "stateMutability": "view",
      "type": "function"
    },
    {
      "constant": false,
      "inputs": [
        {
          "name": "_recipient",
          "type": "address"
        },
        {
          "name": "_amount",
          "type": "uint256"
        }
      ],
      "name": "transfer",
      "outputs": [
        {
          "name": "",
          "type": "bool"
        }
      ],
      "payable": false,
      "stateMutability": "nonpayable",
      "type": "function"
    },
    {
      "constant": false,
      "inputs": [
        {
          "name": "_maxDepositsCount",
          "type": "uint256"
        },
        {
          "name": "_stakingModuleId",
          "type": "uint256"
        },
        {
          "name": "_depositCalldata",
          "type": "bytes"
        }
      ],
      "name": "deposit",
      "outputs": [],
      "payable": false,
      "stateMutability": "nonpayable",
      "type": "function"
    },
    {
      "constant": true,
      "inputs": [],
      "name": "UNSAFE_CHANGE_DEPOSITED_VALIDATORS_ROLE",
      "outputs": [
        {
          "name": "",
          "type": "bytes32"
        }
      ],
      "payable": false,
      "stateMutability": "view",
      "type": "function"
    },
    {
      "constant": true,
      "inputs": [],
      "name": "getBeaconStat",
      "outputs": [
        {
          "name": "depositedValidators",
          "type": "uint256"
        },
        {
          "name": "beaconValidators",
          "type": "uint256"
        },
        {
          "name": "beaconBalance",
          "type": "uint256"
        }
      ],
      "payable": false,
      "stateMutability": "view",
      "type": "function"
    },
    {
      "constant": false,
      "inputs": [],
      "name": "removeStakingLimit",
      "outputs": [],
      "payable": false,
      "stateMutability": "nonpayable",
      "type": "function"
    },
    {
      "constant": true,
      "inputs": [],
      "name": "getCatalistLocator",
      "outputs": [
        {
          "name": "",
          "type": "address"
        }
      ],
      "payable": false,
      "stateMutability": "view",
      "type": "function"
    },
    {
      "constant": false,
      "inputs": [
        {
          "name": "_reportTimestamp",
          "type": "uint256"
        },
        {
          "name": "_timeElapsed",
          "type": "uint256"
        },
        {
          "name": "_clValidators",
          "type": "uint256"
        },
        {
          "name": "_clBalance",
          "type": "uint256"
        },
        {
          "name": "_withdrawalVaultBalance",
          "type": "uint256"
        },
        {
          "name": "_elRewardsVaultBalance",
          "type": "uint256"
        },
        {
          "name": "_sharesRequestedToBurn",
          "type": "uint256"
        },
        {
          "name": "_withdrawalFinalizationBatches",
          "type": "uint256[]"
        },
        {
          "name": "_simulatedShareRate",
          "type": "uint256"
        }
      ],
      "name": "handleOracleReport",
      "outputs": [
        {
          "name": "postRebaseAmounts",
          "type": "uint256[4]"
        }
      ],
      "payable": false,
      "stateMutability": "nonpayable",
      "type": "function"
    },
    {
      "constant": true,
      "inputs": [],
      "name": "getEIP712BACE",
      "outputs": [
        {
          "name": "",
          "type": "address"
        }
      ],
      "payable": false,
      "stateMutability": "view",
      "type": "function"
    },
    {
      "constant": true,
      "inputs": [],
      "name": "getFee",
      "outputs": [
        {
          "name": "totalFee",
          "type": "uint16"
        }
      ],
      "payable": false,
      "stateMutability": "view",
      "type": "function"
    },
    {
      "constant": true,
      "inputs": [],
      "name": "kernel",
      "outputs": [
        {
          "name": "",
          "type": "address"
        }
      ],
      "payable": false,
      "stateMutability": "view",
      "type": "function"
    },
    {
      "constant": true,
      "inputs": [],
      "name": "getTotalShares",
      "outputs": [
        {
          "name": "",
          "type": "uint256"
        }
      ],
      "payable": false,
      "stateMutability": "view",
      "type": "function"
    },
    {
      "constant": false,
      "inputs": [
        {
          "name": "_owner",
          "type": "address"
        },
        {
          "name": "_spender",
          "type": "address"
        },
        {
          "name": "_value",
          "type": "uint256"
        },
        {
          "name": "_deadline",
          "type": "uint256"
        },
        {
          "name": "_v",
          "type": "uint8"
        },
        {
          "name": "_r",
          "type": "bytes32"
        },
        {
          "name": "_s",
          "type": "bytes32"
        }
      ],
      "name": "permit",
      "outputs": [],
      "payable": false,
      "stateMutability": "nonpayable",
      "type": "function"
    },
    {
      "constant": true,
      "inputs": [
        {
          "name": "_sharesAmount",
          "type": "uint256"
        }
      ],
      "name": "getPooledAceByShares",
      "outputs": [
        {
          "name": "",
          "type": "uint256"
        }
      ],
      "payable": false,
      "stateMutability": "view",
      "type": "function"
    },
    {
      "constant": true,
      "inputs": [
        {
          "name": "_owner",
          "type": "address"
        },
        {
          "name": "_spender",
          "type": "address"
        }
      ],
      "name": "allowance",
      "outputs": [
        {
          "name": "",
          "type": "uint256"
        }
      ],
      "payable": false,
      "stateMutability": "view",
      "type": "function"
    },
    {
      "constant": true,
      "inputs": [],
      "name": "isPetrified",
      "outputs": [
        {
          "name": "",
          "type": "bool"
        }
      ],
      "payable": false,
      "stateMutability": "view",
      "type": "function"
    },
    {
      "constant": true,
      "inputs": [],
      "name": "canDeposit",
      "outputs": [
        {
          "name": "",
          "type": "bool"
        }
      ],
      "payable": false,
      "stateMutability": "view",
      "type": "function"
    },
    {
      "constant": true,
      "inputs": [],
      "name": "STAKING_PAUSE_ROLE",
      "outputs": [
        {
          "name": "",
          "type": "bytes32"
        }
      ],
      "payable": false,
      "stateMutability": "view",
      "type": "function"
    },
    {
      "constant": true,
      "inputs": [
        {
          "name": "_account",
          "type": "address"
        }
      ],
      "name": "sharesOf",
      "outputs": [
        {
          "name": "",
          "type": "uint256"
        }
      ],
      "payable": false,
      "stateMutability": "view",
      "type": "function"
    },
    {
      "constant": false,
      "inputs": [],
      "name": "pauseStaking",
      "outputs": [],
      "payable": false,
      "stateMutability": "nonpayable",
      "type": "function"
    },
    {
      "constant": true,
      "inputs": [],
      "name": "getTotalELRewardsCollected",
      "outputs": [
        {
          "name": "",
          "type": "uint256"
        }
      ],
      "payable": false,
      "stateMutability": "view",
      "type": "function"
    },
    {
      "payable": true,
      "stateMutability": "payable",
      "type": "fallback"
    },
    {
      "anonymous": false,
      "inputs": [],
      "name": "StakingPaused",
      "type": "event"
    },
    {
      "anonymous": false,
      "inputs": [],
      "name": "StakingResumed",
      "type": "event"
    },
    {
      "anonymous": false,
      "inputs": [
        {
          "indexed": false,
          "name": "maxStakeLimit",
          "type": "uint256"
        },
        {
          "indexed": false,
          "name": "stakeLimitIncreasePerBlock",
          "type": "uint256"
        }
      ],
      "name": "StakingLimitSet",
      "type": "event"
    },
    {
      "anonymous": false,
      "inputs": [],
      "name": "StakingLimitRemoved",
      "type": "event"
    },
    {
      "anonymous": false,
      "inputs": [
        {
          "indexed": true,
          "name": "reportTimestamp",
          "type": "uint256"
        },
        {
          "indexed": false,
          "name": "preCLValidators",
          "type": "uint256"
        },
        {
          "indexed": false,
          "name": "postCLValidators",
          "type": "uint256"
        }
      ],
      "name": "CLValidatorsUpdated",
      "type": "event"
    },
    {
      "anonymous": false,
      "inputs": [
        {
          "indexed": false,
          "name": "depositedValidators",
          "type": "uint256"
        }
      ],
      "name": "DepositedValidatorsChanged",
      "type": "event"
    },
    {
      "anonymous": false,
      "inputs": [
        {
          "indexed": true,
          "name": "reportTimestamp",
          "type": "uint256"
        },
        {
          "indexed": false,
          "name": "preCLBalance",
          "type": "uint256"
        },
        {
          "indexed": false,
          "name": "postCLBalance",
          "type": "uint256"
        },
        {
          "indexed": false,
          "name": "withdrawalsWithdrawn",
          "type": "uint256"
        },
        {
          "indexed": false,
          "name": "executionLayerRewardsWithdrawn",
          "type": "uint256"
        },
        {
          "indexed": false,
          "name": "postBufferedAce",
          "type": "uint256"
        }
      ],
      "name": "ACEDistributed",
      "type": "event"
    },
    {
      "anonymous": false,
      "inputs": [
        {
          "indexed": true,
          "name": "reportTimestamp",
          "type": "uint256"
        },
        {
          "indexed": false,
          "name": "timeElapsed",
          "type": "uint256"
        },
        {
          "indexed": false,
          "name": "preTotalShares",
          "type": "uint256"
        },
        {
          "indexed": false,
          "name": "preTotalAce",
          "type": "uint256"
        },
        {
          "indexed": false,
          "name": "postTotalShares",
          "type": "uint256"
        },
        {
          "indexed": false,
          "name": "postTotalAce",
          "type": "uint256"
        },
        {
          "indexed": false,
          "name": "sharesMintedAsFees",
          "type": "uint256"
        }
      ],
      "name": "TokenRebased",
      "type": "event"
    },
    {
      "anonymous": false,
      "inputs": [
        {
          "indexed": false,
          "name": "catalistLocator",
          "type": "address"
        }
      ],
      "name": "CatalistLocatorSet",
      "type": "event"
    },
    {
      "anonymous": false,
      "inputs": [
        {
          "indexed": false,
          "name": "amount",
          "type": "uint256"
        }
      ],
      "name": "ELRewardsReceived",
      "type": "event"
    },
    {
      "anonymous": false,
      "inputs": [
        {
          "indexed": false,
          "name": "amount",
          "type": "uint256"
        }
      ],
      "name": "WithdrawalsReceived",
      "type": "event"
    },
    {
      "anonymous": false,
      "inputs": [
        {
          "indexed": true,
          "name": "sender",
          "type": "address"
        },
        {
          "indexed": false,
          "name": "amount",
          "type": "uint256"
        },
        {
          "indexed": false,
          "name": "referral",
          "type": "address"
        }
      ],
      "name": "Submitted",
      "type": "event"
    },
    {
      "anonymous": false,
      "inputs": [
        {
          "indexed": false,
          "name": "amount",
          "type": "uint256"
        }
      ],
      "name": "Unbuffered",
      "type": "event"
    },
    {
      "anonymous": false,
      "inputs": [
        {
          "indexed": true,
          "name": "executor",
          "type": "address"
        },
        {
          "indexed": false,
          "name": "script",
          "type": "bytes"
        },
        {
          "indexed": false,
          "name": "input",
          "type": "bytes"
        },
        {
          "indexed": false,
          "name": "returnData",
          "type": "bytes"
        }
      ],
      "name": "ScriptResult",
      "type": "event"
    },
    {
      "anonymous": false,
      "inputs": [
        {
          "indexed": true,
          "name": "vault",
          "type": "address"
        },
        {
          "indexed": true,
          "name": "token",
          "type": "address"
        },
        {
          "indexed": false,
          "name": "amount",
          "type": "uint256"
        }
      ],
      "name": "RecoverToVault",
      "type": "event"
    },
    {
      "anonymous": false,
      "inputs": [
        {
          "indexed": false,
          "name": "eip712BACE",
          "type": "address"
        }
      ],
      "name": "EIP712BACEInitialized",
      "type": "event"
    },
    {
      "anonymous": false,
      "inputs": [
        {
          "indexed": true,
          "name": "from",
          "type": "address"
        },
        {
          "indexed": true,
          "name": "to",
          "type": "address"
        },
        {
          "indexed": false,
          "name": "sharesValue",
          "type": "uint256"
        }
      ],
      "name": "TransferShares",
      "type": "event"
    },
    {
      "anonymous": false,
      "inputs": [
        {
          "indexed": true,
          "name": "account",
          "type": "address"
        },
        {
          "indexed": false,
          "name": "preRebaseTokenAmount",
          "type": "uint256"
        },
        {
          "indexed": false,
          "name": "postRebaseTokenAmount",
          "type": "uint256"
        },
        {
          "indexed": false,
          "name": "sharesAmount",
          "type": "uint256"
        }
      ],
      "name": "SharesBurnt",
      "type": "event"
    },
    {
      "anonymous": false,
      "inputs": [],
      "name": "Stopped",
      "type": "event"
    },
    {
      "anonymous": false,
      "inputs": [],
      "name": "Resumed",
      "type": "event"
    },
    {
      "anonymous": false,
      "inputs": [
        {
          "indexed": true,
          "name": "from",
          "type": "address"
        },
        {
          "indexed": true,
          "name": "to",
          "type": "address"
        },
        {
          "indexed": false,
          "name": "value",
          "type": "uint256"
        }
      ],
      "name": "Transfer",
      "type": "event"
    },
    {
      "anonymous": false,
      "inputs": [
        {
          "indexed": true,
          "name": "owner",
          "type": "address"
        },
        {
          "indexed": true,
          "name": "spender",
          "type": "address"
        },
        {
          "indexed": false,
          "name": "value",
          "type": "uint256"
        }
      ],
      "name": "Approval",
      "type": "event"
    },
    {
      "anonymous": false,
      "inputs": [
        {
          "indexed": false,
          "name": "version",
          "type": "uint256"
        }
      ],
      "name": "ContractVersionSet",
      "type": "event"
    }
  ],
  "bytecode": "0x608060408190527f636174616c6973742e56657273696f6e65642e636f6e7472616374566572736990527f6f6e00000000000000000000000000000000000000000000000000000000000060a052620000877ff812f8d799ea071b4ecf0f6612f1129571268aad3c9d7f3535c25db1f88757726000196200009d602090811b620037e917901c565b62000097620000a160201b60201c565b620002b4565b9055565b620000b1620001a360201b60201c565b60408051808201909152601881527f494e49545f414c52454144595f494e495449414c495a45440000000000000000602082015290156200018d576040517f08c379a00000000000000000000000000000000000000000000000000000000081526004018080602001828103825283818151815260200191508051906020019080838360005b838110156200015157818101518382015260200162000137565b50505050905090810190601f1680156200017f5780820380516001836020036101000a031916815260200191505b509250505060405180910390fd5b50620001a1600019620001d660201b60201c565b565b6000620001d160008051602062005f6283398151915260001b60001916620002b060201b620038311760201c565b905090565b620001e6620001a360201b60201c565b60408051808201909152601881527f494e49545f414c52454144595f494e495449414c495a454400000000000000006020820152901562000285576040517f08c379a0000000000000000000000000000000000000000000000000000000008152600401808060200182810382528381815181526020019150805190602001908083836000838110156200015157818101518382015260200162000137565b50620002ad60008051602062005f62833981519152826200009d602090811b620037e917901c565b50565b5490565b615c9e80620002c46000396000f3006080604052600436106103105760003560e01c63ffffffff168063046f7da21461037357806306fdde031461038a57806307da68f5146104145780630803fac014610429578063095ea7b314610452578063136dd43c1461047657806318160ddd1461049d5780631ea7ca89146104b257806323b872dd146104c75780632914b9bd146104f15780632cb5f784146105665780632de03aa1146105815780632f85e57c14610596578063313ce567146105bd57806332f0a3b5146105e85780633359e40e146105fd5780633644e515146106125780633899862414610627578063389ed2671461063f57806339509351146106545780633b19e84a146106785780633f683b6a1461068d578063485cc955146106a25780634ad509b2146106bc57806356396715146106c4578063609c4c6c146106d95780636207d92a146106ee578063665b4b0b146107065780636d7804591461075557806370a082311461077f57806372ee3d3d1461049d5780637475f913146107a0578063752f77f1146107b55780637735d9ac146107f057806378ffcfe2146108055780637e7db6e11461080d5780637ecebe001461082e57806380afdea81461084f578063833b1fce1461086457806384b0196e146108795780638aa10435146109815780638b3dd749146109965780638fcb4e5b146109ab57806395d89b41146109cf5780639d4941d8146109e4578063a1658fad14610a05578063a1903eab14610a6c578063a457c2d714610a80578063a479e50814610aa4578063a9059cbb14610ab9578063aa0b7db714610add578063ad1394e914610b05578063ae2e353814610b1a578063b3320d9a14610b4d578063b7df4ec414610b62578063bac3f3c514610b77578063c9ff796d14610bef578063ced72f8714610c04578063d4aae0c414610c30578063d5002f2e14610c45578063d505accf14610c5a578063d577657814610c93578063dd62ed3e14610cab578063de4796ed14610cd2578063e78a587514610ce7578063eb85262f14610cfc578063f5eb42dc14610d11578063f999c50614610d32578063fa64ebac14610d47575b3615610366576040805160e560020a62461bcd02815260206004820152600e60248201527f4e4f4e5f454d5054595f44415441000000000000000000000000000000000000604482015290519081900360640190fd5b6103706000610d5c565b50005b34801561037f57600080fd5b50610388610f62565b005b34801561039657600080fd5b5061039f610f9d565b6040805160208082528351818301528351919283929083019185019080838360005b838110156103d95781810151838201526020016103c1565b50505050905090810190601f1680156104065780820380516001836020036101000a031916815260200191505b509250505060405180910390f35b34801561042057600080fd5b50610388610fd4565b34801561043557600080fd5b5061043e61100d565b604080519115158252519081900360200190f35b34801561045e57600080fd5b5061043e600160a060020a0360043516602435611036565b34801561048257600080fd5b5061048b61104c565b60408051918252519081900360200190f35b3480156104a957600080fd5b5061048b61105e565b3480156104be57600080fd5b5061043e61106d565b3480156104d357600080fd5b5061043e600160a060020a036004358116906024351660443561108e565b3480156104fd57600080fd5b506040805160206004803580820135601f810184900484028501840190955284845261054a9436949293602493928401919081908401838280828437509497506110b09650505050505050565b60408051600160a060020a039092168252519081900360200190f35b34801561057257600080fd5b50610388600435602435611195565b34801561058d57600080fd5b5061048b611217565b3480156105a257600080fd5b50610388600160a060020a036004358116906024351661123b565b3480156105c957600080fd5b506105d26113d2565b6040805160ff9092168252519081900360200190f35b3480156105f457600080fd5b5061054a6113d7565b34801561060957600080fd5b5061048b61144c565b34801561061e57600080fd5b5061048b611456565b34801561063357600080fd5b506103886004356114b7565b34801561064b57600080fd5b5061048b611534565b34801561066057600080fd5b5061043e600160a060020a0360043516602435611558565b34801561068457600080fd5b5061054a611599565b34801561069957600080fd5b5061043e6115a3565b610388600160a060020a03600435811690602435166115c2565b6103886116a6565b3480156106d057600080fd5b5061048b611799565b3480156106e557600080fd5b5061048b6117dd565b3480156106fa57600080fd5b5061048b6004356117fe565b34801561071257600080fd5b5061071b611835565b6040805197151588529515156020880152868601949094526060860192909252608085015260a084015260c0830152519081900360e00190f35b34801561076157600080fd5b5061048b600160a060020a03600435811690602435166044356118c6565b34801561078b57600080fd5b5061048b600160a060020a0360043516611902565b3480156107ac57600080fd5b50610388611915565b3480156107c157600080fd5b506107ca61198a565b6040805161ffff9485168152928416602084015292168183015290519081900360600190f35b3480156107fc57600080fd5b5061048b611b5f565b610388611bf7565b34801561081957600080fd5b5061043e600160a060020a0360043516611cae565b34801561083a57600080fd5b5061048b600160a060020a0360043516611cb4565b34801561085b57600080fd5b5061048b611ccf565b34801561087057600080fd5b5061054a611cfa565b34801561088557600080fd5b5061088e611d3e565b60408051908101839052600160a060020a038216606082015260808082528551908201528451819060208083019160a084019189019080838360005b838110156108e25781810151838201526020016108ca565b50505050905090810190601f16801561090f5780820380516001836020036101000a031916815260200191505b50838103825286518152865160209182019188019080838360005b8381101561094257818101518382015260200161092a565b50505050905090810190601f16801561096f5780820380516001836020036101000a031916815260200191505b50965050505050505060405180910390f35b34801561098d57600080fd5b5061048b611e8d565b3480156109a257600080fd5b5061048b611ef1565b3480156109b757600080fd5b5061048b600160a060020a0360043516602435611f1c565b3480156109db57600080fd5b5061039f611f4c565b3480156109f057600080fd5b50610388600160a060020a0360043516611f83565b348015610a1157600080fd5b50604080516020600460443581810135838102808601850190965280855261043e958335600160a060020a0316956024803596369695606495939492019291829185019084908082843750949750611fd39650505050505050565b61048b600160a060020a036004351661211e565b348015610a8c57600080fd5b5061043e600160a060020a0360043516602435612129565b348015610ab057600080fd5b5061054a6121ba565b348015610ac557600080fd5b5061043e600160a060020a03600435166024356122a1565b348015610ae957600080fd5b50610388600480359060248035916044359182019101356122ae565b348015610b1157600080fd5b5061048b61261c565b348015610b2657600080fd5b50610b2f612640565b60408051938452602084019290925282820152519081900360600190f35b348015610b5957600080fd5b50610388612694565b348015610b6e57600080fd5b5061054a6126f8565b348015610b8357600080fd5b50610bb76004803590602480359160443591606435916084359160a4359160c4359160e43590810191013561010435612723565b6040518082608080838360005b83811015610bdc578181015183820152602001610bc4565b5050505090500191505060405180910390f35b348015610bfb57600080fd5b5061054a6127b7565b348015610c1057600080fd5b50610c196127f5565b6040805161ffff9092168252519081900360200190f35b348015610c3c57600080fd5b5061054a612839565b348015610c5157600080fd5b5061048b612864565b348015610c6657600080fd5b50610388600160a060020a036004358116906024351660443560643560ff6084351660a43560c43561286e565b348015610c9f57600080fd5b5061048b600435612b15565b348015610cb757600080fd5b5061048b600160a060020a0360043581169060243516612b2d565b348015610cde57600080fd5b5061043e612b58565b348015610cf357600080fd5b5061043e612b6b565b348015610d0857600080fd5b5061048b612beb565b348015610d1d57600080fd5b5061048b600160a060020a0360043516612c0f565b348015610d3e57600080fd5b50610388612c1a565b348015610d5357600080fd5b5061048b612c43565b6000610d66615aaa565b600080341515610dc0576040805160e560020a62461bcd02815260206004820152600c60248201527f5a45524f5f4445504f5349540000000000000000000000000000000000000000604482015290519081900360640190fd5b610dd7600080516020615bd3833981519152612c6e565b9250610de283612cc1565b15610e37576040805160e560020a62461bcd02815260206004820152600e60248201527f5354414b494e475f504155534544000000000000000000000000000000000000604482015290519081900360640190fd5b610e4083612ccc565b15610ed857610e4e83612cde565b915034821015610ea8576040805160e560020a62461bcd02815260206004820152600b60248201527f5354414b455f4c494d4954000000000000000000000000000000000000000000604482015290519081900360640190fd5b610ed8610ebd8434850363ffffffff612d6a16565b600080516020615bd38339815191529063ffffffff612dae16565b610ee1346117fe565b9050610eed3382612e09565b50610f0e610f0934610efd612f06565b9063ffffffff612f3116565b612fbf565b60408051348152600160a060020a0387166020820152815133927f96a25c8ce0baabc1fdefd93e9ed25d8e092a3332f3aa9a41722b5697231d1d1a928290030190a2610f5a3382612ff2565b949350505050565b610f8b7f2fc10cc8ae19568712f7a176fb4978616a610650813c9d05326c34abb62749c7613007565b610f93613079565b610f9b6130cb565b565b60408051808201909152600a81527f426f6e6465642041636500000000000000000000000000000000000000000000602082015290565b610ffd7f139c2898040ef16910dc9f44dc697df79363da767d8bc92f2e310312b816e46d613007565b611005613121565b610f9b613173565b600080611018611ef1565b9050801580159061103057508061102d6131bd565b10155b91505090565b60006110433384846131c1565b50600192915050565b600080516020615bb383398151915281565b60006110686132e3565b905090565b6000611068611089600080516020615bd3833981519152612c6e565b612cc1565b600061109b843384613312565b6110a68484846133ac565b5060019392505050565b60006110ba6121ba565b600160a060020a03166304bf2a7f836040518263ffffffff1660e01b81526004018080602001828103825283818151815260200191508051906020019080838360005b838110156111155781810151838201526020016110fd565b50505050905090810190601f1680156111425780820380516001836020036101000a031916815260200191505b5092505050602060405180830381600087803b15801561116157600080fd5b505af1158015611175573d6000803e3d6000fd5b505050506040513d602081101561118b57600080fd5b505190505b919050565b6111ac600080516020615bb3833981519152613007565b6111d8610ebd83836111cb600080516020615bd3833981519152612c6e565b919063ffffffff6133d016565b604080518381526020810183905281517fce9fddf6179affa1ea7bf36d80a6bf0284e0f3b91f4b2fa6eea2af923e7fac2d929181900390910190a15050565b7f2fc10cc8ae19568712f7a176fb4978616a610650813c9d05326c34abb62749c781565b61124560006135f4565b61124d61100d565b15156112a3576040805160e560020a62461bcd02815260206004820152600f60248201527f4e4f545f494e495449414c495a45440000000000000000000000000000000000604482015290519081900360640190fd5b600160a060020a0382161515611303576040805160e560020a62461bcd02815260206004820152601d60248201527f434154414c4953545f4c4f4341544f525f5a45524f5f41444452455353000000604482015290519081900360640190fd5b600160a060020a0381161515611363576040805160e560020a62461bcd02815260206004820152601860248201527f4549503731325f424143455f5a45524f5f414444524553530000000000000000604482015290519081900360640190fd5b61136e61dead613652565b15156113c4576040805160e560020a62461bcd02815260206004820152601560248201527f494e495449414c5f484f4c4445525f4558495354530000000000000000000000604482015290519081900360640190fd5b6113ce828261366d565b5050565b601290565b60006113e1612839565b600160a060020a03166332f0a3b56040518163ffffffff1660e01b8152600401602060405180830381600087803b15801561141b57600080fd5b505af115801561142f573d6000803e3d6000fd5b505050506040513d602081101561144557600080fd5b5051905090565b6000611068612f06565b60006114606127b7565b600160a060020a031663b8f120b3306040518263ffffffff1660e01b81526004018082600160a060020a0316600160a060020a03168152602001915050602060405180830381600087803b15801561141b57600080fd5b6114e07fe6dc5d79630c61871e99d341ad72c5a052bed2fc8c79e5a4480a7cd31117576c613007565b6114fe600080516020615bf38339815191528263ffffffff6137e916565b6040805182815290517fe0aacfc334457703148118055ec794ac17654c6f918d29638ba3b18003cee5ff9181900360200190a150565b7f139c2898040ef16910dc9f44dc697df79363da767d8bc92f2e310312b816e46d81565b336000818152600160209081526040808320600160a060020a03871684529091528120549091611043918590611594908663ffffffff612f3116565b6131c1565b60006110686137ed565b60006115bc600080516020615c53833981519152613831565b15905090565b6115ca611ef1565b60408051808201909152601881527f494e49545f414c52454144595f494e495449414c495a454400000000000000006020820152901561168b5760405160e560020a62461bcd0281526004018080602001828103825283818151815260200191508051906020019080838360005b83811015611650578181015183820152602001611638565b50505050905090810190601f16801561167d5780820380516001836020036101000a031916815260200191505b509250505060405180910390fd5b50611694613835565b61169e828261366d565b6113ce61389c565b6116ae6126f8565b600160a060020a031663e441d25f6040518163ffffffff1660e01b8152600401602060405180830381600087803b1580156116e857600080fd5b505af11580156116fc573d6000803e3d6000fd5b505050506040513d602081101561171257600080fd5b5051600160a060020a0316331461172857600080fd5b61176461173734610efd612c43565b7ff4df98bbf3bf5680a5ed7048d3937043eefd93259b49953a5049481aedb19e1f9063ffffffff6137e916565b6040805134815290517fd27f9b0c98bdee27044afa149eadcd2047d6399cb6613a45c5b87e6aca76e6b59181900360200190a1565b60006117a3613962565b600160a060020a031663563967156040518163ffffffff1660e01b8152600401602060405180830381600087803b15801561141b57600080fd5b60006110686117f9600080516020615bd3833981519152612c6e565b6139a6565b600061182f61180b6132e3565b6118236118166139df565b859063ffffffff613a1d16565b9063ffffffff613ac816565b92915050565b6000806000806000806000611848615aaa565b61185f600080516020615bd3833981519152612c6e565b905061186a81612cc1565b975061187581612ccc565b9650611880816139a6565b955080606001516001606060020a03169450806040015163ffffffff16935080602001516001606060020a03169250806000015163ffffffff1691505090919293949596565b6000806118d283612b15565b90506118df853383613312565b6118ea858585613b68565b6118f685858386613d6c565b8091505b509392505050565b600061182f61191083613652565b612b15565b61192c600080516020615bb3833981519152613007565b61193461100d565b1515610f93576040805160e560020a62461bcd02815260206004820152600f60248201527f4e4f545f494e495449414c495a45440000000000000000000000000000000000604482015290519081900360640190fd5b60008060008060008060008061199e613962565b945084600160a060020a031663271662ec6040518163ffffffff1660e01b8152600401602060405180830381600087803b1580156119db57600080fd5b505af11580156119ef573d6000803e3d6000fd5b505050506040513d6020811015611a0557600080fd5b5051604080517f9fbb7bae0000000000000000000000000000000000000000000000000000000081529051919550600160a060020a03871691639fbb7bae916004808201926020929091908290030181600087803b158015611a6657600080fd5b505af1158015611a7a573d6000803e3d6000fd5b505050506040513d6020811015611a9057600080fd5b5051604080517fefcdcc0e000000000000000000000000000000000000000000000000000000008152815161ffff9093169550600160a060020a0388169263efcdcc0e926004808401939192918290030181600087803b158015611af357600080fd5b505af1158015611b07573d6000803e3d6000fd5b505050506040513d6040811015611b1d57600080fd5b5080516020909101516000985061ffff918216935016905082848302811515611b4257fe5b04975082848202811515611b5257fe5b0495505050505050909192565b6000806000611b6c612f06565b9150611b76613e08565b600160a060020a0316638866ee2c6040518163ffffffff1660e01b8152600401602060405180830381600087803b158015611bb057600080fd5b505af1158015611bc4573d6000803e3d6000fd5b505050506040513d6020811015611bda57600080fd5b50519050808211611bec576000611bf0565b8082035b9250505090565b611bff6126f8565b600160a060020a03166369d421486040518163ffffffff1660e01b8152600401602060405180830381600087803b158015611c3957600080fd5b505af1158015611c4d573d6000803e3d6000fd5b505050506040513d6020811015611c6357600080fd5b5051600160a060020a03163314611c7957600080fd5b6040805134815290517f6e5086f7e1ab04bd826e77faae35b1bcfe31bd144623361a40ea4af51670b1c39181900360200190a1565b50600190565b600160a060020a031660009081526002602052604090205490565b60006110687fd625496217aa6a3453eecb9c3489dc5a53e6c67b444329ea2b2cbc9ff547639b613831565b6000611d046126f8565b600160a060020a031663996107aa6040518163ffffffff1660e01b8152600401602060405180830381600087803b15801561141b57600080fd5b606080600080611d4c6127b7565b600160a060020a031663f4409319306040518263ffffffff1660e01b81526004018082600160a060020a0316600160a060020a03168152602001915050600060405180830381600087803b158015611da357600080fd5b505af1158015611db7573d6000803e3d6000fd5b505050506040513d6000823e601f3d908101601f191682016040526080811015611de057600080fd5b810190808051640100000000811115611df857600080fd5b82016020810184811115611e0b57600080fd5b8151640100000000811182820187101715611e2557600080fd5b50509291906020018051640100000000811115611e4157600080fd5b82016020810184811115611e5457600080fd5b8151640100000000811182820187101715611e6e57600080fd5b5050602082015160409092015194985096509450919250505090919293565b604080517f636174616c6973742e56657273696f6e65642e636f6e7472616374566572736981527f6f6e0000000000000000000000000000000000000000000000000000000000006020820152905190819003602201902060009061106890613831565b60006110687febb05b386a8d34882b8711d156f463690983dc47815980fb82aeeff1aa43579e613831565b600080611f2a338585613b68565b611f3383612b15565b9050611f4133858386613d6c565b8091505b5092915050565b60408051808201909152600481527f6241434500000000000000000000000000000000000000000000000000000000602082015290565b6040805160e560020a62461bcd02815260206004820152600d60248201527f4e4f545f535550504f5254454400000000000000000000000000000000000000604482015290519081900360640190fd5b600080611fde61100d565b1515611fed57600091506118fa565b611ff5612839565b9050600160a060020a038116151561201057600091506118fa565b80600160a060020a031663fdef910686308761202b88613e50565b60405163ffffffff861660e01b8152600160a060020a03808616600483019081529085166024830152604482018490526080606483019081528351608484015283519192909160a490910190602085019080838360005b8381101561209a578181015183820152602001612082565b50505050905090810190601f1680156120c75780820380516001836020036101000a031916815260200191505b5095505050505050602060405180830381600087803b1580156120e957600080fd5b505af11580156120fd573d6000803e3d6000fd5b505050506040513d602081101561211357600080fd5b505195945050505050565b600061182f82610d5c565b336000908152600160209081526040808320600160a060020a0386168452909152812054828110156121a5576040805160e560020a62461bcd02815260206004820152601460248201527f414c4c4f57414e43455f42454c4f575f5a45524f000000000000000000000000604482015290519081900360640190fd5b6110a63385611594848763ffffffff613e5a16565b6000806121c5612839565b604080517fbe00bbd80000000000000000000000000000000000000000000000000000000081527fd6f028ca0e8edb4a8c9757ca4fdccab25fa1e0317da1188108f7d2dee14902fb60048201527fddbcfd564f642ab5627cf68b9b7d374fb4f8a36e941a75d89c87998cef03bd6160248201529051600160a060020a03929092169163be00bbd8916044808201926020929091908290030181600087803b15801561226f57600080fd5b505af1158015612283573d6000803e3d6000fd5b505050506040513d602081101561229957600080fd5b505192915050565b60006110433384846133ac565b60008060008060006122be6126f8565b945084600160a060020a031663472c17766040518163ffffffff1660e01b8152600401602060405180830381600087803b1580156122fb57600080fd5b505af115801561230f573d6000803e3d6000fd5b505050506040513d602081101561232557600080fd5b5051600160a060020a03163314612386576040805160e560020a62461bcd02815260206004820152601360248201527f4150505f415554485f44534d5f4641494c454400000000000000000000000000604482015290519081900360640190fd5b61238e612b6b565b15156123e4576040805160e560020a62461bcd02815260206004820152600f60248201527f43414e5f4e4f545f4445504f5349540000000000000000000000000000000000604482015290519081900360640190fd5b6123ec613962565b93506124788985600160a060020a03166319c64b798b61240a611b5f565b6040518363ffffffff1660e01b81526004018083815260200182815260200192505050602060405180830381600087803b15801561244757600080fd5b505af115801561245b573d6000803e3d6000fd5b505050506040513d602081101561247157600080fd5b5051613eee565b925060008311156125885761249c836801bc16d674ec80000063ffffffff613a1d16565b91506124e66124b9836124ad612f06565b9063ffffffff613e5a16565b7f0ed1f698562b5ad14506381442889796f8effd69ac96180bfc3ce0cd1dd537c49063ffffffff6137e916565b6040805183815290517f76a397bea5768d4fca97ef47792796e35f98dc81b16c1de84e28a818e1f971089181900360200190a161253483610efd600080516020615bf3833981519152613831565b9050612554600080516020615bf38339815191528263ffffffff6137e916565b6040805182815290517fe0aacfc334457703148118055ec794ac17654c6f918d29638ba3b18003cee5ff9181900360200190a15b83600160a060020a031663aa0b7db783858b8b8b6040518663ffffffff1660e01b8152600401808581526020018481526020018060200182810382528484828181526020019250808284378201915050955050505050506000604051808303818588803b1580156125f857600080fd5b505af115801561260c573d6000803e3d6000fd5b5050505050505050505050505050565b7fe6dc5d79630c61871e99d341ad72c5a052bed2fc8c79e5a4480a7cd31117576c81565b6000808061265b600080516020615bf3833981519152613831565b9250612674600080516020615c33833981519152613831565b915061268d600080516020615c13833981519152613831565b9050909192565b6126ab600080516020615bb3833981519152613007565b6126cd610ebd6126c8600080516020615bd3833981519152612c6e565b613f06565b6040517f9b2a687c198898fcc32a33bbc610d478f177a73ab7352023e6cc1de5bf12a3df90600090a1565b60006110687fd846dcc6cc8271912ab22557eaae25bec80567e73e5c75846b82a81731216e41613831565b61272b615ad1565b612733613f19565b6127a8610120604051908101604052808d81526020018c81526020018b81526020018a8152602001898152602001888152602001878152602001868680806020026020016040519081016040528093929190818152602001838360200280828437505050928452505050602001849052613f86565b9b9a5050505050505050505050565b604080517f636174616c6973742e424143455065726d69742e6569703731324241434500008152905190819003601e01902060009061106890613831565b60006127ff613962565b600160a060020a0316639fbb7bae6040518163ffffffff1660e01b8152600401602060405180830381600087803b15801561141b57600080fd5b60006110687f4172f0f7d2289153072b0a6ca36959e0cbe2efc3afe50fc81636caa96338137b613831565b60006110686139df565b600080428610156128c9576040805160e560020a62461bcd02815260206004820152601060248201527f444541444c494e455f4558504952454400000000000000000000000000000000604482015290519081900360640190fd5b604080517f5065726d69742861646472657373206f776e65722c616464726573732073706581527f6e6465722c75696e743235362076616c75652c75696e74323536206e6f6e636560208201527f2c75696e7432353620646561646c696e6529000000000000000000000000000081830152905190819003605201902089898961295283614489565b60408051602080820197909752600160a060020a0395861681830152939094166060840152608083019190915260a082015260c08082018a90528251808303909101815260e090910191829052805190928291908401908083835b602083106129cc5780518252601f1990920191602091820191016129ad565b6001836020036101000a03801982511681845116808217855250505050505090500191505060405180910390209150612a036127b7565b604080517f804e5eb3000000000000000000000000000000000000000000000000000000008152306004820152602481018590529051600160a060020a03929092169163804e5eb3916044808201926020929091908290030181600087803b158015612a6e57600080fd5b505af1158015612a82573d6000803e3d6000fd5b505050506040513d6020811015612a9857600080fd5b50519050612aa989828787876144d3565b1515612aff576040805160e560020a62461bcd02815260206004820152601160248201527f494e56414c49445f5349474e4154555245000000000000000000000000000000604482015290519081900360640190fd5b612b0a8989896131c1565b505050505050505050565b600061182f612b226139df565b6118236118166132e3565b600160a060020a03918216600090815260016020908152604080832093909416825291909152205490565b6000600019612b65611ef1565b14905090565b6000612b75613e08565b600160a060020a0316632b95b7816040518163ffffffff1660e01b8152600401602060405180830381600087803b158015612baf57600080fd5b505af1158015612bc3573d6000803e3d6000fd5b505050506040513d6020811015612bd957600080fd5b505115801561106857506115bc6115a3565b7f84ea57490227bc2be925c684e2a367071d69890b629590198f4125a018eb1de881565b600061182f82613652565b6110057f84ea57490227bc2be925c684e2a367071d69890b629590198f4125a018eb1de8613007565b60006110687ff4df98bbf3bf5680a5ed7048d3937043eefd93259b49953a5049481aedb19e1f613831565b612c76615aaa565b6000612c8183613831565b63ffffffff600082901c811684526001606060020a03602083811c821690860152608083901c909116604085015260a09190911c16606083015250919050565b5163ffffffff161590565b606001516001606060020a0316151590565b600080600080846040015163ffffffff166000141515612d2757846040015163ffffffff1685606001516001606060020a0316811515612d1a57fe5b046001606060020a031692505b846000015163ffffffff164303915082820285602001516001606060020a0316019050612d618186606001516001606060020a0316614698565b95945050505050565b612d72615aaa565b6001606060020a03821115612d8357fe5b825163ffffffff161515612d9357fe5b506001606060020a031660208201524363ffffffff16815290565b6113ce60a082606001516001606060020a0316901b6080836040015163ffffffff16901b602084602001516001606060020a0316901b6000856000015163ffffffff16901b17171783600019166137e990919063ffffffff16565b6000600160a060020a0383161515612e6b576040805160e560020a62461bcd02815260206004820152601160248201527f4d494e545f544f5f5a45524f5f41444452000000000000000000000000000000604482015290519081900360640190fd5b612e7782610efd6139df565b604080517f636174616c6973742e624143452e746f74616c5368617265730000000000000081529051908190036019019020909150612ebc908263ffffffff6137e916565b600160a060020a038316600090815260208190526040902054612ee5908363ffffffff612f3116565b600160a060020a039093166000908152602081905260409020929092555090565b60006110687f0ed1f698562b5ad14506381442889796f8effd69ac96180bfc3ce0cd1dd537c4613831565b60408051808201909152601181527f4d4154485f4144445f4f564552464c4f57000000000000000000000000000000602082015260009083830190848210156118fa5760405160e560020a62461bcd02815260040180806020018281038252838181518152602001915080519060200190808383600083811015611650578181015183820152602001611638565b612fef7f0ed1f698562b5ad14506381442889796f8effd69ac96180bfc3ce0cd1dd537c48263ffffffff6137e916565b50565b6113ce60008361300184612b15565b84613d6c565b6040805160008152602081019091526130239033908390611fd3565b1515612fef576040805160e560020a62461bcd02815260206004820152600f60248201527f4150505f415554485f4641494c45440000000000000000000000000000000000604482015290519081900360640190fd5b6130816146a9565b6130a0600080516020615c53833981519152600163ffffffff6137e916565b6040517f62451d457bc659158be6e6247f56ec1df424a5c7597f71c20c2bc44e0965c8f990600090a1565b6130f6610ebd60006130ea600080516020615bd3833981519152612c6e565b9063ffffffff61471516565b6040517fedaeeae9aed70c4545d3ab0065713261c9cee8d6cf5c8b07f52f0a65fd91efda90600090a1565b613129613f19565b613148600080516020615c53833981519152600063ffffffff6137e916565b6040517f7acc84e34091ae817647a4c49116f5cc07f319078ba80f8f5fde37ea7e25cbd690600090a1565b613192610ebd60016130ea600080516020615bd3833981519152612c6e565b6040517f26d1807b479eaba249c1214b82e4b65bbb0cc73ee8a17901324b1ef1b5904e4990600090a1565b4390565b600160a060020a0383161515613221576040805160e560020a62461bcd02815260206004820152601660248201527f415050524f56455f46524f4d5f5a45524f5f4144445200000000000000000000604482015290519081900360640190fd5b600160a060020a0382161515613281576040805160e560020a62461bcd02815260206004820152601460248201527f415050524f56455f544f5f5a45524f5f41444452000000000000000000000000604482015290519081900360640190fd5b600160a060020a03808416600081815260016020908152604080832094871680845294825291829020859055815185815291517f8c5be1e5ebec7d5bd14f71427d1e84f3dd0314c0f7b2291e5b200ac8c7c3b9259281900390910190a3505050565b60006110686132f061473a565b610efd61330a600080516020615c13833981519152613831565b610efd612f06565b600160a060020a0380841660009081526001602090815260408083209386168352929052205460001981146133a65781811015613399576040805160e560020a62461bcd02815260206004820152601260248201527f414c4c4f57414e43455f45584345454445440000000000000000000000000000604482015290519081900360640190fd5b6133a684848484036131c1565b50505050565b60006133b7826117fe565b90506133c4848483613b68565b6133a684848484613d6c565b6133d8615aaa565b82151561342f576040805160e560020a62461bcd02815260206004820152601460248201527f5a45524f5f4d41585f5354414b455f4c494d4954000000000000000000000000604482015290519081900360640190fd5b6001606060020a0383111561348e576040805160e560020a62461bcd02815260206004820152601960248201527f544f4f5f4c415247455f4d41585f5354414b455f4c494d495400000000000000604482015290519081900360640190fd5b818310156134e6576040805160e560020a62461bcd02815260206004820152601860248201527f544f4f5f4c415247455f4c494d49545f494e4352454153450000000000000000604482015290519081900360640190fd5b811580613502575063ffffffff82848115156134fe57fe5b0411155b1515613558576040805160e560020a62461bcd02815260206004820152601860248201527f544f4f5f534d414c4c5f4c494d49545f494e4352454153450000000000000000604482015290519081900360640190fd5b835163ffffffff161580613577575060608401516001606060020a0316155b8061358e575083602001516001606060020a031683105b156135a3576001606060020a03831660208501525b8115156135b15760006135be565b81838115156135bc57fe5b045b63ffffffff90811660408601526001606060020a0384166060860152845116156135ec5763ffffffff431684525b509192915050565b6135fc611e8d565b8114612fef576040805160e560020a62461bcd02815260206004820152601b60248201527f554e45585045435445445f434f4e54524143545f56455253494f4e0000000000604482015290519081900360640190fd5b600160a060020a031660009081526020819052604090205490565b6136776002614795565b6136a77fd846dcc6cc8271912ab22557eaae25bec80567e73e5c75846b82a81731216e418363ffffffff6137e916565b6136b081614833565b6137a982600160a060020a03166337d5fe996040518163ffffffff1660e01b8152600401602060405180830381600087803b1580156136ee57600080fd5b505af1158015613702573d6000803e3d6000fd5b505050506040513d602081101561371857600080fd5b5051604080517f27810b6e0000000000000000000000000000000000000000000000000000000081529051600160a060020a038616916327810b6e9160048083019260209291908290030181600087803b15801561377557600080fd5b505af1158015613789573d6000803e3d6000fd5b505050506040513d602081101561379f57600080fd5b50516000196131c1565b60408051600160a060020a038416815290517fccc178f9278b2d36df454f2423adb283f3091667f43d750b2e714dccb2eb0f469181900360200190a15050565b9055565b60006137f76126f8565b600160a060020a03166361d027b36040518163ffffffff1660e01b8152600401602060405180830381600087803b15801561141b57600080fd5b5490565b303180151561384057fe5b6138486139df565b1515612fef5761385781612fbf565b6040805182815260006020820152815161dead927f96a25c8ce0baabc1fdefd93e9ed25d8e092a3332f3aa9a41722b5697231d1d1a928290030190a2612fef8161497c565b6138a4611ef1565b60408051808201909152601881527f494e49545f414c52454144595f494e495449414c495a45440000000000000000602082015290156139295760405160e560020a62461bcd02815260040180806020018281038252838181518152602001915080519060200190808383600083811015611650578181015183820152602001611638565b50610f9b6139356131bd565b7febb05b386a8d34882b8711d156f463690983dc47815980fb82aeeff1aa43579e9063ffffffff6137e916565b600061396c6126f8565b600160a060020a031663ef6c064c6040518163ffffffff1660e01b8152600401602060405180830381600087803b15801561141b57600080fd5b60006139b182612cc1565b156139be57506000611190565b6139c782612ccc565b15156139d65750600019611190565b61182f82612cde565b604080517f636174616c6973742e624143452e746f74616c536861726573000000000000008152905190819003601901902060009061106890613831565b600080831515613a305760009150611f45565b50828202828482811515613a4057fe5b60408051808201909152601181527f4d4154485f4d554c5f4f564552464c4f57000000000000000000000000000000602082015292919004146118fa5760405160e560020a62461bcd02815260040180806020018281038252838181518152602001915080519060200190808383600083811015611650578181015183820152602001611638565b60408051808201909152600d81527f4d4154485f4449565f5a45524f0000000000000000000000000000000000000060208201526000908190818411613b535760405160e560020a62461bcd02815260040180806020018281038252838181518152602001915080519060200190808383600083811015611650578181015183820152602001611638565b508284811515613b5f57fe5b04949350505050565b6000600160a060020a0384161515613bca576040805160e560020a62461bcd02815260206004820152601760248201527f5452414e534645525f46524f4d5f5a45524f5f41444452000000000000000000604482015290519081900360640190fd5b600160a060020a0383161515613c2a576040805160e560020a62461bcd02815260206004820152601560248201527f5452414e534645525f544f5f5a45524f5f414444520000000000000000000000604482015290519081900360640190fd5b600160a060020a038316301415613c8b576040805160e560020a62461bcd02815260206004820152601960248201527f5452414e534645525f544f5f424143455f434f4e545241435400000000000000604482015290519081900360640190fd5b613c93613f19565b50600160a060020a03831660009081526020819052604090205480821115613d05576040805160e560020a62461bcd02815260206004820152601060248201527f42414c414e43455f455843454544454400000000000000000000000000000000604482015290519081900360640190fd5b613d15818363ffffffff613e5a16565b600160a060020a038086166000908152602081905260408082209390935590851681522054613d4a908363ffffffff612f3116565b600160a060020a03909316600090815260208190526040902092909255505050565b82600160a060020a031684600160a060020a03167fddf252ad1be2c89b69c2b068fc378daa952ba7f163c4a11628f55a4df523b3ef846040518082815260200191505060405180910390a382600160a060020a031684600160a060020a03167f9d9c909296d9c674451c0c24f02cb64981eb3b727f99865939192f880a755dcb836040518082815260200191505060405180910390a350505050565b6000613e126126f8565b600160a060020a03166337d5fe996040518163ffffffff1660e01b8152600401602060405180830381600087803b15801561141b57600080fd5b5490565b8051602002815290565b60408051808201909152601281527f4d4154485f5355425f554e444552464c4f5700000000000000000000000000006020820152600090819084841115613ee65760405160e560020a62461bcd02815260040180806020018281038252838181518152602001915080519060200190808383600083811015611650578181015183820152602001611638565b505050900390565b6000818310613efd5781613eff565b825b9392505050565b613f0e615aaa565b506000606082015290565b613f30600080516020615c53833981519152613831565b1515610f9b576040805160e560020a62461bcd02815260206004820152601360248201527f434f4e54524143545f49535f53544f5050454400000000000000000000000000604482015290519081900360640190fd5b613f8e615ad1565b613f96615af0565b613f9e615b2c565b600080600080613fac614995565b8051909650600160a060020a03163314614010576040805160e560020a62461bcd02815260206004820152600f60248201527f4150505f415554485f4641494c45440000000000000000000000000000000000604482015290519081900360640190fd5b8751421015614069576040805160e560020a62461bcd02815260206004820152601860248201527f494e56414c49445f5245504f52545f54494d455354414d500000000000000000604482015290519081900360640190fd5b6140716132e3565b604086015261407e6139df565b606086015261409a600080516020615c33833981519152613831565b808652885160408a015160608b01516140b4939190614a66565b60208601526140c4868987614c03565b60e08801515115614175576140d98689614cc2565b60a08701819052608087019190915260001015614175578560600151600160a060020a0316634611492887608001518760a001516040518363ffffffff1660e01b81526004018083600160a060020a0316600160a060020a0316815260200182815260200192505050600060405180830381600087803b15801561415c57600080fd5b505af1158015614170573d6000803e3d6000fd5b505050505b8560400151600160a060020a031663b8498a398660400151876060015188602001518c606001518d608001518e60a001518f60c001518d608001518e60a001516040518a63ffffffff1660e01b8152600401808a81526020018981526020018881526020018781526020018681526020018581526020018481526020018381526020018281526020019950505050505050505050608060405180830381600087803b15801561422357600080fd5b505af1158015614237573d6000803e3d6000fd5b505050506040513d608081101561424d57600080fd5b5080516020820151604083015160609093015160e0808a019190915260c0890193909352918a01516101008b01516080890151929750929550614297928992889288929091614ea1565b87600001517fda8bb453419ccb3ee8c6ac3c6defaac70b61c867d5d9a4c0d72871aceb60c79486602001518a6060015187876142d1612f06565b6040805195865260208601949094528484019290925260608401526080830152519081900360a00190a260008560e001511115614382578560600151600160a060020a031663636e6b668660e001516040518263ffffffff1660e01b815260040180828152602001915050600060405180830381600087803b15801561435657600080fd5b505af115801561436a573d6000803e3d6000fd5b5050505061438086606001518660e0015161504c565b505b6143928589606001518686615209565b61010086015260c08601516143aa9089908790615266565b60e08a015151919350915015614460578560400151600160a060020a03166363e56b9f828488608001516143ef8a60c001518b60e00151613e5a90919063ffffffff16565b8d61010001516040518663ffffffff1660e01b81526004018086815260200185815260200184815260200183815260200182815260200195505050505050600060405180830381600087803b15801561444757600080fd5b505af115801561445b573d6000803e3d6000fd5b505050505b604080516080810182529182526020820192909252908101929092526060820152949350505050565b600160a060020a0381166000908152600260205260409020546144b381600163ffffffff612f3116565b600160a060020a0390921660009081526002602052604090209190915590565b600060608060006144e3896153a6565b156146695760408051602080820189905281830188905260ff8a1660f81b606083015282516041818403018152606183018452608583018c815260a58401948552815160c585015281519197507f1626ba7e00000000000000000000000000000000000000000000000000000000948d9489949293919260e5909101919085019080838360005b8381101561458257818101518382015260200161456a565b50505050905090810190601f1680156145af5780820380516001836020036101000a031916815260200191505b509350505050604051602081830303815290604052907bffffffffffffffffffffffffffffffffffffffffffffffffffffffff19166020820180517bffffffffffffffffffffffffffffffffffffffffffffffffffffffff83818316178352505050509150604051602081016040526020818451602086018d5afa60203d1460018214161561463d57815192505b50507f1626ba7e000000000000000000000000000000000000000000000000000000008114935061468c565b88600160a060020a031661467f898989896153ae565b600160a060020a03161493505b50505095945050505050565b808210918202600192909203020190565b6146c0600080516020615c53833981519152613831565b15610f9b576040805160e560020a62461bcd02815260206004820152601260248201527f434f4e54524143545f49535f4143544956450000000000000000000000000000604482015290519081900360640190fd5b61471d615aaa565b81614728574361472b565b60005b63ffffffff1683525090919050565b60008080614755600080516020615bf3833981519152613831565b915061476e600080516020615c33833981519152613831565b90508082101561477a57fe5b611bf08183036801bc16d674ec80000063ffffffff613a1d16565b604080517f636174616c6973742e56657273696f6e65642e636f6e7472616374566572736981527f6f6e000000000000000000000000000000000000000000000000000000000000602082015290519081900360220190206147fd908263ffffffff6137e916565b6040805182815290517ffddcded6b4f4730c226821172046b48372d3cd963c159701ae1b7c3bcac541bb9181900360200190a150565b600160a060020a0381161515614893576040805160e560020a62461bcd02815260206004820152600f60248201527f5a45524f5f454950373132424143450000000000000000000000000000000000604482015290519081900360640190fd5b600061489d6127b7565b600160a060020a0316146148fb576040805160e560020a62461bcd02815260206004820152601660248201527f454950373132424143455f414c52454144595f53455400000000000000000000604482015290519081900360640190fd5b604080517f636174616c6973742e424143455065726d69742e6569703731324241434500008152905190819003601e01902061493d908263ffffffff6137e916565b60408051600160a060020a038316815290517fa8aeefeee18c5fa9b1b10e0f572c4e895f51a7c0087ba4a1dc2467dd5396ae399181900360200190a150565b61498861dead82612e09565b50612fef61dead82612ff2565b61499d615af0565b6149a56126f8565b600160a060020a031663f2d1c2406040518163ffffffff1660e01b815260040160e060405180830381600087803b1580156149df57600080fd5b505af11580156149f3573d6000803e3d6000fd5b505050506040513d60e0811015614a0957600080fd5b50805160208083015160408085015160608087015160808089015160a0808b015160c09b8c0151600160a060020a039081169c8e019c909c528b16908c01528916908a015287169088015285169086015283169084015216815290565b60008080614a81600080516020615bf3833981519152613831565b915081851115614adb576040805160e560020a62461bcd02815260206004820152601760248201527f5245504f525445445f4d4f52455f4445504f5349544544000000000000000000604482015290519081900360640190fd5b85851015614b33576040805160e560020a62461bcd02815260206004820152601860248201527f5245504f525445445f4c4553535f56414c494441544f52530000000000000000604482015290519081900360640190fd5b85851115614b5957614b59600080516020615c338339815191528663ffffffff6137e916565b50848403614b74600080516020615c13833981519152613831565b9250614b9f614b92826801bc16d674ec80000063ffffffff613a1d16565b849063ffffffff612f3116565b9250614bbf600080516020615c138339815191528563ffffffff6137e916565b6040805187815260208101879052815189927f1252331d4f3ee8a9f0a3484c4c2fb059c70a047b5dc5482a3ee6415f742d9f2e928290030190a25050949350505050565b8260400151600160a060020a0316638024cca183602001518360200151856060015186608001518760a001518860c0015188600001518a604001516040518963ffffffff1660e01b81526004018089815260200188815260200187815260200186815260200185815260200184815260200183815260200182815260200198505050505050505050600060405180830381600087803b158015614ca557600080fd5b505af1158015614cb9573d6000803e3d6000fd5b50505050505050565b60008060008460800151905080600160a060020a031663b187bd266040518163ffffffff1660e01b8152600401602060405180830381600087803b158015614d0957600080fd5b505af1158015614d1d573d6000803e3d6000fd5b505050506040513d6020811015614d3357600080fd5b50511515614e99578460400151600160a060020a0316636a84f2fd8560e0015160018760e001515103815181101515614d6857fe5b9060200190602002015186600001516040518363ffffffff1660e01b81526004018083815260200182815260200192505050600060405180830381600087803b158015614db457600080fd5b505af1158015614dc8573d6000803e3d6000fd5b5050505080600160a060020a031663a52e9c9f8560e001518661010001516040518363ffffffff1660e01b81526004018080602001838152602001828103825284818151815260200191508051906020019060200280838360005b83811015614e3b578181015183820152602001614e23565b5050505090500193505050506040805180830381600087803b158015614e6057600080fd5b505af1158015614e74573d6000803e3d6000fd5b505050506040513d6040811015614e8a57600080fd5b50805160209091015190935091505b509250929050565b6000806000861115614f24578760200151600160a060020a0316639342c8f4876040518263ffffffff1660e01b815260040180828152602001915050602060405180830381600087803b158015614ef757600080fd5b505af1158015614f0b573d6000803e3d6000fd5b505050506040513d6020811015614f2157600080fd5b50505b6000871115614f90578760a00151600160a060020a0316633194528a886040518263ffffffff1660e01b815260040180828152602001915050600060405180830381600087803b158015614f7757600080fd5b505af1158015614f8b573d6000803e3d6000fd5b505050505b6000831115615023578760800151915081600160a060020a031663b6013cef84876001895103815181101515614fc257fe5b90602001906020020151876040518463ffffffff1660e01b815260040180838152602001828152602001925050506000604051808303818588803b15801561500957600080fd5b505af115801561501d573d6000803e3d6000fd5b50505050505b615037836124ad89610efd8a610efd612f06565b905061504281612fbf565b5050505050505050565b6000808080600160a060020a03861615156150b1576040805160e560020a62461bcd02815260206004820152601360248201527f4255524e5f46524f4d5f5a45524f5f4144445200000000000000000000000000604482015290519081900360640190fd5b600160a060020a038616600090815260208190526040902054925082851115615124576040805160e560020a62461bcd02815260206004820152601060248201527f42414c414e43455f455843454544454400000000000000000000000000000000604482015290519081900360640190fd5b61512d85612b15565b915061513b856124ad6139df565b604080517f636174616c6973742e624143452e746f74616c5368617265730000000000000081529051908190036019019020909450615180908563ffffffff6137e916565b615190838663ffffffff613e5a16565b600160a060020a0387166000908152602081905260409020556151b285612b15565b60408051848152602081018390528082018890529051919250600160a060020a038816917f8b2a1e1ad5e0578c3dd82494156e985dade827a87c573b5c1c7716a32162ad649181900360600190a250505092915050565b6000808061521d868663ffffffff612f3116565b9150866020015182111561525c57866020015182039050615259876040015188606001516152548785612f3190919063ffffffff16565b615518565b92505b5050949350505050565b6000806152716139df565b915061527b6132e3565b9050600160a060020a038316156153305782600160a060020a03166389136ec0866000015187602001518760600151886040015187878b61010001516040518863ffffffff1660e01b815260040180888152602001878152602001868152602001858152602001848152602001838152602001828152602001975050505050505050600060405180830381600087803b15801561531757600080fd5b505af115801561532b573d6000803e3d6000fd5b505050505b84516020808701516060808801516040808a01516101008b0151825195865295850192909252838101919091529082018690526080820185905260a082019290925290517fff08c3ef606d198e316ef5b822193c489965899eb4e3c248cea1a4626c3eda509181900360c00190a2935093915050565b6000903b1190565b6000807f7fffffffffffffffffffffffffffffff5d576e7357a4501ddfe92f46681b20a083821c1115615451576040805160e560020a62461bcd02815260206004820152602260248201527f45434453413a20696e76616c6964207369676e6174757265202773272076616c60448201527f7565000000000000000000000000000000000000000000000000000000000000606482015290519081900360840190fd5b60408051600080825260208083018085528a905260ff8916838501526060830188905260808301879052925160019360a0808501949193601f19840193928390039091019190865af11580156154ab573d6000803e3d6000fd5b5050604051601f190151915050600160a060020a0381161515612d61576040805160e560020a62461bcd02815260206004820152601860248201527f45434453413a20696e76616c6964207369676e61747572650000000000000000604482015290519081900360640190fd5b6000615522615b79565b60008060606000615531615707565b94509450600085606001516001606060020a031611156156fb5761555b898863ffffffff612f3116565b92506155c961559961558387606001516001606060020a03168a613a1d90919063ffffffff16565b60808801516124ad90879063ffffffff613a1d16565b6118238a6155bd89606001516001606060020a03168c613a1d90919063ffffffff16565b9063ffffffff613a1d16565b95506155d53087612e09565b506155f78560000151866040015187606001516001606060020a031689615963565b909250905061561461560f878363ffffffff613e5a16565b615a89565b83600160a060020a031663af1240978660200151846040518363ffffffff1660e01b8152600401808060200180602001838103835285818151815260200191508051906020019060200280838360005b8381101561567c578181015183820152602001615664565b50505050905001838103825284818151815260200191508051906020019060200280838360005b838110156156bb5781810151838201526020016156a3565b50505050905001945050505050600060405180830381600087803b1580156156e257600080fd5b505af11580156156f6573d6000803e3d6000fd5b505050505b50505050509392505050565b61570f615b79565b6000615719613962565b905080600160a060020a031663ba21ccae6040518163ffffffff1660e01b8152600401600060405180830381600087803b15801561575657600080fd5b505af115801561576a573d6000803e3d6000fd5b505050506040513d6000823e601f3d908101601f1916820160405260a081101561579357600080fd5b8101908080516401000000008111156157ab57600080fd5b820160208101848111156157be57600080fd5b81518560208202830111640100000000821117156157db57600080fd5b505092919060200180516401000000008111156157f757600080fd5b8201602081018481111561580a57600080fd5b815185602082028301116401000000008211171561582757600080fd5b5050929190602001805164010000000081111561584357600080fd5b8201602081018481111561585657600080fd5b815185602082028301116401000000008211171561587357600080fd5b505060208083015160409384015160808b01526001606060020a031660608a0152918801819052908701939093525050818452519051146158fe576040805160e560020a62461bcd02815260206004820152601660248201527f57524f4e475f524543495049454e54535f494e50555400000000000000000000604482015290519081900360640190fd5b6040820151516020830151511461595f576040805160e560020a62461bcd02815260206004820152601660248201527f57524f4e475f4d4f44554c455f4944535f494e50555400000000000000000000604482015290519081900360640190fd5b9091565b606060008060008751604051908082528060200260200182016040528015615995578160200160208202803883390190505b5093505b8751821015615a7e57600087838151811015156159b257fe5b906020019060200201516001606060020a03161115615a7357615a008661182389858151811015156159e057fe5b6020908102909101015188906001606060020a031663ffffffff613a1d16565b9050808483815181101515615a1157fe5b602090810290910101528751615a3f9030908a9085908110615a2f57fe5b9060200190602002015183613b68565b615a608883815181101515615a5057fe5b9060200190602002015182612ff2565b615a70838263ffffffff612f3116565b92505b816001019150615999565b505094509492505050565b6000615a936137ed565b9050615aa0308284613b68565b6113ce8183612ff2565b60408051608081018252600080825260208201819052918101829052606081019190915290565b6080604051908101604052806004906020820280388339509192915050565b6040805160e081018252600080825260208201819052918101829052606081018290526080810182905260a0810182905260c081019190915290565b610120604051908101604052806000815260200160008152602001600081526020016000815260200160008152602001600081526020016000815260200160008152602001600081525090565b60a06040519081016040528060608152602001606081526020016060815260200160006001606060020a031681526020016000815250905600a42eee1333c0758ba72be38e728b6dadb32ea767de5b4ddbaea1dae85b1b051f2ac4d417d24c70eeb7ae6bacf47d2e95c6f8b69e6d6d7f68c63eb7e97785dd6988b5db98ab172fbd866e06aa9505470a0f3d8a522cf6c1de203b939b518a647fedd4d9e8b1b678bffca4c023a5d349ab9879eba62d00f79f0e8cdbcd75964289eeb2882049a86d177014c5163196e50a066d763111bc283004740e8144cb259dd07ca6a331cef5bfbe6bd74c0b79a0f979659b9b19ce2618675c001cf76a5352a165627a7a723058200e244086a7f265203943943ec84cdb4dd9b492d28bd01f87bfce4941eb408d2a0029ebb05b386a8d34882b8711d156f463690983dc47815980fb82aeeff1aa43579e",
  "linkReferences": {},
  "deployedLinkReferences": {}
}