{
  "_format": "hh-sol-artifact-1",
  "contractName": "CallsScript",
  "sourceName": "@aragon/os/contracts/evmscript/executors/CallsScript.sol",
  "abi": [
    {
      "constant": true,
      "inputs": [],
      "name": "hasInitialized",
      "outputs": [
        {
          "name": "",
          "type": "bool"
        }
      ],
      "payable": false,
      "stateMutability": "view",
      "type": "function"
    },
    {
      "constant": false,
      "inputs": [
        {
          "name": "_script",
          "type": "bytes"
        },
        {
          "name": "",
          "type": "bytes"
        },
        {
          "name": "_blacklist",
          "type": "address[]"
        }
      ],
      "name": "execScript",
      "outputs": [
        {
          "name": "",
          "type": "bytes"
        }
      ],
      "payable": false,
      "stateMutability": "nonpayable",
      "type": "function"
    },
    {
      "constant": true,
      "inputs": [],
      "name": "executorType",
      "outputs": [
        {
          "name": "",
          "type": "bytes32"
        }
      ],
      "payable": false,
      "stateMutability": "pure",
      "type": "function"
    },
    {
      "constant": true,
      "inputs": [],
      "name": "getInitializationBlock",
      "outputs": [
        {
          "name": "",
          "type": "uint256"
        }
      ],
      "payable": false,
      "stateMutability": "view",
      "type": "function"
    },
    {
      "constant": true,
      "inputs": [],
      "name": "isPetrified",
      "outputs": [
        {
          "name": "",
          "type": "bool"
        }
      ],
      "payable": false,
      "stateMutability": "view",
      "type": "function"
    },
    {
      "anonymous": false,
      "inputs": [
        {
          "indexed": true,
          "name": "sender",
          "type": "address"
        },
        {
          "indexed": true,
          "name": "src",
          "type": "address"
        },
        {
          "indexed": true,
          "name": "dst",
          "type": "address"
        }
      ],
      "name": "LogScriptCall",
      "type": "event"
    }
  ],
  "bytecode": "0x608060405261001261001760201b60201c565b610219565b61002561011160201b60201c565b60408051808201909152601881527f494e49545f414c52454144595f494e495449414c495a45440000000000000000602082015290156100fd576040517f08c379a00000000000000000000000000000000000000000000000000000000081526004018080602001828103825283818151815260200191508051906020019080838360005b838110156100c25781810151838201526020016100aa565b50505050905090810190601f1680156100ef5780820380516001836020036101000a031916815260200191505b509250505060405180910390fd5b5061010f60001961014060201b60201c565b565b600061013b6000805160206109b083398151915260001b6000191661021160201b61074c1760201c565b905090565b61014e61011160201b60201c565b60408051808201909152601881527f494e49545f414c52454144595f494e495449414c495a45440000000000000000602082015290156101ea576040517f08c379a0000000000000000000000000000000000000000000000000000000008152600401808060200182810382528381815181526020019150805190602001908083836000838110156100c25781810151838201526020016100aa565b5061020e6000805160206109b083398151915282610215602090811b61075817901c565b50565b5490565b9055565b610788806102286000396000f3006080604052600436106100505760003560e01c63ffffffff1680630803fac014610055578063279cea351461007e5780638333d9b21461012b5780638b3dd74914610152578063de4796ed14610167575b600080fd5b34801561006157600080fd5b5061006a61017c565b604080519115158252519081900360200190f35b34801561008a57600080fd5b506100b660246004803582810192908201359181358083019290820135916044359182019101356101a5565b6040805160208082528351818301528351919283929083019185019080838360005b838110156100f05781810151838201526020016100d8565b50505050905090810190601f16801561011d5780820380516001836020036101000a031916815260200191505b509250505060405180910390f35b34801561013757600080fd5b5061014061064d565b60408051918252519081900360200190f35b34801561015e57600080fd5b50610140610671565b34801561017357600080fd5b5061006a6106a1565b600080610187610671565b9050801580159061019f57508061019c6106b4565b10155b91505090565b606060008060008060008060006101ba61017c565b60408051808201909152601481527f494e49545f4e4f545f494e495449414c495a4544000000000000000000000000602082015290151561027c5760405160e560020a62461bcd0281526004018080602001828103825283818151815260200191508051906020019080838360005b83811015610241578181015183820152602001610229565b50505050905090810190601f16801561026e5780820380516001836020036101000a031916815260200191505b509250505060405180910390fd5b50600496505b8c87101561063c5760408051808201909152601781527f45564d43414c4c535f494e56414c49445f4c454e47544800000000000000000060208201526018888f0310156103145760405160e560020a62461bcd02815260040180806020018281038252838181518152602001915080519060200190808383600083811015610241578181015183820152602001610229565b50610358878f8f8080601f01602080910402602001604051908101604052809392919081815260200183838082843750949594505063ffffffff6106b81692505050565b9550600094505b888510156104535789898681811061037357fe5b9050602002013573ffffffffffffffffffffffffffffffffffffffff1673ffffffffffffffffffffffffffffffffffffffff168673ffffffffffffffffffffffffffffffffffffffff1614156040805190810160405280601981526020017f45564d43414c4c535f424c41434b4c49535445445f43414c4c000000000000008152509015156104475760405160e560020a62461bcd02815260040180806020018281038252838181518152602001915080519060200190808383600083811015610241578181015183820152602001610229565b5060019094019361035f565b60405173ffffffffffffffffffffffffffffffffffffffff871690309033907f9dcff9d94fbfdb4622d11edb383005f95e78efb446c72d92f8e615c6025c470390600090a46104de876014018f8f8080601f01602080910402602001604051908101604052809392919081815260200183838082843750949594505063ffffffff6106ed1692505050565b63ffffffff169350866014016004019250610532838f8f8080601f01602080910402602001604051908101604052809392919081815260200183838082843750949594505063ffffffff6107451692505050565b60408051808201909152601781527f45564d43414c4c535f494e56414c49445f4c454e475448000000000000000000602082015284860198509092508d8811156105c15760405160e560020a62461bcd02815260040180806020018281038252838181518152602001915080519060200190808383600083811015610241578181015183820152602001610229565b50600080858460008a6113885a03f190508080156105de57610636565b6040513d80156105f1573d6000833e3d82fd5b60e560020a62461bcd02825260206004830152601660248301527f45564d43414c4c535f43414c4c5f5245564552544544000000000000000000006044830152606482fd5b50610282565b505050505050509695505050505050565b7f2dc858a00f3e417be1394b87c07158e989ec681ce8cc68a9093680ac1a87030290565b600061069c7febb05b386a8d34882b8711d156f463690983dc47815980fb82aeeff1aa43579e61074c565b905090565b60006000196106ae610671565b14905090565b4390565b6000806106c58484610750565b6c010000000000000000000000006bffffffffffffffffffffffff1990911604949350505050565b6000806106fa8484610750565b7c01000000000000000000000000000000000000000000000000000000007fffffffff0000000000000000000000000000000000000000000000000000000090911604949350505050565b0160200190565b5490565b016020015190565b90555600a165627a7a723058208f73319ac016da9c3cfe2edf91407f310f54a1d3f644607b550d604524a39bc70029ebb05b386a8d34882b8711d156f463690983dc47815980fb82aeeff1aa43579e",
  "linkReferences": {},
  "deployedLinkReferences": {}
}